:10000000A038002021350000618D0100F53400008A
:10001000F5340000F5340000F53400000000000065
:100020000000000000000000000000000932000095
:10003000F534000000000000B5310000F534000088
:10004000B9320000C9130100B9320000B932000012
:10005000B9320000B9320000B9320000B9320000F4
:10006000B9320000B9320000B9320000B9320000E4
:10007000B9320000B9320000B9320000B9320000D4
:10008000B9320000B9320000B9320000B9320000C4
:10009000B9320000B9320000B9320000B9320000B4
:1000A000B9320000B9320000B9320000B9320000A4
:1000B000B9320000B9320000B9320000B932000094
:1000C000B9320000B9320000B9320000B932000084
:0C00D000B9320000B9320000B932000063
:0400DC00FFFFFFFF24
:1000E00081F0004102E000BF83F0004330B54FEAE9
:1000F00041044FEA430594EA050F08BF90EA020F56
:100100001FBF54EA000C55EA020C7FEA645C7FEAE8
:10011000655C00F0E2804FEA5454D4EB5555B8BF0B
:100120006D420CDD2C4480EA020281EA030382EA7C
:10013000000083EA010180EA020281EA0303362D0E
:1001400088BF30BD11F0004F4FEA01314FF4801CE1
:100150004CEA113102D0404261EB410113F0004FF3
:100160004FEA03334CEA133302D0524263EB4303AA
:1001700094EA050F00F0A780A4F10104D5F1200E48
:100180000DDB02FA0EFC22FA05F2801841F10001A3
:1001900003FA0EF2801843FA05F359410EE0A5F177
:1001A00020050EF1200E012A03FA0EFC28BF4CF0A8
:1001B000020C43FA05F3C01851EBE37101F000455E
:1001C00007D54FF0000EDCF1000C7EEB00006EEB6B
:1001D0000101B1F5801F1BD3B1F5001F0CD34908F5
:1001E0005FEA30004FEA3C0C04F101044FEA44524C
:1001F00012F5800F80F09A80BCF1004F08BF5FEAD3
:10020000500C50F1000041EB045141EA050130BDB2
:100210005FEA4C0C404141EB0101013C28BFB1F5C4
:10022000801FE9D291F0000F04BF01460020B1FA0F
:1002300081F308BF2033A3F10B03B3F120020CDAE2
:100240000C3208DD02F1140CC2F10C0201FA0CF0C0
:1002500021FA02F10CE002F11402D8BFC2F1200C25
:1002600001FA02F120FA0CFCDCBF41EA0C019040DB
:10027000E41AA2BF01EB0451294330BD6FEA040424
:100280001F3C1CDA0C340EDC04F11404C4F120020F
:1002900020FA04F001FA02F340EA030021FA04F321
:1002A00045EA030130BDC4F10C04C4F1200220FA78
:1002B00002F001FA04F340EA0300294630BD21FAB6
:1002C00004F0294630BD94F0000F83F4801306BF7C
:1002D00081F480110134013D4EE77FEA645C18BF70
:1002E0007FEA655C29D094EA050F08BF90EA020F07
:1002F00005D054EA000C04BF1946104630BD91EAFF
:10030000030F1EBF0021002030BD5FEA545C05D101
:100310004000494128BF41F0004130BD14F5800440
:100320003CBF01F5801130BD01F0004545F0FE41B4
:1003300041F470014FF0000030BD7FEA645C1ABFE9
:10034000194610467FEA655C1CBF0B46024650EA20
:10035000013406BF52EA033591EA030F41F400214C
:1003600030BD00BF90F0000F04BF0021704730B5D2
:100370004FF4806404F132044FF000054FF00001A7
:1003800050E700BF90F0000F04BF0021704730B568
:100390004FF4806404F1320410F0004548BF40423D
:1003A0004FF000013EE700BF42004FEAE2014FEA92
:1003B00031014FEA02701FBF12F07F4393F07F4F6D
:1003C00081F06051704732F07F4208BF704793F070
:1003D0007F4F04BF41F40021704730B54FF4607483
:1003E00001F0004521F000411CE700BF50EA010286
:1003F00008BF704730B54FF000050AE050EA01022F
:1004000008BF704730B511F0004502D5404261EB9E
:1004100041014FF4806404F132045FEA915C3FF4DF
:10042000D8AE4FF003025FEADC0C18BF03325FEA7C
:10043000DC0C18BF033202EBDC02C2F1200300FA2D
:1004400003FC20FA02F001FA03FE40EA0E0021FA52
:1004500002F11444BDE600BF70B54FF0FF0C4CF440
:10046000E06C1CEA11541DBF1CEA135594EA0C0FF2
:1004700095EA0C0F00F0DEF82C4481EA030621EA2D
:100480004C5123EA4C5350EA013518BF52EA033568
:1004900041F4801143F4801338D0A0FB02CE4FF01A
:1004A0000005E1FB02E506F00042E0FB03E54FF04A
:1004B0000006E1FB03569CF0000F18BF4EF0010E42
:1004C000A4F1FF04B6F5007F64F5407404D25FEA3E
:1004D0004E0E6D4146EB060642EAC62141EA5551F1
:1004E0004FEAC52040EA5E504FEACE2EB4F1FD0C33
:1004F00088BFBCF5E06F1ED8BEF1004F08BF5FEAB1
:10050000500E50F1000041EB045170BD06F0004662
:1005100046EA010140EA020081EA0301B4EB5C040F
:10052000C2BFD4EB0C0541EA045170BD41F4801107
:100530004FF0000E013C00F3AB8014F1360FDEBF2C
:10054000002001F0004170BDC4F10004203C35DA08
:100550000C341BDC04F11404C4F1200500FA05F38B
:1005600020FA04F001FA05F240EA020001F000422C
:1005700021F0004110EBD37021FA04F642EB0601A2
:100580005EEA430E08BF20EAD37070BDC4F10C04CC
:10059000C4F1200500FA04F320FA05F001FA04F290
:1005A00040EA020001F0004110EBD37041F100017C
:1005B0005EEA430E08BF20EAD37070BDC4F1200587
:1005C00000FA05F24EEA020E20FA04F301FA05F2EF
:1005D00043EA020321FA04F001F0004121FA04F297
:1005E00020EA020000EBD3705EEA430E08BF20EA67
:1005F000D37070BD94F0000F0FD101F000464000A1
:1006000041EB010111F4801F08BF013CF7D041EA22
:10061000060195F0000F18BF704703F00046520026
:1006200043EB030313F4801F08BF013DF7D043EAF7
:100630000603704794EA0C0F0CEA135518BF95EAAD
:100640000C0F0CD050EA410618BF52EA4306D1D134
:1006500081EA030101F000414FF0000070BD50EA53
:10066000410606BF1046194652EA430619D094EADD
:100670000C0F02D150EA013613D195EA0C0F05D1C7
:1006800052EA03361CBF104619460AD181EA03011B
:1006900001F0004141F0FE4141F470014FF00000D3
:1006A00070BD41F0FE4141F4780170BD70B54FF06E
:1006B000FF0C4CF4E06C1CEA11541DBF1CEA1355EE
:1006C00094EA0C0F95EA0C0F00F0A7F8A4EB0504D0
:1006D00081EA030E52EA03354FEA013100F08880C7
:1006E0004FEA03334FF0805545EA131343EA126390
:1006F0004FEA022245EA111545EA10654FEA002645
:100700000EF000419D4208BF964244F1FD0404F5FD
:10071000407402D25B084FEA3202B61A65EB030559
:100720005B084FEA32024FF480104FF4002CB6EB16
:10073000020E75EB030E22BFB61A754640EA0C0096
:100740005B084FEA3202B6EB020E75EB030E22BFD6
:10075000B61A754640EA5C005B084FEA3202B6EB17
:10076000020E75EB030E22BFB61A754640EA9C00D6
:100770005B084FEA3202B6EB020E75EB030E22BFA6
:10078000B61A754640EADC0055EA060E18D04FEA64
:10079000051545EA16754FEA06164FEAC30343EA04
:1007A00052734FEAC2025FEA1C1CC0D111F4801FD1
:1007B0000BD141EA00014FF000004FF0004CB6E7CA
:1007C00011F4801F04BF01430020B4F1FD0C88BF69
:1007D000BCF5E06F3FF6AFAEB5EB030C04BFB6EB74
:1007E000020C5FEA500C50F1000041EB045170BD67
:1007F0000EF0004E4EEA113114EB5C04C2BFD4EB94
:100800000C0541EA045170BD41F480114FF0000E17
:10081000013C90E645EA060E8DE60CEA135594EA93
:100820000C0F08BF95EA0C0F3FF43BAF94EA0C0F96
:100830000AD150EA01347FF434AF95EA0C0F7FF40B
:1008400025AF104619462CE795EA0C0F06D152EA5F
:1008500003353FF4FDAE1046194622E750EA410643
:1008600018BF52EA43067FF4C5AE50EA41047FF454
:100870000DAF52EA43057FF4EBAE12E753B94AB924
:10088000002908BF00281CBF4FF0FF314FF0FF3098
:1008900000F00CB8ADF1080C6DE904CE00F008F8DA
:1008A000DDF804E0DDE9022304B07047704700BFC3
:1008B0002DE9F04F07468C460846099E15463C46F2
:1008C0001946002B40F0C6808242B2FA82F746D920
:1008D0004FB1C7F1200E24FA0EFE00FA07F3BD4017
:1008E0004EEA030CBC404FEA15481FFA85FEBCFBDC
:1008F000F8F9220C08FB19C309FB0EFA42EA03437C
:100900009A4528D9EB1809F1FF3004D29A4502D94B
:10091000A9F102002B44A3EB0A03A4B2B3FBF8F243
:1009200008FB123302FB0EFE44EA0344A64514D929
:100930002C1902F1FF3303D2A64501D9931E2C4492
:10094000A4EB0E0443EA00401EB1FC4000233460D7
:100950007360BDE8F08F4846DDE71346F0E702B963
:10096000FFDE87BB831A01214FEA154EAAB2B3FB03
:10097000FEFC200C0EFB1C330CFB02F840EA034388
:10098000984563D9EB180CF1FF3004D2984502D991
:10099000ACF102002B44A3EB0803A4B2B3FBFEFCB2
:1009A0000EFB1C330CFB02F244EA0344A2424FD973
:1009B0002C190CF1FF3304D2A24202D9ACF102038C
:1009C0002C44A41ABEE7C7F1200C20FA0CF800FA58
:1009D00007F324FA0CFCBD404CEA03024FEA154E23
:1009E000ABB2B8FBFEFC110C0EFB1C800CFB03F938
:1009F00041EA0040814504FA07F423D928180CF194
:100A0000FF3104D2814502D9ACF102012844A0EBA8
:100A1000090092B2B0FBFEFC0EFB1C000CFB03F8BD
:100A200042EA004398450FD9EB180CF1FF3204D28B
:100A3000984502D9ACF102022B44A3EB080342EA29
:100A4000014191E76146E2E76246F6E76046A2E7C8
:100A50006346B6E7834205D90EB1C6E900700021AE
:100A6000084676E7B3FA83F181B9834201D3BA42EB
:100A70000AD8BC1A60EB030301209C46002E68D004
:100A8000C6E9004C002164E70846F7E7C1F1200CF5
:100A90008B4022FA0CF41C4302FA01F500FA01F330
:100AA00027FA0CF220FA0CFB4FEA14491343BBFB64
:100AB000F9F81FFA84FE09FB18BB1A0C08FB0EFAA2
:100AC00042EA0B42924507FA01F73ED9A21808F113
:100AD000FF3004D2924502D9A8F102002244A2EBD1
:100AE0000A029BB2B2FBF9F809FB182208FB0EFEC2
:100AF00043EA024296452AD9A21808F1FF3304D2EC
:100B0000964502D9A8F10203224443EA0040A0FB23
:100B10000593A2EB0E029A42CE46984602D306D126
:100B20004F4504D2B9EB050E63EB0408013886B1DA
:100B3000B7EB0E0362EB080707FA0CFCCB404CEA5C
:100B40000303CF40C6E900379CE74046C7E743466A
:100B5000DBE73146FDE600002DE9F04F8DB0684837
:100B600016F02EF9054610B9664817F0FDFA6648EA
:100B700016F026F9044670B9644817F0F5FA00201B
:100B800003F028FD8046F0B1014661480DB0BDE894
:100B9000F04F17F0E9BA014602685E4817F0E4FA30
:100BA00007A920461AF0EBFC0028E8D19DF8213077
:100BB0000093BDF81C20BDF81E309DF8201056484B
:100BC00017F0D2FADBE75548554F04F05DFC554865
:100BD00017F0CAFA0FCF07AE0FC63B683360524911
:100BE000CDF800804346022207A804F0D5F801465C
:100BF00028B14E4817F0B8FA0DB0BDE8F08F4C4858
:100C0000DFF830A1DFF830B117F0AEFA0FF2E809E3
:100C1000D9E90089AB683921DB6828469847002864
:100C200025DA464817F0A0FA20461AF0E8FC00281A
:100C300017DBA3683921DB682046984788B920462E
:100C40001AF09AFC03AA1B21204617F048FA05AABD
:100C50001C21204617F043FA059A0399384817F0EB
:100C600083FA00214FF4203016F0A0FFD2E703AA48
:100C70000D21284617F033FA002801DA3148D1E770
:100C800005AA1021284617F02AFA002801DA2E4872
:100C9000C8E70498FFF776FB42464B46FFF706FD90
:100CA000064603980F46FFF76DFB02460B4630469B
:100CB0003946FFF71BFA02460B465846CAE900239D
:100CC00017F052FA0698FFF75DFB42464B46FFF7D6
:100CD000EDFC064605980F46FFF754FB02460B460F
:100CE00030463946FFF702FA02460B461748CAE972
:100CF000022317F039FA97E70000000080842E41A4
:100D0000A4DD0100ABDD0100C8DD0100CFDD010085
:100D100032DE0100ECDD010006DE01008001002072
:100D200010CA010052DE010088CA010066DE01001F
:100D30008CDE0100D80900200BDF0100A2DE0100DB
:100D400039DF0100BEDE0100E6DE01001FDF010029
:100D50002DE9F041D0E90B35866A5C193034A642A2
:100D60008846174618D81C4DA3FB050118A3D3E9E4
:100D70000023FFF783FDA41B20F07F40C8F800008C
:100D800013A3D3E90023A4FB0501FFF777FD20F0AF
:100D90007F403860BDE8F0810F4C0DA3D3E90023FC
:100DA000A6FB0401FFF76AFD05F1300120F07F404A
:100DB000C8F8000006A3D3E90023A1FB0401FFF754
:100DC0005DFD20F07F403860BDE8F081AFF300802A
:100DD0008D49FD1A0700000000CA9A3B0000000080
:100DE0002DE9F04FAB4C8FB094F86A20002800F04A
:100DF000398112F0010740F0B78194F82500FF23F4
:100E000000F0030084F826300FF082FF94F86A00A7
:100E100041072DD494F8292094F8353004EB820250
:100E200004EB8303D2F82C80D3F83890B8F1000F8C
:100E300011D0984841460AF043FB98F800305A0612
:100E400005D5062105F002FF002800F0C981914870
:100E500049460AF035FB98F8003013F00E0F40F0C9
:100E6000EE80236A9BB10C2738460FB0BDE8F08FA7
:100E70003A4604F16B01C0F3C00010F0AFF8FF2850
:100E800084F82600C6D038460FF05CFFC2E709F0B0
:100E900005FA8246002800F0AD8109F00BFA83467E
:100EA000002800F0AC810BF0F9F90546002800F0AD
:100EB000A381406F4FF6FF732B8505F11C030028BB
:100EC00000F0948105F1680205F164010B9305F0CF
:100ED000C9FEB5F86020704B22F4EF6222F00702E1
:100EE00042F4887242F00102A5F8602095F839209A
:100EF00002F03F0262F07F0285F8392095F87A20EF
:100F000022F0070285F87A2095F83C2022F00702AB
:100F100085F83C2095F8D82022F0070285F8D820E3
:100F20004FF01B120026C5E916230622A5F8C020A3
:100F3000C5E912666E67A5F87860EE852E6385F8C0
:100F40003B602E65A5F8C460A5F8C860A5F8D06020
:100F5000A5F8CC60A5F8E46085F8E660C5F80861FE
:100F6000A5F80C61A5F8206108F080FC95F83A21FD
:100F7000A5F8386122F0030285F83A2195F87A2025
:100F8000A5F8406122F0180285F87A2095F86621CC
:100F900085F8436122F0070285F8662195F88621DD
:100FA000C5F844A166F3451285F8862195F8AE216F
:100FB000A5F8646166F3C302C5E94A010021002077
:100FC000C5E94C0185F8AE2185F8D960A5F88461A2
:100FD000C5F8E060A5F8AC61A5F8B8610BF0A4FC19
:100FE000A5F8D2000BF0A6FCD5F8BC112B4AA5F849
:100FF000D4000A40C5F8BC210BF0A2FC95F8C02132
:1010000060F3020285F8C0210BF0A0FC0B9B236269
:1010100095F8C031C5F8C46160F3C503C4E918ABE5
:10102000C5E97466C5E97266C5E905662E70ED61AD
:1010300085F8C03110F016FF002840F0D38094F8F6
:1010400024300121C3F342030DF133008DF8333016
:1010500005F088FF20BB236A002B3FF404AF09F0A2
:1010600005FF00E712F001073FF4FEAE236A5BB113
:1010700093F8202042F0020283F82020236A93F89C
:101080002030D8073FF5EFAE0FB0BDE8F04F09F0C4
:101090002FBF00BF201C0020480148010000FFF6C0
:1010A00099F801100246404609F0C6FF5849B4F8C5
:1010B000689031230025A360A0FB010152A3D3E96E
:1010C0000023C4E9055525706560E560FFF7D6FB90
:1010D000206107F04BF80646B9F1000F08D198F8E7
:1010E000005005F00F05A5F10105B5FA85F56D096C
:1010F00094F82400236965F3000010F0010584F8DA
:10110000240036D00020434ADFF80C9104930225D6
:101110000DF13408019305920321CDE902000694F4
:1011200033460090CDF82080CDF81C902A460D95CE
:1011300006F050FF414609F041F900288BD1374AAB
:1011400005924AF2D8320092CDE90300CDE90100C0
:10115000CDF81C90CDF8208006943346012203215F
:101160000D9506F037FF2EE0002738460FB0BDE89A
:10117000F08F2B4A2B48049303F24713A9FB00017D
:10118000069402951360912303FB0911224B0793E8
:10119000204B05934FF6FF7309924FF0020903931A
:1011A0000DF1340818A3D3E90023CDF83490CDF81D
:1011B0002080FFF763FB3346CDE900504A462846BE
:1011C000032106F0B1FE414609F0F8F800287FF44B
:1011D00042AF94F86A3043F0010384F86A3043E682
:1011E000122741E609F042FE03273DE605F16C00B7
:1011F000686767E6072737E6584609F061F8504602
:1012000009F052F807272FE68D49FD1A0700000064
:1012100000CA9A3BA9B000000D990000FDAB000088
:10122000941C0020002AE78470B590F824308AB01E
:10123000C3F342030D46044601210DF12300164677
:101240008DF8233005F08EFE71780246284609F0AD
:10125000F3FE1D491AA3D3E90023A0FB0101FFF708
:101260000DFB23699842054620D21B1A00220192E9
:10127000164A0293164BA21AA3FB023202219209CC
:1012800000230A4409AE099112490591CDE90333BF
:101290000321D2B206960093184606F00DFF3146A0
:1012A00009F08CF848B925610AB070BD02D9C21A9C
:1012B0000023DCE700200AB070BD0C200AB070BD2E
:1012C0008D49FD1A0700000000CA9A3B201C00202F
:1012D00009CB3D8D0D9900002DE9F04FC38D468E51
:1012E0001E4490F80E31B6B2314413F007038BB0B0
:1012F00004461FFA81F940F0A381B0F8E870A9EB29
:1013000007011FFA81F9090400F10C82904690F957
:101310003920002AC0F2358194F8E43084F8E530B1
:1013200094F8842194F8853194F80C1184F80D1107
:10133000934206D094F8863103F00F03062B00F099
:101340004782B14BD4F808511A68944204BF002276
:101350001A60002D00F044812868002800F04081C8
:10136000B4F81031B4F82AC04268C4F808216345C3
:10137000B4F81221B4F8141100F01781B4F828C0A1
:10138000EB8318232B710023A5F806C02A846984F7
:101390002B77294608F09AFF08F0A2FFA368002BDC
:1013A000C0F2F780608DB4F8105110FB09F080B2E4
:1013B000B0FBF5F115FB01F39BB298421FFA81FADD
:1013C000C0F0CE8005FB110140F2E2438F4889B2A4
:1013D00003FB01F1A1FB000189A3D3E90023FFF77F
:1013E0004DFAA8EB0008E38D1F4494F93930BE1B79
:1013F000564440F2E247002BE68507FB05F6C0F2B3
:101400009681834A8349844840F68D4316F0ACFEAA
:10141000404080F311884FF0030002DF0027B346FD
:101420007E4AB4F814317E49B4F81201A0853244E2
:10143000B2FBF6F2A4F8C62042F2107202FB03637C
:101440003144013BB1FBF6F1B3FBF6F6B4F81031D1
:1014500063858AB2831D9A42A4F8C260A4F8CE20A4
:1014600004DDC0F57F43FA331A4492B294F80E318A
:10147000A4F8CA201B0744BF0023A4F8C4300221EB
:10148000012012F0B1FC002202218146012005F06A
:1014900039FC64494FF4F072204605F0C3FB00F1BB
:1014A000030A5FFA8AFA604B009452460121002039
:1014B00006F01AFE30F002030CD0554A5B4956483C
:1014C00040F6BC4316F050FE404080F311884FF0C8
:1014D000030002DF4D4EABFB066B49A3D3E90023AB
:1014E00030465946FFF7CAF9089420F07F45069424
:1014F0004F4823690493A5FB0001072303FB051153
:101500004C4B07934C4B0593301A4FF6FE736BEB25
:10151000010103934FF47A720023FFF7AFF94346BA
:10152000CDE90150009752460121002006F052FDFE
:1015300030F002030CD0364A3C49374840F6D643D7
:1015400016F012FE404080F311884FF0030002DFD6
:10155000B9F1000F40F0368100200BB0BDE8F08FEC
:101560001B1A2A4940F2E24003FB00F0A0FB0101F4
:1015700023A3D3E90023FFF781F920F07F408044C3
:1015800031E790F8D920002A3FF4C6AE80F8D93070
:10159000C6E6E168626823F0004391422CBF8844AC
:1015A0009044A360A8EB0308FCE6B4F82CC0944573
:1015B0007FF4E4AE40F2E24C0CFB03FE42F2107CFE
:1015C0000CFB01EC0CF1FF3CBCFBFEFCB4F8C2E0F0
:1015D0001FFA8CFCE6457FF4D1AE01232B71D8E6CF
:1015E0000B4A16490C4840F6114316F0BDFD404029
:1015F00080F311884FF0030002DF2868B0E600BFD7
:101600008D49FD1A07000000B41C002000CA9A3B57
:1016100044D2010044CE0100E4CD0100FF59620232
:101620007FC3C901C80E00200DBB000024D30100F8
:101630008D49FD1AB5BA00000D01010010D301005B
:10164000012008F053FE0646002800F0CF807448C1
:1016500005F0B2FA0546002800F0C880714B1A6800
:10166000002A00F0BB8008F05FFE2B793268D4F8C6
:101670000811516043F00303C4F8086100202B7186
:101680000C236B71E87194F81C312B72664AD4F804
:101690001831A18DA2FB03239B0AA5F80930B4F8E9
:1016A0001031A5F80B30B4F8123194F80E21A5F8DA
:1016B0000D300631B4F81431A5F80F304944D4F890
:1016C000C43189B260F30202A4F8E81084F80E2154
:1016D000A5F81110BBB194F86621960713D494F8BD
:1016E000BF21D0070FD4D4F8D0219342D4F8C82119
:1016F0007FD062B91A7902F00302032A00F08580D4
:10170000C4F8C83105E0D4F8C821002A68D0D4F85C
:10171000CC311A682A601D602B68C4F8CC510BB913
:10172000C4F8D4516FF076000BB0BDE8F08F226C96
:10173000A36C02FB1933A36410F0E6FB054694F892
:10174000D800C0F3C20010F0E1FB054406FB05F52C
:10175000364B94F81C2105F5742505F23F25A3FBB3
:101760000535AD0C07FB02F2A36C226505FB0AF000
:1017700072080344963A934228BF13462564A6EBA9
:10178000050B2B4DC4E911230023C4F8E030A0FB66
:10179000050121A3D3E90023FFF770F82249A8EB44
:1017A0000008D4F81801A1FB0030800A07FB00F004
:1017B00019A3D3E90023A0FB0501FFF75FF820F090
:1017C0007F472DE601220221104605F09BFAC3E671
:1017D000002384F88521A4F8C830B2E51C6042E7F4
:1017E0002B60C4E97155C4F8CC5198E76FF06800DC
:1017F000B3E61968C4F8D011002A88D11A682A60A3
:101800001D602B68C4E9725589E7DA79032AF5D09F
:101810000A2A7FF475AFF1E78D49FD1A0700000031
:10182000481D0020B41C00205917B7D183DE1B438C
:1018300000CA9A3B000000002DE9F04F0B68D2F877
:1018400000801B6897B00C460A93037F00F11E01CD
:10185000C3F380130546174614A806228DF84730B7
:1018600017F0CEFA94F81190B9F1FF0F0DF1480B73
:101870005BD05A460DF1470148460EF059FF9DF8DE
:10188000473002338DF847302946032251F82E6B3A
:1018900007F1080007F1040A17F0B2FA07F118037C
:1018A000042205F12A0150460B9317F0A9FA0B9B6D
:1018B000052205F13A01184617F0A2FA0B9B052103
:1018C000184605F04FFB7B7F95F83F2000F03F0066
:1018D00060F305037B77C2F30403BB77AB8EFB8118
:1018E000012899B202F01F0305D91B3303F01F032F
:1018F0000B2B00D8F9B90A9BEC6800225A6197F8C3
:101900002030304662F30003012687F82030294654
:101910002E7108F0DBFC20682671214608F0D6FC09
:1019200008F0DEFC17B0BDE8F08F062214A9584677
:1019300017F066FAA8E723680020586095F837008A
:1019400095F8363043EA00233B8298F8D8305209A4
:1019500062F3C5036A8E0D9240F2E24202FB01F08F
:1019600088F8D8300B9010F0CFFA0C9098F8D80087
:10197000C0F3C20010F0CAFA0C9BC54903440B988F
:1019800000FB03F303F5742303F23F23A1FB0323BE
:101990009B0C7B6295F83130398A40F2E24203FBBE
:1019A00002F24308963BBA63BB622B8FB94AADF88B
:1019B0003A309E46B84B844603440244B3FBF0F3EE
:1019C000B2FBF0F242F21070A8F8C6201FFA8EF2B5
:1019D00000FB02C2013A881DB2FBFCF2A8F8C2204B
:1019E0009AB28242A8F8CE2004DDC1F57F41FA31D7
:1019F0000A4492B2A8F8CA205146042208F1DC0039
:101A000017F0FEF92B4613F81C2FC2F34011DA072A
:101A10000F910C9100F115814FF48073AB830A9BF9
:101A200093F826000FF0F4FB0146062205F12B0087
:101A3000002900F0EB8005F1240117F0E1F9B9F17C
:101A4000FF0F05F1250000F0E48014A9062217F02D
:101A5000D7F99DF84730AB775946062205F11F00AC
:101A600017F0CEF998F8D830FA896A863A8AAA86A9
:101A7000C3F3C203BDF83A2085F83830EA86404601
:101A80000AF018FC2946B881E8806568304608F0FD
:101A90001DFCBB89EB801B232B710C9B2E68002B3C
:101AA00040F0BC809DF83C302B772946304608F04A
:101AB0000DFC08F015FC97F84500B7F84050B7F852
:101AC0004260012100F0070010F02EF82E4406F5C8
:101AD000E1763118824671484FF000093123C8F889
:101AE0000830A1FB000168A3D3E90023C8F80490E3
:101AF000C8F80C90FEF7C2FE0B9B7E6A0D9AE56853
:101B00009E1B40F2E24303FB025520F07F4005F2AA
:101B1000B245A5EB0A034A460221C8F8100001208D
:101B20000B9305F0EFF80A9D284609F085FC821C0E
:101B30005B4B0095D2B24846012106F0D5FA012848
:101B400000F08C800A9B93F82430DB0771D4404668
:101B50000AF0B0FBDFF84491A6FB09564AA3D3E98B
:101B60000023834631462846FEF788FEA368CDF859
:101B700018800BF10304A3F13A0B4A4B07934A4B2D
:101B800005934FF4E4730893D8F8103020F07F47A2
:101B900046484FF0000ACDE903A3A7FB0001072345
:101BA000281A03FB071166EB01014FF47A72002338
:101BB000FEF764FE0B9BCDE90170A3FB090132A384
:101BC000D3E90023FEF75AFEE4B220F07F400090F4
:101BD0005B4622460121504606F0FCF930F0020334
:101BE0000CD0334A3349344840F2C91316F0BCFADA
:101BF000404080F311884FF0030002DF01220221F0
:101C0000104605F07FF817B0BDE8F08F17F003F924
:101C100015E70622002117F0FEF81AE77B7F43F054
:101C200040037B7750460EF08FFB0123F8832B7720
:101C30003BE70023012200931846114606F054FAB0
:101C400085E71B4A1D491C48F12316F08DFA4040D8
:101C500080F311884FF0030002DFDDE608F0ECFBB3
:101C60000A9B83423FF46EAF114A1549124840F275
:101C70009F2316F079FA404080F311884FF003005B
:101C800002DF5FE7AFF300808D49FD1A0700000017
:101C900083DE1B43FF5962027FC3C90100CA9A3B1E
:101CA000D1000100A10001000D0101008D49FD1AC4
:101CB00038D4010024D30100E4CD0100D0CE0100CE
:101CC00094D4010070B503788AB004460E4607AD7F
:101CD000032B20D8DFE803F002191B1D1149284609
:101CE00017F045F863780493A3780393E37802939D
:101CF00023790193637900930B4AA37905951E21FB
:101D0000304616F03EFA0AB070BD0849E7E70849C8
:101D1000E5E70849E3E7084A0A21284616F031FAC0
:101D2000E0E700BF08DD010031DD01000FDD01004B
:101D300016DD010020DD01002ADD010010B588B0AC
:101D40000C4617F061FE6946FFF7BCFF03482246C8
:101D5000694616F009FA08B010BD00BF54DD010055
:101D600000B589B029B1094809B05DF804EB16F057
:101D7000FBB917F049FE6946FFF7A4FF044869461E
:101D800016F0F2F909B05DF804FB00BF75DD010043
:101D900095DD01000B6801330B60014B1B68184790
:101DA00094010020014B1860704700BF940100208F
:101DB00007B50B46002102460191034801A900F036
:101DC000F9F803B05DF804FB951D000030B585B04F
:101DD000CDE901010446002501A90548039500F05D
:101DE000E9F8DDE902309842B8BF255405B030BDAE
:101DF000438101002DE9F84FB0F8189019F0080858
:101E0000044693460DD001290CBF49F0100949F052
:101E10002009A0F818908BF31188BFF36F8FBDE8ED
:101E2000F88F09F00709022907D1204616F0B6F904
:101E30000028F0D00128238B4ED16769218B002F19
:101E400015DA256821F00701C4E9008841F0010195
:101E500021830026218B01F0070ACA4502D0A3681E
:101E6000002B5AD10DB9002E71D0002356E001F09D
:101E700007035A1F012A1ED821F00701062B2568E7
:101E800089B2C4E900880AD13DB1638B2A46126841
:101E900001339BB2002AFAD1638341F0020121830E
:101EA000204616F07BF906460028D3D0238B43F05A
:101EB00020032383CDE7042B0CD121F0070189B245
:101EC0002183204616F06AF905460028C1D041F06A
:101ED000200121830025BCE7032809D1226923F0D2
:101EE0000703166843F00603238300252F46B1E756
:101EF000042806D1226923F00703566843F004033F
:101F0000F2E7052806D1226923F00703966843F01B
:101F10000503E9E700252E46E8E7012341F0080123
:101F200021838BF31188BFF36F8FFBB985BB16B18B
:101F30001F492046B0474FF02003EFF3118B83F386
:101F40001288BFF36F8F238B23F008032383238B27
:101F5000DA0625D523F0100323830121B4F8189065
:101F600009F0070900297FF45EAF54E7A168002952
:101F7000DCD0D1F80090D1F804B03B465246204660
:101F8000D847B9F1000FD1D04946D9F80090F2E70F
:101F900029463B46524620462D6816F01BF9C5E7F8
:101FA00013F020011EBF23F0200323830221D5E775
:101FB000018201002DE9F04F81469BB08A4615460B
:101FC0001C460026287810B9304600F0EEBD6B1C88
:101FD0002528029306D05146C8470028C0F2E5855F
:101FE00001364CE2182200210CA816F014FF6B7881
:101FF000252B7CD00022681C9646904694461746B6
:10200000014610F8013B2B2B00F0A08000F29780D6
:10201000202B00F09E80232B00F09E802FB19DF896
:10202000380040F004008DF83800BCF1000F05D0F6
:102030009DF8380040F008008DF83800B8F1000F26
:1020400005D09DF8380040F010008DF83800BEF142
:10205000000F05D09DF8380040F020008DF83800C2
:102060002AB19DF8382042F040028DF838209DF8C2
:10207000382002F04400442803D16FF386128DF813
:1020800038209DF838202A2B42F080028DF8382025
:102090007ED19DF8392042F001024B1C8DF8392089
:1020A0001A782E2A9DF839200CBF0121002161F3F6
:1020B00041028DF8392077D15A782A2A6DD0013320
:1020C00000214FF00A0C184610F8012BA2F130073E
:1020D000092F40F2AB809DF838201091C2F34000E8
:1020E00040EAD17161F341028DF838205CE0AA1C0E
:1020F00002928DF83B309DF83930DF0740F1738153
:1021000054F804BBBBF1000F07DA9DF8382042F009
:1021100004028DF83820CBF1000B580740F16C8198
:1021200054F8048BB8F1000F80F26B819DF83930C0
:102130006FF341038DF839304FF0FF3861E12D2BFB
:102140000DD0302B7FF46AAF012259E74FF0010C1C
:1021500056E74FF0010853E74FF0010E50E7012713
:102160004EE70CFB0272303A0346184610F8017B2A
:10217000A7F1300EBEF1090FF3D9994290D09DF826
:1021800038100F92D20F62F341018DF8381087E7B3
:102190000B4600224FF00A0CE7E79DF8392042F089
:1021A00004028DF839200233194611F8012B6C2AEC
:1021B0005CD040D8682A46D06A2A61D04C2A67D0C1
:1021C00019460B4613F8012B0293782A8DF83B2011
:1021D00000F2DF80572A68D8412A04D0A2F14503D3
:1021E000022B00F2D6809DF83A3002F0DF02042183
:1021F000A2F1410861F30203D8F100029DF8391001
:102200008DF83A3042EB080262F3C7110A068DF8E6
:102210003910CBB200F1E58003F07802182A40F0C3
:10222000B5806FF3C6038DF839309CE00CFB0121BB
:102230003039034647E7742A26D07A2AC0D19DF860
:10224000393006220DE05A78682A9DF8392006D1E7
:10225000012161F3C6028DF83920991CB1E71346BC
:10226000022262F3C6038DF83930AAE75A786C2A45
:102270009DF8392001D10421EBE713460322F0E752
:102280009DF839300522ECE79DF839300722E8E760
:10229000BDF8383023F4F04323F0020343F48043C5
:1022A00043F00203ADF838308BE7A2F15803202B3E
:1022B0006FD801A151F823F06B2300009323000095
:1022C0009323000093230000932300009323000036
:1022D000932300009323000093230000E7210000D4
:1022E000932300006B2300003D230000E721000042
:1022F000E7210000E7210000932300003D230000B8
:1023000093230000932300009323000093230000F5
:10231000A12300006B230000C523000093230000CD
:1023200093230000C5230000932300006B230000CB
:1023300093230000932300006B2300009DF83A30A4
:10234000012161F302038DF83A309DF8393003F032
:102350007803402B02BF9DF8381041F001018DF841
:102360003810632A05D0002306E09DF83A30022198
:10237000E7E7003B18BF01239DF83820C2F3400176
:102380000B4363F341028DF83820B4E613F0380FA5
:10239000E9D09DF8383043F001038DF83830E2E79A
:1023A0009DF83A30032262F302038DF83A309DF82B
:1023B000393003F07803A3F1400CDCF1000343EB68
:1023C0000C03D9E79DF83A30032262F302038DF83B
:1023D0003A309DF8393013F0780F14BF01230023F1
:1023E000CAE70123C8E79DF93820002AB4BFDDF809
:1023F0003CB04FF0FF3B90E699077FF59DAEDDF8CE
:1024000040809DF839100023CDE90F339DF83A3014
:1024100003F00702042A09D18A0707D49DF939205D
:10242000002AB4BF4FF00D084FF0060803F0070371
:10243000012BC1F3C30137D1CB1E042B21D8DFE818
:1024400003F003090920200054F8043BDA17CDE912
:102450000C3206E0073424F00704F4E80223CDE947
:102460000C239DF83870BB0756D0029B2A46514674
:10247000484616F0D4F90028C0F297830644029D1E
:10248000A0E554F8043B01294FEAE372CDE90C3290
:1024900005D19DF830300C9300230D93E1E702291C
:1024A000DFD1BDF93030D1E7022B23D1CB1E042B75
:1024B00013D8DFE803F0030A0A12120022680C9214
:1024C0000023201D0D930446CBE7E01D20F00700FC
:1024D000F0E80223CDE90C23F5E754F8043B0C9314
:1024E00001294FF000030D93D3D00229B9D1BDF8D3
:1024F0003030D0E7042B09D1E31D23F0070303F1AB
:102500000804D3E90023CDE90C23AAE7032B04BF79
:1025100054F8043B0C93A4E79DF83B20782AAED8EE
:10252000572A00F28C80252A00F0D480242AA6D9CC
:10253000412A03D0A2F14503022BA0D8DDE90C13F8
:10254000002BC0F2BE81380700F1BD8117F01007E3
:1025500018BF2027C3F30A55C3F31303CDE90813AB
:10256000002D40F0B28151EA030014BF0120002089
:10257000DB0243EA5153C902462A45EA010E43EA07
:10258000E57C08BF66225EEA0C0CCDE9081300F07A
:102590000682002840F0CE81DDE908014FF0000CF2
:1025A00041F00041A5F2FE35099163464FF0050E5A
:1025B00015F1020FC0F2C581BCF1000F01D0CDE9C9
:1025C0000801002DDDE9081000F3D0810998089971
:1025D000C5F1040C1C3500FA05F5ACF1200E21FA0A
:1025E0000CF120FA0EFE294341EA0E0120FA0CF00C
:1025F000CDE9081002F0DF01472940F0D781DD1C4A
:1026000002DB984580F2CE81023AB8F1000FD2B2D7
:1026100001DD08F1FF389DF83810880600F1C68109
:10262000B8F1000FD4BF00210121662A039140F0C8
:10263000BF8118EB030540F1BD810025BDE1A2F18A
:102640005803202B3FF61BAF01A050F823F000BF2A
:10265000652800007F2400007F2400007F24000004
:102660007F2400007F2400007F2400007F240000DE
:102670007F2400003D2500007F240000012700008A
:10268000052800003D2500003D2500003D250000F7
:102690007F240000052800007F2400007F24000024
:1026A0007F2400007F2400009B2800006528000094
:1026B000692800007F2400007F240000DB26000042
:1026C0007F240000652800007F2400007F24000094
:1026D00065280000514610467EE4B8F1000F0C9AC0
:1026E00009DB41461046039216F064FB039A00276B
:1026F000151862B9C3E61046039216F054FBF5E7CD
:102700000C9B8DF84C3000270DF14D0513AAAB1A28
:1027100007B101339DF83A00C10640F13A82023315
:102720000F9940060B4444BF10995B18BBF1000F92
:1027300023DDABEB030B9DF838305907C3F380085A
:102740001BD4580640F13482002F00F034825146E9
:1027500038460392C8470028C0F22782039A4746AA
:1027600001364FF030085E445B46002BA6EB0B00B1
:102770000BF1FF3B00F31182064647B15146384644
:102780000392C8470028C0F21082039A01369DF8D0
:102790003A30590640F165829DF93930002BA6EB9D
:1027A00002030393C0F20A8217463878039BA0F114
:1027B0003002092AB84603EB070607F1010740F289
:1027C00029829DF83A200F9F930608D43E44002F9B
:1027D000A6EB070307F1FF3700F322821E4698F8A5
:1027E00000002E280BD15146C8470028C0F2DD81D9
:1027F000002F06F1010600F31A8208F10108A6EB8A
:1028000008061DE23D072BD417F0100718BF20273C
:10281000DDE90C23002B05DA524263EB4303CDE9DB
:102820000C232D270DF1650300930EAADDE90C01A1
:1028300013AB15F0AEFF0246B8F1000F0DF16505C0
:10284000FFF657AF9DF83810AB1A6FF38611984515
:102850008DF838107FF64DAFA8EB03030F9348E7D0
:102860002B27D5E70027DDE70C98002800F08D81A5
:102870000DF1650300930EAA13AB002115F089FF3B
:10288000BDF83A3003F0EF0343F4F04343F0100394
:102890000246ADF83A300027CEE70C9B07293FF6F9
:1028A000EEADDFE801F00C04060C08080C0C1E70FD
:1028B000E5E51E80E3E5F217C3E90062DFE51E608F
:1028C000DDE52D2746E62B2744E640F2FF708542E2
:1028D0002DD10B43A2F141021BD1192A11D8492352
:1028E0008DF84C304E238DF84D3046238DF84E3008
:1028F0009DF838306FF386138DF838300DF14F05A1
:1029000004E769238DF84C306E238DF84D30662333
:10291000ECE7192A99BF4E2341226E23612294BF0E
:102920008DF84C308DF84C308DF84D20DEE70020CE
:102930001EE6013D49185B41002BFADACDE9081388
:102940002AE6400840EAC1704908B1F1333FAC467D
:1029500005F10105F5D20EFB01F5A0FB0E0129449E
:10296000013B0CF102054FF0010C21E6023140F170
:102970000000CDE9081008A8CDE9032315F0DAFE20
:10298000049B039ADDE90810013D013349184041D9
:10299000002805F1FF35F9DACDE9081011E600232A
:1029A0001D4613E6A8EB0308662234E600213CE648
:1029B00008F10105102DA8BF102510210791002056
:1029C0004FF00061CDE90A01DDE90A10A5B9089DC3
:1029D0004919099D40EB0505B5F1805F1BD2CDE992
:1029E0000815662A40F09980002B23DC30218DF8F1
:1029F0004C100DF14D052FE0490841EAC071400827
:102A0000CDE90A100AA8CDE90423013D15F092FE94
:102A1000DDE90423D8E7490841EAC57108A86D0833
:102A2000CDE90423CDE9081515F084FE059B049A31
:102A30000133D6E713AD079900290BDD07A908A8D4
:102A4000CDE9042315F08EFE059B05F8010B013B33
:102A5000049AF0D10F9300239DF83810890602D410
:102A6000B8F1000F1DDD2E2105F8011B9BB1B8F157
:102A7000000F16DD59424145A8BF41469DF83A0076
:102A80000F910029A8EB0108D4BF0021012161F3B7
:102A900045108DF83A00B8F1000F02DD07990029C2
:102AA00056DC0399002963D1CDF8408002F0DF01A4
:102AB000452921D1002B2946B8BF5B4201F8022BE2
:102AC000B4BF2D222B22632B6A7009DD6420B3FB77
:102AD000F0F202F1300CE91C85F802C000FB123361
:102AE0000A200D46B3FBF0F200FB123302F1300C6A
:102AF000303305F802CB4B700F9B002B43DC109B4F
:102B0000002BD4BF002301239DF83A2063F38612E3
:102B100000238DF83A202B70F8E507A908A8CDE925
:102B2000042315F01FFEDDE904239DF838108DF80D
:102B30004C00302818BF03F1FF33880602D4B8F1E7
:102B4000000F12DD2E218DF84D100DF14E05A2E77C
:102B500007A908A8CDE9042315F004FE08F1FF3801
:102B6000DDE9042305F8010B95E70DF14D0598E724
:102B700000211091284615F8011D3029FAD02E2980
:102B800018BF054692E70123BEE74B4D07466A1F73
:102B9000BDE5010748BF0133C2E5514640460392F7
:102BA000C8470028039ABFF6DFAD1BB0BDE8F08F21
:102BB0004FF02008D7E54FF03008D4E59046039B4E
:102BC0004746434418F8010B70281ED11E46109B3F
:102BD00003EB0608A8EB0603002B3BDC2B463A462A
:102BE0005146484615F01BFE0028DEDB3044064601
:102BF0008344ABEB0603002B7FF741AC514620200A
:102C0000C8470028D1DB0136F3E75146C847002802
:102C1000D5DACAE75146C8470028BFF6C6ADC4E7B3
:102C200051463020C8470028BFF6D1ADBDE7514618
:102C30003020C847013FD8E55146C8470028B4DBDB
:102C4000474606EB080318F8010BA0F13002092AE9
:102C5000F2D9BBE751463020C8470028A5DB013632
:102C6000B8E7D80601D4190707D55146302003929A
:102C7000C847002899DB039A01369DF83A30DB06F5
:102C800008D59DF83B0003925146C84700288CDBCD
:102C9000039A01360F9F3744BB1B002B01DC2B46E8
:102CA0009EE7514630200392C8470028FFF67DAFCB
:102CB000039A0136F0E700BF68DF01002DE9F84311
:102CC00005464FF02003EFF3118683F31288BFF31C
:102CD0006F8F0E4B1C689CB10D4FDFF838804FF0A2
:102CE0000C09D4E90132002D08BF13462BB198F826
:102CF000142009FB02F2B85C98472468002CF0D13C
:102D000086F31188BFF36F8FBDE8F883B0130020FE
:102D1000B81300204827002000F01F0301229A402A
:102D20000A4BBFF35B8F400903EB800050E8003F84
:102D300043EA020140E8001CBCF1000FF6D1BFF3EA
:102D40005B8F1A4214BF012000207047C41300207B
:102D500030B51D4B1C7DBFF35B8F04F01F030122B8
:102D60009A401A4B610985B0D04303EB810353E8C5
:102D7000001F01EA000543E8005CBCF1000FF6D13A
:102D8000BFF35B8F114217D0114D0C2202FB04528E
:102D900007CA01AB83E807000E4A7AB193E807003F
:102DA00016F058F80020FFF789FF0C235C432A191E
:102DB00000232B51C2E9013305B030BD82F31188E5
:102DC000BFF36F8FEEE700BF48270020C813002035
:102DD000B8130020558E01002DE9FF41354B364CCC
:102DE0001D7D80462846FFF797FF50B9414628468B
:102DF00000F084F828B107C80C2303FB054383E8DF
:102E000007000C236B43E218E05C6E0905F01F0716
:102E100000283BD0B8F1FF3F10D0D2F808E0274897
:102E2000274A4FF4004C00210023EEFB0C01FDF774
:102E300025FD0121A8EB000019F019FA14F080FC1F
:102E40000120FFF73BFFBFF35B8F1E4B0122BA400F
:102E500003EB860353E8001F114343E800100028EA
:102E6000F8D1BFF35B8F0C2303FB054494E8070004
:102E700001AB83E80700144A1AB193E8070015F084
:102E8000D6FFFFF765FF14F0E1FD01200F4ABFF305
:102E90005B8F0123BB40DB4302EB860656E8002F25
:102EA0001A4046E800210029F8D1BFF35B8F04B037
:102EB000BDE8F08148270020B81300203F420F00F2
:102EC00040420F00C81300202F8E0100C4130020C1
:102ED000054BBFF35B8F53F82000BFF35B8FB0FA55
:102EE00080F04009704700BFCC13002008B9024BA6
:102EF0000B600020704700BFE81300202DE9F04F61
:102F000085B00E4603A9FFF7F1FFDFF874A0DFF8E4
:102F10007480441E24B24FF400474FF00009631C34
:102F200004D10025284605B0BDE8F08F039A04EBD4
:102F3000440302EB830512F82300FFF7C9FFE0B159
:102F400068684FF0000BD4465946E0FB07C1424683
:102F50004B466046FDF792FC0190A868D44659465E
:102F6000E0FB07C142464B466046FDF787FC721CFA
:102F7000D8D0019B1844B042D4D9013C24B2CEE74A
:102F80003F420F0040420F000449431E0F3013F828
:102F9000012F8A5C1A708342F9D1704769DF010002
:102FA000F0B5264E07460C460FCE8DB001AD0FC5CD
:102FB0000FCE0FC596E8070085E807003846002FBA
:102FC00038D0002C38D0381F2146024610344B78B8
:102FD0000D781B0443EA0563CD782B438D780431CB
:102FE00043EA05238C4242F8043FF0D1144C0421FB
:102FF0008A07036916D1C3F30742A55C1A0EA25CC7
:1030000042EA0562C3F30725DBB2655DE35C42EA91
:10301000054242EA03220CAD21F003032B4453F88E
:103020002C3C534050F8042F013153402C290361AC
:10303000DED101200DB0F0BD2046FBE724CA01001F
:1030400069DF0100014910220A60704710ED00E0BD
:1030500072B6404080F31188BFF36F8FBFF34F8F7C
:1030600030BF62B6BFF36F8F704700BF72B6494082
:1030700081F3118820BF80F3118862B6704700BFCA
:1030800043B2002B08DB012200F01F0002FA00F01F
:103090005B09024A42F82300704700BF00E100E0EC
:1030A00043B2002B0DDB01225B0900F01F0002FA86
:1030B00000F02033034A42F82300BFF34F8FBFF3E1
:1030C0006F8F704700E100E0054B420900F01F00E0
:1030D00053F82220012303FA00F01040704700BF8C
:1030E00000E100E043B2002BA8BF03F1604301F10F
:1030F0000101B8BF064B4FEA4111ACBF03F5614374
:1031000000F00F00C9B2B4BF195483F80013704720
:1031100014ED00E008B572B6044B9A691AB10022AA
:103120009A6118F0CCFD62B608BD00BF48270020A8
:1031300030BFFFF7FDBF00BF0F4A08B50F4B22F0AD
:103140007F029A60BFF34F8FBFF36F8FD3F8882051
:1031500022F47002C3F88820EFF3148323F00403F1
:1031600083F31488BFF36F8F13F09AFE14F0B2FD4F
:1031700000F0CAF913F09EFE0000000000ED00E030
:10318000094A0A4993680968D967094998674B68E9
:1031900043F080534B60002383F31188BFF36F8F9C
:1031A0009368D86F704700BF4827002004DD0100F6
:1031B00000ED00E012498A684FF030001044EFF350
:1031C000098C80E8F01F202080F31288BFF36F8FF6
:1031D0000C4F4FF00066CA698A603E60906F002312
:1031E000936780F3118804B5104600F0CFF9BDE86D
:1031F000044002F1300090E8F01F8CF3098870471A
:103200004827002004ED00E01EF0040F0CBFEFF390
:103210000880EFF30980816911F8021C0229FFD0B0
:1032200001B515F095FD01BD42F8203C009B42F828
:103230001C3C0A49019B42F8183C029B42F8143C92
:1032400021F001014FF0807342F8043C42F8081C61
:103250000023203A02658367704700BF9583010011
:10326000094A0346906870B113F1160F806E05D0BD
:10327000A0F120029A4205D8834203D2814228BF9E
:1032800000207047002070474827002008B5094BF0
:1032900098600D46144600F079F9204685F30988B8
:1032A000002163B681F31188BFF36F8F00220023E2
:1032B00015F070F84827002001B572B60B4A9069E6
:1032C00000281EBF0021916118F0F9FC62B6EFF3EF
:1032D0000580A0F110004FEAC0000549014409C96A
:1032E0009847BDE8014003490847000048270020EF
:1032F00000C80100F9320000044B9968D86988427F
:1033000003D003494FF080520A60704748270020DD
:1033100004ED00E038B5194B14469A6A9A6A9A6A25
:103320000546900719D5586B9A6A120615D519B13A
:103330009A6A22F080029A629A6A9A6A9A6AD10616
:103340000ED49B6A9A070BD400200C4A936A43F070
:10335000FF0393620023237038BD6FF01500EBE785
:10336000064B5B681B05EFD52946FFF779FF002860
:10337000EAD080F309880220E7E700BF00ED00E013
:103380000D4B9A6A9A6A9A6A920508D59A6B9A6A5C
:10339000120404D518B19A6A22F400429A62064BCC
:1033A0009A6A9A6AD20558BF9A6A9A6A002042F4C9
:1033B0007F429A620870704700ED00E070B5484B9C
:1033C0005B688AB00D46C3F30803002686F31188B4
:1033D000BFF36F8F02F07F41B1F17F4F11D102F047
:1033E0000C0108290DD0110701D405460126002241
:1033F000033B8DF80720032B6BD8DFE803F004555F
:10340000595D3546F3E7364BDC6A14F0020460D1AF
:10341000DA6A002A15DBDA6A520012D5AA6932F894
:10342000021C4DF6027291420AD093F828200AB38A
:103430000DF1070201212846FFF76CFF044600E06A
:103440002C689DF807309BB92022294602A815F068
:10345000D7FC099B002E3ED0C3F3080222B96FEAC5
:1034600053236FEA4323099302A9204615F06EFC0B
:103470000AB070BD93F829202AB10DF1070101208F
:10348000FFF77EFFDAE75A8D92B2002AD9D09A6A06
:103490009A6A9A6A9A6A9A6A9A6A9A6A6FEA024277
:1034A0006FEA12429A62CCE70DF107020021C2E7EF
:1034B0000DF107010020E3E7094B9A6A9A6A9A6ABC
:1034C0009A6A9A6A9A6A9A6A6FEA02426FEA1242A2
:1034D0009A620024B5E723F4FF7323F00103C2E7E7
:1034E00000ED00E0024A536943F010035361704756
:1034F00000ED00E0EFF30880EFF3098101B57246BB
:10350000FFF75CFF01BD00BF044800232021C21863
:103510000133272B82F80013F9D1704700E100E056
:1035200019F048F8202080F3118808484FF4026110
:10353000401880F30988EFF314800221084380F3D8
:103540001488BFF36F8FFFF7F7FD0000203A0020CB
:10355000064B9B68834207D1EFF3058323B1044AEE
:10356000536843F08053536014F050BB4827002049
:1035700000ED00E0024B034A0348012100F06EB861
:10358000000001200000002098CA0100826E054B57
:10359000203A1A60044A2021C3E901121846012189
:1035A00000F066B8E813002000000B15F0B51F4FBF
:1035B00000268E4201DB1046F0BD44689CB353B137
:1035C00004F1FF3C14EA0C0F18D11F2C16D9056822
:1035D0001CEA050F12D1202C0568D0F808C0D2B221
:1035E0000FD9B4F1004F0ED8013CB4FA84F4C4F101
:1035F0001F046400072A4CEA040406D96FF0150280
:10360000D9E70824F6E73E24F4E725F01F05154323
:1036100045F0100544F00104C7F89820C7F89C5005
:103620000132C7F8A04001360C30C2E700ED00E0DF
:10363000044B0522C3F89420BFF34F8FBFF36F8F65
:10364000704700BF00ED00E0BFF35F8F024B002228
:10365000C3F89420704700BF00ED00E010B5034CA4
:1036600001232278FFF7A2FF207010BDB2270020AF
:1036700008B5094A00231278FFF798FF10F1160FDA
:1036800002D0064A072800DD08BDC2F89800C2F83B
:10369000A0300130F6E700BFB227002000ED00E0C7
:1036A00014490868082810B521D8FFF7CDFF124C3F
:1036B00049680022904201F10C0105D10F4B1870AE
:1036C000FFF7B6FF002010BDC4F8982051F80C3C5D
:1036D00023F01F03134343F01003C4F89C3051F848
:1036E000043C43F00103C4F8A0300132E2E74FF09C
:1036F000FF30E8E7A4CA010000ED00E0B227002097
:10370000014B1860704700BF980100204FF0200265
:10371000EFF3118382F31288BFF36F8F044A012104
:10372000C2F8401583F31188BFF36F8F00207047F4
:1037300000E0014020B1034B800143F00103184732
:10374000704700BF80CA010038B54468206813F094
:1037500037FB30B90D48216814F006FD6FF01200F8
:1037600038BD616804698568C9B2012303FA01F2B2
:10377000236823EA020323604FF420622B689847F2
:103780002120002114F012FA0020E9E778E001007E
:1037900030B4034608461A78012A13D0022A26D0EC
:1037A00072B9154A02F1100452F8045B41F8045B47
:1037B000A242F9D15B8812780A7043731B0A8373A3
:1037C00030BC70470C4A02F1100452F8045B41F817
:1037D000045BA242F9D15B6812780A70C3F3072236
:1037E00043731B0CC3731B0A82730374E8E730BC7A
:1037F0001122194615F004BBA3E0010038B50546B7
:10380000054817F076FA044620B10021083017F079
:103810008FFA2575204638BD7C0900200B460B49E0
:103820000246D1F8300110B520B9BDE810400120A2
:10383000FFF7E4BF17F08DFA0123002103758181A2
:103840000446083017F074FA204610BD000000202E
:1038500070B504460F2C0D461046194605D80D2CA0
:1038600012D9BDE87040FFF7D9BF132C0CD10B481B
:1038700017F03FFA044628B10021083017F058FA33
:1038800001232375204670BD02460B460DB1044846
:10389000EEE7BDE870400120FFF7B0BFA8090020A7
:1038A000F808002038B583681A7872B9B3F8014077
:1038B000204601F095FC054640B9084B1A8822B90C
:1038C0006FEA04506FEA1050188038BD012101F0F2
:1038D0008FFC2846BDE8384016F027B8882700201E
:1038E00010B501210446083017F08CFA2146034A2E
:1038F0000078BDE81040072315F054BB04CB01004D
:1039000013B50C4C0146052294F8670001F0FCFD4C
:1039100070B9094B18689A8800909B79ADF804201B
:1039200094F867008DF806300422694601F0ECFD3A
:1039300002B010BD000000205ECA0100F8B50746C5
:1039400090790E46144610F047FC2D4B834255D11A
:10395000204610F049FC2B4D0C2303FB00504388FC
:10396000BB424BD1284FD7F8300120B110F0F8FC02
:103970000023C7F83031204610F036FC0C2707FB37
:1039800000504368A3B19EB9204610F02DFC07FB00
:10399000005001234768D7E9002000F01F0103FA17
:1039A00001F13B7A4009D3B102EB800015F00FFB27
:1039B000204610F019FC0C2707FB00508368EBB180
:1039C000204610F011FC78432E54204610F00CFCD9
:1039D00007FB0055A868BDE8F84013F04BBCCB438B
:1039E00002EB8002BFF35B8F52E8001F194042E8F0
:1039F00000100028F8D1BFF35B8FD9E7F8BD00BFF6
:103A000050090020F41300200000002038B50421E4
:103A10000446083017F0F6F94578017840882246C8
:103A2000FFF78CFF25B10348BDE8384013F022BCF6
:103A300038BD00BF1801002038B503210446083006
:103A400017F0E0F9A36805781978B0F8010022466C
:103A5000FFF774FF25B10348BDE8384013F00ABCF6
:103A600038BD00BF1801002010B5C1E900239DF842
:103A700008300B720C4610F0B7FB034B0C2202FB14
:103A800000335C6010BD00BFF41300202DE9F04747
:103A90004FF0FF324FF0FF3306461748174D0F46E1
:103AA00017F027F9044600F1080A00214FF000083A
:103AB000504617F03DF984F81480204610F094FB2E
:103AC0004FF00C0909FB00504680204610F08CFB9B
:103AD00009FB0050C0F80880204610F085FB09FB68
:103AE00000550321C5F80480504617F064F987702B
:103AF00006802046BDE8F08750090020F41300201E
:103B0000F0B5154687B00C4621B9FFF7BFFF044654
:103B1000002848D001220021684618F0A4F9204668
:103B200010F062FB214F0C2303FB0070C0F808D09B
:103B3000204617F00EF901461D4817F0FDF84FF426
:103B4000A0220023684613F0BBFB064680B1194A49
:103B500019491A4840F2311314F006FB184831464F
:103B600014F002FB404080F311884FF0030002DFA5
:103B7000204610F039FB0C2358433E5C56B12046DA
:103B800010F0EEFB092E0CBF6FF06E006FF004001A
:103B900007B0F0BD15B12C603046F9E7204610F0B3
:103BA000DFFB2846F4E76FF06800F1E7F41300202C
:103BB00034010020B4E00100E8E00100F1E0010080
:103BC0000EE10100024BD3F84C311B69184700BFCE
:103BD0000000002038B505460C4619B9FFF756FF1E
:103BE000044698B140F635439D4209D12046FFF77F
:103BF000E9FF054610B1204610F0B2FB284638BD5B
:103C00000448214617F098F80025F7E76FF068059B
:103C1000F4E700BF340100207FB5837A072B044608
:103C200057D1BFF35B8F4368BFF35B8F9B0400F1F9
:103C300004061BD4C37823B1274B93F8D0301D075B
:103C400014D5022142F21600FFF720FF054668B1A5
:103C50000221083017F0AFF823880380294642F28A
:103C6000160004B0BDE87040FFF7B4BFBFF35B8F30
:103C70006368194DBFF35B8F13F4805FC3F30031AA
:103C800011D195F8D130D8070DD5022300911A46ED
:103C9000204615F0E7FA30B98021304604B0BDE87F
:103CA000704015F094B995F8D0309A0611D5D5F832
:103CB0004C319B689B070CD50DF10E0103A815F044
:103CC00060FA30B9BDF80E20BDF80C10204615F092
:103CD000ACFA04B070BD00BF000000202DE9F04335
:103CE000B0F80170684A047811886FEA07536FEAE8
:103CF00013539BB299424FF0000608BF168085B05F
:103D000005461FFA87F808BF012604B33C2C59D199
:103D100000F018FFBFF35B8F103050E8003F23F036
:103D2000400340E80032002AF7D1BFF35B8F002048
:103D3000FFF7E6FD0546002844D04472002101F05B
:103D400057FA284605B0BDE8F04315F0EEBD0379FB
:103D5000023B012B00F1040937D80722494602A88B
:103D600015F04EF89DF808300622023B05F11101CE
:103D70000DF101008DF8083015F042F801238DF89F
:103D80000030EB78012B19D102A8FFF7B9FDEB78D1
:103D9000012B044611D100F0D5FEBFF35B8F00F17B
:103DA000100353E8002F22F0400243E800210029CD
:103DB000F7D1BFF35B8F15F0FEFCDCB91F21404645
:103DC00015F0F7F905B0BDE8F083C378012B04BF07
:103DD0002E4B93F867404946204615F08EFB07228C
:103DE000014602A815F00CF807224946684615F06E
:103DF00007F8C6E72046072220F8887B02A914F0BE
:103E0000FFFF2A7EEB7D43EA0223A4F89E30AA7EC0
:103E10006B7E43EA0223A4F8A4302A7FEB7E43EAB8
:103E20000223A4F8A630EB78E3700022012B627223
:103E300017D10722694604F18F0014F0E1FF00F06A
:103E400081FE217A114DC1EBC1010722294404F101
:103E5000960014F0D5FFD5F8DC305B0601D501F0F3
:103E60001DF80721204601F0C3F91EB101212046AB
:103E700001F0BEF9204615F094FD2046FFF7CCFE78
:103E8000204615F052FD9DE7882700200000002005
:103E90002DE9F84FDFF80881DFF808A1D8F80C30D9
:103EA00041486FF35233C8F80C3001F05BF9451C00
:103EB0003B484FF0FF324FF0FF33294614F05EF8D5
:103EC00060B13A493A4840F69313524614F04CF91F
:103ED000404080F311884FF0030002DFDFF8D490F8
:103EE0002F4EA9F59A77A9F11C0B15B913F0D6FD41
:103EF000D4E7F368C3F34533042B47D1337B002B5E
:103F000047D100220023484616F0F8FE044660B967
:103F10002949274840F62A13524614F025F9404013
:103F200080F311884FF0030002DF4FF0FF324FF0B3
:103F3000FF33584613F0C4F9D7F8300120B110F020
:103F40000FFA0023C7F83031204616F002FFC7F8F9
:103F500030012046FFF736FEC0B1184813F08AF949
:103F6000204610F041F9164B0C2202FB00301F21B5
:103F700040882246FFF7E2FCD7F8300110F0F0F954
:103F800000232046C7F8303110F0EAF91436013D1D
:103F9000ABE7012BFAD13069383801F0B5FBF5E712
:103FA0009C010020B4E00100B0010020E8E0010025
:103FB000F1E00100340100202EE101001801002091
:103FC000F41300202DE9F041044600F108063046C4
:103FD00016F028FFB4F80C80B8F1010F05460CD894
:103FE0001C4A1D491D4840F62F5314F0BDF84040AF
:103FF00080F311884FF0030002DF3046022116F0F3
:1040000001FF0746007814F0BBFFC20706460CD438
:10401000104A1349114840F6335314F0A5F84040B4
:1040200080F311884FF0030002DF05230D4A387832
:10403000214614F0B7FFB30707D52069A4F80C8018
:1040400010FA85F5A560BDE8F0812046BDE8F04195
:1040500010F086B9B4E0010032E10100F1E00100A6
:104060004BE101006CCB010070B5037D012B0446D0
:1040700036D0032B63D18389032B0CD8324A3349C2
:10408000334840F2B51314F06FF8404080F31188C4
:104090004FF0030002DF042104F1080016F0B2FE25
:1040A000FF22438806886275A289C6F30B009A42F4
:1040B000E08203D0204610F053F90FE001F090F8B1
:1040C00005460028F6D001F03BF9320B6075214619
:1040D000284615F0C2FB284615F027FC002070BDCD
:1040E0008389012B0CD8184A1849194840F6171330
:1040F00014F03AF8404080F311884FF0030002DFDB
:10410000022104F1080016F07DFE0546007814F047
:1041100037FF83070CD40C4A0E490D4840F61B1399
:1041200014F022F8404080F311884FF0030002DFC2
:10413000094A28780423214614F034FFBAE710F026
:104140000FF96FF01500CAE7B4E0010032E1010099
:10415000F1E0010064E101004CCB010010B5037DEA
:10416000012B04460CD0094A09490A4840F6765307
:1041700013F0FAFF404080F311884FF0030002DF94
:104180002046FFF71FFF002010BD00BFB4E0010074
:1041900092E10100F1E00100084A0346D2F84C0127
:1041A00030B9D96839B1196929B1C2F84C317047B1
:1041B0006FF0770070476FF0150070470000002027
:1041C0000148022114F003BFCC00002073B53E4D1E
:1041D000D5F84C31996811F0010121D101AA40F6BE
:1041E0000340FFF78DFC0446002869D1019B9B68C2
:1041F0001B7893B9BFF35B8F2B4653F8CC2FBFF3DB
:104200005B8F02F00502BFF35B8F53E8001F43E8AA
:1042100000200028F9D1BFF35B8F019810F0A0F8BF
:1042200001AA002141F20300FFF76AFC04460028BE
:1042300046D1019B254899680822013114F0E0FD20
:10424000019810F08DF8214601AA41F20100FFF714
:1042500057FC0446002833D1019883685A7885F8C2
:104260006820D9789A7842EA0122A5F86A201A795A
:1042700085F86920197ADA7942EA0122A5F86C20DA
:104280005A799B7942EA0323A5F86E3010F068F85A
:10429000214601AA41F20200FFF732FC044678B938
:1042A000019B0B4899684022013114F0A9FD019847
:1042B00010F056F895F874305E060BD46FF01204C7
:1042C000204602B070BD00BF00000020700000203A
:1042D00078000020214601AA42F20300FFF710FCFB
:1042E00004460028ECD1019BA148996808220131BD
:1042F00014F086FD019810F033F8214601AA42F22D
:104300000200FFF7FDFB04460028D9D1019B9B6802
:10431000B3F80120A5F8FC2091B221B1DA789548D4
:10432000114617F0A0FD019810F01AF895F8746086
:1043300016F0200600F0F98095F894301C0712D58D
:1043400001AA002142F21C00FFF7DAFB0446002814
:10435000B6D101988368D3F80120D3F80530C5E9B8
:1043600036230FF0FDFF95F8D030980623D50DF1D8
:104370000201684614F005FF04460028A0D104217C
:1043800042F22400FFF782FB0646002800F0D480AA
:104390000421083016F00FFDBDF800300380BDF891
:1043A000023043802246314642F22400FFF7A8FB48
:1043B0000446002884D1082142F20100FFF766FB81
:1043C0000446002800F0B8800821084416F0F3FCE9
:1043D00095F8D02012F0020F14BF2F230F2391065F
:1043E00095F8D12048BF43F0400312F0090F18BFE1
:1043F00043F4006300220370C3F307234370827009
:10440000C270027142718271C271214642F2010092
:10441000FFF776FB044600287FF452AF95F874301E
:10442000B5F8FC109A0600F19C80D9B901AA41F2B6
:104430000500FFF765FB044600287FF441AFB5F89F
:10444000FC3063B9019B9B685A78997842EA012253
:10445000A5F8FC209A884748114617F004FD0198FA
:104460000FF07EFF082140F60140FFF70FFB0446E6
:10447000002861D00821084416F09DFC1023037029
:10448000882300224370022620238270C6700271A6
:1044900042718271C371214640F60140FFF730FB43
:1044A000044600287FF40CAF014601AA4FF60140F4
:1044B000FFF726FB044648BB01980FF051FF214649
:1044C00001AA4FF60240FFF71BFB0446F0B9019B1F
:1044D000294899683246013114F092FC01980FF096
:1044E0003FFF95F8B9305B0710D501AA21464FF67A
:1044F0000340FFF705FB48B9019B2048996801225A
:10450000114414F07DFC01980FF02AFF00F07AFAB4
:10451000044600287FF4D4AE01F05CF9044600287C
:104520007FF4CEAEFFF74CFECAE6022140F66D40A6
:10453000FFF7ACFA044610B96FF06804C0E6022138
:10454000083016F038FC01230370467021463246CD
:1045500040F66D40FFF7D4FA044600283FF4ECAE75
:10456000AEE600297FF47EAF6FF00404A8E600BF3A
:10457000D000002000010020B9000020B800002079
:1045800010B5FFF723FE034B1B6813B1BDE81040C5
:10459000184710BD0C14002070B5064614F003FC3B
:1045A0001C28054611D80A4C314604F5A87014F0B1
:1045B0000AFC48B104F5A8702A4631462C4414F090
:1045C000E0FB002084F8500170BD6FF00B00FBE7AA
:1045D0000000002070B5214DD5F84C3188B006465A
:1045E000002B35D0012105F1CC0014F0F0FC10EACD
:1045F000010430D11A48FFF7CFFF1A4B1E6000228A
:104600000023CDE906236FF00803CDE90243CDE98D
:104610000044154B154904944FF42072144812F0CD
:1046200051FD1449124817F045FBD5F84C31DB68B1
:104630009847044648B926B908B0BDE87040FFF76E
:10464000C5BD05F1BC0012F081FF204608B070BD69
:104650006FF01204F9E76FF07704F6E7000000202E
:10466000B5E101000C140020913E0000002C002058
:10467000F0090020BEE10100004870475001002011
:10468000F8B50B4F06460025FB79ECB2A34202D8E1
:104690006FF0010409E0C4EBC4010722394430463D
:1046A00014F09DFB01350028EED12046F8BD00BF77
:1046B0000000002038B514490622054614F08FFB8F
:1046C0000446E0B1062142F20500FFF7DFF9044697
:1046D000B8B106222946083016F073FB21460022A5
:1046E00042F20500FFF70CFA044640B906220648DC
:1046F000294614F085FB054B012283F860202046F3
:1047000038BD6FF06804FAE7610000200000002067
:1047100030B5044685B00D46A1B10023072202A999
:1047200028460293CDF80B3014F059FB50B11248D3
:10473000C4EBC40407222946204414F061FB002086
:1047400005B030BD684614F00DFC0028F8D168466D
:10475000FFF796FF0028F5DA0748C4EBC4040444C9
:1047600007226946204614F04BFB002DE7D00722B4
:1047700021462846E1E700BF0000002073B50C4643
:10478000054618B9ECB16FF0150018E000230722B8
:1047900069460093CDF8033014F021FB0028F1D0D6
:1047A0002B78012BEFD1AB7903F0C003C02BEAD1FA
:1047B0002846FFF765FF0028E4DB6FF0770002B0C2
:1047C00070BD134EF379012B1ED0BFF35B8FD6F86B
:1047D000CC30BFF35B8FDB070BD4002DD3D0072287
:1047E000694628460094CDF8034014F0F8FA0028F2
:1047F000C9D0F4792946631C2046F371FFF788FF7E
:10480000002808BF2046DAE76FF00B00D7E700BFAB
:104810000000002070B586B0064601AA002141F2D2
:104820000900FFF76DF9044670B9019B02909D687D
:10483000ADF80C000135062202A9284614F0CFFA83
:1048400020B901980FF08CFD002016E00C4B186881
:1048500004909B88ADF81430062204A9284614F071
:10486000BEFA0028EDD006222946701C14F0C8FAC2
:10487000019834700FF074FD012006B070BD00BFC8
:1048800065CA010007B56846FFF7C4FF044BD8713D
:1048900018B169460020FFF73BFF03B05DF804FB49
:1048A000000000202DE9F341154B93F8BA4014F0B5
:1048B000010407460E4615D001AA00214FF6094013
:1048C000FFF71EF90546C8B9019B9B685C78B442A6
:1048D00028BF34464FF016089E1CA54206DB0198FF
:1048E0000FF03EFD204602B0BDE8F08108FB0570E8
:1048F0001622314614F084FA0135EEE70024F1E780
:1049000000000020F0B5154EF47989B0F4B901210A
:1049100002A8FFF7C7FFF071C0B1162702ABE5B2DE
:1049200007FB053106220DF1010014F069FA01239D
:10493000694628468DF80030FFF7EAFE20B9F27983
:104940000134E3B29A42E9D809B0F0BD002108462B
:1049500009B0BDE8F040FFF711BF00BF0000002024
:104960002DE9F84311F0010405780E4690461F46E4
:1049700026D0234C2AB1880603D594F8D0305906A6
:104980003AD5C5EBC5034FEAC509E35C012B08D056
:10499000A9EB0505635DB8F1000F0CD13B70002059
:1049A00007E0072010FB05302044FFF783FE0028B6
:1049B000EED0BDE8F883B20648BF43F00203EDE74E
:1049C0004B0715D5DFF83880C5EBC503EE0018F8A6
:1049D0000330012B0AD1072010FB05304044FFF7BC
:1049E00069FE751B18F805303B70E2E72046F8E7D2
:1049F00014F085FD0123F7E76FF08500D9E700BFCC
:104A00000000002010B50A4CE3790BB1002010BD66
:104A1000FFF738FF0028FAD1E379002BF6D1FFF732
:104A200071FF0028F3D1601CBDE81040FFF742BEC3
:104A300000000020436837B50446580502D5002021
:104A400003B030BD22690AB1D907F8D51A4D2078D4
:104A5000EB798342F3D9C0EBC000002307226946FB
:104A600028440093CDF8033014F0B9F90028E6D0BB
:104A70006068C20706D495F86830082B02D8A3688E
:104A80009F2BDCD910F0300F02D02369002BD6D039
:104A9000C30601D4236943B9D4E902239A42CED88C
:104AA0001F2ACCD9B3F5804FC9D800F46030B0F5D7
:104AB000603018BF0120C3E700000020F0B50646B3
:104AC0001E4B16F8092B83F8672085B00023054696
:104AD00007220F46304669460093CDF8033014F0A4
:104AE0007EF92A780446A8B9154B1868998802906F
:104AF0009B79ADF80C10104602A98DF80E3000F02D
:104B0000CBFC0546B8B1042100F072FB3D602046A5
:104B100005B0F0BD3146104614F06EFF044638B9BA
:104B20002878314600F0B8FC054620B10521EBE7B6
:104B30006FF01504EBE76FF00B04E8E700000020CE
:104B40006BCA010000487047180000202DE9F04FA3
:104B50000E698FB09A460023B6EB030905468C48D0
:104B6000059218BF4FF00109079314F0EBFC87077B
:104B70000C4640F102810846FFF75CFF28B96FF050
:104B8000150B58460FB0BDE8F08F204614F0C9FC55
:104B900080460028F3D005F11007384614F0D2FC07
:104BA000C0F3801B400600F1EB800F2259460AA893
:104BB00014F031F9A368ADF828306068E368ADF807
:104BC0002A3014F0B0FC2A7823788DF835009A4208
:104BD0008DF836B004D06E486FF4805114F0B8FCF4
:104BE0006C4A23782B7082F8673061680DF12D03D1
:104BF0004A462846FFF7B4FE83460028C1D105F196
:104C00000900002E49D02169072214F0F9F8204646
:104C100014F09CFD6368D907814647D5002E42D029
:104C200013F0100F14BF0423012321698DF82C30D9
:104C300007220DF12E0014F0E3F84FF000080F21C9
:104C400042F20600FEF722FF8346002800F09B8018
:104C50000F220AA9083016F0B4F80022594642F291
:104C60000600FEF74DFF002840F0908076B36368A1
:104C7000DB0739D40121284614F078FD83460798D4
:104C8000BBF1000F73D000283FF47BAF002100F090
:104C9000AFFA079814F049FE73E708960722CDF89B
:104CA000236008A9B1E78DF82C60C8E79A0503D402
:104CB000189B0BB9022803D102238DF82C30BEE7D4
:104CC0000323DDF860808DF82C30B8E7199B009342
:104CD000CDE90189189B05995246284614F0BFFC7E
:104CE00083460028C3D04CE707A92846FFF7E6FE15
:104CF00083460028BED010F10C0F7FF442AF002E87
:104D00007FF43FAF636898073FF53BAF626882F07E
:104D10000202C2F3400B0BF001020D21384614F0E1
:104D200087FC09F1FF335A425A410721384614F0F3
:104D30007FFCA9F102014A424A413846082114F099
:104D400077FC6268092102F00102384614F070FC19
:104D500042460A21384614F06BFC62680C21C2F30B
:104D60008002384614F064FC4FF0000B09E708B1EC
:104D700014F0DBFD002ECED1C8E76FF00A0B00E780
:104D80006FF0770BFDE66FF0680BFAE68346F8E606
:104D9000CC0000200000002073B51546069A0C4692
:104DA000CDE900322B460A4601461148FFF7CEFEF8
:104DB00021460646002340F201109D4202D13046B2
:104DC00002B070BD0A88824204D14A6812B11278DA
:104DD000D20702D401330831EFE70649064817F03D
:104DE000E8F84FF470220023034812F04BFCE6E78A
:104DF00018000020BD970100300000201FB5224898
:104E000014F0D9FC21486FF4005114F0A1FB1F48A5
:104E100014F098FB03465A06C0F3801031D51B48A6
:104E200014F090FB830521D5002319480093072235
:104E30006946CDF8033013F0D2FF164BE8B9164A95
:104E4000918810689279ADF80C108DF80E200290C0
:104E5000042202A9187E00F057FB044630B100215D
:104E6000417200F0C5F9204614F05FFD06480021AC
:104E700004B0BDE8104014F079BC052203F1210113
:104E8000E8E704B010BD00BF180000202800002093
:104E900021000020000000206BCA010037B51E4829
:104EA0001D4C14F04FFB10F4005F32D0204614F07C
:104EB00049FB4206C0F380152BD4204614F042FB78
:104EC000830526D501A9A4F11000FFF7F7FD00BB6B
:104ED0000121A4F1100014F049FC50B129460198B9
:104EE00000F086F96FF40051204614F031FBC0F356
:104EF0004035019814F019FD5DB1BFF35B8F54E8A4
:104F0000003F43F4005344E80032002AF7D1BFF3D6
:104F10005B8F03B030BD00BF280000200023C0E934
:104F200001330146C360014816F04CBF9C080020C5
:104F30000E4B70B51D68044655B90D4D0D4E617A86
:104F4000B5420CD389B92046BDE8704015F072BE59
:104F50002B6813B1617A204698472D69ECE72B68DE
:104F60000BB1204698471435E9E770BD10140020B6
:104F70005CC901005CC901002DE9F8434D69044694
:104F80000E4690461F464FF0FF333E484FF0FF322B
:104F900012F096F9A37A072B46D14FF02003EFF3D6
:104FA000118283F31288BFF36F8FA369002D4DD058
:104FB00000212960002B46D1C4E9055582F31188F0
:104FC000BFF36F8F042106F1080015F00BFF238853
:104FD00008F0FD0843EA0838B389A0F80080043BD4
:104FE0004380022333753046FEF7ECFD002847D09E
:104FF0004FF02003EFF3118083F31288BFF36F8F1C
:10500000002D37D06369002253B19D422FD12B6808
:10501000A1693ABBA942636100D1A36100232B605F
:1050200080F31188BFF36F8F164812F023F915B182
:105030002846FFF773FF1FB130460FF091F90027A4
:105040003846BDE8F8831D60A561B7E733B103F1C9
:105050000C09DB680133C9F80030AFE7E36904F1FC
:105060001C09F7E7A942136008BFA261D6E71A46F8
:105070001B68C9E7D9F80030013BC9F80030CFE719
:105080000127DDE7000100200048704700010020F3
:1050900038B50446002301258B4202D10024204666
:1050A00038BD04F1B802BFF35B8F52E8000F00284F
:1050B00004D142E8005CBCF1000FF6D1BFF35B8F76
:1050C00004F1C00002D001330446E5E7002CE6D02D
:1050D000B8220021204613F09EFE04F15800044936
:1050E00016F067FF034904F1280016F03CFFD6E7ED
:1050F000B955000007980100F8B51F46837A072BC1
:1051000004460D46164614D112B312F069FD134B36
:105110008342134807BF002200234FF0FF324FF0B5
:10512000FF3312F073F8A8B1A37A072B04D0FFF76E
:10513000F5FE6FF07F000AE00023C0E90167C3605D
:10514000686104F13800294615F0F6FD0020F8BD2D
:105150004A61F6E76FF06800F9E700BF0813002026
:105160009C0800201B4B10B5002201219A600446C8
:1051700017F0FBF9BFF35B8F174BD3F8B820BFF3E1
:105180005B8F04F114000AB9012010BD9A7A9AB914
:10519000BFF35B8F1A1D52E8001F21F0400C42E85C
:1051A00000CEBEF1000FF6D1BFF35B8F4A0603D5E8
:1051B000184614F034FBE7E79B7A072BE4D1074B42
:1051C0000022042117F0D1F9012384F820300220B5
:1051D000DBE700BFD8010020700A0020A80A0020E9
:1051E00002460121014814F0BABB00BF700A00203A
:1051F00070B5857A8D42044600F09D80817225B994
:105200008378082B01D014F075FBA37A012B16D1FB
:10521000494D00264FF02003EFF3118283F31288EB
:10522000BFF36F8FE369002B66D0013BE36182F32C
:105230001188BFF36F8F284612F01CF8EAE7072B9E
:1052400009D0002B77D1A378042B1ED12046BDE8CE
:10525000704014F06ABBA378042B6CD004F13800C2
:1052600016F0A4FD3548002112F0E4FE0023C4E945
:105270001433E378012B5ED104F158004FF420324F
:10528000BDE87040002312F0C9B9013D052D52D888
:1052900001A353F825F000BFB1520000EB5200000B
:1052A0004D5200004D520000EB520000EB52000046
:1052B000204614F085FAA378012B03D104F158009D
:1052C00016F083FEBFF35B8F043454E8003F43F0D5
:1052D000400344E80032002AF7D1BFF35B8F174840
:1052E000BDE87040002112F0A5BE637A002BADD05E
:1052F0002046FFF71DFEA9E7606928B1A169036890
:105300006361884208BFA36182F31188BFF36F8F86
:1053100088B14FF02002EFF3118382F31288BFF3BC
:105320006F8FC268E261C66083F31188BFF36F8F2D
:10533000FFF7F4FD7FE770BD00010020D8010020D9
:10534000034BC01A034B80115843C0B2704700BFD3
:10535000700A0020ABAAAAAA38B50D460649002853
:1053600008BF084615F0C5FC044618B1291D0830D1
:1053700015F0DEFC204638BDCC080020F8B5BFF3A0
:105380005B8F4268BFF35B8F9205044600F1040314
:1053900019D5B0F89E20B0F8A010914213D8B0F8FB
:1053A000A21091420FD3D0E9291291420BD1BFF341
:1053B0005B8F53E8002F22F4007243E8002100299C
:1053C000F7D1BFF35B8F104B1D6825B90F4D104F00
:1053D000BD420CD3F8BDEE683EB1B4F8A630B4F8C7
:1053E000A420B4F89E102046B0472D69EDE7EE6882
:1053F0003EB1B4F8A630B4F8A420B4F89E1020460C
:10540000B0471435E4E700BF101400205CC9010068
:105410005CC901002DE9F041074608460C4613F02F
:10542000E3FE054618B900252846BDE8F081134B78
:105430001E6846B9124EDFF84C804645F4D2B36878
:1054400083B91436F9E7B3680BB93669F1E7214639
:10545000384698470028E6D0204613F0C5FE0028BD
:10546000F3D1E0E72146384698470028DBD02046B4
:1054700013F0BAFE0028E4D1D5E700BF10140020D5
:105480005CC901005CC90100024B1A680261186026
:10549000704700BF1014002070B506460D4609483D
:1054A0000121FFF7F5FD044650B106720722294697
:1054B000883013F0A5FC0123A370034BC4F8A0307F
:1054C000204670BD700A00201800280070B50546FF
:1054D0000C480E4614F00EFA044628B18378012BCE
:1054E00004D014F022FA0024204670BD294632462A
:1054F00014F062FA05460028F6D1204614F015FA99
:105500002C46F1E7700A0020F8B505460E480E4615
:10551000174614F0EFF90446A0B18378012B03D0AD
:1055200014F003FA00240DE036B13246294614F097
:1055300043FA08B92046F3E7A37ABB42FAD1237AAB
:10554000AB42F7D12046F8BD700A002038B50446BA
:1055500008460D4613F048FE48B3164B93F8D0307A
:10556000990707D4E37883B129462046BDE838403F
:1055700000F0BAB994F8AC309A07F3D5BFF35B8F5B
:105580006368BFF35B8F5B05ECD42946204614F0BB
:105590003DFA58B92B88A4F8A0306B88A4F8A23043
:1055A000AB88A4F8A830EB88A4F8AA3038BD6FF017
:1055B0001500FBE700000020F7B510F84E3C04464C
:1055C000A0F15805FBB9284614F0A2FA2C4B1E682E
:1055D0004EB92C4E2C4FBE420DD3284603B0BDE829
:1055E000F04014F0A2B973681BB114F84F1C2846A0
:1055F00098473669ECE773681BB114F84F1C2846CE
:1056000098471436E7E710F8563C012B2FD1BFF32B
:105610005B8FA0F1540656E8003F23F4007246E881
:1056200000210029F7D1BFF35B8F9B0521D5B4F88A
:105630004830ADF80030B4F84A30ADF80230B4F874
:105640005030ADF80430B4F85230ADF80630694649
:105650002846FFF77BFFBFF35B8F56E8003F43F41C
:10566000807346E80032002AF7D1BFF35B8F03B0A6
:10567000F0BD064A106851686B4603C3E7E700BFF8
:10568000101400205CC901005CC9010056CA010069
:1056900001460148FFF760BE240900202DE9F041D2
:1056A00006464FF0FF334FF0FF3200200C46FFF765
:1056B000EFFFB37A072B05464FF0000605D00EF03A
:1056C0004FFE35462846BDE8F081466100F10807E7
:1056D0000C4E3846B6F8FC8015F0A8FB80450CD27D
:1056E000B6F8FC6054F8081F3246384615F069FBDE
:1056F0003146204615F07EFBE4E7384615F096FB70
:1057000086B2EFE70000002070B5837A044693B9B3
:10571000BFF35B8F031D53E8002F22F0400143E8E5
:105720000015002DF7D1BFF35B8F530603D5BDE8FD
:10573000704014F074B80022002304F1380015F012
:10574000DDFA054660B91F4A1F49204840F2E723A9
:1057500012F00AFD404080F311884FF0030002DF91
:105760001B4EAA89B6F8FC309A4207D800230222C1
:1057700029462046FFF700FC30B170BD294620467F
:10578000FFF78CFF014620B92846BDE870400EF0B7
:10579000E7BD012300222046FFF7EEFB0028F3D0EF
:1057A000AA89B6F8FC309A4202D800230322DFE728
:1057B00029462046FFF772FF01460028E4D0012366
:1057C0001A46E8E7C4E101002EE10100F1E0010022
:1057D0000000002010B50B490B4816F0F3FA0B49F6
:1057E000094816F0EFFA0A49074816F0EBFA14F0E8
:1057F0007AFE15F07BFA044608B914F018FA204630
:1058000010BD00BF141400209C08002024140020A8
:1058100034140020044B186818B9044A5A600B600D
:1058200070476FF00B007047300B0020B4CB0100C5
:105830002DE9F743294E2A4FDFF8A8800446BE42DF
:1058400002D303B0BDE8F083736801A920469847EE
:1058500000283DDB019D3388A5F87030A5F8803025
:10586000414605F11000D6F8089016F0A2FBBFF3F0
:105870005B8F05F16803002253E8001F43E8002016
:105880000028F9D1BFF35B8FAA60626D05F10803B0
:1058900002BBC4E9143301982C604368C5F80C902E
:1058A0001B6803B19847019BBFF35B8F683353E8D4
:1058B000002F42F0010243E800210029F7D1BFF395
:1058C0005B8F019843689B6913B100F168019847A9
:1058D0000C36B4E713606365DDE700BF38C901002B
:1058E0005CC90100F79A010073B50D4616490B78A3
:1058F000013313F0FF0308BF01230B70097806463C
:105900000822122014F0AEF80446D0B10821084451
:1059100015F051FA2B8803806B884380AB88838015
:10592000EB88C3800023009322460521304614F003
:1059300003F9054610B120460EF012FD284602B0CC
:1059400070BD6FF00B05F9E7B3270020024BC1F8DB
:10595000383114F07FB900BFB9A10100024BC1F882
:10596000383114F077B900BF9DA10100024BC1F896
:10597000383114F06FB900BF6D9F010007B50838CA
:10598000019001A9024816F066F903B05DF804FB26
:105990004C080020F7B5002307460E461E4800229B
:1059A000694611F02FFB044620B16FF00B0420462E
:1059B00003B0F0BD01462C22009813F02CFA009D94
:1059C0001648AC60C5E90074C5E90944002200230B
:1059D00001A9019411F016FB04460028E5D1014607
:1059E0004FF4A472019813F016FA01980C4BC3609F
:1059F000F83016F0DBF9019BBFF35B8FF03353E80F
:105A0000002F43E800410029F9D1BFF35B8F019BD0
:105A100043F8085B3360CAE7300800204C080020D8
:105A2000E80100202DE9FF4105460E464FF0000831
:105A30004FF42053006817688DF8088002A91446B7
:105A4000ADF80A3013F045FAA0B142F60103286818
:105A50008DF80C8003A9ADF80E3013F03AFA48B176
:105A600023691BB15A88B24200D25E80012004B083
:105A7000BDE8F0816168286813F02BFA10B10023AB
:105A80002361F3E7E368A0681A783AB1B7F88A307F
:105A900081895B1A934201DA0020E8E7042108308B
:105AA00015F089F9094B2061A268068046802946D5
:105AB000009301940023384614F095FA0028EBDB9C
:105AC0002069003818BF0120D1E700BF219F0100E5
:105AD0002DE9F7438B681B78D22B06460C461746F8
