:10000000803800207D2600005D7A01005126000026
:10001000512600005126000051260000000000007B
:100020000000000000000000000000006523000048
:10003000512600000000000011230000512600009E
:1000400015240000250501001524000015240000DA
:1000500015240000152400001524000015240000BC
:1000600015240000152400001524000015240000AC
:10007000152400001524000015240000152400009C
:10008000152400001524000015240000152400008C
:10009000152400001524000015240000152400007C
:1000A000152400001524000015240000152400006C
:1000B000152400001524000015240000152400005C
:1000C000152400001524000015240000152400004C
:0C00D00015240000152400001524000079
:0400DC00FFFFFFFF24
:1000E00053B94AB9002908BF00281CBF4FF0FF319F
:1000F0004FF0FF3000F00CB8ADF1080C6DE904CE04
:1001000000F008F8DDF804E0DDE9022304B07047F0
:10011000704700BF2DE9F04F07468C460846099E00
:1001200015463C461946002B40F0C6808242B2FA82
:1001300082F746D94FB1C7F1200E24FA0EFE00FA1D
:1001400007F3BD404EEA030CBC404FEA15481FFAC6
:1001500085FEBCFBF8F9220C08FB19C309FB0EFA5B
:1001600042EA03439A4528D9EB1809F1FF3004D23B
:100170009A4502D9A9F102002B44A3EB0A03A4B2C9
:10018000B3FBF8F208FB123302FB0EFE44EA034411
:10019000A64514D92C1902F1FF3303D2A64501D983
:1001A000931E2C44A4EB0E0443EA00401EB1FC4015
:1001B000002334607360BDE8F08F4846DDE71346E6
:1001C000F0E702B9FFDE87BB831A01214FEA154E23
:1001D000AAB2B3FBFEFC200C0EFB1C330CFB02F896
:1001E00040EA0343984563D9EB180CF1FF3004D281
:1001F000984502D9ACF102002B44A3EB0803A4B24A
:10020000B3FBFEFC0EFB1C330CFB02F244EA03447E
:10021000A2424FD92C190CF1FF3304D2A24202D9C9
:10022000ACF102032C44A41ABEE7C7F1200C20FA5B
:100230000CF800FA07F324FA0CFCBD404CEA030268
:100240004FEA154EABB2B8FBFEFC110C0EFB1C8046
:100250000CFB03F941EA0040814504FA07F423D975
:1002600028180CF1FF3104D2814502D9ACF102010A
:100270002844A0EB090092B2B0FBFEFC0EFB1C0070
:100280000CFB03F842EA004398450FD9EB180CF138
:10029000FF3204D2984502D9ACF102022B44A3EB01
:1002A000080342EA014191E76146E2E76246F6E768
:1002B0006046A2E76346B6E7834205D90EB1C6E9B8
:1002C00000700021084676E7B3FA83F181B98342D2
:1002D00001D3BA420AD8BC1A60EB030301209C4642
:1002E000002E68D0C6E9004C002164E70846F7E715
:1002F000C1F1200C8B4022FA0CF41C4302FA01F5E8
:1003000000FA01F327FA0CF220FA0CFB4FEA144929
:100310001343BBFBF9F81FFA84FE09FB18BB1A0C48
:1003200008FB0EFA42EA0B42924507FA01F73ED962
:10033000A21808F1FF3004D2924502D9A8F10200B8
:100340002244A2EB0A029BB2B2FBF9F809FB182285
:1003500008FB0EFE43EA024296452AD9A21808F18C
:10036000FF3304D2964502D9A8F10203224443EA9E
:100370000040A0FB0593A2EB0E029A42CE4698469F
:1003800002D306D14F4504D2B9EB050E63EB040846
:10039000013886B1B7EB0E0362EB080707FA0CFCD5
:1003A000CB404CEA0303CF40C6E900379CE7404608
:1003B000C7E74346DBE73146FDE6000000000000EA
:1003C0002DE9F041D0E90B35866A5C193034A6423C
:1003D0008846174618D81C4DA3FB050118A3D3E97E
:1003E0000023FFF77DFEA41B20F07F40C8F800002B
:1003F00013A3D3E90023A4FB0501FFF771FE20F04E
:100400007F403860BDE8F0810F4C0DA3D3E9002395
:10041000A6FB0401FFF764FE05F1300120F07F40E8
:10042000C8F8000006A3D3E90023A1FB0401FFF7ED
:1004300057FE20F07F403860BDE8F081AFF30080C8
:100440008D49FD1A0700000000CA9A3B0000000019
:100450002DE9F04FAB4C8FB094F86A20002800F0E3
:10046000398112F0010740F0B78194F82500FF238D
:1004700000F0030084F826300FF0F8FC94F86A00CE
:1004800041072DD494F8292094F8353004EB8202EA
:1004900004EB8303D2F82C80D3F83890B8F1000F26
:1004A00011D0984841460AF0B9F898F800305A0639
:1004B00005D5062105F078FC002800F0C981914897
:1004C00049460AF0ABF898F8003013F00E0F40F0F0
:1004D000EE80236A9BB10C2738460FB0BDE8F08F41
:1004E0003A4604F16B01C0F3C0000FF025FEFF286F
:1004F00084F82600C6D038460FF0D2FCC2E708F0D8
:100500007BFF8246002800F0AD8108F081FF834622
:10051000002800F0AC810AF06FFF0546002800F0CB
:10052000A381406F4FF6FF732B8505F11C03002854
:1005300000F0948105F1680205F164010B9305F068
:100540003FFCB5F86020704B22F4EF6222F0070206
:1005500042F4887242F00102A5F8602095F8392033
:1005600002F03F0262F07F0285F8392095F87A2088
:1005700022F0070285F87A2095F83C2022F0070245
:1005800085F83C2095F8D82022F0070285F8D8207D
:100590004FF01B120026C5E916230622A5F8C0203D
:1005A000C5E912666E67A5F87860EE852E6385F85A
:1005B0003B602E65A5F8C460A5F8C860A5F8D060BA
:1005C000A5F8CC60A5F8E46085F8E660C5F8086198
:1005D000A5F80C61A5F8206108F0F6F995F83A2124
:1005E000A5F8386122F0030285F83A2195F87A20BF
:1005F000A5F8406122F0180285F87A2095F8662166
:1006000085F8436122F0070285F8662195F8862176
:10061000C5F844A166F3451285F8862195F8AE2108
:10062000A5F8646166F3C302C5E94A010021002010
:10063000C5E94C0185F8AE2185F8D960A5F884613B
:10064000C5F8E060A5F8AC61A5F8B8610BF01AFA3E
:10065000A5F8D2000BF01CFAD5F8BC112B4AA5F86E
:10066000D4000A40C5F8BC210BF018FA95F8C02157
:1006700060F3020285F8C0210BF016FA0B9B23628F
:1006800095F8C031C5F8C46160F3C503C4E918AB7F
:10069000C5E97466C5E97266C5E905662E70ED6147
:1006A00085F8C03110F08CFC002840F0D38094F81D
:1006B00024300121C3F342030DF133008DF83330B0
:1006C00005F0FEFC20BB236A002B3FF404AF09F0C9
:1006D0007BFC00E712F001073FF4FEAE236A5BB13A
:1006E00093F8202042F0020283F82020236A93F836
:1006F0002030D8073FF5EFAE0FB0BDE8F04F09F05E
:10070000A5BC00BF281C0020480148010000FFF6DE
:1007100099F801100246404609F03CFD5849B4F8EA
:10072000689031230025A360A0FB010152A3D3E907
:100730000023C4E9055525706560E560FFF7D0FC2E
:10074000206106F0C1FD0646B9F1000F08D198F806
:10075000005005F00F05A5F10105B5FA85F56D0905
:1007600094F82400236965F3000010F0010584F873
:10077000240036D00020434ADFF80C910493022570
:100780000DF13408019305920321CDE9020006948E
:1007900033460090CDF82080CDF81C902A460D9568
:1007A00006F0C6FC414608F0B7FE00288BD1374A58
:1007B00005924AF2D8320092CDE90300CDE901005A
:1007C000CDF81C90CDF820800694334601220321F9
:1007D0000D9506F0ADFC2EE0002738460FB0BDE8C1
:1007E000F08F2B4A2B48049303F24713A9FB000117
:1007F000069402951360912303FB0911224B079382
:10080000204B05934FF6FF7309924FF002090393B3
:100810000DF1340818A3D3E90023CDF83490CDF8B6
:100820002080FFF75DFC3346CDE900504A4628465C
:10083000032106F027FC414608F06EFE00287FF4F5
:1008400042AF94F86A3043F0010384F86A3043E61B
:10085000122741E609F0B8FB03273DE605F16C00DD
:10086000686767E6072737E6584608F0D7FD504621
:1008700008F0C8FD07272FE68D49FD1A0700000084
:1008800000CA9A3B05A20000698A0000599D000039
:100890009C1C0020002AE78470B590F824308AB0B0
:1008A000C3F342030D46044601210DF12300164611
:1008B0008DF8233005F004FC71780246284609F0D3
:1008C00069FC1D491AA3D3E90023A0FB0101FFF72E
:1008D00007FC23699842054620D21B1A0022019288
:1008E000164A0293164BA21AA3FB02320221920966
:1008F00000230A4409AE099112490591CDE9033359
:100900000321D2B206960093184606F083FC3146C6
:1009100008F002FE48B925610AB070BD02D9C21ABA
:100920000023DCE700200AB070BD0C200AB070BDC7
:100930008D49FD1A0700000000CA9A3B281C0020C0
:1009400009CB3D8D698A00002DE9F04FC38D468E9D
:100950001E4490F80E31B6B2314413F007038BB049
:1009600004461FFA81F940F0A381B0F8E870A9EBC2
:1009700007011FFA81F9090400F10C82904690F9F1
:100980003920002AC0F2358194F8E43084F8E5304B
:1009900094F8842194F8853194F80C1184F80D11A1
:1009A000934206D094F8863103F00F03062B00F033
:1009B0004782B14BD4F808511A68944204BF002210
:1009C0001A60002D00F044812868002800F0408162
:1009D000B4F81031B4F82AC04268C4F8082163455D
:1009E000B4F81221B4F8141100F01781B4F828C03B
:1009F000EB8318232B710023A5F806C02A84698491
:100A00002B77294608F010FD08F018FDA368002B8D
:100A1000C0F2F780608DB4F8105110FB09F080B27D
:100A2000B0FBF5F115FB01F39BB298421FFA81FA76
:100A3000C0F0CE8005FB110140F2E2438F4889B23D
:100A400003FB01F1A1FB000189A3D3E90023FFF718
:100A500047FBA8EB0008E38D1F4494F93930BE1B17
:100A6000564440F2E247002BE68507FB05F6C0F24C
:100A70009681834A8349844840F68D4316F077FA7D
:100A8000404080F311884FF0030002DF0027B34697
:100A90007E4AB4F814317E49B4F81201A08532447C
:100AA000B2FBF6F2A4F8C62042F2107202FB036316
:100AB0003144013BB1FBF6F1B3FBF6F6B4F810316B
:100AC00063858AB2831D9A42A4F8C260A4F8CE203E
:100AD00004DDC0F57F43FA331A4492B294F80E3124
:100AE000A4F8CA201B0744BF0023A4F8C430022185
:100AF000012012F027FA002202218146012005F090
:100B0000AFF964494FF4F072204605F039F900F16D
:100B1000030A5FFA8AFA604B0094524601210020D2
:100B200006F090FB30F002030CD0554A5B49564862
:100B300040F6BC4316F01BFA404080F311884FF09A
:100B4000030002DF4D4EABFB066B49A3D3E9002344
:100B500030465946FFF7C4FA089420F07F450694C2
:100B60004F4823690493A5FB0001072303FB0511EC
:100B70004C4B07934C4B0593301A4FF6FE736BEBBF
:100B8000010103934FF47A720023FFF7A9FA434659
:100B9000CDE90150009752460121002006F0C8FA25
:100BA00030F002030CD0364A3C49374840F6D64371
:100BB00016F0DDF9404080F311884FF0030002DFAA
:100BC000B9F1000F40F0368100200BB0BDE8F08F86
:100BD0001B1A2A4940F2E24003FB00F0A0FB01018E
:100BE00023A3D3E90023FFF77BFA20F07F40804462
:100BF00031E790F8D920002A3FF4C6AE80F8D9300A
:100C0000C6E6E168626823F0004391422CBF884445
:100C10009044A360A8EB0308FCE6B4F82CC094450C
:100C20007FF4E4AE40F2E24C0CFB03FE42F2107C97
:100C30000CFB01EC0CF1FF3CBCFBFEFCB4F8C2E089
:100C40001FFA8CFCE6457FF4D1AE01232B71D8E668
:100C50000B4A16490C4840F6114316F088F94040FB
:100C600080F311884FF0030002DF2868B0E600BF70
:100C70008D49FD1A07000000BC1C002000CA9A3BE9
:100C800028BC010028B80100C8B70100FF59620262
:100C90007FC3C901D00E002069AC000008BD01006F
:100CA0008D49FD1A11AC000069F20000F4BC01008E
:100CB000012008F0C9FB0646002800F0CF807448E8
:100CC00005F028F80546002800F0C880714B1A6826
:100CD000002A00F0BB8008F0D5FB2B793268D4F8ED
:100CE0000811516043F00303C4F8086100202B7120
:100CF0000C236B71E87194F81C312B72664AD4F89E
:100D00001831A18DA2FB03239B0AA5F80930B4F882
:100D10001031A5F80B30B4F8123194F80E21A5F873
:100D20000D300631B4F81431A5F80F304944D4F829
:100D3000C43189B260F30202A4F8E81084F80E21ED
:100D4000A5F81110BBB194F86621960713D494F856
:100D5000BF21D0070FD4D4F8D0219342D4F8C821B2
:100D60007FD062B91A7902F00302032A00F085806D
:100D7000C4F8C83105E0D4F8C821002A68D0D4F8F6
:100D8000CC311A682A601D602B68C4F8CC510BB9AD
:100D9000C4F8D4516FF076000BB0BDE8F08F226C30
:100DA000A36C02FB1933A36410F05CF9054694F8B8
:100DB000D800C0F3C20010F057F9054406FB05F552
:100DC000364B94F81C2105F5742505F23F25A3FB4D
:100DD0000535AD0C07FB02F2A36C226505FB0AF09A
:100DE00072080344963A934228BF13462564A6EB43
:100DF000050B2B4DC4E911230023C4F8E030A0FB00
:100E0000050121A3D3E90023FFF76AF92249A8EBE2
:100E10000008D4F81801A1FB0030800A07FB00F09D
:100E200019A3D3E90023A0FB0501FFF759F920F02E
:100E30007F472DE601220221104605F011F8C3E696
:100E4000002384F88521A4F8C830B2E51C6042E78D
:100E50002B60C4E97155C4F8CC5198E76FF0680075
:100E6000B3E61968C4F8D011002A88D11A682A603C
:100E70001D602B68C4E9725589E7DA79032AF5D039
:100E80000A2A7FF475AFF1E78D49FD1A07000000CB
:100E9000501D0020BC1C00205917B7D183DE1B4316
:100EA00000CA9A3B000000002DE9F04F0B68D2F811
:100EB00000801B6897B00C460A93037F00F11E0167
:100EC000C3F380130546174614A806228DF8473051
:100ED00016F014FE94F81190B9F1FF0F0DF1480BC4
:100EE0005BD05A460DF1470148460EF0CFFC9DF805
:100EF000473002338DF847302946032251F82E6BD4
:100F000007F1080007F1040A16F0F8FD07F11803CD
:100F1000042205F12A0150460B9316F0EFFD0B9BBE
:100F2000052205F13A01184616F0E8FD0B9B052154
:100F3000184605F0C5F87B7F95F83F2000F03F008C
:100F400060F305037B77C2F30403BB77AB8EFB81B1
:100F5000012899B202F01F0305D91B3303F01F03C8
:100F60000B2B00D8F9B90A9BEC6800225A6197F85C
:100F70002030304662F30003012687F820302946EE
:100F80002E7108F051FA20682671214608F04CFABB
:100F900008F054FA17B0BDE8F08F062214A958469D
:100FA00016F0ACFDA8E723680020586095F83700DC
:100FB00095F8363043EA00233B8298F8D83052093E
:100FC00062F3C5036A8E0D9240F2E24202FB01F029
:100FD00088F8D8300B9010F045F80C9098F8D800AD
:100FE000C0F3C20010F040F80C9BC54903440B98B5
:100FF00000FB03F303F5742303F23F23A1FB032358
:101000009B0C7B6295F83130398A40F2E24203FB57
:1010100002F24308963BBA63BB622B8FB94AADF824
:101020003A309E46B84B844603440244B3FBF0F387
:10103000B2FBF0F242F21070A8F8C6201FFA8EF24E
:1010400000FB02C2013A881DB2FBFCF2A8F8C220E4
:101050009AB28242A8F8CE2004DDC1F57F41FA3170
:101060000A4492B2A8F8CA205146042208F1DC00D2
:1010700016F044FD2B4613F81C2FC2F34011DA077B
:101080000F910C9100F115814FF48073AB830A9B93
:1010900093F826000FF06AF90146062205F12B00AD
:1010A000002900F0EB8005F1240116F027FDB9F1CD
:1010B000FF0F05F1250000F0E48014A9062216F0C8
:1010C0001DFD9DF84730AB775946062205F11F00FC
:1010D00016F014FD98F8D830FA896A863A8AAA86FA
:1010E000C3F3C203BDF83A2085F83830EA8640469B
:1010F0000AF08EF92946B881E8806568304608F024
:1011000093F9BB89EB801B232B710C9B2E68002B62
:1011100040F0BC809DF83C302B772946304608F0E3
:1011200083F908F08BF997F84500B7F84050B7F805
:101130004260012100F007000FF0A4FD2E4406F5E7
:10114000E1763118824671484FF000093123C8F822
:101150000830A1FB000168A3D3E90023C8F804907C
:10116000C8F80C90FEF7BCFF0B9B7E6A0D9AE568F1
:101170009E1B40F2E24303FB025520F07F4005F244
:10118000B245A5EB0A034A460221C8F81000012027
:101190000B9304F065FE0A9D284609F0FBF9821CBA
:1011A0005B4B0095D2B24846012106F04BF801286E
:1011B00000F08C800A9B93F82430DB0771D4404602
:1011C0000AF026F9DFF84491A6FB09564AA3D3E9B1
:1011D0000023834631462846FEF782FFA368CDF8F8
:1011E00018800BF10304A3F13A0B4A4B07934A4BC7
:1011F00005934FF4E4730893D8F8103020F07F473C
:1012000046484FF0000ACDE903A3A7FB00010723DE
:10121000281A03FB071166EB01014FF47A720023D1
:10122000FEF75EFF0B9BCDE90170A3FB090132A322
:10123000D3E90023FEF754FFE4B220F07F40009092
:101240005B4622460121504605F072FF30F0020352
:101250000CD0334A3349344840F2C91315F087FEA5
:10126000404080F311884FF0030002DF0122022189
:10127000104604F0F5FD17B0BDE8F08F16F049FCFC
:1012800015E70622002116F044FC1AE77B7F43F0A5
:1012900040037B7750460EF005F90123F8832B7746
:1012A0003BE70023012200931846114605F0CAFFD0
:1012B00085E71B4A1D491C48F12315F058FE4040A4
:1012C00080F311884FF0030002DFDDE608F062F9D9
:1012D0000A9B83423FF46EAF114A1549124840F20F
:1012E0009F2315F044FE404080F311884FF0030027
:1012F00002DF5FE7AFF300808D49FD1A07000000B1
:1013000083DE1B43FF5962027FC3C90100CA9A3BB7
:101310002DF20000FDF1000069F200008D49FD1A78
:101320001CBE010008BD0100C8B70100B4B801002F
:1013300078BE010070B503788AB004460E4607AD4A
:10134000032B20D8DFE803F002191B1D11492846A2
:1013500016F08BFB63780493A3780393E3780293EE
:1013600023790193637900930B4AA37905951E2194
:10137000304615F009FE0AB070BD0849E7E7084994
:10138000E5E70849E3E7084A0A21284615F0FCFD8D
:10139000E0E700BF98C60100C1C601009FC601007A
:1013A000A6C60100B0C60100BAC6010010B588B0DB
:1013B0000C4617F0A7F96946FFF7BCFF0348224621
:1013C000694615F0D4FD08B010BD00BFE4C60100A9
:1013D00000B589B029B1094809B05DF804EB15F0F2
:1013E000C6BD17F08FF96946FFF7A4FF04486946A8
:1013F00015F0BDFD09B05DF804FB00BF05C7010095
:1014000025C7010070B5002088B002F091F90446AC
:1014100030B10146104815F0AAFD204608B070BD55
:101420000E480F4E03F0DEF80E4815F0A0FD0FCE6B
:1014300003AD0FC533682B600B490094234602228D
:1014400003A802F057FD044610B101460748E2E741
:10145000074815F08CFDE0E734C701008801002043
:10146000C0B3010054C7010038B4010068C70100CF
:101470008EC701000B6801330B60014B1B681847D6
:101480009C010020014B1860704700BF9C010020A8
:1014900007B50B46002102460191034801A900F05F
:1014A000F9F803B05DF804FB7514000030B585B0A1
:1014B000CDE901010446002501A90548039500F086
:1014C000E9F8DDE902309842B8BF255405B030BDD7
:1014D000496F01002DE9F84FB0F8189019F008088D
:1014E000044693460DD001290CBF49F0100949F07C
:1014F0002009A0F818908BF31188BFF36F8FBDE817
:10150000F88F09F00709022907D1204615F049FD97
:101510000028F0D00128238B4ED16769218B002F42
:1015200015DA256821F00701C4E9008841F00101BE
:1015300021830026218B01F0070ACA4502D0A36847
:10154000002B5AD10DB9002E71D0002356E001F0C6
:1015500007035A1F012A1ED821F00701062B256810
:1015600089B2C4E900880AD13DB1638B2A4612686A
:1015700001339BB2002AFAD1638341F00201218337
:10158000204615F00EFD06460028D3D0238B43F0ED
:1015900020032383CDE7042B0CD121F0070189B26E
:1015A0002183204615F0FDFC05460028C1D041F0FE
:1015B000200121830025BCE7032809D1226923F0FB
:1015C0000703166843F00603238300252F46B1E77F
:1015D000042806D1226923F00703566843F0040368
:1015E000F2E7052806D1226923F00703966843F045
:1015F0000503E9E700252E46E8E7012341F008014D
:1016000021838BF31188BFF36F8FFBB985BB16B1B4
:101610001F492046B0474FF02003EFF3118B83F3AF
:101620001288BFF36F8F238B23F008032383238B50
:10163000DA0625D523F0100323830121B4F818908E
:1016400009F0070900297FF45EAF54E7A16800297B
:10165000DCD0D1F80090D1F804B03B465246204689
:10166000D847B9F1000FD1D04946D9F80090F2E738
:1016700029463B46524620462D6815F0AEFCC5E78C
:1016800013F020011EBF23F0200323830221D5E79E
:10169000077001002DE9F04F91B08B460290924601
:1016A0001C4600259AF8000008B928465FE3252863
:1016B0000AF1010707D0029B594698470028C0F25B
:1016C0005683013512E2182200210AA816F021FAE9
:1016D0009AF80130252B78D0002210469646944681
:1016E0001646394617F8013B2B2B00F09D8000F27F
:1016F0009480202B00F09B80232B00F09B802EB148
:101700009DF8306046F004068DF83060BCF1000FA3
:1017100005D09DF8306046F008068DF83060BEF1C7
:10172000000F05D09DF8306046F010068DF830604F
:1017300028B19DF8300040F020008DF830002AB12B
:101740009DF8302042F040028DF830209DF8302086
:1017500002F04400442803D16FF386128DF8302044
:101760009DF830202A2B42F080028DF830207BD16A
:101770009DF8312042F001024B1C8DF831201A787F
:101780002E2A9DF831200CBF0121002161F3410276
:101790008DF8312074D15A782A2A6AD00133002179
:1017A0000A26184610F8012BA2F13007092F40F243
:1017B0008E809DF830200E91C2F3400040EAD17136
:1017C00061F341028DF830205AE00AF102078DF8EA
:1017D00033309DF83130D90740F1498154F8049BEA
:1017E000B9F1000F07DA9DF8302042F004028DF8BD
:1017F0003020C9F100095A0740F1428154F8048BA6
:10180000B8F1000F80F241819DF831306FF3410350
:101810008DF831304FF0FF3837E12D2B0CD0302BC5
:101820007FF46DAF01225CE74FF0010C59E74FF0F8
:10183000010E56E7012054E7012652E70CFB020295
:10184000303A33461E4616F8010BA0F13007092F37
:10185000F4D9994293D09DF830100D92D20F62F3D3
:1018600041018DF830108AE70B4600224FF00A0C38
:10187000E8E79DF8312042F004028DF83120023370
:101880001F4617F8012B6C2A41D025D8682A2BD087
:101890006A2A46D04C2A4CD01F4617F8012B9DF8D7
:1018A00031308DF83320782A00F2D980572A4DD86C
:1018B000412A03D0453A022A00F2D1809DF8323005
:1018C000042262F302038DF8323001239EE006FB0E
:1018D00001213039034664E7742A26D07A2ADBD105
:1018E0009DF8313006220DE05A78682A9DF83120A3
:1018F00006D1012161F3C6028DF831209F1CCCE78F
:101900001346022262F3C6038DF83130C5E75A78D8
:101910006C2A9DF8312001D10421EBE71346032204
:10192000F0E79DF831300522ECE79DF831300722D1
:10193000E8E7BDF8303023F4F04323F0020343F42A
:10194000804343F00203ADF83030A6E7A2F158011E
:10195000202900F2848001A050F821F0211A000013
:101960005F1A00005F1A00005F1A00005F1A000093
:101970005F1A00005F1A00005F1A00005F1A000083
:10198000BD1800005F1A0000211A0000E1190000D4
:10199000BD180000BD180000BD1800005F1A00004F
:1019A000E11900005F1A00005F1A00005F1A0000D2
:1019B0005F1A0000291A0000211A0000451A0000D1
:1019C0005F1A00005F1A0000451A00005F1A00004D
:1019D000211A00005F1A00005F1A0000211A00009F
:1019E0009DF83210012003F0780360F30201402BD0
:1019F0008DF8321002BF9DF8301041F001018DF8D2
:101A00003010632A31D1003B18BF01239DF83020EC
:101A1000C2F340010B4363F341028DF83020D8E656
:101A20009DF832100220DEE79DF8322003F07803A3
:101A3000A3F14000032161F3020243428DF83220FA
:101A40004341E3E79DF83220032113F0780F61F35F
:101A500002028DF8322014BF01230023D6E79DF83F
:101A6000303043F001038DF830300023CEE79DF98C
:101A70003020002AB4BFDDF834904FF0FF39BAE6C9
:101A80009B077FF5C7AEDDF838809DF83110002345
:101A9000CDE90D339DF8323003F00703012BC1F37C
:101AA000C30138D1CB1E042B22D8DFE803F0030991
:101AB0000921210054F8043BDA17CDE90A3206E087
:101AC000073424F00704F4E80223CDE90A239DF843
:101AD000303013F0030656D002983B465246594622
:101AE00015F071FD0028C0F242810544BA46D9E5DF
:101AF00054F8043B01294FEAE372CDE90A3205D1DB
:101B00009DF828300A9300230B93E0E70229DED1E9
:101B1000BDF92830D0E7022B23D1CB1E042B13D8DC
:101B2000DFE803F0030A0A12120022680A92002377
:101B3000201D0B930446CAE7E01D20F00700F0E8E3
:101B40000223CDE90A23F5E754F8043B0A9301295F
:101B50004FF000030B93D3D00229B8D1BDF8283041
:101B6000D0E7042B09D1E31D23F0070303F1080498
:101B7000D3E90023CDE90A23A9E7032B04BF54F8D6
:101B8000043B0A93A3E79DF833007828AED8622877
:101B900022D825283FF48FAD5828A7D10DF1260370
:101BA0000093DDE90A0104AB0CAA15F0C6FC8246DD
:101BB000B8F1000F0DF126000CDB9DF83020A0EBF2
:101BC0000A036FF3861298458DF8302002D9A8EBEE
:101BD00003030D9380463DE06338152886D801A2A3
:101BE00052F820F0651C0000C91C0000ED1A00002E
:101BF000ED1A0000ED1A0000ED1A0000C91C0000EB
:101C0000ED1A0000ED1A0000ED1A0000ED1A0000B8
:101C1000231D0000F11C0000F51C0000ED1A00005F
:101C2000ED1A00003D1C0000ED1A0000F11C000040
:101C3000ED1A0000ED1A0000F11C0000B8F1000FD1
:101C4000DDF828A00ADB4146504615F031FF0AEBCB
:101C500000080026BAF1000F0CD147E7504615F0F6
:101C600020FFF4E70A9B8DF8103000260DF1100AD2
:101C70000DF11108A8EB0A0306B101339DF83220DB
:101C8000D00668D5023352060D9948BF0E9A0B4410
:101C900048BF9B18B9F1000F76DD9DF83020A9EB05
:101CA0000309C2F38003039353076DD4500661D533
:101CB00046B1029B594630469847002857DB039BA4
:101CC00001351E46302356E01E070FD413F01006D0
:101CD00018BF2026DDE90A23002BBFF65FAF524272
:101CE00063EB4303CDE90A232D2657E72B26F1E7C3
:101CF000002653E70A9840B30DF1260300930CAA7F
:101D000004AB002115F019FCBDF8323003F0EF03ED
:101D100043F4F04343F010038246ADF8323000261E
:101D200046E70A9B07293FF6E1AEDFE801F00C0425
:101D3000060C08080C0C1D70D8E61D80D6E6EA17C4
:101D4000C3E90052D2E61D60D0E6DFF8C8A006461F
:101D50000AF105088EE7110748BF013393E71846DB
:101D600003935946029B98470028039B04DA11B05D
:101D7000BDE8F08F20234D444A46002AA5EB090117
:101D800009F1FF39EBDC0D4636B1029B594630466E
:101D900098470028EBDB01359DF83230D90601D495
:101DA0001A0706D5029B5946302098470028DEDBEB
:101DB00001359DF83230DB0607D59DF83300029BD4
:101DC000594698470028D2DB01350D9E2E44731BDF
:101DD000002B16DC029843465246594615F0F3FB99
:101DE0000028C4DB0544A944A9EB0503002B7FF7B9
:101DF0007DAE029B5946202098470028B7DB01356D
:101E0000F2E7029B5946302098470028AFDB0135A6
:101E1000DDE700BFA4C701002DE9F84305464FF0F8
:101E20002003EFF3118683F31288BFF36F8F0E4BFD
:101E30001C689CB10D4FDFF838804FF00C09D4E9D5
:101E40000132002D08BF13462BB198F8142009FB6E
:101E500002F2B85C98472468002CF0D186F3118810
:101E6000BFF36F8FBDE8F883B8130020C0130020C4
:101E70003427002000F01F0301229A400A4BBFF3D1
:101E80005B8F400903EB800050E8003F43EA02010A
:101E900040E8001CBCF1000FF6D1BFF35B8F1A4283
:101EA00014BF012000207047CC13002030B51D4B1B
:101EB0001C7DBFF35B8F04F01F0301229A401A4B75
:101EC000610985B0D04303EB810353E8001F01EAA9
:101ED000000543E8005CBCF1000FF6D1BFF35B8F57
:101EE000114217D0114D0C2202FB045207CA01AB5C
:101EF00083E807000E4A7AB193E8070015F028FE40
:101F00000020FFF789FF0C235C432A1900232B5183
:101F1000C2E9013305B030BD82F31188BFF36F8F82
:101F2000EEE700BF34270020D0130020C0130020AC
:101F3000517B01002DE9FF41354B364C1D7D80461C
:101F40002846FFF797FF50B94146284600F084F82D
:101F500028B107C80C2303FB054383E807000C23C3
:101F60006B43E218E05C6E0905F01F0700283BD0C8
:101F7000B8F1FF3F10D0D2F808E02748274A4FF4C5
:101F8000004C00210023EEFB0C01FEF7A9F8012113
:101F9000A8EB000018F088FE14F0D8FA0120FFF733
:101FA0003BFFBFF35B8F1E4B0122BA4003EB86035E
:101FB00053E8001F114343E800100028F8D1BFF395
:101FC0005B8F0C2303FB054494E8070001AB83E817
:101FD0000700144A1AB193E8070015F0A6FDFFF7B1
:101FE00065FF14F039FC01200F4ABFF35B8F01231A
:101FF000BB40DB4302EB860656E8002F1A4046E85A
:1020000000210029F8D1BFF35B8F04B0BDE8F08157
:1020100034270020C01300203F420F0040420F0031
:10202000D01300202B7B0100CC130020054BBFF305
:102030005B8F53F82000BFF35B8FB0FA80F040094C
:10204000704700BFD413002008B9024B0B6000207A
:10205000704700BFF01300202DE9F04F85B00E4609
:1020600003A9FFF7F1FFDFF874A0DFF87480441EC6
:1020700024B24FF400474FF00009631C04D100253F
:10208000284605B0BDE8F08F039A04EB440302EB49
:10209000830512F82300FFF7C9FFE0B168684FF02D
:1020A000000BD4465946E0FB07C142464B4660460A
:1020B000FEF716F80190A868D4465946E0FB07C120
:1020C00042464B466046FEF70BF8721CD8D0019B87
:1020D0001844B042D4D9013C24B2CEE73F420F00AD
:1020E00040420F000449431E0F3013F8012F8A5C51
:1020F0001A708342F9D17047AAC70100F0B5264E85
:1021000007460C460FCE8DB001AD0FC50FCE0FC5E3
:1021100096E8070085E807003846002F38D0002CE5
:1021200038D0381F2146024610344B780D781B04F6
:1021300043EA0563CD782B438D78043143EA0523C8
:102140008C4242F8043FF0D1144C04218A07036901
:1021500016D1C3F30742A55C1A0EA25C42EA0562DF
:10216000C3F30725DBB2655DE35C42EA054242EA60
:1021700003220CAD21F003032B4453F82C3C5340B5
:1021800050F8042F013153402C290361DED1012086
:102190000DB0F0BD2046FBE7D4B30100AAC7010093
:1021A000014910220A60704710ED00E072B640400D
:1021B00080F31188BFF36F8FBFF34F8F30BF62B6CC
:1021C000BFF36F8F704700BF72B6494081F311882B
:1021D00020BF80F3118862B6704700BF43B2002B66
:1021E00008DB012200F01F0002FA00F05B09024A3E
:1021F00042F82300704700BF00E100E043B2002B2B
:102200000DDB01225B0900F01F0002FA00F0203311
:10221000034A42F82300BFF34F8FBFF36F8F70471D
:1022200000E100E0054B420900F01F0053F82220B6
:10223000012303FA00F01040704700BF00E100E006
:1022400043B2002BA8BF03F1604301F10101B8BF05
:10225000064B4FEA4111ACBF03F5614300F00F009C
:10226000C9B2B4BF195483F80013704714ED00E0ED
:1022700008B572B6044B9A691AB100229A6118F037
:102280003BFA62B608BD00BF3427002030BFFFF71D
:10229000FDBF00BF0F4A08B50F4B22F07F029A60C6
:1022A000BFF34F8FBFF36F8FD3F8882022F47002F3
:1022B000C3F88820EFF3148323F0040383F3148816
:1022C000BFF36F8F13F0F2FC14F00AFC00F0CAF9B0
:1022D00013F0F6FC0000000000ED00E0094A0A4996
:1022E00093680968D967094998674B6843F0805338
:1022F0004B60002383F31188BFF36F8F9368D86F0F
:10230000704700BF3427002094C6010000ED00E0B4
:1023100012498A684FF030001044EFF3098C80E8CE
:10232000F01F202080F31288BFF36F8F0C4F4FF007
:102330000066CA698A603E60906F0023936780F3ED
:10234000118804B5104600F0CFF9BDE8044002F151
:10235000300090E8F01F8CF3098870473427002084
:1023600004ED00E01EF0040F0CBFEFF30880EFF364
:102370000980816911F8021C0229FFD001B515F00E
:1023800065FB01BD42F8203C009B42F81C3C0A4919
:10239000019B42F8183C029B42F8143C21F00101D9
:1023A0004FF0807342F8043C42F8081C0023203AA6
:1023B00002658367704700BF9B710100094A0346AD
:1023C000906870B113F1160F806E05D0A0F1200255
:1023D0009A4205D8834203D2814228BF0020704729
:1023E000002070473427002008B5094B98600D463F
:1023F000144600F079F9204685F30988002163B678
:1024000081F31188BFF36F8F0022002314F0C5FE03
:102410003427002001B572B60B4A906900281EBF10
:102420000021916118F068F962B6EFF30580A0F120
:1024300010004FEAC0000549014409C99847BDE8AA
:10244000014003490847000034270020D8B10100AB
:1024500055240000044B9968D869884203D0034989
:102460004FF080520A6070473427002004ED00E0EE
:1024700038B5194B14469A6A9A6A9A6A05469007C3
:1024800019D5586B9A6A120615D519B19A6A22F0B5
:1024900080029A629A6A9A6A9A6AD1060ED49B6AF4
:1024A0009A070BD400200C4A936A43F0FF0393620F
:1024B0000023237038BD6FF01500EBE7064B5B6817
:1024C0001B05EFD52946FFF779FF0028EAD080F3F6
:1024D00009880220E7E700BF00ED00E00D4B9A6A93
:1024E0009A6A9A6A920508D59A6B9A6A120404D578
:1024F00018B19A6A22F400429A62064B9A6A9A6A62
:10250000D20558BF9A6A9A6A002042F47F429A62C2
:102510000870704700ED00E070B5484B5B688AB00A
:102520000D46C3F30803002686F31188BFF36F8FAF
:1025300002F07F41B1F17F4F11D102F00C01082967
:102540000DD0110701D4054601260022033B8DF86A
:102550000720032B6BD8DFE803F00455595D35469F
:10256000F3E7364BDC6A14F0020460D1DA6A002A21
:1025700015DBDA6A520012D5AA6932F8021C4DF650
:10258000027291420AD093F828200AB30DF1070293
:1025900001212846FFF76CFF044600E02C689DF8F7
:1025A00007309BB92022294602A815F0A7FA099BFB
:1025B000002E3ED0C3F3080222B96FEA53236FEA1C
:1025C0004323099302A9204615F03EFA0AB070BDD4
:1025D00093F829202AB10DF107010120FFF77EFFB2
:1025E000DAE75A8D92B2002AD9D09A6A9A6A9A6A20
:1025F0009A6A9A6A9A6A9A6A6FEA02426FEA124281
:102600009A62CCE70DF107020021C2E70DF1070144
:102610000020E3E7094B9A6A9A6A9A6A9A6A9A6A68
:102620009A6A9A6A6FEA02426FEA12429A62002438
:10263000B5E723F4FF7323F00103C2E700ED00E0E8
:10264000024A536943F010035361704700ED00E004
:10265000EFF30880EFF3098101B57246FFF75CFFE5
:1026600001BD00BF044800232021C2180133272BDD
:1026700082F80013F9D1704700E100E018F0B6FCD1
:10268000202080F3118808484FF40261401880F33D
:102690000988EFF314800221084380F31488BFF304
:1026A0006F8FFFF7F7FD0000003A0020064B9B6894
:1026B000834207D1EFF3058323B1044A536843F003
:1026C0008053536014F0A8B93427002000ED00E0D7
:1026D000024B034A0348012100F06EB800000120BC
:1026E0000000002084B40100826E054B203A1A607D
:1026F000044A2021C3E901121846012100F066B8FE
:10270000F013002000000B15F0B51F4F00268E427D
:1027100001DB1046F0BD44689CB353B104F1FF3CAB
:1027200014EA0C0F18D11F2C16D905681CEA050FE6
:1027300012D1202C0568D0F808C0D2B20FD9B4F15C
:10274000004F0ED8013CB4FA84F4C4F11F046400B5
:10275000072A4CEA040406D96FF01502D9E70824C9
:10276000F6E73E24F4E725F01F05154345F0100574
:1027700044F00104C7F89820C7F89C500132C7F80C
:10278000A04001360C30C2E700ED00E0044B05220A
:10279000C3F89420BFF34F8FBFF36F8F704700BF14
:1027A00000ED00E0BFF35F8F024B0022C3F89420DE
:1027B000704700BF00ED00E010B5034C0123227804
:1027C000FFF7A2FF207010BD8C27002008B5094A32
:1027D00000231278FFF798FF10F1160F02D0064A77
:1027E000072800DD08BDC2F89800C2F8A03001300B
:1027F000F6E700BF8C27002000ED00E014490868D0
:10280000082810B521D8FFF7CDFF124C49680022E7
:10281000904201F10C0105D10F4B1870FFF7B6FF84
:10282000002010BDC4F8982051F80C3C23F01F0381
:10283000134343F01003C4F89C3051F8043C43F0B8
:102840000103C4F8A0300132E2E74FF0FF30E8E7BF
:1028500090B4010000ED00E08C270020014B1860CF
:10286000704700BFA00100204FF02002EFF311835A
:1028700082F31288BFF36F8F044A0121C2F840151A
:1028800083F31188BFF36F8F0020704700E0014091
:1028900020B1034B800143F001031847704700BF8C
:1028A00030B4010038B54468206813F08FF930B9AE
:1028B0000D48216814F05BFB6FF0120038BD6168B1
:1028C00004698568C9B2012303FA01F2236823EA87
:1028D000020323604FF420622B68984721200021D7
:1028E00014F06AF80020E9E7B9C8010030B40346E3
:1028F00008461A78012A13D0022A26D072B9154A3E
:1029000002F1100452F8045B41F8045BA242F9D1D1
:102910005B8812780A7043731B0A837330BC70475C
:102920000C4A02F1100452F8045B41F8045BA24225
:10293000F9D15B6812780A70C3F3072243731B0C4A
:10294000C3731B0A82730374E8E730BC1122194673
:1029500015F0D4B8DCC8010038B50546054817F0B5
:1029600046F8044620B10021083017F05FF82575BD
:10297000204638BDA00900200B460B490246D1F87D
:10298000300110B520B9BDE810400120FFF7E4BFC9
:1029900017F05DF80123002103758181044608309A
:1029A00017F044F8204610BD0000002070B5044622
:1029B0000F2C0D461046194605D80D2C12D9BDE82E
:1029C0007040FFF7D9BF132C0CD10B4817F00FF84C
:1029D000044628B10021083017F028F80123237598
:1029E000204670BD02460B460DB10448EEE7BDE837
:1029F00070400120FFF7B0BFCC0900201C09002067
:102A000038B583681A7872B9B3F80140204601F0EE
:102A100095FC054640B9084B1A8822B96FEA045064
:102A20006FEA1050188038BD012101F08FFC284654
:102A3000BDE8384015F0F7BD7427002010B501211E
:102A40000446083017F05CF82146034A0078BDE8D8
:102A50001040072315F024B9E8B4010013B50C4C5D
:102A60000146052294F8670001F0FCFD70B9094B9E
:102A700018689A8800909B79ADF8042094F8670054
:102A80008DF806300422694601F0ECFD02B010BD5D
:102A9000000000200EB40100F8B5074690790E46FC
:102AA000144610F047FC2D4B834255D1204610F0C0
:102AB00049FC2B4D0C2303FB00504388BB424BD1F8
:102AC000284FD7F8300120B110F0F8FC0023C7F8E8
:102AD0003031204610F036FC0C2707FB00504368CD
:102AE000A3B19EB9204610F02DFC07FB0050012336
:102AF0004768D7E9002000F01F0103FA01F13B7A93
:102B00004009D3B102EB800015F0DFF8204610F049
:102B100019FC0C2707FB00508368EBB1204610F02E
:102B200011FC78432E54204610F00CFC07FB005596
:102B3000A868BDE8F84013F0A3BACB4302EB8002CB
:102B4000BFF35B8F52E8001F194042E800100028D5
:102B5000F8D1BFF35B8FD9E7F8BD00BF740900203F
:102B6000FC1300200000002038B504210446083082
:102B700016F0C6FF4578017840882246FFF78CFFA3
:102B800025B10348BDE8384013F07ABA38BD00BF1C
:102B90001801002038B503210446083016F0B0FFB4
:102BA000A36805781978B0F801002246FFF774FF92
:102BB00025B10348BDE8384013F062BA38BD00BF04
:102BC0001801002010B5C1E900239DF808300B72F0
:102BD0000C4610F0B7FB034B0C2202FB00335C6089
:102BE00010BD00BFFC1300202DE9F0474FF0FF326D
:102BF0004FF0FF3306461748174D0F4616F0F7FE05
:102C0000044600F1080A00214FF00008504616F073
:102C10000DFF84F81480204610F094FB4FF00C094F
:102C200009FB00504680204610F08CFB09FB005049
:102C3000C0F80880204610F085FB09FB00550321F1
:102C4000C5F80480504616F034FF87700680204691
:102C5000BDE8F08774090020FC130020F0B515468C
:102C600087B00C4621B9FFF7BFFF0446002848D0C3
:102C700001220021684617F013FE204610F062FB87
:102C8000214F0C2303FB0070C0F808D0204616F03B
:102C9000DEFE01461D4816F0CDFE4FF4A0220023B3
:102CA000684613F013FA064680B1194A19491A48C2
:102CB00040F2311314F05BF91848314614F057F91B
:102CC000404080F311884FF0030002DF204610F0EF
:102CD00039FB0C2358433E5C56B1204610F0EEFB06
:102CE000092E0CBF6FF06E006FF0040007B0F0BD4E
:102CF00015B12C603046F9E7204610F0DFFB28467E
:102D0000F4E76FF06800F1E7FC13002034010020C5
:102D1000EDC8010021C901002AC9010047C901000D
:102D2000024BD3F84C311B69184700BF000000204C
:102D300038B505460C4619B9FFF756FF044698B159
:102D400040F635439D4209D12046FFF7E9FF05468D
:102D500010B1204610F0B2FB284638BD0448214689
:102D600016F068FE0025F7E76FF06805F4E700BF8E
:102D7000340100207FB5837A072B044657D1BFF377
:102D80005B8F4368BFF35B8F9B0400F104061BD489
:102D9000C37823B1274B93F8D0301D0714D50221F7
:102DA00042F21600FFF720FF054668B10221083005
:102DB00016F07FFE23880380294642F2160004B0F5
:102DC000BDE87040FFF7B4BFBFF35B8F6368194D78
:102DD000BFF35B8F13F4805FC3F3003111D195F81B
:102DE000D130D8070DD5022300911A46204615F0A0
:102DF000B7F830B98021304604B0BDE8704014F017
:102E000064BF95F8D0309A0611D5D5F84C319B683F
:102E10009B070CD50DF10E0103A815F030F830B961
:102E2000BDF80E20BDF80C10204615F07CF804B05B
:102E300070BD00BF000000202DE9F043B0F8017024
:102E4000684A047811886FEA07536FEA13539BB2FC
:102E500099424FF0000608BF168085B005461FFA5C
:102E600087F808BF012604B33C2C59D100F018FFA5
:102E7000BFF35B8F103050E8003F23F0400340E881
:102E80000032002AF7D1BFF35B8F0020FFF7E6FD89
:102E90000546002844D04472002101F057FA284624
:102EA00005B0BDE8F04315F0BEBB0379023B012B32
:102EB00000F1040937D80722494602A814F01EFE83
:102EC0009DF808300622023B05F111010DF10100C9
:102ED0008DF8083014F012FE01238DF80030EB78E5
:102EE000012B19D102A8FFF7B9FDEB78012B04469D
:102EF00011D100F0D5FEBFF35B8F00F1100353E852
:102F0000002F22F0400243E800210029F7D1BFF34F
:102F10005B8F15F0CEFADCB91F21404614F0C7FFD5
:102F200005B0BDE8F083C378012B04BF2E4B93F8A6
:102F300067404946204615F05EF90722014602A87F
:102F400014F0DCFD07224946684614F0D7FDC6E7B9
:102F50002046072220F8887B02A914F0CFFD2A7EA4
:102F6000EB7D43EA0223A4F89E30AA7E6B7E43EAFF
:102F70000223A4F8A4302A7FEB7E43EA0223A4F8BC
:102F8000A630EB78E3700022012B627217D1072282
:102F9000694604F18F0014F0B1FD00F081FE217A42
:102FA000114DC1EBC1010722294404F1960014F030
:102FB000A5FDD5F8DC305B0601D501F01DF8072131
:102FC000204601F0C3F91EB10121204601F0BEF9EF
:102FD000204615F064FB2046FFF7CCFE204615F096
:102FE00022FB9DE774270020000000202DE9F84F08
:102FF000DFF80881DFF808A1D8F80C3041486FF3FA
:103000005233C8F80C3001F05BF9451C3B484FF0D7
:10301000FF324FF0FF33294613F0B6FE60B13A4954
:103020003A4840F69313524613F0A1FF404080F314
:1030300011884FF0030002DFDFF8D4902F4EA9F57E
:103040009A77A9F11C0B15B913F02EFCD4E7F3689D
:10305000C3F34533042B47D1337B002B47D10022E8
:103060000023484616F0C8FC044660B929492748A1
:1030700040F62A13524613F07AFF404080F311883D
:103080004FF0030002DF4FF0FF324FF0FF3358469E
:1030900013F01CF8D7F8300120B110F00FFA00231C
:1030A000C7F83031204616F0D2FCC7F83001204670
:1030B000FFF736FEC0B1184812F0E2FF204610F0CC
:1030C00041F9164B0C2202FB00301F21408822469A
:1030D000FFF7E2FCD7F8300110F0F0F900232046AA
:1030E000C7F8303110F0EAF91436013DABE7012B97
:1030F000FAD13069383801F0B5FBF5E7A4010020BA
:10310000EDC80100B801002021C901002AC9010051
:103110003401002067C9010018010020FC130020C1
:103120002DE9F041044600F10806304616F0F8FC9F
:10313000B4F80C80B8F1010F05460CD81C4A1D49A3
:103140001D4840F62F5313F012FF404080F31188C2
:103150004FF0030002DF3046022116F0D1FC074693
:10316000007814F08BFDC20706460CD4104A1349B0
:10317000114840F6335313F0FAFE404080F31188B3
:103180004FF0030002DF05230D4A3878214614F082
:1031900087FDB30707D52069A4F80C8010FA85F5E0
:1031A000A560BDE8F0812046BDE8F04110F086B989
:1031B000EDC801006BC901002AC9010084C90100E2
:1031C00050B5010070B5037D012B044636D0032BAA
:1031D00063D18389032B0CD8324A3349334840F2F8
:1031E000B51313F0C4FE404080F311884FF0030084
:1031F00002DF042104F1080016F082FCFF2243885C
:1032000006886275A289C6F30B009A42E08203D059
:10321000204610F053F90FE001F090F80546002821
:10322000F6D001F03BF9320B60752146284615F0C7
:1032300092F9284615F0F7F9002070BD8389012B1B
:103240000CD8184A1849194840F6171313F08FFE86
:10325000404080F311884FF0030002DF022104F1A7
:10326000080016F04DFC0546007814F007FD8307B2
:103270000CD40C4A0E490D4840F61B1313F077FE90
:10328000404080F311884FF0030002DF094A28789C
:103290000423214614F004FDBAE710F00FF96FF093
:1032A0001500CAE7EDC801006BC901002AC9010079
:1032B0009DC9010030B5010010B5037D012B044606
:1032C0000CD0094A09490A4840F6765313F04FFEDC
:1032D000404080F311884FF0030002DF2046FFF7E3
:1032E0001FFF002010BD00BFEDC80100CBC90100C9
:1032F0002AC90100084A0346D2F84C0130B9D968FE
:1033000039B1196929B1C2F84C3170476FF07700B3
:1033100070476FF01500704700000020014802213F
:1033200014F0D3BCCC00002073B53E4DD5F84C3121
:10333000996811F0010121D101AA40F60340FFF77D
:103340008DFC0446002869D1019B9B681B7893B9CA
:10335000BFF35B8F2B4653F8CC2FBFF35B8F02F08C
:103360000502BFF35B8F53E8001F43E800200028ED
:10337000F9D1BFF35B8F019810F0A0F801AA0021EA
:1033800041F20300FFF76AFC0446002846D1019B86
:10339000254899680822013114F0B0FB019810F01B
:1033A0008DF8214601AA41F20100FFF757FC0446BF
:1033B000002833D1019883685A7885F86820D97835
:1033C0009A7842EA0122A5F86A201A7985F86920DC
:1033D000197ADA7942EA0122A5F86C205A799B79A8
:1033E00042EA0323A5F86E3010F068F8214601AADE
:1033F00041F20200FFF732FC044678B9019B0B480A
:1034000099684022013114F079FB019810F056F8C8
:1034100095F874305E060BD46FF01204204602B0AB
:1034200070BD00BF00000020700000207800002068
:10343000214601AA42F20300FFF710FC04460028CF
:10344000ECD1019BA14899680822013114F056FB88
:10345000019810F033F8214601AA42F20200FFF76A
:10346000FDFB04460028D9D1019B9B68B3F80120DD
:10347000A5F8FC2091B221B1DA789548114617F0F1
:103480000FFA019810F01AF895F8746016F02006FB
:1034900000F0F98095F894301C0712D501AA00219C
:1034A00042F21C00FFF7DAFB04460028B6D101986F
:1034B0008368D3F80120D3F80530C5E936230FF02F
:1034C000FDFF95F8D030980623D50DF1020168462E
:1034D00014F0D5FC04460028A0D1042142F22400B7
:1034E000FFF782FB0646002800F0D4800421083054
:1034F00016F0DFFABDF800300380BDF802304380DB
:103500002246314642F22400FFF7A8FB0446002879
:1035100084D1082142F20100FFF766FB044600282F
:1035200000F0B8800821084416F0C3FA95F8D020BE
:1035300012F0020F14BF2F230F23910695F8D1200C
:1035400048BF43F0400312F0090F18BF43F4006373
:1035500000220370C3F3072343708270C2700271AC
:1035600042718271C271214642F20100FFF776FB7F
:10357000044600287FF452AF95F87430B5F8FC107B
:103580009A0600F19C80D9B901AA41F20500FFF723
:1035900065FB044600287FF441AFB5F8FC3063B901
:1035A000019B9B685A78997842EA0122A5F8FC2091
:1035B0009A884748114617F073F901980FF07EFF7B
:1035C000082140F60140FFF70FFB0446002861D0B8
:1035D0000821084416F06DFA102303708823002296
:1035E0004370022620238270C6700271427182717C
:1035F000C371214640F60140FFF730FB0446002826
:103600007FF40CAF014601AA4FF60140FFF726FBFD
:10361000044648BB01980FF051FF214601AA4FF61E
:103620000240FFF71BFB0446F0B9019B294899684B
:103630003246013114F062FA01980FF03FFF95F81D
:10364000B9305B0710D501AA21464FF60340FFF7BA
:1036500005FB48B9019B204899680122114414F0E8
:103660004DFA01980FF02AFF00F07AFA044600287C
:103670007FF4D4AE01F05CF9044600287FF4CEAEAE
:10368000FFF74CFECAE6022140F66D40FFF7ACFAA8
:10369000044610B96FF06804C0E60221083016F045
:1036A00008FA0123037046702146324640F66D4009
:1036B000FFF7D4FA044600283FF4ECAEAEE600294A
:1036C0007FF47EAF6FF00404A8E600BFD0000020B6
:1036D00000010020B9000020B800002010B5FFF75D
:1036E00023FE034B1B6813B1BDE81040184710BD03
:1036F0001414002070B5064614F0D3F91C280546B2
:1037000011D80A4C314604F5A87014F0DAF948B122
:1037100004F5A8702A4631462C4414F0B0F9002074
:1037200084F8500170BD6FF00B00FBE70000002033
:1037300070B5214DD5F84C3188B00646002B35D0F8
:10374000012105F1CC0014F0C0FA10EA010430D1D7
:103750001A48FFF7CFFF1A4B1E6000220023CDE965
:1037600006236FF00803CDE90243CDE90044154B71
:10377000154904944FF42072144812F0A9FB14491F
:10378000124816F0B4FFD5F84C31DB689847044670
:1037900048B926B908B0BDE87040FFF7C5BD05F1CE
:1037A000BC0012F0D9FD204608B070BD6FF01204C5
:1037B000F9E76FF07704F6E700000020EEC901009A
:1037C00014140020ED2F0000E02B0020F809002049
:1037D00002CA01000048704750010020F8B50B4FA5
:1037E00006460025FB79ECB2A34202D86FF0010433
:1037F00009E0C4EBC40107223944304614F06DF9E6
:1038000001350028EED12046F8BD00BF00000020A1
:1038100038B514490622054614F05FF90446E0B1B4
:10382000062142F20500FFF7DFF90446B8B106228F
:103830002946083016F043F92146002242F20500DD
:10384000FFF70CFA044640B906220648294614F050
:1038500055F9054B012283F86020204638BD6FF0F2
:103860006804FAE7610000200000002030B504463B
:1038700085B00D46A1B10023072202A92846029374
:10388000CDF80B3014F029F950B11248C4EBC40440
:1038900007222946204414F031F9002005B030BD3C
:1038A000684614F0DDF90028F8D16846FFF796FF66
:1038B0000028F5DA0748C4EBC4040444072269462B
:1038C000204614F01BF9002DE7D007222146284698
:1038D000E1E700BF0000002073B50C46054618B9AB
:1038E000ECB16FF0150018E0002307226946009341
:1038F000CDF8033014F0F1F80028F1D02B78012B2B
:10390000EFD1AB7903F0C003C02BEAD12846FFF713
:1039100065FF0028E4DB6FF0770002B070BD134E46
:10392000F379012B1ED0BFF35B8FD6F8CC30BFF3F9
:103930005B8FDB070BD4002DD3D0072269462846C6
:103940000094CDF8034014F0C8F80028C9D0F479E9
:103950002946631C2046F371FFF788FF002808BF43
:103960002046DAE76FF00B00D7E700BF0000002029
:1039700070B586B0064601AA002141F20900FFF7A2
:103980006DF9044670B9019B02909D68ADF80C007A
:103990000135062202A9284614F09FF820B90198A3
:1039A0000FF08CFD002016E00C4B186804909B88EB
:1039B000ADF81430062204A9284614F08EF8002829
:1039C000EDD006222946701C14F098F80198347046
:1039D0000FF074FD012006B070BD00BF15B40100EA
:1039E00007B56846FFF7C4FF044BD87118B16946A4
:1039F0000020FFF73BFF03B05DF804FB0000002050
:103A00002DE9F341154B93F8BA4014F00104074631
:103A10000E4615D001AA00214FF60940FFF71EF906
:103A20000546C8B9019B9B685C78B44228BF344600
:103A30004FF016089E1CA54206DB01980FF03EFDD4
:103A4000204602B0BDE8F08108FB05701622314621
:103A500014F054F80135EEE70024F1E700000020EF
:103A6000F0B5154EF47989B0F4B9012102A8FFF739
:103A7000C7FFF071C0B1162702ABE5B207FB0531F5
:103A800006220DF1010014F039F801236946284699
:103A90008DF80030FFF7EAFE20B9F2790134E3B285
:103AA0009A42E9D809B0F0BD0021084609B0BDE846
:103AB000F040FFF711BF00BF000000202DE9F843E0
:103AC00011F0010405780E4690461F4626D0234C7F
:103AD0002AB1880603D594F8D03059063AD5C5EBFB
:103AE000C5034FEAC509E35C012B08D0A9EB050526
:103AF000635DB8F1000F0CD13B70002007E0072098
:103B000010FB05302044FFF783FE0028EED0BDE80F
:103B1000F883B20648BF43F00203EDE74B0715D523
:103B2000DFF83880C5EBC503EE0018F80330012B31
:103B30000AD1072010FB05304044FFF769FE751BD2
:103B400018F805303B70E2E72046F8E714F055FB23
:103B50000123F7E76FF08500D9E700BF00000020E0
:103B600010B50A4CE3790BB1002010BDFFF738FF08
:103B70000028FAD1E379002BF6D1FFF771FF002876
:103B8000F3D1601CBDE81040FFF742BE00000020EA
:103B9000436837B50446580502D5002003B030BD50
:103BA00022690AB1D907F8D51A4D2078EB798342FA
:103BB000F3D9C0EBC00000230722694628440093D4
:103BC000CDF8033013F089FF0028E6D06068C20703
:103BD00006D495F86830082B02D8A3689F2BDCD94F
:103BE00010F0300F02D02369002BD6D0C30601D4C9
:103BF000236943B9D4E902239A42CED81F2ACCD9EB
:103C0000B3F5804FC9D800F46030B0F5603018BF0C
:103C10000120C3E700000020F0B506461E4B16F851
:103C2000092B83F8672085B00023054607220F463D
:103C3000304669460093CDF8033013F04EFF2A78E2
:103C40000446A8B9154B1868998802909B79ADF87D
:103C50000C10104602A98DF80E3000F0CBFC054682
:103C6000B8B1042100F072FB3D60204605B0F0BD04
:103C70003146104614F03EFD044638B928783146E6
:103C800000F0B8FC054620B10521EBE76FF0150404
:103C9000EBE76FF00B04E8E7000000201BB4010025
:103CA00000487047180000202DE9F04F0E698FB0D2
:103CB0009A460023B6EB030905468C48059218BFC7
:103CC0004FF00109079314F0BBFA87070C4640F147
:103CD00002810846FFF75CFF28B96FF0150B5846C4
:103CE0000FB0BDE8F08F204614F099FA8046002806
:103CF000F3D005F11007384614F0A2FAC0F3801B88
:103D0000400600F1EB800F2259460AA813F001FF8C
:103D1000A368ADF828306068E368ADF82A3014F085
:103D200080FA2A7823788DF835009A428DF836B0DB
:103D300004D06E486FF4805114F088FA6C4A2378EE
:103D40002B7082F8673061680DF12D034A462846D2
:103D5000FFF7B4FE83460028C1D105F10900002E0B
:103D600049D02169072213F0C9FE204614F06CFBEC
:103D70006368D907814647D5002E42D013F0100F53
:103D800014BF0423012321698DF82C3007220DF183
:103D90002E0013F0B3FE4FF000080F2142F2060090
:103DA000FEF722FF8346002800F09B800F220AA91D
:103DB000083015F084FE0022594642F20600FEF754
:103DC0004DFF002840F0908076B36368DB0739D45C
:103DD0000121284614F048FB83460798BBF1000FE9
:103DE00073D000283FF47BAF002100F0AFFA0798B2
:103DF00014F019FC73E708960722CDF8236008A990
:103E0000B1E78DF82C60C8E79A0503D4189B0BB96D
:103E1000022803D102238DF82C30BEE70323DDF8FE
:103E200060808DF82C30B8E7199B0093CDE90189AB
:103E3000189B05995246284614F08FFA83460028AD
:103E4000C3D04CE707A92846FFF7E6FE83460028C3
:103E5000BED010F10C0F7FF442AF002E7FF43FAFC5
:103E6000636898073FF53BAF626882F00202C2F3D5
:103E7000400B0BF001020D21384614F057FA09F1FE
:103E8000FF335A425A410721384614F04FFAA9F13C
:103E900002014A424A413846082114F047FA626852
:103EA000092102F00102384614F040FA42460A2184
:103EB000384614F03BFA62680C21C2F3800238469F
:103EC00014F034FA4FF0000B09E708B114F0ABFB23
:103ED000002ECED1C8E76FF00A0B00E76FF0770B2A
:103EE000FDE66FF0680BFAE68346F8E6CC000020AA
:103EF0000000002073B51546069A0C46CDE9003245
:103F00002B460A4601461148FFF7CEFE21460646DB
:103F1000002340F201109D4202D1304602B070BD34
:103F20000A88824204D14A6812B11278D20702D4B8
:103F300001330831EFE70649064816F057FD4FF404
:103F400070220023034812F0A3FAE6E718000020CD
:103F5000B9840100300000201FB5224814F0A9FAEE
:103F600021486FF4005114F071F91F4814F068F9FA
:103F700003465A06C0F3801031D51B4814F060F98F
:103F8000830521D500231948009307226946CDF8FF
:103F9000033013F0A2FD164BE8B9164A9188106859
:103FA0009279ADF80C108DF80E200290042202A92F
:103FB000187E00F057FB044630B10021417200F03A
:103FC000C5F9204614F02FFB0648002104B0BDE8D7
:103FD000104014F049BA052203F12101E8E704B0CA
:103FE00010BD00BF18000020280000202100002084
:103FF000000000201BB4010037B51E481D4C14F012
:104000001FF910F4005F32D0204614F019F942066F
:10401000C0F380152BD4204614F012F9830526D561
:1040200001A9A4F11000FFF7F7FD00BB0121A4F1E5
:10403000100014F019FA50B12946019800F086F9E1
:104040006FF40051204614F001F9C0F34035019897
:1040500014F0E9FA5DB1BFF35B8F54E8003F43F41D
:10406000005344E80032002AF7D1BFF35B8F03B05E
:1040700030BD00BF280000200023C0E90133014605
:10408000C360014816F0BBBBC00800200E4B70B5E2
:104090001D68044655B90D4D0D4E617AB5420CD3DD
:1040A00089B92046BDE8704015F042BC2B6813B1B9
:1040B000617A204698472D69ECE72B680BB12046C2
:1040C00098471435E9E770BD1814002034B3010097
:1040D00034B301002DE9F8434D6904460E4690467D
:1040E0001F464FF0FF333E484FF0FF3211F0EEFF16
:1040F000A37A072B46D14FF02003EFF3118283F30D
:104100001288BFF36F8FA369002D4DD00021296065
:10411000002B46D1C4E9055582F31188BFF36F8F98
:10412000042106F1080015F0DBFC238808F0FD08E7
:1041300043EA0838B389A0F80080043B4380022397
:1041400033753046FEF7ECFD002847D04FF02003D2
:10415000EFF3118083F31288BFF36F8F002D37D0F8
:104160006369002253B19D422FD12B68A1693ABBEC
:10417000A942636100D1A36100232B6080F3118801
:10418000BFF36F8F164811F07BFF15B12846FFF77C
:1041900073FF1FB130460FF091F900273846BDE894
:1041A000F8831D60A561B7E733B103F10C09DB6843
:1041B0000133C9F80030AFE7E36904F11C09F7E700
:1041C000A942136008BFA261D6E71A461B68C9E777
:1041D000D9F80030013BC9F80030CFE70127DDE70F
:1041E00000010020004870470001002038B5044657
:1041F000002301258B4202D10024204638BD04F162
:10420000B802BFF35B8F52E8000F002804D142E8E8
:10421000005CBCF1000FF6D1BFF35B8F04F1C0006E
:1042200002D001330446E5E7002CE6D0B822002195
:10423000204613F06EFC04F15800044916F0D6FB3A
:10424000034904F1280016F0ABFBD6E71547000040
:1042500003850100F8B51F46837A072B04460D46F7
:10426000164614D112B312F0C1FB134B834213480C
:1042700007BF002200234FF0FF324FF0FF3311F051
:10428000CBFEA8B1A37A072B04D0FFF7F5FE6FF0A1
:104290007F000AE00023C0E90167C360686104F1A0
:1042A0003800294615F0C6FB0020F8BD4A61F6E744
:1042B0006FF06800F9E700BF10130020C00800206D
:1042C0001B4B10B5002201219A60044616F06AFECD
:1042D000BFF35B8F174BD3F8B820BFF35B8F04F1AC
:1042E00014000AB9012010BD9A7A9AB9BFF35B8F06
:1042F0001A1D52E8001F21F0400C42E800CEBEF12A
:10430000000FF6D1BFF35B8F4A0603D5184614F0B1
:1043100004F9E7E79B7A072BE4D1074B002204213D
:1043200016F040FE012384F820300220DBE700BFB6
:10433000E0010020780A0020B00A00200246012196
:10434000014814F08AB900BF780A002070B5857A58
:104350008D42044600F09D80817225B98378082B38
:1043600001D014F045F9A37A012B16D1494D00264E
:104370004FF02003EFF3118283F31288BFF36F8FA6
:10438000E369002B66D0013BE36182F31188BFF340
:104390006F8F284611F074FEEAE7072B09D0002B37
:1043A00077D1A378042B1ED12046BDE8704014F0CD
:1043B0003AB9A378042B6CD004F1380016F013FA44
:1043C0003548002112F03CFD0023C4E91433E378A2
:1043D000012B5ED104F158004FF42032BDE870404B
:1043E000002312F021B8013D052D52D801A353F846
:1043F00025F000BF0D44000047440000A943000021
:10440000A94300004744000047440000204614F040
:1044100055F8A378012B03D104F1580016F0F2FAF5
:10442000BFF35B8F043454E8003F43F0400344E89B
:104430000032002AF7D1BFF35B8F1748BDE8704008
:10444000002112F0FDBC637A002BADD02046FFF7AF
:104450001DFEA9E7606928B1A1690368636188420C
:1044600008BFA36182F31188BFF36F8F88B14FF04B
:104470002002EFF3118382F31288BFF36F8FC268BB
:10448000E261C66083F31188BFF36F8FFFF7F4FD1D
:104490007FE770BD00010020E0010020034BC01A3F
:1044A000034B80115843C0B2704700BF780A002008
:1044B000ABAAAAAA38B50D460649002808BF084687
:1044C00015F095FA044618B1291D083015F0AEFA1A
:1044D000204638BDF0080020F8B5BFF35B8F426876
:1044E000BFF35B8F9205044600F1040319D5B0F8C1
:1044F0009E20B0F8A010914213D8B0F8A2109142BB
:104500000FD3D0E9291291420BD1BFF35B8F53E84F
:10451000002F22F4007243E800210029F7D1BFF3F5
:104520005B8F104B1D6825B90F4D104FBD420CD34A
:10453000F8BDEE683EB1B4F8A630B4F8A420B4F8E3
:104540009E102046B0472D69EDE7EE683EB1B4F805
:10455000A630B4F8A420B4F89E102046B047143515
:10456000E4E700BF1814002034B3010034B30100A5
:104570002DE9F041074608460C4613F0B3FC05460A
:1045800018B900252846BDE8F081134B1E6846B9CE
:10459000124EDFF84C804645F4D2B36883B9143626
:1045A000F9E7B3680BB93669F1E721463846984711
:1045B0000028E6D0204613F095FC0028F3D1E0E770
:1045C0002146384698470028DBD0204613F08AFC65
:1045D0000028E4D1D5E700BF1814002034B301004F
:1045E00034B30100024B1A6802611860704700BFC3
:1045F0001814002070B506460D4609480121FFF742
:10460000F5FD044650B1067207222946883013F0A2
:1046100075FA0123A370034BC4F8A030204670BD87
:10462000780A00201800280070B505460C480E4690
:1046300013F0DEFF044628B18378012B04D013F079
:10464000F2FF0024204670BD2946324614F032F8AD
:1046500005460028F6D1204613F0E5FF2C46F1E789
:10466000780A0020F8B505460E480E46174613F0A6
:10467000BFFF0446A0B18378012B03D013F0D3FF12
:1046800000240DE036B13246294614F013F808B97B
:104690002046F3E7A37ABB42FAD1237AAB42F7D1A3
:1046A0002046F8BD780A002038B5044608460D4675
:1046B00013F018FC48B3164B93F8D030990707D481
:1046C000E37883B129462046BDE8384000F0BAB906
:1046D00094F8AC309A07F3D5BFF35B8F6368BFF3F0
:1046E0005B8F5B05ECD42946204614F00DF858B9D1
:1046F0002B88A4F8A0306B88A4F8A230AB88A4F86B
:10470000A830EB88A4F8AA3038BD6FF01500FBE79D
:1047100000000020F7B510F84E3C0446A0F1580503
:10472000FBB9284614F072F82C4B1E684EB92C4E7B
:104730002C4FBE420DD3284603B0BDE8F04013F025
:1047400072BF73681BB114F84F1C2846984736692E
:10475000ECE773681BB114F84F1C284698471436D1
:10476000E7E710F8563C012B2FD1BFF35B8FA0F188
:10477000540656E8003F23F4007246E80021002961
:10478000F7D1BFF35B8F9B0521D5B4F84830ADF866
:104790000030B4F84A30ADF80230B4F85030ADF81B
:1047A0000430B4F85230ADF8063069462846FFF7B9
:1047B0007BFFBFF35B8F56E8003F43F4807346E80E
:1047C0000032002AF7D1BFF35B8F03B0F0BD064A79
:1047D000106851686B4603C3E7E700BF1814002058
:1047E00034B3010034B3010006B4010001460148AE
:1047F000FFF760BE480900202DE9F04106464FF062
:10480000FF334FF0FF3200200C46FFF7EFFFB37A83
:10481000072B05464FF0000605D00EF04FFE35463B
:104820002846BDE8F081466100F108070C4E384685
:10483000B6F8FC8015F078F980450CD2B6F8FC602B
:1048400054F8081F3246384615F039F931462046EB
:1048500015F04EF9E4E7384615F066F986B2EFE751
:104860000000002070B5837A044693B9BFF35B8FD4
:10487000031D53E8002F22F0400143E80015002DEE
:10488000F7D1BFF35B8F530603D5BDE8704013F03B
:1048900044BE0022002304F1380015F0ADF80546AF
:1048A00060B91F4A1F49204840F2E72312F05FFB1E
:1048B000404080F311884FF0030002DF1B4EAA89AD
:1048C000B6F8FC309A4207D8002302222946204637
:1048D000FFF700FC30B170BD29462046FFF78CFF82
:1048E000014620B92846BDE870400EF0E7BD01231F
:1048F00000222046FFF7EEFB0028F3D0AA89B6F885
:10490000FC309A4202D800230322DFE729462046E2
:10491000FFF772FF01460028E4D001231A46E8E7BA
:1049200008CA010067C901002AC90100000000206F
:1049300010B50B490B4815F062FF0B49094815F0FB
:104940005EFF0A49074815F05AFF14F04AFC15F0BB
:104950004BF8044608B913F0E8FF204610BD00BF2D
:104960001C140020C00800202C1400203C1400203F
:10497000044B186818B9044A5A600B6070476FF00E
:104980000B007047380B002098B501002DE9F74364
:10499000294E2A4FDFF8A8800446BE4202D303B056
:1049A000BDE8F083736801A92046984700283DDBE5
:1049B000019D3388A5F87030A5F88030414605F197
:1049C0001000D6F8089016F011F8BFF35B8F05F1D0
:1049D0006803002253E8001F43E800200028F9D1B3
:1049E000BFF35B8FAA60626D05F1080302BBC4E9E7
:1049F000143301982C604368C5F80C901B6803B110
:104A00009847019BBFF35B8F683353E8002F42F058
:104A1000010243E800210029F7D1BFF35B8F019821
:104A200043689B6913B100F1680198470C36B4E7FD
:104A300013606365DDE700BF10B3010034B301000C
:104A4000F387010073B50D4616490B78013313F057
:104A5000FF0308BF01230B700978064608221220C5
:104A600013F07EFE0446D0B10821084415F021F869
:104A70002B8803806B884380AB888380EB88C3805E
:104A80000023009322460521304613F0D3FE05464D
:104A900010B120460EF012FD284602B070BD6FF036
:104AA0000B05F9E78D270020024BC1F8383113F0D0
:104AB0004FBF00BFB58E0100024BC1F8383113F073
:104AC00047BF00BF998E0100024BC1F8383113F087
:104AD0003FBF00BF698C010007B50838019001A9EC
:104AE000024815F0D5FD03B05DF804FB7008002006
:104AF000F7B5002307460E461E480022694611F00E
:104B000087F9044620B16FF00B04204603B0F0BDD6
:104B100001462C22009812F0FCFF009D1648AC6064
:104B2000C5E90074C5E909440022002301A90194E4
:104B300011F06EF904460028E5D101464FF4A47245
:104B4000019812F0E6FF01980C4BC360F83015F0A5
:104B50004AFE019BBFF35B8FF03353E8002F43E81D
:104B600000410029F9D1BFF35B8F019B43F8085B3B
:104B70003360CAE75408002070080020F0010020CC
:104B80002DE9FF4105460E464FF000084FF4205333
:104B9000006817688DF8088002A91446ADF80A303D
:104BA00013F015F8A0B142F6010328688DF80C80C7
:104BB00003A9ADF80E3013F00AF848B123691BB110
:104BC0005A88B24200D25E80012004B0BDE8F08174
:104BD0006168286812F0FBFF10B100232361F3E73E
:104BE000E368A0681A783AB1B7F88A3081895B1A0D
:104BF000934201DA0020E8E70421083014F059FF5D
:104C0000094B2061A26806804680294600930194E2
:104C10000023384614F065F80028EBDB20690038E3
:104C200018BF0120D1E700BF1D8C01002DE9F7431B
:104C30008B681B78D22B06460C4617460CD10368AE
:104C4000186814F0CEFE054630B120460EF036FC52
:104C5000284603B0BDE8F08304F1080014F060FFBB
:104C6000B4F80C90804657B9A368187813F088FE02
:104C70000138C0B204289CBF134B53F8207033682E
:104C8000C6F840711868114B9F4218D0104B9F42D4
:104C900017D01049104B114A8F4218BF13460836DF
:104CA00000962246042113F0C5FD05460028CFD00A
:104CB0002069A4F80C9010FA88F0A060C8E7084BAF
:104CC000EDE7084BEBE700BFBCB50100998E010092
:104CD000B58E0100698C0100C94A000051890100AC
:104CE000B94A0000A94A000038B5074A04460D46F3
:104CF000FFF79CFF30B1294604F1F800BDE83840C9
:104D000014F098BE38BD00BF998E01002DE9F7431D
:104D1000D2F800800646894600685168D8F80850E5
:104D2000144612F054FF074600283ED128461522AB
:104D3000314614F0A7FD0546207548B1E3681B789D
:104D400023B90025284603B0BDE8F0832775F8E7AE
:104D5000A06814F080FE0221083014F0AAFE144B63
:104D60002061A268A0F800903146009301942B4680
:104D7000404613F0B6FF002807DA10F1FF0F26BFF8
:104D80004042C0B20E202075DCE72369002BD8D04A
:104D9000A06813F0D5FDB8F88A50E3682D1A18788A
:104DA000854294BF00250125CCE70125CAE700BF55
:104DB0005D89010070B506460446042156F80809CD
:104DC00013F082FD50F8085C6B6A1BB905F10C000A
:104DD00015F009FD6A6AC4F83C21AA6A04F59E73BD
:104DE0006B6202B9AB62BFF35B8FD4F8E830BFF3FC
:104DF0005B8F1B0758BF172330465CBFA4F8823077
:104E0000A4F8723013F0D4FE04F584700249BDE8B2
:104E1000704015F0EBBD00BFF19101008B892DE9C9
:104E2000F04104460D46002B60D0012105F1080039
:104E300014F066FE54F8083C0746002B56D0017863
:104E40002E4AA4F10806002312F8330088421BD131
:104E5000D90002EBC30393F80280B8F1010F23D00D
:104E6000B8F1050F31D1BFF35B8FE83454E8003F50
:104E700043F0020044E8000CBCF1000FF6D1BFF390
:104E80005B8F13F0020F1FE001330D2BDCD10846BE
:104E900013F076FD50B3052828D039B3062300223D
:104EA000304614F0EDF821E0E834BFF35B8F54E8AE
:104EB000003F43F0010044E8000CBCF1000FF6D1C4
:104EC000BFF35B8F13F0010F10D10A44A989537807
:104ED00099420ED35368294630469847B8F1010FDE
:104EE000034603D110B139780029D8D10020BDE89C
:104EF000F081B8F1010FF9D10423F4E7D0B5010036
:104F00002DE9F0431F4603680E46003987B0054679
:104F100018BF01211868904614F00BFD00284AD0F4
:104F2000002F4AD018220021684612F0F2FDB8F195
:104F3000000F22D12B68224A1B6800930E9B03931B
:104F4000BDF83C30ADF8103001238DF814304FF02F
:104F500000096B46394638468DF80860ADF8129066
:104F600013F03BFD9DF81440F4B1B8F1000F0ED1E1
:104F70000024204607B0BDE8F083002241462846C1
:104F800014F059F801900028D4D10E24F1E70198CB
:104F90000EF094FA002EEBD09DF814303A463146CC
:104FA000284614F06DF8E3E701990029E0D028467F
:104FB000FFF79AFEDDE71224DBE70124D9E700BF03
:104FC0007F8C01002DE9F0418C89043CE4B2022C75
:104FD00005468CB0084601D0102C6ED10421083053
:104FE00014F08EFD0DF1080806884788011D224641
:104FF000404612F01AFE002861D0002E3AD000245C
:10500000002F36D0BE4235D84FF4205301A9404678
:105010008DF80440ADF8063012F0D9FD002834D1E7
:10502000AC681422002107A812F073FD012211219F
:10503000204614F068F80990002840D0012108307B
:10504000CDE9075814F035FD4FF000080A9007AB82
:1050500080F800801B4ACDF82C803946304613F08A
:10506000BCFC0A9B1C781CBB09980EF027FA0A238B
:1050700018E03E46012332461021284614F000F87D
:10508000002420460CB0BDE8F08142F6010307A9D8
:1050900040468DF81C40ADF81E3012F098FD0028F7
:1050A000BED0102332461021284613F0E9FFE8E76E
:1050B00009992846FFF718FEE2E70424E1E70E24E9
:1050C000DFE700BF814B00002DE9F043866885B023
:1050D00004460D463046012114F02BFCB8B31022D3
:1050E0000021684612F015FD00220F21304614F011
:1050F0000AF8029068B3DFF86090009405F10807A1
:105100004FF00108AB89012B04D802992046FFF724
:10511000EBFD18E0384614F0FBFC6B464A460146AE
:1051200006468DF80C8013F058FC9DF80C30002BCF
:10513000E8D002980EF0C2F99DF80C3032460E21EC
:10514000204613F09DFF002005B0BDE8F08312203B
:10515000FAE70E20F8E700BFD18E01002DE9FF41EC
:10516000D0F8088005460F464046012114461E46E9
:1051700014F0DFFB88B396B310220021684612F0CA
:10518000C8FC00222146404613F0BDFF029040B308
:10519000BDF82830ADF8043001238DF80C30124AE8
:1051A00000956B463146304613F017FC9DF80C40D5
:1051B00074B102980EF082F99DF80C3032463946EF
:1051C000284613F05DFF0024204604B0BDE8F081BE
:1051D00002992846FFF788FDF6E71224F4E7012438
:1051E000F2E70E24F0E700BFD18E01002DE9F04177
:1051F0008C89043CE4B2022C05468CB0084601D0F0
:10520000102C4FD10421083014F07AFC0DF1040861
:1052100006884788011D2246404612F006FD88B1E7
:105220009EB18FB1B74210D31822AC6800210DEBAC
:10523000020012F06EFC01220921204613F063FFE8
:10524000089068B90E2407E03E4601233246082143
:10525000284613F015FF002420460CB0BDE8F0816D
:1052600001210830CDE9065814F023FC4FF0000866
:105270000A2309900C4A80F8008039468DF82C30BA
:10528000304606AB13F0A9FB9DF82C402CB10898D2
:105290000EF014F99DF82C30D8E708992846FFF74E
:1052A00023FDD9E70424D7E70D4D00002DE9F04791
:1052B000884686B00546062108F1080014F020FC57
:1052C000078817B3B0F80290B9F1000F1CD04F4512
:1052D0001BD88388ADF8023000244FF4205301A975
:1052E0006846D8F808A08DF800408DF80440ADF865
:1052F000063012F06CFC064690B10A233A460621AD
:10530000284613F0BDFE07E04F4601233A4606212A
:10531000284613F0B5FE0024204606B0BDE8F0870D
:1053200098F80C40D5F808800146142201A812F024
:10533000F0FB32460721404613F0E5FE0290D8B15B
:105340000A238DF815300D4A8DF8144001AB4946FB
:105350003846CDE9036A019513F03FFB9DF81540EF
:105360002CB102980EF0AAF89DF81530CEE70299FC
:105370002846FFF7B9FCCFE70E24CDE7F1890100FD
:10538000F0B58B681E8885B005469EB15C8884B1F7
:10539000B4420FD3876810220021684612F0B9FB8F
:1053A00000220521384613F0AEFE019058B90E20B8
:1053B00007E02646012332460421284613F060FE0A
:1053C000002005B0F0BD2146084A00956B463046E6
:1053D00013F003FB029C24B901980EF06FF80A2326
:1053E000E9E701992846FFF77FFCE9E7198B0100FF
:1053F00013B502460B46084801A90024019410F099
:1054000007FD014630B90198102212F082FB019885
:1054100002B010BD2046FBE78C08002007B50190C4
:10542000806820B10EF04AF8019B00229A60034880
:1054300001A915F02DF903B05DF804FB8C080020DC
:105440002DE9F347044600F58870884691461F46CB
:1054500015F0D8FAD4F8F4000026F0B1104B9842B9
:1054600012D1C4F8F4603546206813F098FD3DB1C0
:105470002068CDF800A000684B4642463946A84750
:10548000002002B0BDE8F08745684660D0F80CA067
:10549000FFF7C4FFC4F8F460E6E70546E4E700BFA1
:1054A0004C140020F0B550F8085C85B00446002D7F
:1054B0004ED000F59E7105F1240013F0D3FCA4F149
:1054C000080604F1F00700220023384614F094FA8D
:1054D000024620BBD4F8EC3023B101460E233046FF
:1054E000FFF7AEFF002344F8083C6B6A002B2FD176
:1054F00003950398002200230C3014F07DFA88B93C
:10550000039A1060039B5D687DB9124803A915F0EA
:10551000BFF8206805B0BDE8F04000F08FBB0DF08B
:10552000CDFFD0E70DF0CAFFE3E799686E682A68FF
:105530005A608D4208BF9A6036B1EB680093002331
:105540001A460E211846B0472846FFF767FFD9E7ED
:1055500005B0F0BD5408002037B50D4D044668B9BC
:1055600000900722CDF803006946681C12F0B5FAD6
:10557000002808BF2C46204603B030BD2A4612F84A
:10558000011B13F097F8002814BF2C460024F2E703
:105590006414002010B5064C2378834204D10722FE
:1055A000601C12F09AFA08B1002010BD2046FCE7FA
:1055B000782700202DE9F341234B154682689A4253
:1055C000074602D1C468638903BB012002B0BDE86D
:1055D000F08105F18808287A414612F0D3FD80B9A0
:1055E0001A4B9C4202D1284614F0CEF80025694699
:1055F00030460095CDF8035013F07BFE25702581D1
:1056000019E04146304613F074FE14E0238993B14B
:105610002646284616F8011B324613F04BF80028A0
:10562000D7D120783146FEF7FFFF20B1857A12F0FE
:10563000FAFF072DC9D0E36800216181002BC4D097
:1056400038469847C1E700BF4F960100440200204A
:1056500010B504461448BFF35B8F00F1500353E8C4
:10566000002F22F0020243E800210029F7D1BFF306
:105670005B8FBFF35B8F036DBFF35B8FDA0704D5DE
:1056800000220023203010F003FF2046FFF764FFC4
:1056900040B1037ADB0705D5BDE8104000210C308E
:1056A00013F0BEBE10BD00BF880C002010B5204B0B
:1056B000BFF35B8F012253E8001F002903D143E8A9
:1056C00000200028F7D1BFF35B8F30D1BFF35B8F91
:1056D000184B53E8001F002903D143E8002000289D
:1056E000F7D1BFF35B8F08D11349144A0B88144CD0
:1056F0000020A24215D300B10B80124B124913486F
:105700000022C3E9002215F071F910484FF4A47289
:10571000002310F089FEBDE810400D490D4815F03A
:1057200065B9506803449BB208320120E1E710BD1F
:1057300074140020781400207627002034B3010070
:105740004CB301005C14002081980100300C002053
:10575000695A0000A80C00202DE9F041034648B129
:10576000008A38B91249DFF84CE001244FF0140CDC
:10577000714501D3BDE8F081D1E90076BB4204D385
:105780000CFB0672143A93420ED9A21992B2083158
:105790001446EDE70CFB0578434507D00135621947
:1057A000B54292B2F6D1F2E70025F8E71046E1E7FC
:1057B00034B301004CB301002DE9F74FBDF8305070
:1057C000009199464FF6FF73002D08BF1D46244BEC
:1057D0001B888342074690463CD203B0BDE8F08F59
:1057E00073682344BB4232D29CB208361D4B9E42A2
:1057F000F6D3F2E789580193404612F0E8F9019B8D
:1058000090B101340AF1010AA4B273685345ECD98E
:10581000009B9C42E1D8BC42F3D331680BFB0AF2F7
:105820008B18B8F1000FE5D1B9F1000F0BD1013D94
:10583000ADB218460E9A0D9B21469847002DCCD04C
:105840000028DED1C9E7DA689145DAD1EFE74FF0F9
:10585000000ADAE7044E01244FF0140BC6E700BF3C
:10586000762700204CB3010034B3010010B5C8B056
:1058700000231CAA694604A8CDE90033CDE9023310
:1058800012F017F820B34FF6FF710120114A04AB54
:1058900013F0EBFF104804A912F0A1F8C0B10E4BB1
:1058A000082203F10F0118780C7803F8014B013A34
:1058B00001F80109F7D1BFF35B8F084B53E8002FC4
:1058C00042F0040243E800210029F7D1BFF35B8FC7
:1058D00048B010BD3D930100200C0020D80C0020E2
:1058E0002DE9F0471546894614226968804613F071
:1058F000C9FF002839D14FF470200021AE8AFFF78C
:1059000077FD0236044620B96FF00B052846BDE846
:10591000F087174B4360C56032461D21404613F0A7
:10592000F2FB064618B92046FFF778FDECE700F1D8
:10593000080A0221504614F0BCF80746A98A27F845
:10594000029B504614F0B5F8AA8A2969384612F02D
:10595000D5F8A6602146404613F095FC0546002880
:10596000D4D02046FFF75AFDD0E74FF0FF35CDE702
:10597000C592010030B5394BBFF35B8F1B68BFF395
:105980005B8F9A078BB004460D4661D510B1837AC0
:10599000072B60D168680590FFF7DEFE2A68ADF836
:1059A00018003AB305A902912D4901910121002364
:1059B00000914FF6FF710593FFF7FEFE059B1BB9A3
:1059C0006FF001000BB030BD6B60059B18680023C1
:1059D0008DF8103004A942F60303ADF8123012F02E
:1059E000F6F870B90598C3689B799B0605D46FF0EB
:1059F0001500E7E70028E8D1E2E713F0E8FEADF88C
:105A00001800BDF818003CB101230146AB752A46C9
:105A10002046FFF765FFD5E76FF07F03079302236A
:105A2000ADF8203042F60213ADF8123005AB029308
:105A30000C4B019301230093AC75234604AA4FF647
:105A4000FF7109958DF81040FFF7B6FE0798B9E78A
:105A50006FF00A00B6E76FF07F00B3E7CC000020DC
:105A6000EB920100D95A000013B530F8082CADF8BC
:105A7000042030F8062CADF806200346A0F12001E2
:105A800000F13004BFF35B8F54E8002F22F00102D5
:105A900044E800200028F7D1BFF35B8F0C4A43F89D
:105AA0001C2C0C4A43F8182C01AA002043F8102C97
:105AB000042223F8080C23F8060C23F80C2CFFF71B
:105AC00059FF18B90121204613F0AAFC02B010BDFD
:105AD00060B6010051560000F7B5324B144682689B
