:10000000A00E0020C9220000515E00009D220000C9
:100010009D2200009D2200009D22000000000000A3
:10002000000000000000000000000000B11F000000
:100030009D220000000000005D1F00009D220000C6
:1000400061200000612000006120000061200000AC
:10005000612000006120000061200000612000009C
:10006000612000006120000061200000612000008C
:10007000612000006120000061200000612000007C
:10008000612000006120000061200000612000006C
:10009000612000006120000061200000612000005C
:1000A000612000006120000061200000612000004C
:1000B000612000006120000061200000612000003C
:1000C000612000006120000061200000612000002C
:0C00D000612000006120000061200000A1
:0400DC00FFFFFFFF24
:1000E00081F0004102E000BF83F0004330B54FEAE9
:1000F00041044FEA430594EA050F08BF90EA020F56
:100100001FBF54EA000C55EA020C7FEA645C7FEAE8
:10011000655C00F0E2804FEA5454D4EB5555B8BF0B
:100120006D420CDD2C4480EA020281EA030382EA7C
:10013000000083EA010180EA020281EA0303362D0E
:1001400088BF30BD11F0004F4FEA01314FF4801CE1
:100150004CEA113102D0404261EB410113F0004FF3
:100160004FEA03334CEA133302D0524263EB4303AA
:1001700094EA050F00F0A780A4F10104D5F1200E48
:100180000DDB02FA0EFC22FA05F2801841F10001A3
:1001900003FA0EF2801843FA05F359410EE0A5F177
:1001A00020050EF1200E012A03FA0EFC28BF4CF0A8
:1001B000020C43FA05F3C01851EBE37101F000455E
:1001C00007D54FF0000EDCF1000C7EEB00006EEB6B
:1001D0000101B1F5801F1BD3B1F5001F0CD34908F5
:1001E0005FEA30004FEA3C0C04F101044FEA44524C
:1001F00012F5800F80F09A80BCF1004F08BF5FEAD3
:10020000500C50F1000041EB045141EA050130BDB2
:100210005FEA4C0C404141EB0101013C28BFB1F5C4
:10022000801FE9D291F0000F04BF01460020B1FA0F
:1002300081F308BF2033A3F10B03B3F120020CDAE2
:100240000C3208DD02F1140CC2F10C0201FA0CF0C0
:1002500021FA02F10CE002F11402D8BFC2F1200C25
:1002600001FA02F120FA0CFCDCBF41EA0C019040DB
:10027000E41AA2BF01EB0451294330BD6FEA040424
:100280001F3C1CDA0C340EDC04F11404C4F120020F
:1002900020FA04F001FA02F340EA030021FA04F321
:1002A00045EA030130BDC4F10C04C4F1200220FA78
:1002B00002F001FA04F340EA0300294630BD21FAB6
:1002C00004F0294630BD94F0000F83F4801306BF7C
:1002D00081F480110134013D4EE77FEA645C18BF70
:1002E0007FEA655C29D094EA050F08BF90EA020F07
:1002F00005D054EA000C04BF1946104630BD91EAFF
:10030000030F1EBF0021002030BD5FEA545C05D101
:100310004000494128BF41F0004130BD14F5800440
:100320003CBF01F5801130BD01F0004545F0FE41B4
:1003300041F470014FF0000030BD7FEA645C1ABFE9
:10034000194610467FEA655C1CBF0B46024650EA20
:10035000013406BF52EA033591EA030F41F400214C
:1003600030BD00BF90F0000F04BF0021704730B5D2
:100370004FF4806404F132044FF000054FF00001A7
:1003800050E700BF90F0000F04BF0021704730B568
:100390004FF4806404F1320410F0004548BF40423D
:1003A0004FF000013EE700BF42004FEAE2014FEA92
:1003B00031014FEA02701FBF12F07F4393F07F4F6D
:1003C00081F06051704732F07F4208BF704793F070
:1003D0007F4F04BF41F40021704730B54FF4607483
:1003E00001F0004521F000411CE700BF50EA010286
:1003F00008BF704730B54FF000050AE050EA01022F
:1004000008BF704730B511F0004502D5404261EB9E
:1004100041014FF4806404F132045FEA915C3FF4DF
:10042000D8AE4FF003025FEADC0C18BF03325FEA7C
:10043000DC0C18BF033202EBDC02C2F1200300FA2D
:1004400003FC20FA02F001FA03FE40EA0E0021FA52
:1004500002F11444BDE600BF70B54FF0FF0C4CF440
:10046000E06C1CEA11541DBF1CEA135594EA0C0FF2
:1004700095EA0C0F00F0DEF82C4481EA030621EA2D
:100480004C5123EA4C5350EA013518BF52EA033568
:1004900041F4801143F4801338D0A0FB02CE4FF01A
:1004A0000005E1FB02E506F00042E0FB03E54FF04A
:1004B0000006E1FB03569CF0000F18BF4EF0010E42
:1004C000A4F1FF04B6F5007F64F5407404D25FEA3E
:1004D0004E0E6D4146EB060642EAC62141EA5551F1
:1004E0004FEAC52040EA5E504FEACE2EB4F1FD0C33
:1004F00088BFBCF5E06F1ED8BEF1004F08BF5FEAB1
:10050000500E50F1000041EB045170BD06F0004662
:1005100046EA010140EA020081EA0301B4EB5C040F
:10052000C2BFD4EB0C0541EA045170BD41F4801107
:100530004FF0000E013C00F3AB8014F1360FDEBF2C
:10054000002001F0004170BDC4F10004203C35DA08
:100550000C341BDC04F11404C4F1200500FA05F38B
:1005600020FA04F001FA05F240EA020001F000422C
:1005700021F0004110EBD37021FA04F642EB0601A2
:100580005EEA430E08BF20EAD37070BDC4F10C04CC
:10059000C4F1200500FA04F320FA05F001FA04F290
:1005A00040EA020001F0004110EBD37041F100017C
:1005B0005EEA430E08BF20EAD37070BDC4F1200587
:1005C00000FA05F24EEA020E20FA04F301FA05F2EF
:1005D00043EA020321FA04F001F0004121FA04F297
:1005E00020EA020000EBD3705EEA430E08BF20EA67
:1005F000D37070BD94F0000F0FD101F000464000A1
:1006000041EB010111F4801F08BF013CF7D041EA22
:10061000060195F0000F18BF704703F00046520026
:1006200043EB030313F4801F08BF013DF7D043EAF7
:100630000603704794EA0C0F0CEA135518BF95EAAD
:100640000C0F0CD050EA410618BF52EA4306D1D134
:1006500081EA030101F000414FF0000070BD50EA53
:10066000410606BF1046194652EA430619D094EADD
:100670000C0F02D150EA013613D195EA0C0F05D1C7
:1006800052EA03361CBF104619460AD181EA03011B
:1006900001F0004141F0FE4141F470014FF00000D3
:1006A00070BD41F0FE4141F4780170BD70B54FF06E
:1006B000FF0C4CF4E06C1CEA11541DBF1CEA1355EE
:1006C00094EA0C0F95EA0C0F00F0A7F8A4EB0504D0
:1006D00081EA030E52EA03354FEA013100F08880C7
:1006E0004FEA03334FF0805545EA131343EA126390
:1006F0004FEA022245EA111545EA10654FEA002645
:100700000EF000419D4208BF964244F1FD0404F5FD
:10071000407402D25B084FEA3202B61A65EB030559
:100720005B084FEA32024FF480104FF4002CB6EB16
:10073000020E75EB030E22BFB61A754640EA0C0096
:100740005B084FEA3202B6EB020E75EB030E22BFD6
:10075000B61A754640EA5C005B084FEA3202B6EB17
:10076000020E75EB030E22BFB61A754640EA9C00D6
:100770005B084FEA3202B6EB020E75EB030E22BFA6
:10078000B61A754640EADC0055EA060E18D04FEA64
:10079000051545EA16754FEA06164FEAC30343EA04
:1007A00052734FEAC2025FEA1C1CC0D111F4801FD1
:1007B0000BD141EA00014FF000004FF0004CB6E7CA
:1007C00011F4801F04BF01430020B4F1FD0C88BF69
:1007D000BCF5E06F3FF6AFAEB5EB030C04BFB6EB74
:1007E000020C5FEA500C50F1000041EB045170BD67
:1007F0000EF0004E4EEA113114EB5C04C2BFD4EB94
:100800000C0541EA045170BD41F480114FF0000E17
:10081000013C90E645EA060E8DE60CEA135594EA93
:100820000C0F08BF95EA0C0F3FF43BAF94EA0C0F96
:100830000AD150EA01347FF434AF95EA0C0F7FF40B
:1008400025AF104619462CE795EA0C0F06D152EA5F
:1008500003353FF4FDAE1046194622E750EA410643
:1008600018BF52EA43067FF4C5AE50EA41047FF454
:100870000DAF52EA43057FF4EBAE12E753B94AB924
:10088000002908BF00281CBF4FF0FF314FF0FF3098
:1008900000F00CB8ADF1080C6DE904CE00F008F8DA
:1008A000DDF804E0DDE9022304B07047704700BFC3
:1008B0002DE9F04F07468C460846099E15463C46F2
:1008C0001946002B40F0C6808242B2FA82F746D920
:1008D0004FB1C7F1200E24FA0EFE00FA07F3BD4017
:1008E0004EEA030CBC404FEA15481FFA85FEBCFBDC
:1008F000F8F9220C08FB19C309FB0EFA42EA03437C
:100900009A4528D9EB1809F1FF3004D29A4502D94B
:10091000A9F102002B44A3EB0A03A4B2B3FBF8F243
:1009200008FB123302FB0EFE44EA0344A64514D929
:100930002C1902F1FF3303D2A64501D9931E2C4492
:10094000A4EB0E0443EA00401EB1FC4000233460D7
:100950007360BDE8F08F4846DDE71346F0E702B963
:10096000FFDE87BB831A01214FEA154EAAB2B3FB03
:10097000FEFC200C0EFB1C330CFB02F840EA034388
:10098000984563D9EB180CF1FF3004D2984502D991
:10099000ACF102002B44A3EB0803A4B2B3FBFEFCB2
:1009A0000EFB1C330CFB02F244EA0344A2424FD973
:1009B0002C190CF1FF3304D2A24202D9ACF102038C
:1009C0002C44A41ABEE7C7F1200C20FA0CF800FA58
:1009D00007F324FA0CFCBD404CEA03024FEA154E23
:1009E000ABB2B8FBFEFC110C0EFB1C800CFB03F938
:1009F00041EA0040814504FA07F423D928180CF194
:100A0000FF3104D2814502D9ACF102012844A0EBA8
:100A1000090092B2B0FBFEFC0EFB1C000CFB03F8BD
:100A200042EA004398450FD9EB180CF1FF3204D28B
:100A3000984502D9ACF102022B44A3EB080342EA29
:100A4000014191E76146E2E76246F6E76046A2E7C8
:100A50006346B6E7834205D90EB1C6E900700021AE
:100A6000084676E7B3FA83F181B9834201D3BA42EB
:100A70000AD8BC1A60EB030301209C46002E68D004
:100A8000C6E9004C002164E70846F7E7C1F1200CF5
:100A90008B4022FA0CF41C4302FA01F500FA01F330
:100AA00027FA0CF220FA0CFB4FEA14491343BBFB64
:100AB000F9F81FFA84FE09FB18BB1A0C08FB0EFAA2
:100AC00042EA0B42924507FA01F73ED9A21808F113
:100AD000FF3004D2924502D9A8F102002244A2EBD1
:100AE0000A029BB2B2FBF9F809FB182208FB0EFEC2
:100AF00043EA024296452AD9A21808F1FF3304D2EC
:100B0000964502D9A8F10203224443EA0040A0FB23
:100B10000593A2EB0E029A42CE46984602D306D126
:100B20004F4504D2B9EB050E63EB0408013886B1DA
:100B3000B7EB0E0362EB080707FA0CFCCB404CEA5C
:100B40000303CF40C6E900379CE74046C7E743466A
:100B5000DBE73146FDE600002DE9FF47384803F0AA
:100B600071FF0446B0B10FF2D009D9E90089354DC3
:100B7000DFF8D4A0A3683921DB6820469847002815
:100B80000EDA324804F065FF00214FF4803004F0A3
:100B900041FDEFE72E4804B0BDE8F04704F059BF2F
:100BA000A3686A461B690D2120469847002801DA90
:100BB0002848E7E7A36802AA1B6910212046984746
:100BC000002801DA2448DDE7296850460131296010
:100BD00004F03FFF0198FFF7D5FB42464B46FFF775
:100BE00065FD064600980F46FFF7CCFB02460B4614
:100BF00030463946FFF77AFA02460B46174804F0AA
:100C000028FF0398FFF7BEFB42464B46FFF74EFD19
:100C1000064602980F46FFF7B5FB02460B463046E4
:100C20003946FFF763FA02460B460D4804F011FF00
:100C3000AAE700BFAFF300800000000080842E41CF
:100C4000DC720000180400206973000000730000CB
:100C5000E37200001C73000044730000797300000D
:100C60008D7300000B6801330B60014B1B68184744
:100C700000000020014B1860704700BF00000020FA
:100C800007B50B46002102460191034801A900F077
:100C9000E5F803B05DF804FB650C00002DE9F84FA2
:100CA000B0F8189019F00808044693460DD00129B1
:100CB0000CBF49F0100949F02009A0F818908BF3F7
:100CC0001188BFF36F8FBDE8F88F09F0070902297B
:100CD00007D1204604F0CAFE0028F0D00128238B5B
:100CE0004ED16769218B002F15DA256821F00701A5
:100CF000C4E9008841F0010121830026218B01F025
:100D0000070ACA4502D0A368002B5AD10DB9002E9C
:100D100071D0002356E001F007035A1F012A1ED8A4
:100D200021F00701062B256889B2C4E900880AD1A1
:100D30003DB1638B2A46126801339BB2002AFAD177
:100D4000638341F002012183204604F08FFE0646B2
:100D50000028D3D0238B43F020032383CDE7042B3B
:100D60000CD121F0070189B22183204604F07EFED8
:100D700005460028C1D041F0200121830025BCE7B1
:100D8000032809D1226923F00703166843F00603FC
:100D9000238300252F46B1E7042806D1226923F0DA
:100DA0000703566843F00403F2E7052806D12269D9
:100DB00023F00703966843F00503E9E700252E4674
:100DC000E8E7012341F0080121838BF31188BFF389
:100DD0006F8FFBB985BB16B11F492046B0474FF056
:100DE0002003EFF3118B83F31288BFF36F8F238BF4
:100DF00023F008032383238BDA0625D523F0100381
:100E000023830121B4F8189009F0070900297FF421
:100E10005EAF54E7A1680029DCD0D1F80090D1F88A
:100E200004B03B4652462046D847B9F1000FD1D016
:100E30004946D9F80090F2E729463B4652462046FB
:100E40002D6804F02FFEC5E713F020011EBF23F02C
:100E5000200323830221D5E7D15A00002DE9F04F6A
:100E600081469BB08A4615461C460026287810B954
:100E7000304600F0EEBD6B1C2528029306D051468B
:100E8000C8470028C0F2E58501364CE2182200214F
:100E90000CA805F015F86B78252B7CD00022681C77
:100EA0009646904694461746014610F8013B2B2B78
:100EB00000F0A08000F29780202B00F09E80232B72
:100EC00000F09E802FB19DF8380040F004008DF8AE
:100ED0003800BCF1000F05D09DF8380040F0080044
:100EE0008DF83800B8F1000F05D09DF8380040F0BB
:100EF00010008DF83800BEF1000F05D09DF83800C5
:100F000040F020008DF838002AB19DF8382042F0DA
:100F100040028DF838209DF8382002F04400442823
:100F200003D16FF386128DF838209DF838202A2BD4
:100F300042F080028DF838207ED19DF8392042F0B1
:100F400001024B1C8DF839201A782E2A9DF8392081
:100F50000CBF0121002161F341028DF8392077D1C6
:100F60005A782A2A6DD0013300214FF00A0C184616
:100F700010F8012BA2F13007092F40F2AB809DF849
:100F800038201091C2F3400040EAD17161F3410270
:100F90008DF838205CE0AA1C02928DF83B309DF859
:100FA0003930DF0740F1738154F804BBBBF1000F07
:100FB00007DA9DF8382042F004028DF83820CBF192
:100FC000000B580740F16C8154F8048BB8F1000F06
:100FD00080F26B819DF839306FF341038DF8393021
:100FE0004FF0FF3861E12D2B0DD0302B7FF46AAF2D
:100FF000012259E74FF0010C56E74FF0010853E783
:101000004FF0010E50E701274EE70CFB0272303A19
:101010000346184610F8017BA7F1300EBEF1090F08
:10102000F3D9994290D09DF838100F92D20F62F305
:1010300041018DF8381087E70B4600224FF00A0C6B
:10104000E7E79DF8392042F004028DF83920023399
:10105000194611F8012B6C2A5CD040D8682A46D07A
:101060006A2A61D04C2A67D019460B4613F8012B27
:101070000293782A8DF83B2000F2DF80572A68D847
:10108000412A04D0A2F14503022B00F2D6809DF83C
:101090003A3002F0DF020421A2F1410861F30203B9
:1010A000D8F100029DF839108DF83A3042EB080271
:1010B00062F3C7110A068DF83910CBB200F1E58052
:1010C00003F07802182A40F0B5806FF3C6038DF85C
:1010D00039309CE00CFB01213039034647E7742A84
:1010E00026D07A2AC0D19DF8393006220DE05A78F0
:1010F000682A9DF8392006D1012161F3C6028DF8D6
:101100003920991CB1E71346022262F3C6038DF819
:101110003930AAE75A786C2A9DF8392001D1042188
:10112000EBE713460322F0E79DF839300522ECE7A0
:101130009DF839300722E8E7BDF8383023F4F04352
:1011400023F0020343F4804343F00203ADF8383048
:101150008BE7A2F15803202B6FD801A151F823F09F
:10116000131200003B1200003B1200003B12000073
:101170003B1200003B1200003B1200003B1200003B
:101180003B1200008F1000003B1200001312000001
:10119000E51100008F1000008F1000008F1000007C
:1011A0003B120000E51100003B1200003B12000062
:1011B0003B1200003B120000491200001312000015
:1011C0006D1200003B1200003B1200006D12000087
:1011D0003B120000131200003B1200003B12000003
:1011E000131200009DF83A30012161F302038DF8DB
:1011F0003A309DF8393003F07803402B02BF9DF858
:10120000381041F001018DF83810632A05D0002311
:1012100006E09DF83A300221E7E7003B18BF0123C2
:101220009DF83820C2F340010B4363F341028DF86F
:101230003820B4E613F0380FE9D09DF8383043F089
:1012400001038DF83830E2E79DF83A30032262F36B
:1012500002038DF83A309DF8393003F07803A3F19A
:10126000400CDCF1000343EB0C03D9E79DF83A3066
:10127000032262F302038DF83A309DF8393013F0FF
:10128000780F14BF01230023CAE70123C8E79DF9A3
:101290003820002AB4BFDDF83CB04FF0FF3B90E6A9
:1012A00099077FF59DAEDDF840809DF83910002349
:1012B000CDE90F339DF83A3003F00702042A09D133
:1012C0008A0707D49DF93920002AB4BF4FF00D08D2
:1012D0004FF0060803F00703012BC1F3C30137D118
:1012E000CB1E042B21D8DFE803F0030909202000DE
:1012F00054F8043BDA17CDE90C3206E0073424F049
:101300000704F4E80223CDE90C239DF83870BB07ED
:1013100056D0029B2A465146484604F022FD00283A
:10132000C0F297830644029DA0E554F8043B0129CE
:101330004FEAE372CDE90C3205D19DF830300C93C1
:1013400000230D93E1E70229DFD1BDF93030D1E769
:10135000022B23D1CB1E042B13D8DFE803F0030AA2
:101360000A12120022680C920023201D0D930446DD
:10137000CBE7E01D20F00700F0E80223CDE90C23C5
:10138000F5E754F8043B0C9301294FF000030D934B
:10139000D3D00229B9D1BDF83030D0E7042B09D120
:1013A000E31D23F0070303F10804D3E90023CDE98B
:1013B0000C23AAE7032B04BF54F8043B0C93A4E7C7
:1013C0009DF83B20782AAED8572A00F28C80252A37
:1013D00000F0D480242AA6D9412A03D0A2F14503E3
:1013E000022BA0D8DDE90C13002BC0F2BE81380718
:1013F00000F1BD8117F0100718BF2027C3F30A556D
:10140000C3F31303CDE90813002D40F0B28151EA74
:10141000030014BF01200020DB0243EA5153C9023C
:10142000462A45EA010E43EAE57C08BF66225EEAE9
:101430000C0CCDE9081300F00682002840F0CE81A4
:10144000DDE908014FF0000C41F00041A5F2FE3546
:10145000099163464FF0050E15F1020FC0F2C581E8
:10146000BCF1000F01D0CDE90801002DDDE9081025
:1014700000F3D08109980899C5F1040C1C3500FAD5
:1014800005F5ACF1200E21FA0CF120FA0EFE2943ED
:1014900041EA0E0120FA0CF0CDE9081002F0DF015C
:1014A000472940F0D781DD1C02DB984580F2CE81D0
:1014B000023AB8F1000FD2B201DD08F1FF389DF811
:1014C0003810880600F1C681B8F1000FD4BF0021A2
:1014D0000121662A039140F0BF8118EB030540F11A
:1014E000BD810025BDE1A2F15803202B3FF61BAFC3
:1014F00001A050F823F000BF0D17000027130000D3
:1015000027130000271300002713000027130000F3
:10151000271300002713000027130000E513000025
:1015200027130000A9150000AD160000E513000008
:10153000E5130000E513000027130000AD160000BE
:1015400027130000271300002713000027130000B3
:10155000431700000D1700001117000027130000AB
:101560002713000083150000271300000D1700004B
:1015700027130000271300000D17000051461046E6
:101580007EE4B8F1000F0C9A09DB41461046039245
:1015900004F076FC039A0027151862B9C3E61046DA
:1015A000039204F066FCF5E70C9B8DF84C300027A5
:1015B0000DF14D0513AAAB1A07B101339DF83A009E
:1015C000C10640F13A8202330F9940060B4444BFF2
:1015D00010995B18BBF1000F23DDABEB030B9DF8FB
:1015E00038305907C3F380081BD4580640F13482C1
:1015F000002F00F03482514638460392C847002835
:10160000C0F22782039A474601364FF030085E4405
:101610005B46002BA6EB0B000BF1FF3B00F31182A6
:10162000064647B1514638460392C8470028C0F2E3
:101630001082039A01369DF83A30590640F16582CE
:101640009DF93930002BA6EB02030393C0F20A8206
:1016500017463878039BA0F13002092AB84603EBFD
:10166000070607F1010740F229829DF83A200F9FF3
:10167000930608D43E44002FA6EB070307F1FF377B
:1016800000F322821E4698F800002E280BD1514606
:10169000C8470028C0F2DD81002F06F1010600F3E3
:1016A0001A8208F10108A6EB08061DE23D072BD4BB
:1016B00017F0100718BF2027DDE90C23002B05DAEF
:1016C000524263EB4303CDE90C232D270DF1650353
:1016D00000930EAADDE90C0113AB04F0FCFA0246FC
:1016E000B8F1000F0DF16505FFF657AF9DF8381002
:1016F000AB1A6FF3861198458DF838107FF64DAF11
:10170000A8EB03030F9348E72B27D5E70027DDE776
:101710000C98002800F08D810DF1650300930EAA4E
:1017200013AB002104F0D7FABDF83A3003F0EF0311
:1017300043F4F04343F010030246ADF83A3000277B
:10174000CEE70C9B07293FF6EEADDFE801F00C0475
:10175000060C08080C0C1E70E5E51E80E3E5F21788
:10176000C3E90062DFE51E60DDE52D2746E62B2795
:1017700044E640F2FF7085422DD10B43A2F14102B5
:101780001BD1192A11D849238DF84C304E238DF8DE
:101790004D3046238DF84E309DF838306FF3861368
:1017A0008DF838300DF14F0504E769238DF84C3082
:1017B0006E238DF84D306623ECE7192A99BF4E232E
:1017C00041226E23612294BF8DF84C308DF84C304D
:1017D0008DF84D20DEE700201EE6013D49185B41F3
:1017E000002BFADACDE908132AE6400840EAC17076
:1017F0004908B1F1333FAC4605F10105F5D20EFBC6
:1018000001F5A0FB0E012944013B0CF102054FF04C
:10181000010C21E6023140F10000CDE9081008A8D2
:10182000CDE9032304F028FA049B039ADDE90810AC
:10183000013D013349184041002805F1FF35F9DA2F
:10184000CDE9081011E600231D4613E6A8EB0308B6
:10185000662234E600213CE608F10105102DA8BF00
:1018600010251021079100204FF00061CDE90A01F9
:10187000DDE90A10A5B9089D4919099D40EB050548
:10188000B5F1805F1BD2CDE90815662A40F099803A
:10189000002B23DC30218DF84C100DF14D052FE08D
:1018A000490841EAC0714008CDE90A100AA8CDE90B
:1018B0000423013D04F0E0F9DDE90423D8E74908F9
:1018C00041EAC57108A86D08CDE90423CDE90815E2
:1018D00004F0D2F9059B049A0133D6E713AD0799BA
:1018E00000290BDD07A908A8CDE9042304F0DCF9E1
:1018F000059B05F8010B013B049AF0D10F930023DF
:101900009DF83810890602D4B8F1000F1DDD2E2194
:1019100005F8011B9BB1B8F1000F16DD5942414596
:10192000A8BF41469DF83A000F910029A8EB010895
:10193000D4BF0021012161F345108DF83A00B8F1C0
:10194000000F02DD0799002956DC0399002963D1B5
:10195000CDF8408002F0DF01452921D1002B294636
:10196000B8BF5B4201F8022BB4BF2D222B22632BA0
:101970006A7009DD6420B3FBF0F202F1300CE91C5F
:1019800085F802C000FB12330A200D46B3FBF0F2CB
:1019900000FB123302F1300C303305F802CB4B70F0
:1019A0000F9B002B43DC109B002BD4BF0023012393
:1019B0009DF83A2063F3861200238DF83A202B70AD
:1019C000F8E507A908A8CDE9042304F06DF9DDE9DD
:1019D00004239DF838108DF84C00302818BF03F10F
:1019E000FF33880602D4B8F1000F12DD2E218DF8E6
:1019F0004D100DF14E05A2E707A908A8CDE9042373
:101A000004F052F908F1FF38DDE9042305F8010B71
:101A100095E70DF14D0598E700211091284615F83E
:101A2000011D3029FAD02E2918BF054692E701235F
:101A3000BEE74B4D07466A1FBDE5010748BF0133AE
:101A4000C2E5514640460392C8470028039ABFF6B4
:101A5000DFAD1BB0BDE8F08F4FF02008D7E54FF0A9
:101A60003008D4E59046039B4746434418F8010BE1
:101A700070281ED11E46109B03EB0608A8EB060338
:101A8000002B3BDC2B463A465146484604F069F9A8
:101A90000028DEDB304406468344ABEB0603002B14
:101AA0007FF741AC51462020C8470028D1DB0136E2
:101AB000F3E75146C8470028D5DACAE75146C84778
:101AC0000028BFF6C6ADC4E751463020C8470028FD
:101AD000BFF6D1ADBDE751463020C847013FD8E53C
:101AE0005146C8470028B4DB474606EB080318F800
:101AF000010BA0F13002092AF2D9BBE75146302090
:101B0000C8470028A5DB0136B8E7D80601D4190775
:101B100007D5514630200392C847002899DB039A25
:101B200001369DF83A30DB0608D59DF83B0003925C
:101B30005146C84700288CDB039A01360F9F374473
:101B4000BB1B002B01DC2B469EE751463020039245
:101B5000C8470028FFF67DAF039A0136F0E700BFC3
:101B6000AC7300002DE9F84305464FF02003EFF376
:101B7000118683F31288BFF36F8F0E4B1C689CB1E4
:101B80000D4FDFF838804FF00C09D4E90132002DF9
:101B900008BF13462BB198F8142009FB02F2B85C79
:101BA00098472468002CF0D186F31188BFF36F8F1B
:101BB000BDE8F8831C040020240400200006002057
:101BC00000F01F0301229A400A4BBFF35B8F4009CC
:101BD00003EB800050E8003F43EA020140E8001CAC
:101BE000BCF1000FF6D1BFF35B8F1A4214BF012086
:101BF000002070473004002030B51D4B1C7DBFF322
:101C00005B8F04F01F0301229A401A4B610985B0D3
:101C1000D04303EB810353E8001F01EA000543E8CA
:101C2000005CBCF1000FF6D1BFF35B8F114217D0FF
:101C3000114D0C2202FB045207CA01AB83E80700D6
:101C40000E4A7AB193E8070004F059F90020FFF733
:101C500089FF0C235C432A1900232B51C2E901336D
:101C600005B030BD82F31188BFF36F8FEEE700BF80
:101C7000000600203404002024040020FF5E000041
:101C80002DE9FF41354B364C1D7D80462846FFF738
:101C900097FF50B94146284600F084F828B107C89C
:101CA0000C2303FB054383E807000C236B43E21876
:101CB000E05C6E0905F01F0700283BD0B8F1FF3F3C
:101CC00010D0D2F808E02748274A4FF4004C0021F2
:101CD0000023EEFB0C01FEF7D1FD0121A8EB000073
:101CE00004F0DDFF03F060FA0120FFF73BFFBFF3D4
:101CF0005B8F1E4B0122BA4003EB860353E8001FA3
:101D0000114343E800100028F8D1BFF35B8F0C2388
:101D100003FB054494E8070001AB83E80700144A7D
:101D20001AB193E8070004F0D7F8FFF765FF03F056
:101D3000C1FB01200F4ABFF35B8F0123BB40DB4394
:101D400002EB860656E8002F1A4046E800210029DB
:101D5000F8D1BFF35B8F04B0BDE8F081000600202E
:101D6000240400203F420F0040420F0034040020B2
:101D7000D95E000030040020054BBFF35B8F53F8A1
:101D80002000BFF35B8FB0FA80F04009704700BFBE
:101D90003804002008B9024B0B600020704700BFD8
:101DA000540400202DE9F04F85B00E4603A9FFF73B
:101DB000F1FFDFF874A0DFF87480441E24B24FF402
:101DC00000474FF00009631C04D10025284605B0E8
:101DD000BDE8F08F039A04EB440302EB830512F88D
:101DE0002300FFF7C9FFE0B168684FF0000BD4464D
:101DF0005946E0FB07C142464B466046FEF73EFDB2
:101E00000190A868D4465946E0FB07C142464B46BC
:101E10006046FEF733FD721CD8D0019B1844B042D7
:101E2000D4D9013C24B2CEE73F420F0040420F001C
:101E3000014910220A60704710ED00E072B6404080
:101E400080F31188BFF36F8FBFF34F8F30BF62B63F
:101E5000BFF36F8F704700BF72B6494081F311889E
:101E600020BF80F3118862B6704700BF43B2002BD9
:101E700008DB012200F01F0002FA00F05B09024AB1
:101E800042F82300704700BF00E100E0054B420923
:101E900000F01F0053F82220012303FA00F0104045
:101EA000704700BF00E100E043B2002BA8BF03F180
:101EB000604301F10101B8BF064B4FEA4111ACBFCD
:101EC00003F5614300F00F00C9B2B4BF195483F8A1
:101ED0000013704714ED00E030BFFFF7FDBF00BFF7
:101EE0000F4A08B50F4B22F07F029A60BFF34F8F65
:101EF000BFF36F8FD3F8882022F47002C3F88820D4
:101F0000EFF3148323F0040383F31488BFF36F8F7C
:101F100002F008FE03F002FC00F0CAF902F00CFE29
:101F20000000000000ED00E0094A0A4993680968D2
:101F30009967094958674B6843F080534B60002309
:101F400083F31188BFF36F8F9368986F704700BF5A
:101F500000060020D872000000ED00E012498A68F7
:101F60004FF030001044EFF3098C80E8F01F202080
:101F700080F31288BFF36F8F0C4F4FF00066CA6971
:101F80008A603E60506F0023536780F3118804B568
:101F9000104600F0CFF9BDE8044002F1300090E8AF
:101FA000F01F8CF3098870470006002004ED00E064
:101FB0001EF0040F0CBFEFF30880EFF30980816976
:101FC00011F8021C0229FFD001B503F039FF01BD51
:101FD00042F8203C009B42F81C3C0A49019B42F815
:101FE000183C029B42F8143C21F001014FF0807331
:101FF00042F8043C42F8081C0023203A026543677B
:10200000704700BF655C0000094A0346906870B1E4
:1020100013F1160F406E05D0A0F120029A4205D8A8
:10202000834203D2814228BF0020704700207047BE
:102030000006002008B5094B98600D46144600F0D4
:1020400079F9204685F30988002163B681F3118868
:10205000BFF36F8F0022002303F004FE0006002070
:1020600001B572B60B4A906900281EBF002191612C
:1020700004F0ECFC62B6EFF30580A0F110004FEA2B
:10208000C0000549014409C99847BDE8014003491A
:102090000847000000060020D86E0000A1200000C4
:1020A000044B9968D869884203D003494FF08052A5
:1020B0000A6070470006002004ED00E038B5194BB7
:1020C00014469A6A9A6A9A6A0546900719D5586B17
:1020D0009A6A120615D519B19A6A22F080029A629C
:1020E0009A6A9A6A9A6AD1060ED49B6A9A070BD4A6
:1020F00000200C4A936A43F0FF039362002323708D
:1021000038BD6FF01500EBE7064B5B681B05EFD59C
:102110002946FFF779FF0028EAD080F309880220DA
:10212000E7E700BF00ED00E00D4B9A6A9A6A9A6AF1
:10213000920508D59A6B9A6A120404D518B19A6A66
:1021400022F400429A62064B9A6A9A6AD20558BFF4
:102150009A6A9A6A002042F47F429A620870704735
:1021600000ED00E070B5484B5B688AB00D46C3F3E4
:102170000803002686F31188BFF36F8F02F07F41BA
:10218000B1F17F4F11D102F00C0108290DD01107D8
:1021900001D4054601260022033B8DF80720032BBE
:1021A0006BD8DFE803F00455595D3546F3E7364B4D
:1021B000DC6A14F0020460D1DA6A002A15DBDA6AFC
:1021C000520012D5AA6932F8021C4DF602729142F1
:1021D0000AD093F828200AB30DF1070201212846FE
:1021E000FFF76CFF044600E02C689DF807309BB9B0
:1021F0002022294602A803F058FE099B002E3ED05B
:10220000C3F3080222B96FEA53236FEA4323099309
:1022100002A9204603F012FE0AB070BD93F82920EF
:102220002AB10DF107010120FFF77EFFDAE75A8D91
:1022300092B2002AD9D09A6A9A6A9A6A9A6A9A6A73
:102240009A6A9A6A6FEA02426FEA12429A62CCE78D
:102250000DF107020021C2E70DF107010020E3E7BD
:10226000094B9A6A9A6A9A6A9A6A9A6A9A6A9A6AFE
:102270006FEA02426FEA12429A620024B5E723F441
:10228000FF7323F00103C2E700ED00E0024A536947
:1022900043F010035361704700ED00E0EFF3088056
:1022A000EFF3098101B57246FFF75CFF01BD00BF86
:1022B000044800232021C2180133272B82F8001381
:1022C000F9D1704700E100E004F00CFD202080F31C
:1022D000118808484FF40261401880F30988EFF331
:1022E00014800221084380F31488BFF36F8FFFF737
:1022F000F7FD000020100020064B9B68834207D1A9
:10230000EFF3058323B1044A536843F080535360CD
:1023100003F0A0B90006002000ED00E0024B034AE4
:102320000348012100F06EB80000012000000020E9
:1023300098700000426E054B203A1A60044A202132
:10234000C3E901121846012100F066B854040020C8
:1023500000000B15F0B51F4F00268E4201DB104622
:10236000F0BD44689CB353B104F1FF3C14EA0C0F78
:1023700018D11F2C16D905681CEA050F12D1202C84
:102380000568D0F808C0D2B20FD9B4F1004F0ED80A
:10239000013CB4FA84F4C4F11F046400072A4CEA37
:1023A000040406D96FF01502D9E70824F6E73E24A5
:1023B000F4E725F01F05154345F0100544F001042E
:1023C000C7F89820C7F89C500132C7F8A0400136E2
:1023D0000C30C2E700ED00E0044B0522C3F8942066
:1023E000BFF34F8FBFF36F8F704700BF00ED00E06A
:1023F000BFF35F8F024B0022C3F89420704700BFE9
:1024000000ED00E010B5034C01232278FFF7A2FF96
:10241000207010BD5206002008B5094A002312782A
:10242000FFF798FF10F1160F02D0064A072800DDCB
:1024300008BDC2F89800C2F8A0300130F6E700BF2E
:102440005206002000ED00E014490868082810B585
:1024500021D8FFF7CDFF124C49680022904201F1CC
:102460000C0105D10F4B1870FFF7B6FF002010BD0F
:10247000C4F8982051F80C3C23F01F03134343F099
:102480001003C4F89C3051F8043C43F00103C4F835
:10249000A0300132E2E74FF0FF30E8E7A47000001F
:1024A00000ED00E052060020014B1860704700BFAD
:1024B000040000204FF02002EFF3118382F3128812
:1024C000BFF36F8F044A0121C2F8401583F31188CE
:1024D000BFF36F8F0020704700E0014020B1034B35
:1024E000800143F001031847704700BF907000005F
:1024F00038B54468206802F0A5FA30B90D48216863
:1025000003F0A7FA6FF0120038BD616804698568AE
:10251000C9B2012303FA01F2236823EA020323600C
:102520004FF420622B6898472120002103F072F8B5
:102530000020E9E7BC730000084B70B5C31A0D46D4
:1025400007499B10044659430648402203F0FEFC0D
:102550002B4601462046BDE8704018477004002015
:10256000B76DDBB6886D000073B50C4C0C4A402388
:10257000041B00930D460B460A49A410614306460E
:10258000094803F00FFD011E05DA30462B4602B064
:10259000BDE87040184702B070BD00BF7004002055
:1025A00015600000B76DDBB6886D0000002270B5C5
:1025B000012104461046FFF777FC0020FFF756FC88
:1025C0000F4801F0B9FA0F4B984215D104F05FF9AA
:1025D00026690D49304603F098FA00280BDB246980
:1025E00009490125356404F11C0003F08EFA002826
:1025F00001DBE564002070BD6FF00400FBE700BF65
:10260000412600000000AD0BFC70000001460C23C9
:1026100009484B4370B5C418D4E90E560022403324
:10262000A263184403F07FFC2DB132462B460348C9
:10263000BDE87040184770BD70040020886D000030
:1026400010B1012804D07047034B1B6C5B0701D10C
:10265000FFF7DCBF704700BF7004002008B54FF0E3
:102660002003EFF3118183F31288BFF36F8F124AB7
:10267000136843F0020013F0010310600CD04FF018
:102680008042D2F80C34D2F80C2413F0010303D0AA
:102690000A4803F048FC012381F31188BFF36F8FD0
:1026A00023B1BDE808400020FFF7B0BFBDE80840F7
:1026B000012001F051BA00BFC0040020B004002086
:1026C0001FB500220123CDE90223094ACDF800D02D
:1026D0006B46CDF804D003F096FC002805DB4FF4E0
:1026E00080420023684602F091FB05B05DF804FBD0
:1026F0002D60000010B5074C23782BB94FF4A5705E
:1027000004F0EBFA01232370BDE81040002001F033
:1027100023BA00BF53060020094BBFF35B8F53E879
:10272000002F22F0020143E800100028F7D1BFF388
:102730005B8FD30702D4012001F056BA704700BF67
:10274000C00400202DE9F0413949BFF35B8F0746F3
:10275000012251E8003F41E800200028F9D1BFF3F1
:102760005B8F33B9334934484B60CB608A6003F0E8
:10277000DFF97B1E012B2FD8012F07D14FF08043AB
:10278000D3F81C3403F00303012B25D004F053F9D4
:10279000044618B9294B1B78002B41D14FF0200378
:1027A000EFF3118683F31288BFF36F8F0124DFF8F4
:1027B00090804FF08045D5F81834D5F81824D2030E
:1027C0000CD503F00303012B01D0012F06D10CB36C
:1027D00086F31188BFF36F8FBDE8F081ACB130464E
:1027E000FFF73AFBD5F81835002BE4D1D5F80421D2
:1027F000002AE0D0C5F80431D5F804310123C5F82A
:102800001835C8F88031AB60D5E70021212002F0EF
:1028100001FFE7E74FF080430222C3F80423DBE720
:102820004FF080430222C3F808230646BFE700BFEB
:10283000C4040020600400208C040020850A0020CD
:1028400000E100E010B5044C2046FEF713FA2046E4
:10285000FFF72AFE002010BD5D280000F7B5144EDA
:102860008DF8070004460325EFF311874FF0200190
:1028700081F3118801220DF10701002002F092F886
:1028800087F3118820B101233370204603B0F0BDD7
:102890003378002BF9D0013D08D004F0CCF80028A3
:1028A000E2D10021422002F0B5FEDDE73570ECE711
:1028B0005406002030B54068047B01F01F05B2F5D6
:1028C000005F45EA441585B04FF0000404D1284666
:1028D00001F028FC00202EE0B2F5804FCDE9024443
:1028E0002BD1B3F5003F0CBF042305238DF808302E
:1028F000836823FA01F1C9072BD4B2F5A03F28D190
:1029000005F01F0303F5E0734FF0A04252F82330A7
:10291000DB071ED40DF107042146284601F06AFBAF
:10292000144B984214D1204601F0B2FB124B98424E
:102930000ED06FF00B0005B030BDB3F5C02F05D041
:10294000B3F5003F0CBF02230123CFE70323CDE7FC
:1029500003940023194602AA284601F023FA064BE5
:10296000984204D10121284601F098FBB2E76FF0AC
:102970000400E0E70400AD0B0000AD0B10B501F062
:1029800077FB044668B901F04BFB084B98420AD12B
:102990000748214601F028FB224605210620FFF7C3
:1029A00083FA002010BD6FF00400FBE70000AD0BC0
:1029B000B5290000430970B510D1094B596869B1B8
:1029C00001250C68074E85408A682A4002D04B6872
:1029D0003046984714B121462468F5E770BD00BF22
:1029E000C8040020A06D00002DE9F04347683B7B40
:1029F00001F01F0585B00E4645EA43151446CAB9D5
:102A000002A9284601F0F6FA0446284601F0B2FB76
:102A1000484B984204D06FF0040005B0BDE8F08345
:102A2000844205D19DF8080001F02CFBA042F2D1B0
:102A30000020F2E74FF000090DF103013046CDE927
:102A4000029901F0D7FA4B46804602AA4946284629
:102A500001F0A8F9374B984202D06FF01500DCE77F
:102A6000804503D19DF8030001F00CFBA3054ED572
:102A7000314B324A234093423AD00CD8062B14D023
:102A800004D893B1022BE8D104230EE0B3F5801FE4
:102A9000E3D1012309E02A4A93422BD0B3F5A00FDA
:102AA0002AD0B3F5800FD8D102238DF8043084F4F6
:102AB0008073C3F30023E0068DF8053054BFC4F3E0
:102AC0004013032321058DF8063017D57B680121BB
:102AD00001FA06F6C3F80865002201A9284601F0AC
:102AE0000BFA144B984214BF6FF01500002094E7C6
:102AF0000723DAE70523D8E70323D6E7620541BFBA
:102B00007B68012101FA06F6C3F80C65E4E7E306E9
:102B10004FF0000354BFC4F3401403241A4601A924
:102B200028468DF8044001F03DF9024B98423FF4ED
:102B30007FAF92E70000AD0B0600F000060010002A
:102B40000200400008B54368D3E9020101F0ACFE81
:102B5000034B984214BF6FF00F00002008BD00BF68
:102B60000000AD0B10B50446002201210320FFF741
:102B70009BF960682369064A00F1080101F088FCAE
:102B8000044B984214BF6FF00F00002010BD00BF2F
:102B9000992B00000000AD0B0378012B08D0022B0D
:102BA00008D04BB9054B0B6201F1100002F00EB9D1
:102BB000034BF8E7034BF6E7034BF4E70000AD0BDC
:102BC0000100AE0B0200AE0B0100AD0B10B50446C8
:102BD000002201210420FFF767F960682369064A93
:102BE00000F1080101F054FC044B984214BF6FF04F
:102BF0000F00002010BD00BF992B00000000AD0B9E
:102C00002DE9F04F4668076989B01D460C46338BA5
:102C1000D7F82890009393460021142203A803F0CC
:102C20004FF98DF80D504FF0FF324FF0FF3338461B
:102C300002F0ECF807F1100A00220023504602F0DF
:102C4000E5F8304601F074FC4FF000084546D845E1
:102C500001D3002449E0217A0A0700F18F8008F1AE
:102C60000108D84562680AD28B0708D4237D81EA1F
:102C7000030000F0010003F00403034316D0BDB1CC
:102C80000023DDF800C0A81860457AD8C80706D42C
:102C90002168019309EB050003F007F9019B6268C5
:102CA0001544ADB2002B37D00C34D0E70123E8E750
:102CB000C90724D523680693636804930025237A03
:102CC00003F0010213F0020F8DF80C2003A90CBFD2
:102CD00020220022304601F059FC2E4B984221D090
:102CE0000B33984253D06FF00404304601F030FCAF
:102CF000384602F06BF8204609B0BDE8F08F216835
:102D000001F06043B3F1005FD4D0738B93423BD3A7
:102D1000484603F0CAF8A588002DCBD0CDF818900E
:102D20000495CCE74FF480420023504602F06EF841
:102D300038B1304601F00CFCD6E9020101F0B4FDD7
:102D4000D1E73B6A134A9342CDD1237ADB0701D402
:102D50000025A9E7069B9945FAD1234608E0A91A60
:102D6000D86801938DB219FA81F103F09EF8019BA6
:102D70005A689542A3F10C03F1D2E9E76FF085049C
:102D8000B3E76FF01B04B0E76FF01504ADE76FF029
:102D90000F04AAE70000AD0B0D2970B5006920D122
:102DA000C588B0F90E600389B0F90240B0F910107F
:102DB0005B1BA41B891B634393FBF1F32B44002B88
:102DC0001946B8BFD91DC9101160594201F0070159
:102DD00003F0070358BF4B4211494B435360002097
:102DE00070BD102919D10579B0F90A604379B0F99D
:102DF0000040B0F90C105B1BA41B891B634393FBC1
:102E0000F1F32B4403EBD3714910002B03F00103C2
:102E10001160B8BF5B420349DFE76FF08500DFE771
:102E200048E8010020A1070030B5446887B0054696
:102E30000DF10701204602F0E5FF002805DB9DF8B3
:102E40000730BC2B03D06FF0150007B030BD2C4904
:102E5000084603F01EF868B129492A4803F019F81A
:102E600038B12749284803F014F80028EBD1022094
:102E700000E00120254B03EBC0000179204602F061
:102E800093FF0028E1DB0121204602F0A4FF002887
:102E9000DBDB0121204602F0BAFF0028D5DB002150
:102EA000632002F0B7FB68682C69102302AAB021E6
:102EB00002F06EFF0028C8DB9DF8083023719DF8F2
:102EC000093063719DF80D301A0202F440719DF8CB
:102ED0000A200A43E2809B019DF80B2003F4407313
:102EE00013432381BDF80E306381BDF81230A381F6
:102EF000BDF81430E381BDF8163023820020A4E72A
:102F0000E1720000F9730000FB730000E47100003F
:102F100038B5056908490446284640F8044B02F0D4
:102F2000F4FD064905F1200003F0C8FD606803F0D8
:102F300080FB00EAE07038BD847200009D660000EE
:102F40002DE9F0471C1E05460F46904610DB7AB16E
:102F50004FEA5249D6030023144A30464946FDF74A
:102F60008DFC10B1124B1B7843B9404603F0B5FEFF
:102F70002146281D3B46BDE8F04718470D480B4A3F
:102F80002F6530184FF0030349F1000185F85430E4
:102F90000023FDF773FC02460B4605F1200002F00A
:102FA000A5F8041EE4DBBDE8F08700BF40420F0037
:102FB000850A00203F420F0070B54B79012B20D1CC
:102FC0008B79032B1DD1CC790CB1012C19D10A7945
:102FD00012B1022A15D10E220B684568B3F5164FBF
:102FE0002D6862D02BD8B3F5165F61D014D8B3F535
:102FF000966F5FD008D8B3F5967F5ED0B3F5167F95
:103000005ED06FF085004FE0B3F5166F5BD0B3F57F
:10301000965FF6D1364B3CE0B3F5E14F56D007D87A
:10302000B3F5615F54D0B3F5964FEAD1314B30E040
:1030300047F61226B342E4D14FF4000329E0B3F57A
:10304000613F47D013D8B3F5963F46D009D84DF627
:10305000C026B34243D0B3F5614FD2D14FF46B03D6
:1030600017E0B3F5E13FCCD14FF0EB7311E0B3F5CE
:10307000612F37D008D8204EB34236D0B3F5E12FB8
:10308000BFD14FF0E86304E01C4EB342B9D14FF01A
:1030900080530069C5F82435031D03C92243C5F8D0
:1030A0006C2583E80300002070BD4FF41D03F0E79A
:1030B000134BEEE74FF49E23EBE74FF4A033E8E722
:1030C0004FF41C33E5E74FF41D23E2E70D4BE0E737
:1030D0000D4BDEE74FF06C73DBE70C4BD9E74FF499
:1030E0006503D6E74FF07063D3E74FF08063D0E716
:1030F00000B0130000A04E0090D0030040420F002B
:103100000050270000C0750000F03A0000903A011E
:10311000F8B5066905460F4603F08DFC10B92C4B37
:103120001B7883B94FF02003EFF3118483F31288E7
:10313000BFF36F8F686803F04FFB28BB84F31188DF
:10314000BFF36F8FEEE76424686803F045FB70B946
:10315000012003F09AFB013CF6D10021212002F06E
:1031600059FAF0E784F31188BFF36F8FF5E74FF05A
:103170002003EFF3118483F31288BFF36F8F686825
:1031800003F02AFB0028EDD006F8107F69680B6871
:103190000122C3F84465C3F848250022C3F8202162
:1031A000D3F82001C3F85821D3F858214A68D20631
:1031B00041BF0822C3F800254FF48002C3F804235E
:1031C00001229A6084F31188BFF36F8FF8BD00BFAE
:1031D000850A00202DE9F84301210646002202203D
:1031E000FEF762FE0220FEF741FE776835693C6813
:1031F0000023C4F800352E607368D868411C0CD0D9
:1032000000F01F024FF0A04C0121914002F5E07246
:10321000CCF8081503214CF8221019694A1C10D06B
:103220001A7F002A01F01F0214BF4FF0030C4FF069
:10323000000C02F5E0724FF0A04E4FEA8C0C4EF8F5
:1032400022C0D3F814C0BCF1FF3F0FD00CF01F0216
:103250004FF0A0484FF0010E0EFA02FE02F5E072A8
:10326000C8F808E54FF0030E48F822E0D3F818E05C
:10327000BEF1FF3F10D05A7F002A0EF01F0214BF8C
:103280004FF003084FF0000802F5E0724FF0A0493C
:103290004FEA880849F822801B68C3F80C05C3F878
:1032A00014153046C3F808C5291DC3F810E5FFF70B
:1032B00083FE0646002843D17B68990719D505F19E
:1032C000120001F021F8214B98423CD1A87CC300A8
:1032D00003F1804303F5F83304F10C0204F5907117
:1032E000C3F81015C3F81425194A01238340C2F806
:1032F00004350823C4F800353B7A5BB9C4F81031B3
:10330000D4F8103105F11103C4F834350123C4F8A1
:10331000383523607B689A075CBF4FF48072C4F82D
:103320000423DB0644BF4FF48003C4F80433103594
:103330000023C4F84455C4F848350123A360E36072
:103340003046BDE8F8836FF00406F9E70000AD0BE6
:1033500000F0014010B501238340114ABFF35B8F99
:10336000DC4352E8001F01EA040C42E800CEBEF143
:10337000000FF6D1BFF35B8F4FF4803202FA00F0FA
:1033800002F1804202F58052C2F80803BFF35F8F5A
:10339000BFF36F8F0B4214BF0120002010BD00BF90
:1033A000E00400201949F8B5044622F07F4508687A
:1033B000C1E90023A5F50013101AB3F5400F22D27E
:1033C000134B1B681A0A1B065E19124B42F10007C9
:1033D000C3E90067012602F081FAA30003F18043EC
:1033E00003F58833D3F84025AA420BD11EB94FF418
:1033F0000002C3F84025084B4FF4803000FA04F473
:10340000C3F84443F8BD0026E5E700BF680200208A
:10341000E4040020500200200010014019B3BFF363
:103420005B8F0123104A834052E8001F194342E892
:10343000001CBCF1000FF7D1BFF35B8F0B4A4FF4B8
:1034400080338340C2F80433094BBFF35B8F1B68A2
:10345000BFF35B8F23FA00F0C30742BF054B4FF465
:103460000032C3F800217047E00400200010014042
:10347000DC04002000E100E00D4B1868010A0006A2
:10348000BFF35F8F0B4BD3F80435181841F10001DF
:10349000B3F5801F0AD2084BD3E90023904271EBA9
:1034A000030303D210F1807041F10001704700BFA7
:1034B000E404002000100140500200202DE9F04FEC
:1034C00085B0164698460546FFF744FF0090FFF783
:1034D000D3FFB04271EB080378D2464B301A68EB49
:1034E0000101984271F1000380F08180424B03EBAF
:1034F0000513D3E902ABD84508BF564551D04FEA72
:10350000850909F1804905F1500709F58839BF009F
:103510004FF4803101FA05F3BFB226F07F4207F184
:1035200080470193D9F84005344B07F58837144696
:10353000D3F80415401A20F07F4021F07F4C012879
:10354000C9F840C507D1CDE90221132003F0C5FB1E
:10355000DDE90221294B01F1020CA4EB0C0020F063
:103560007F40B0F5000F88BF64460020386038689F
:103570000198C3F8440324F07F40C9F84005D3F80C
:103580000405814206D0201A023820F07F40B0F5B1
:10359000000F19D8A41A24F07F4414EB060A48F14E
:1035A000000B15490E982B0101EB0512C2E902AB85
:1035B000C8500F9B5360002428460099FFF72EFF48
:1035C000204605B0BDE8F08F2046B1E701230C4A44
:1035D000BFF35B8FAB4052E8001F194342E8001075
:1035E0000028F8D1BFF35B8FB246C346D9E76FF02E
:1035F0001504E1E70100000158020020001001401D
:10360000DC04002073B5194B194D00244FF0FF3036
:103610004FF0FF31C5F80845C3E902014FF480338C
:10362000C5F80433134B02264FF400320121C5F8CC
:1036300004631120C3F880212246FEF735FC1120D7
:10364000FEF714FC0C4A0123AB602B6013600B4B9C
:103650000B4A0093019400232046FFF72FFF3046CA
:10366000FFF770F8204602B070BD00BF580200207E
:103670000010014000E100E0E0040020A53300005C
:10368000FFFF7F002DE9F743354CD4F804339A0748
:103690000BD5D4F8043143B1324A0023C4F80431C5
:1036A000D4F804311368013313604FF02003EFF3B3
:1036B000118283F31288BFF36F8FD4F80433DB03D6
:1036C00012D5BFF35B8F284B53E8001F21F0010098
:1036D00043E80006002EF7D1BFF35B8F002936D1F7
:1036E000D4F84031002B32D1002382F31188BFF38C
:1036F0006F8F4BB3FFF7C0FE4FF02003EFF3118C39
:1037000083F31288BFF36F8F184BD3E90267B0427F
:1037100071EB07024FF0000220D34FF0FF384FF05B
:10372000FF39D3E90015C3E902891A604FF48033E9
:10373000C4F848338CF31188BFF36F8F21B1009523
:1037400032463B460020884703B0BDE8F0830023A3
:10375000C4F84031D4F840310123C6E71146E9E707
:1037600000100140E4040020DC0400205802002086
:10377000431C13B521D0012821DDB0F5000F20DA5C
:10378000441EFFF779FE104BD3E90013401AB0F541
:10379000000F28BF0024013002190C48824228BFC4
:1037A000024652184FF0000009490190009143F180
:1037B0000003FFF783FE02B010BD0448E0E70024D9
:1037C000DFE7024CDDE700BF68020020FFFF7F005B
:1037D000A533000008B5FFF74FFE024B1B68C01A67
:1037E00008BD00BF680200204FF0704393F8E02F3F
:1037F000062A09D1D3F8E83FC3F30313033B042B94
:1038000002D8024AD05C704700207047577400000D
:10381000024AD2F80034002BFBD0704700E0014090
:1038200010B503F023F840B14FF08053904AD3F81D
:103830002433C3F30423C2F84035FFF7D5FF10B19A
:103840008C4B8D4A5A6703F011F848B14FF0805302
:103850004FF08042D3F84432C3F34233C2F83C35D0
:10386000FFF7C2FF30B1854AD2F8FC3023F08073F5
:10387000C2F8FC3002F0FAFF40B14FF08043002262
:10388000C3F80C21C3F81021C3F83825FFF7ACFFAB
:1038900020B14FF080430322C3F8A025FFF7A4FF17
:1038A00060B1774B0522C3F810260122C3F88826A1
:1038B0000022C3F818263F22C3F814264FF0805385
:1038C000D3F83021511C09BF4FF07043D3F8343185
:1038D00093F8E02FD3F8E83F08BFC3F30313062A99
:1038E0004DD1033B042B03D8664AD35C002B46D052
:1038F0004FF08052644BD2F80414C3F82015D2F86C
:103900000814C3F82415D2F80C14C3F82815D2F8FB
:103910001014C3F82C15D2F81414C3F83015D2F8CB
:103920001814C3F83415D2F81C14C3F84015D2F893
:103930002014C3F84415D2F82414C3F84815D2F85B
:103940002814C3F84C15D2F82C14C3F85015D2F82B
:103950003014C3F85415D2F83414C3F86015D2F8F3
:103960003814C3F86415D2F83C14C3F86815D2F8BB
:103970004014C3F86C15D2F84424C3F8702502F043
:1039800075FF48B14FF080534FF08042D3F8583262
:1039900003F04F03C2F8E43E02F068FF48B14FF075
:1039A0008043D3F80024D20744BF6FF00102C3F86C
:1039B00000244FF08053D3F83021062A26D1D3F8C3
:1039C0003431033B042B02D8304AD35C63B1304A14
:1039D000D2F83C3743F48063C2F83C374FF0805351
:1039E000D3F83031062B11D14FF08053D3F8343156
:1039F000033B042B02D8274AD35C3BB14FF0102382
:103A0000D3F808224FF08043C3F858254FF0102315
:103A1000D3F80022002A03DBD3F80432002B22DA89
:103A20001D4901234FF01020C1F804351524FFF77C
:103A3000EFFEC0F80042FFF7EBFEC0F80442FFF7CC
:103A4000E7FE0023C1F80435FFF7E2FEBFF34F8F16
:103A50000A49124BCA6802F4E0621343CB60BFF319
:103A60004F8F00BFFDE70E4B0E4A1A6010BD00BF1E
:103A70000030014000C007400DF0ADBA00ED00E09D
:103A8000005000404874000000C000404D74000029
:103A9000001000405274000000E001400400FA05EC
:103AA000A40000200090D00370B501250268B2FA8E
:103AB00082F3C3F11F035E1CDCB214D0BFF35B8F33
:103AC00005FA03F322EA030350E8006F964204D19B
:103AD00040E8003CBCF1000FF6D1BFF35B8FE5D1AD
:103AE00002480C7070BD0248FCE700BF0000AD0B3F
:103AF0000200AD0B0368CB40DB0710B515D40123E2
:103B000003FA01F10368BFF35B8F41EA030250E857
:103B1000004F9C4204D140E8002CBCF1000FF6D1CC
:103B2000BFF35B8FEED1024810BD0248FCE700BF37
:103B30000000AD0B0400AD0B044B1A7922B9012231
:103B400018609A800248704702487047E8040020D5
:103B50000000AD0B0C00AD0B30B510B1012834D016
:103B600030BD4FF08043D3F81824D3F81814C9039C
:103B700029D502F00302012A25D1C3F818254FF0F8
:103B800080430022C3F80421D3F804210222C3F8A1
:103B90000423134AD2F8FC0040F08073C2F8FC30D2
:103BA000104B1C6844F0010119605D685968491B9D
:103BB000B1F50A5FFAD31C604FF08043C2F8FC00F5
:103BC00001229A60CCE70022D7E74FF08043002221
:103BD000C3F80021D3F80021C3F804031860BFE73D
:103BE00000ED00E0001000E038B510B1012817D05A
:103BF00038BD4FF080440223C4F80833C4F80401F0
:103C0000D4F804310123E36042F21075D4F818347B
:103C1000DB03EDD5012002F038FE013DF6D1E7E7E8
:103C20004FF080440023C4F80803C4F80031D4F8EE
:103C30000031606042F21075D4F80C34D4F80C24D2
:103C4000D20303F0010305D523B1012002F01DFECC
:103C5000013DF1D1014B00225A71C9E7E80400206F
:103C60004FF0804310B5D3F800216AB10022C3F8A9
:103C70000021D3F800210122C3F80823114B587901
:103C800010B95A711B6898474FF08043D3F804214C
:103C900072B10022C3F80421D3F80421D3F8182408
:103CA000D3F81814920704D10122C3F818259A609A
:103CB00010BD0222C3F80823024BBDE810401B6868
:103CC00001201847E8040020034B083033F81000A7
:103CD000C0F34010704700BFA800002070B500F18D
:103CE00008030C4C34F81330DA0505460E4607D5A8
:103CF000C3F3432304EBC30254F8333052689847AC
:103D0000A3682BB1E26831462846BDE870401847E9
:103D100070BD00BFA8000020124A083010B432F86D
:103D20001030D9051BD5C3F3432123F4F85322F8EF
:103D3000103002F11004002034F8023B13F4807FAD
:103D400003D0C3F34323994209D001302028F3D193
:103D5000002342F83130044810BCFFF7CBBE10BC42
:103D6000704700BFA8000020FC00002038B50246C4
:103D7000FFF7AAFF094C02F1080540B134F81530ED
:103D800007495B0B03F5A273002041F8230010469E
:103D9000FFF7C2FF002324F8153038BDA80000202B
:103DA000006000402DE9F34104461E4609B34D4F23
:103DB00000F1080837F81850AB0706D5FFF784FF65
:103DC00018B1494802B0BDE8F08104F01F0080003E
:103DD00000F1A0400978D0F8003725F0020523F063
:103DE0000F0345F0010543EA810327F81850C0F896
:103DF000003792B13B4B1578526804F1080033F854
:103E000010108F070CD5002ADBD133F8102022F0D8
:103E10001C0242EA850223F81020CEBB3348D1E7CA
:103E200021F02001C904C90C23F81010002AECD09D
:103E3000032DC6D817782DB92D4A07F5A27142F87F
:103E40002150E2E7BA0002F1804202F5C04241EAA5
:103E50004731D2F810C52CF0030CC2F810C5D2F8C7
:103E600010C52CF4473C2CF4407CC2F810C5D2F8A5
:103E700010E54FEA042C0CF4F85C4EEA054E4CEACF
:103E80000E0C41F0200123F81010C2F810C5BCE759
:103E9000D6E900762046FFF73FFF002FBED0114D38
:103EA0002B689F4204D16B689E4201D1002209E039
:103EB00010480DF10701FFF7F7FD0C4B984281D137
:103EC0009DF8072045F8327005EBC20308345E60A8
:103ED00035F8143043EA422343F4807325F8143054
:103EE0009CE700BFA80000200400AD0B0000AD0B54
:103EF00000600040FC000020F8B5044671B3374E66
:103F000000F1080736F81750AB0704D4FFF7DCFEC2
:103F100008B13348F8BD15F01C0F4B7801D0012BC8
:103F2000F7D004F01F00800000F1A04091F800E0FD
:103F3000D0F800C789785B002CF4E16C43EA0E23CB
:103F40002CF0070C43EA0C0343EA810345F0030518
:103F500043F0010326F81750C0F800370AB921488A
:103F6000D8E71E4E04F1080736F817008307D0D5AE
:103F700092F800C06146890020F0200001F18041E4
:103F8000C00401F5C041C00C26F817000023C1F899
:103F900010355578002DE2D0D1F81035927823F401
:103FA000981323F4F853C1F81035D1F810E5230223
:103FB00003F4F8532D0443EA0E0305F440351205CB
:103FC0002B4302F4801240EA4C30134340F02000AF
:103FD00026F81700C1F81035C1E700BFA80000207F
:103FE0000400AD0B0000AD0B014BC3E902017047AB
:103FF000A800002008B50246FFF766FE38B1054B61
:104000000548083233F812305B0B0B7008BD0348CB
:10401000FCE700BFA80000200000AD0B0400AD0BC2
:1040200038B50F4C94F85850BDB94022294604F1D8
:10403000100001F045FF0620FDF718FF094B0A4864
:10404000C3F87C51D3F87C214FF00042C3F804231D
:10405000012384F85830636538BD0448FCE700BF8D
:10406000A8000020006000400000AD0B0500AD0B73
:10407000034B93F85800003818BF0120704700BF69
:10408000A800002001460148FFF734BDF8000020D9
:1040900001460148FFF708BDF800002010B50246B0
:1040A000FFF712FE02F108041C4B33F81430E0B1A4
:1040B00013F0020419D15B0B9A0002F1804000F565
:1040C000C24002F1804202F5C04204600068D2F8AA
:1040D000100540F00100C2F8100529B1012202FAD2
:1040E00003F30F4AC2F8043310BDC3F38203042B59
:1040F00010D0052B10D04FF0A043D3F8101502F0CC
:104100001F03D94001F001010231BDE81040104603
:1041100002F0C7BB0321F8E70221F6E7A800002060
:104120000060004008B50246FFF7CEFDC0B102F1C5
:1041300008010E4B33F81130990711D45B0B0122A3
:104140009A409B000A4903F1804303F5C043C1F83C
:104150000823D3F8102522F00302C3F8102508BD68
:10416000BDE808400021104602F09BBBA8000020DB
:10417000006000400D4B00F1080210B533F812301A
:10418000DB0704460FD5FFF7CDFF204604F01F04E0
:10419000FFF7ECFD04F5E0744FF0A043022243F872
:1041A0002420034810BD0348FCE700BFA8000020FE
:1041B0000000AD0B0400AD0B2DE9F74F4E4B4F48FF
:1041C0004F49002501222C461E6836B1D0F8046301
:1041D00016421EBF1C601E68154304338B424FEA13
:1041E0004202F1D1454BD3F87C31BBB14FF0A04630
:1041F000D6F820350193C6F8203501AF4FF00108FD
:10420000019C6CB93D4BC3F87C41D3F87C31D6F8A6
:1042100020350193C6F82035002BEED1012466E04D
:1042200094FAA4F4B4FA84F4364A04F10803E008DA
:1042300032F8131004F0070308FA03F23B5C23EA98
:1042400002033B54A30003F1A049C1F3820AD9F849
:104250000027CB06D346C2F3014218D55946204663
:104260005FFA82FAFFF73AFDD9F80037C3F301434A
:104270009A4507D10021204602F013FB5146204603
:1042800002F00FFB08FA04F4C6F82045B8E7022A4A
:104290000CBF03210221204602F003FBBAF1030FF9
:1042A00004D0022A07D1BAF1010FEBD159462046BA
:1042B000FFF714FDE6E7032AE4D1BAF1020FF4E7B1
:1042C00095FAA5F3B3FA83F304FA03F29B0003F122
:1042D000804303F5C04325EA0205D3F81005D3F85F
:1042E0001015C0F30420C1F30141FFF7F7FC002DC6
:1042F000E6D103B0BDE8F08F0061004000600040EF
:1043000020610040A800002001460148FFF7CCBB17
:1043100004010020F0B5D0F8243187B004460D46E2
:10432000F3B10023C0F82431D0F82431D0F804319F
:10433000B3B98B68C0F8083302238B608B68C0F870
:104340000433D0F860311BB1D0F800329F0502D49D
:10435000012323626361012385F82E3007B0F0BD8D
:10436000D4F80431002B44D00023C4F80431D4F82D
:1043700004312B6A5E060AD495F82E303BB92946E3
:10438000204602F09CFA80F0010085F82E002B6A8E
:1043900013F0040C3ED105F10C070FCF01AE0FC690
:1043A00095F830E03B68C4F860C13360D4F8603100
:1043B000C4F85CC1D4F85C31BEF1000F02D095F8AE
:1043C0002E303BB30023C4F80032AB602E4BC4F850
:1043D000083344F30733002B4FEA14321ADB02F0A0
:1043E0001F015B0901228A406033284941F82320DC
:1043F00010E0C4F84831D4F848312B7B23BB05F1D9
:104400000C070FCF01AE0FC63B68336095F8303014
:10441000002BD8D0D4F8C434C4F8C434980725D5B8
:1044200001238DF8003095F830300BB985F82F3026
:104430002B6A5B0703D595F82E30002B8ED0D5E97B
:1044400000316846984789E74FF40073C4F800329A
:1044500040F20223AB6003F1CE73C4F80833AB68BB
:10446000C4F804330123A360236277E7590701D519
:104470000223D6E7DA0701D50323D2E795F82E30D9
:10448000002BCED00423CCE702029C0100E100E027
:10449000F8B50679234D4FF0340C0CFB06FC05EB08
:1044A0000C0494F82D70002F3AD1006863604B7BA8
:1044B00084F832308B7BA76084F8307084F82F70DA
:1044C00084F8333045F80C20CC7BB3B12CB9D1E95A
:1044D0000043C0F80845C0F80C358B68C0F8243597
:1044E0001AB140F30730FDF7C1FC342303FB065536
:1044F0000D48012385F82D30F8BD0B6803F01F032C
:104500004FF0A04703F5E07340F20C6C47F823C06E
:104510004B6803F01F0303F5E07347F823C0D5E7AA
:104520000248E9E7F00400200000AD0B0500AD0BE8
:10453000036802790621C3F80015044B342101FBFE
:104540000233022283F82D20704700BFF0040020C0
:1045500001790C4B0268342000FB013300210A482A
:104560009960C2F80803D2F8000220F4BC50C2F8E7
:104570000002C2F80015012283F82D2083F82F10C5
:10458000704700BFF004002002029C012DE9F047B3
:10459000DFF8D0C290F804E00468342303FB0EC3B4
:1045A0001746002283F82E204B680D464BB1CB688E
:1045B00003F06043B3F1005F03D0AB4E3046BDE87B
:1045C000F0873426A94BC4F8083306FB0EC696F8CC
:1045D0002F3003F0FF0A23B1B368C4F80433A44EAC
:1045E000ECE717F0140F0CBF0123002386F82F30DF
:1045F000A946B9E80F0006F10C08A8E80F00D9F8A1
:104600000030C8F80030C7F3001386F83030376246
:104610006B78C4F88835C4F804A1D4F80431C4F820
:1046200024A1D4F82431C4F860A1D4F86031C4F8CE
:1046300048A1D4F8483117F0010318BF0123C4F88A
:10464000503517F0020318BF0123C4F840352A780B
:10465000032A00F2B580DFE802F084A069022B692A
:1046600003F06041B1F1005FA7D14FF48071C4F84D
:104670000012E8686968C4F84405C4F848150021C8
:10468000C4F85011D4F8500101202062A060D4F881
:1046900050010028FBD0C4F85011D4F85011A9687B
:1046A000C4F84435342303FB0EC3C4F848154FF453
:1046B0008021996008236F4E390706D4032A04D05D
:1046C0000122E2506B6803B96261342303FB0EF3ED
:1046D0000CEB03015CF80320002A74D10121D4F80B
:1046E0004831D4F80401002840F08880003B18BF0E
:1046F0000123D4F82401002800F08680C4F8242186
:10470000D4F82401D4F86051D4F8000215B110F4A3
:10471000007F04D121626161002DE0D00023C0053B
:1047200072D5C4F84821D4F84831D8E76B68E968F5
:10473000C4F84415C4F848352B6903F06041B1F161
:10474000005F7FF43AAFA968C4F834354FF484535E
:10475000C4F83815C4F80032342303FB0EC3022119
:1047600012E06B68E968C4F8441517F0200FC4F82C
:1047700048354FF034030BD04FF48071C4F8001269
:1047800003FB0EC34FF4802199600123236291E75C
:104790004FF40071C4F80012DFE76B68E968C4F8F1
:1047A0003415C4F838354FF48053C4F8003234233C
:1047B00003FB0EC3022199600123236200237AE7E1
:1047C0002D4E082378E77A0744BF00238B607B06D1
:1047D00006D4342303FB0EC39A6842F002029A60A7
:1047E000342303FB0ECCDCF8083043F40073CCF820
:1047F0000830DCF80830C4F80433DFE6C4F80421DC
:10480000D4F80431012374E7002B3FF468AF34215E
:10481000D4F8C434C4F8C43401FB0EC2002082F8BA
:104820002F008BB1154A164E13F0010F18BF164614
:1048300013F0020F02F1010218BF164613F0040F25
:10484000104B18BF1E46B9E67B063FF5B7AE0EFB10
:1048500001C1204602F033F8094B002808BF1E466C
:10486000ACE600BFF00400200A00AD0B02029C0180
:104870000B00AD0B0000AD0B0400AD0B0000AE0B48
:104880000100AD0B0200AE0B01490248FFF742BD2B
:10489000F00400200030004002494FF04020FFF7B4
:1048A00039BD00BF240500202DE9F04100F01F00B4
:1048B00001F01F0601244FF0A04504FA00F806F5A8
:1048C000E07200F5E07040F20D63B440C5F8088571
:1048D000C5F8084545F8203045F82230042001F09D
:1048E000D4FF0927D5F810351C420DD10420C5F896
:1048F0000C8501F0CAFF013FC5F80885042001F0CE
:10490000C4FF17F0FF07EDD14FF0A0450420C5F814
:104910000C4501F0BAFFC5F80845042001F0B5FFC9
:10492000D5F81015034821FA06F606F00106801B9B
:10493000BDE8F0810100AD0B10B5144C144A1549C7
:10494000032323616361144BA261E3614FF480632D
:1049500023620023A3626362E36222660F4A6266F7
:10496000E01D1022A2662367E366636701F077FA11
:10497000BFF35F8F0A49204601F071FABFF35F8FE2
:104980002023A371BFF35F8F10BD00BF5805002027
:104990005C74000065740000850600207506002028
:1049A0006974000070B5164B182400FB04451D44C3
:1049B00004FB00331646DC6A012C0ED0022C18D002
:1049C000E4B9284601F0ABFF864204D832462846B7
:1049D00001F0AEFF3446204670BD284601F09FFF2F
:1049E0008642344628BF04462246284601F0A0FFEE
:1049F000F1E72846BDE8704001F0B8BF0024EAE7BF
:104A0000580500200E4B70B553F82040013053F884
:104A10002060A64200D870BDD4E9003528469847EA
:104A200065B1EB6830B10028B8BF4042FF28A8BF8D
:104A3000FF2018705A7842F001025A700834E8E7F3
:104A4000C472000070B5054610B90024204670BD40
:104A50000378002BF9D00E4C0E4EB44208D10C4C0A
:104A6000B442F2D0204601F0B5FF50B91834F7E750
:104A7000204601F0AFFF10B12368AB42E6D01834F6
:104A8000EBE72168284601F004FA0028EED1DDE7C3
:104A9000886D0000D86E000030B5002387B0012279
:104AA000CDE904230F22CDE9023201930C4C0D4BCA
:104AB0000D49182204EBC01402FB00334FF4B0750B
:104AC000009305FB0011094B4FF4A072204600F043
:104AD000A7F8637B23F00403637307B030BD00BF06
:104AE0007002002000060020C00E0020954D00003E
:104AF00008B50A4B012202201A70FFF783FF00F06D
:104B000061FF0320FFF77EFF00F0E8F8FCF724F8D0
:104B1000034A137B23F00103137308BD850A0020A9
:104B2000F00200200248034A0021121A01F0C8B91D
:104B300048010020880A002080B5DFF8C480A6B0B4
:104B400088F308882F4D304E6B69DFF8C09043F42E
:104B5000007300246B61E02385F82230EC772C761B
:104B60006C76AC7685F820406B6A43F4E0236B6288
:104B700085F82340FDF78AFBFDF75AF94FF0FF3324
:104B8000AB62EB62FDF760FCFDF7C8FB40F201137E
:104B9000ADF8243006ABB360CDE91F44229401F098
:104BA00018FF2046FFF72EFF0120194DFFF72AFFBF
:104BB00000F09CFC174B0593012317490094CDE9A5
:104BC00003434FF480624B46CDE901442846F5612A
:104BD00000F026F86A7B074622F0040228466A7332
:104BE00001F0A6FF2046FFF757FF0C4BF3604A4643
:104BF000394628463475C6F80480FDF71BFA00BF15
:104C00004018002000ED00E000060020F14A0000FE
:104C1000F002002070740000A00A00207002002042
:104C20002DE9FF410E9E0673042646730D9E867382
:104C300000F158050F46D61DC0E916550C9A0025FF
:104C400026F007062037C0E90655C0E919768560C9
:104C5000C573C56606F1200802920B9A019288443A
:104C60000A9A009242460446FDF7B2F9044B656584
:104C70009B6803B11B6F2367404604B0BDE8F08119
:104C800000060020F0B587B000270597109F049715
:104C90000F9F03970E9F0297DDE912650D9F019705
:104CA0000C9F00970446FFF7BBFFB5F1FF3F08BF1D
:104CB000B6F1FF3F05D055EA060305D1204600F0C6
:104CC00057FB204607B0F0BD034932462B4604F19E
:104CD000180000F089FDF4E7516B00002DE9F04366
:104CE000294C2A4D87B02646AE4204F130040FD33A
:104CF00000F05AFA244CDFF898904FF4004640F246
:104D0000E737AC4220D307B0BDE8F04300F0D2BB98
:104D100054F8043C059354F8103C049354F8143CA4
:104D2000039354F8183C029354F81C3C019354F834
:104D3000203C009354E90C0154E90A23FFF770FF6B
:104D400054F8303C5E65CEE7636A5A1C0DD023EA06
:104D5000E37300213846C3FB060151EAC333D4F89C
:104D6000008004D1404600F003FB3034C9E74FF423
:104D70007A720023FBF782FD02460B4608F1180009
:104D8000494600F031FDF0E74801002048010020CD
:104D9000516B000008B50B4C0B4D4FF02002EFF3A8
:104DA000118382F31288BFF36F8F01F068FF2B78B5
:104DB000A06113B9FDF742F8EFE7FCF761FF0028A7
:104DC000EBD1F7E700060020850A002038B504463D
:104DD0004FF02003EFF3118583F31288BFF36F8F39
:104DE00001F002FF48B10022826701F0A1FE2946CE
:104DF0000548BDE8384000F0C5B9D4E902329A420E
:104E000018BF0133A360F2E7860A002013B54FF004
:104E10002004EFF3118184F31288BFF36F8F84684D
:104E200044B1013C846081F31188BFF36F8F00208F
:104E300002B010BD52EA030406D181F31188BFF31A
:104E40006F8F6FF00F00F3E7CDE9002302460248B1
:104E500000F0EAFAECE700BF860A00202DE9F04FE7
:104E6000474E85B004464FF0FF384FF0FF394FF002
:104E70002003EFF3118783F31288BFF36F8FD4F809
:104E800080508DB9022104F1980001F0E6FD002860
:104E900035D10023CDE90089029304F18802394617
:104EA000384800F029FCE2E7D4F884202B68C4F8E5
:104EB0008030954201D1C4F88430D4F8983043F062
:104EC0000203C4F89830EB6823F0040343F00103B5
:104ED000EB606B6887F31188BFF36F8F28469847A4
:104EE0004FF02003EFF3118B83F31288BFF36F8F22
:104EF000EB68990723F001020BD4EA600EE004F19D
:104F0000900500220121284601F086FE0028F8D1F4
:104F1000BFE7306823F00303EB6070B9D4F8983032
:104F200023F00203C4F898308BF31188BFF36F8F1E
:104F3000D8059CD400F0E6FA99E70027D0F800A045
:104F40003B464268954201460CD1016897B97268A8
:104F50003160824200D1716040F8083BFFF736FFB4
:104F600039460023BAF1000FD8D050460F46DAF880
:104F700000A0E6E772683960904208BF7760EBE70F
:104F800028060020860A0020F8B5C3689A07044660
:104F90000E46C3F340051FD45F071FD40A680AB941
:104FA00082680A60D80744BFA368336037684CBF83
:104FB000022501257FB31B4B9B68BB4211D101F039
:104FC0003AFD80F00100C0B2D7F89830D907C3F39A
:104FD000800223D53AB140B96FF00F05002333604A
:104FE00013E00020F0E71B07F6D400232360D7F876
:104FF000843063B9C7E92044384601F039FDE368DD
:1050000043F00403E3603368A3602846F8BD1C60E6
:10501000C7F88440F0E76FF01505DFE76FF0120581
:10502000DCE700BF00060020F0B589B00446002090
:10503000C4E920000E9D04F18800C4E9220004F1B7
:105040009000C4E924001DB32879002840F2011023
:1050500008BF0120C4F8980000204FF0FF364FF041
:10506000FF37CDE90330CDE90100CDE90667094BF3
:1050700000942046FFF706FE25B1296811B12046AD
:1050800001F0DFFC204609B0BDE8F04001F0DCBCD7
:105090000120DFE75D4E000013B5019008464FF098
:1050A0002001EFF3118481F31288BFF36F8FC16881
:1050B00011F00E0F16D153EA020C08D101A9FFF727
:1050C00063FF84F31188BFF36F8F02B010BD41F00E
:1050D0000801C160019981621030034900F084FB2E
:1050E0000120EEE70020ECE77F6A0000014601485E
:1050F000FFF7D2BF7803002010B5084C23685BB1DE
:10510000FEF768FB03462068054A0344BDE81040EB
:105110001361002101F0C3BD10BD00BF380600209F
:1051200000060020F8B504460D464FF02003EFF3CB
:10513000118683F31288BFF36F8F0F4B00214FF45A
:10514000004740F2E73019614FF47A720023E4FB24
:105150000701FBF793FB002C084B09DC1860084B98
:105160001D60FFF7C9FF86F31188BFF36F8FF8BD8D
:105170000228B8BF0220F1E7000600203806002010
:105180003406002049B9EFF3058030B9054BDA69E0
:105190009B689A4201D0FCF7C7BE81F31188BFF328
:1051A0006F8F7047000600204FF02003EFF311814E
:1051B00083F31288BFF36F8F044B9A68D37B013B54
:1051C000D37381F31188BFF36F8F704700060020FF
:1051D00038B502460C480D4D01F0A4FC044600B958
:1051E000EC68AB684AB95A7BD20606D1A26922B9EB
:1051F000DA897F2A01D9EB6138BD9C4201D0FFF7E3
:105200007BFFEC61F8E700BF2006002000060020CD
:1052100070B590F90D20437B002A014604DA03F0B3
:105220007F03437301F056FC4B7B154A63F07F0309
:105230004B73D2E9083402F12005AB421BD0D3B145
:1052400091F90E6093F90E0086420FD0801B002862
:105250000CDD5868C1E90030016059609068431A5C
:105260005842BDE870405841FFF7B2BFA34202D098
:105270001B68002BE6D1C1E9005421605162EDE7C3
:105280000006002038B501464FF02003EFF31184EB
:1052900083F31288BFF36F8F154B164A9868156811
:1052A000A84206D1FFF728FF84F31188BFF36F8F60
:1052B00038BD00251560104A1268BAB1C2897F2A2C
:1052C00014D8427BD20611D10C4A90F90E501268C4
:1052D00095420BDB0A4A904208D01A698A4202DCE6
:1052E000FFF796FFDEE7521A1A61DDE70022FBE7BF
:1052F000000600203006002038060020340600207A
:105300007002002070B490F90D20437B002A2ADB44
:10531000DA0628D1826932BB144A63F07F034373F3
:10532000D2E9083402F12005AB4217D0B3B190F9AD
:105330000E6093F90E108E420BD0891B002908DDF8
:105340005A68C0E900321060586070BC0020FFF756
:105350003FBFA34202D01B68002BEAD1C0E9005432
:1053600020605062F1E770BC704700BF000600206B
:1053700010B54FF02002EFF3118482F31288BFF3CF
:105380006F8F427B510704D484F31188BFF36F8F72
:1053900010BD22F004024273FFF7B4FF2146024819
:1053A000BDE81040FFF7EEBE860A002008B590F970
:1053B0000D20437B002A014604DA03F07F03437388
:1053C00001F088FB044B9868431A58425841BDE8E5
:1053D0000840FFF7FDBE00BF000600202DE9F041A8
:1053E000064615461C464FF02003EFF3118783F362
:1053F0001288BFF36F8F01F0CDFB87F31188BFF3E5
:105400006F8FB4F1FF3F08BFB5F1FF3F08D02A46C8
:10541000234606F118000349BDE8F04100F0E4B965
:10542000BDE8F081516B000010B5074B9868074B41
:105430000C4618601146DDE90223FFF7CFFF204636
:10544000BDE81040FCF770BD0006002030060020CB
:1054500070B50446183001F0FCFB4FF02003EFF369
:10546000118683F31288BFF36F8F94F90D20637B4D
:10547000002A05DA03F07F036373204601F02AFB5C
:105480000B4D637BA86843F010036373031B584202
:105490005841FFF79DFE86F31188BFF36F8FAB680D
:1054A000A34203D1BDE8704001F032BB70BD00BF24
:1054B0000006002010B54FF02003EFF3118483F3B2
:1054C0001288BFF36F8F084B9A68D37B0133D37375
:1054D0000020FFF77DFE84F31188BFF36F8FBDE8D6
:1054E000104001F015BB00BF00060020044B002156
:1054F00003F12002C3E908220846FFF713BE00BFEC
:1055000000060020F8B54FF02003EFF3118583F378
:105510001288BFF36F8F1A498868437B03F07F03BB
:10552000437301F0D7FA8B685A7B084662F07F021A
:105530005A7350F8202F82421CD0DAB14F6A93F987
:105540000E6092F90E40A6420FD0A41B002C0CDD79
:105550005168C3E900210B6053600120FFF738FE5A
:105560002846BDE8F840FCF7DFBCBA4202D012681A
:10557000002AE6D14A6AC3E9000213604B62ECE7F5
:105580000006002050EA01032DE9F04105460E46D1
:1055900003D1FFF7B7FF002033E06FF00104241AB6
:1055A0004FF0FF3363EB0103012C73F1000302DAC8
:1055B00001F08FFB44194FF02003EFF3118883F3C0
:1055C0001288BFF36F8F104F104BB8681860FFF749
:1055D000EDFEB8680E492A463346183000F004F94B
:1055E000BA68537B43F0100353734046FCF79CFCAE
:1055F00001F06FFB201A63EB0303012873F1000332
:10560000C9DBBDE8F08100BF0006002030060020A5
:10561000516B0000B1F1FF3F08BFB0F1FF3F08B58B
:1056200006D1084B9868FFF713FF4FF0FF3008BD15
:10563000FFF7A8FF4FF47A7380FB0303C00B40EA27
:105640004340F4E700060020014B9868704700BF14
:10565000000600202DE9F04104464FF02003EFF34F
:10566000118683F31288BFF36F8F437B1A0705D52A
:1056700086F31188BFF36F8FBDE8F08123F020021D
:1056800042F00801D20920D14173A36813B120462A
:1056900001F028FA04F1180001F0DBFA04F15807D0
:1056A0004FF00008A56DBD4200D0B5B90120FFF74D
:1056B0008FFD104B9B68A342DAD1EFF30583002BDB
:1056C000D6D13046FCF730FCD2E703F05F0343F05D
:1056D0000803437301F0FEF9D7E7284601F002FA08
:1056E00005F1180001F0B5FAC5F878802846FFF7F3
:1056F00009FED7E700060020D3B5DDE90667089C60
:10570000CDE90067FFF790FE1CB1034B9B685B6916
:10571000236002B0D0BD00BF0006002008B50648D7
:10572000064A0749121A00F0C0FBBDE80840054AC6
:105730000549064800F0B9BB0000002048010020E0
:10574000C474000000000000C474000000000020C9
:10575000034B1B680BB9FEF73DB80020704700BF34
:105760003C060020114B10B51C689C4208BF002469
:10577000FFF7EEFF03466CB1D4E90402C01A62EBF6
:10578000E373012873F100020DDBB0F1004F73F1F8
:10579000000301DB6FF00040054B1B6913B1984219
:1057A000A8BF184610BD0020F6E700BF0801002082
:1057B0000006002030B5036868B10A4A526890427A
:1057C00009D043B1D3E90421D0E90445121941EBD2
:1057D0000501C3E90421426813605A600023C0E94F
:1057E000003330BD08010020B3F1FF3F08BFB2F124
:1057F000FF3FF8B504461F46154667D081604FF05D
:105800002003EFF3118683F31288BFF36F8F6FF0DD
:105810000102531B4FF0FF3C6CEB0703002B1BDB1B
:105820002B4BD3E90013521A6CEB0303551B63EBAC
:105830000703012D73F10002BCBF01250023C0E95D
:1058400004532448D0E9003C834218D1C4E9000C39
:10585000CCF80040446026E0FFF77AFF013547F1BD
:1058600000072D1847EBE077C4E90457E9E7521A1F
:1058700065EB07059C45C4E90425E7D01B68002BB0
:10588000E4D0D3E90417D4E904258A4275EB070E66
:10589000EDDA8A1A67EB0505C3E904255A68C4E9FD
:1058A000003214605C60036883420BD09C4209D1D3
:1058B000FFF758FF18B1084B1B69834202D0002143
:1058C000FDF756FF86F31188BFF36F8FF8BD00BF59
:1058D0007003002008010020000600202DE9F84395
:1058E0000546FFF7CFFC4FF02003EFF3118483F35D
:1058F0001288BFF36F8F244EDFF890803560244DFF
:10590000D8F8000032684045D5E9001E4FEAE2773A
:105910000BD050B1D0E9043C9A4277EB0C0916DA6F
:105920009B1A6CEB070CC0E9043C52184EEB0707BE
:10593000C5E9002700253560FFF714FF2946FDF76C
:1059400017FF84F31188BFF36F8FBDE8F8835918F0
:105950004EEBE377D31A336000220023C0E904231F
:10596000C5E90017FFF726FF84F31188BFF36F8F97
:10597000836898474FF02003EFF3118483F3128874
:10598000BFF36F8FBCE700BF3C060020080100207A
:105990007003002010B54FF02003EFF3118483F360
:1059A0001288BFF36F8FFDF715FF054AD2E900316A
:1059B000C01841F1000184F31188BFF36F8F10BD4F
:1059C00070030020024A0349034800F042B800BFB8
:1059D000D773000075740000917400001FB5094B67
:1059E000029302AB00240093074908488DF80C404D
:1059F0004FF0FF334FF48062FFF716FB204604B0F0
:105A000010BD00BFB87400004018002078030020CB
:105A10007047034658B1426802F00302012A03D0DE
:105A2000032A04D1026812B10020986070476FF019
:105A3000150070474268816002F00302032A4FF0AC
:105A4000000203460CBF006810465A6070470020F1
:105A500070470FB407B504A951F8040B0191FBF787
:105A60000FF903B05DF804EB04B07047038B13F03B
:105A7000070305D10368002B0CBF002003207047EB
:105A8000022B05D1438B002B14BF0020042070474C
:105A9000012B05D10368002B0CBF002005207047A7
:105AA000002070472DE9F0410D4607461946281D94
:105AB00090461E46FFF7BEFF044638B133464246C5
:105AC00029463846A446BDE8F0416047BDE8F0816C
:105AD00010B44FF02004EFF3118284F31288BFF367
