:1000000040320020012A000085D90000D5290000D7
:10001000D5290000D5290000D529000000000000E6
:100020000000000000000000000000002D23000080
:10003000D529000000000000D9220000D5290000C9
:10004000DD23000041E70000DD230000DD23000088
:10005000DD230000DD230000DD230000DD230000A0
:10006000DD230000DD230000DD230000DD23000090
:10007000DD230000DD230000DD230000DD23000080
:10008000DD230000DD230000DD230000DD23000070
:10009000DD230000DD230000DD230000DD23000060
:1000A000DD230000DD230000DD230000DD23000050
:1000B000DD230000DD230000DD230000DD23000040
:1000C000DD230000DD230000DD230000DD23000030
:0C00D000DD230000DD230000DD23000024
:0400DC00FFFFFFFF24
:1000E00053B94AB9002908BF00281CBF4FF0FF319F
:1000F0004FF0FF3000F00CB8ADF1080C6DE904CE04
:1001000000F008F8DDF804E0DDE9022304B07047F0
:10011000704700BF2DE9F04F07468C460846099E00
:1001200015463C461946002B40F0C6808242B2FA82
:1001300082F746D94FB1C7F1200E24FA0EFE00FA1D
:1001400007F3BD404EEA030CBC404FEA15481FFAC6
:1001500085FEBCFBF8F9220C08FB19C309FB0EFA5B
:1001600042EA03439A4528D9EB1809F1FF3004D23B
:100170009A4502D9A9F102002B44A3EB0A03A4B2C9
:10018000B3FBF8F208FB123302FB0EFE44EA034411
:10019000A64514D92C1902F1FF3303D2A64501D983
:1001A000931E2C44A4EB0E0443EA00401EB1FC4015
:1001B000002334607360BDE8F08F4846DDE71346E6
:1001C000F0E702B9FFDE87BB831A01214FEA154E23
:1001D000AAB2B3FBFEFC200C0EFB1C330CFB02F896
:1001E00040EA0343984563D9EB180CF1FF3004D281
:1001F000984502D9ACF102002B44A3EB0803A4B24A
:10020000B3FBFEFC0EFB1C330CFB02F244EA03447E
:10021000A2424FD92C190CF1FF3304D2A24202D9C9
:10022000ACF102032C44A41ABEE7C7F1200C20FA5B
:100230000CF800FA07F324FA0CFCBD404CEA030268
:100240004FEA154EABB2B8FBFEFC110C0EFB1C8046
:100250000CFB03F941EA0040814504FA07F423D975
:1002600028180CF1FF3104D2814502D9ACF102010A
:100270002844A0EB090092B2B0FBFEFC0EFB1C0070
:100280000CFB03F842EA004398450FD9EB180CF138
:10029000FF3204D2984502D9ACF102022B44A3EB01
:1002A000080342EA014191E76146E2E76246F6E768
:1002B0006046A2E76346B6E7834205D90EB1C6E9B8
:1002C00000700021084676E7B3FA83F181B98342D2
:1002D00001D3BA420AD8BC1A60EB030301209C4642
:1002E000002E68D0C6E9004C002164E70846F7E715
:1002F000C1F1200C8B4022FA0CF41C4302FA01F5E8
:1003000000FA01F327FA0CF220FA0CFB4FEA144929
:100310001343BBFBF9F81FFA84FE09FB18BB1A0C48
:1003200008FB0EFA42EA0B42924507FA01F73ED962
:10033000A21808F1FF3004D2924502D9A8F10200B8
:100340002244A2EB0A029BB2B2FBF9F809FB182285
:1003500008FB0EFE43EA024296452AD9A21808F18C
:10036000FF3304D2964502D9A8F10203224443EA9E
:100370000040A0FB0593A2EB0E029A42CE4698469F
:1003800002D306D14F4504D2B9EB050E63EB040846
:10039000013886B1B7EB0E0362EB080707FA0CFCD5
:1003A000CB404CEA0303CF40C6E900379CE7404608
:1003B000C7E74346DBE73146FDE6000000000000EA
:1003C0002DE9F0478CB020B90CB0BDE8F04706F03D
:1003D000F7B8554C94F83E5015F0010540F09B805D
:1003E00094F82000FF23800984F8213006F0ECFA0D
:1003F00094F83E0042070DD52A4604F13F01C0F3B0
:10040000C00006F02DFCFF2884F8210002D0284609
:1004100006F0F4FA94F8253004EB83039E6A94F80E
:10042000313004EB83035F6B56B13F4831460EF029
:10043000A4F833785B0615D43B4839460EF09DF896
:1004400094F820300121C3F302030DF12B008DF845
:100450002B300DF026FD024658B90C2528460CB06D
:10046000BDE8F08706210DF0F0FC0028E4D112254C
:10047000F4E7797830460EF037F82C49B4F83C8030
:1004800000263123C4E90236A0FB010124A3D3E9ED
:100490000023C4E9056626706660FFF721FE20612F
:1004A0000DF0A7FF2369224A03F247111160099258
:1004B000204A2149CDE90642204A4FF0910CCDE96E
:1004C000043207464FF6FF73A8FB0101CDE9026332
:1004D0004FF0020A12A3D3E900230DF12C090CFB03
:1004E0000811CDF82CA0CDF82090FFF7F9FD0321DD
:1004F000CDE900603B465246304604F013FD4946C4
:1005000005F07EFB0028A8D194F83E3043F00103AB
:1005100084F83E30A2E70025A0E700BFAFF30080DB
:100520008D49FD1A070000000017002000CA9A3B01
:1005300048170020AD5A0000002AE78461630000DC
:1005400070B590F820308AB0C3F302030D4604461C
:1005500001210DF1230016468DF823300DF0A1FC8A
:100560007178024628460DF0BFFF1D491AA3D3E952
:100570000023A0FB0101FFF7B3FD216905468D4271
:100580001FD2481B0021174A02230993A21A4823AD
:10059000B2FBF3F2144B059309AE00230232CDE90E
:1005A0000110CDE90333032106960093D2B2184619
:1005B0000DF007FF314605F023FB40B925610AB075
:1005C00070BD02D9691A0020DDE70020F7E70C2092
:1005D000F5E700BFAFF300808D49FD1A070000006A
:1005E00000CA9A3B00170020AD5A000070B59AB0BF
:1005F0000023012608930796CDF82330014620B149
:1006000027480CF0FCFB1AB070BD264D26480CF0B4
:10061000F6FB0FCD0DAC0FC42B6823602349244B90
:10062000009603220DA803F0CFFE014608B1214831
:10063000E7E707A908A803F031FB9DF820300AACD2
:10064000032B27D8DFE803F0022022241A49204692
:100650000DF0A2F99DF8213004939DF82230039308
:100660009DF8233002939DF8243001939DF82530A6
:1006700000931E219DF82630104A059412A80CF014
:10068000CBFB0F4812A9BCE70E49E0E70E49DEE7B5
:100690000E49DCE70E4A0A2120460CF0BDFBD9E7E3
:1006A000380701009003010058070100E80301002A
:1006B000000401006F07010095070100B707010062
:1006C000DA0701009C070100A3070100AD07010044
:1006D000CA0F010008B507480CF091FB064803F06B
:1006E000E5F9014620B1BDE8084004480CF087BB9D
:1006F00008BD00BFFD070100ED050000380701003F
:100700002DE9F04F05468BB0184615F00303DDF8D0
:10071000508003920E46019340F0F5812C1D002D70
:1007200040F0F48101F00706341DC6F108064FF0D1
:10073000000A0427411ECDF808A0CDF800A05246BB
:10074000B94605B12060039B03F0010ECE4B9842E1
:10075000C0F02A81CD4B984280F02681BEF1000F77
:1007600000F03C814FF0010CA4EB050BBEF1000F33
:1007700000F01D81BBF5007FC0F019816FF01500FE
:10078000F5E032B9252B40F02C8101220427B9462F
:1007900027E12B2B24D81F2B01D8002221E1A3F124
:1007A00020000B28F9D80FF2080C5CF820F000BFED
:1007B000E30900009B0700009B070000E30900001D
:1007C0009B0700009B0700009B0700009B070000A1
:1007D0009B0700009B07000087090000E309000059
:1007E000A3F12D005FFA80FCBCF14D0FD5D84D2848
:1007F000D3D80FF2080C5CF820F000BFE30900002A
:10080000E30900009B070000E3090000E309000082
:10081000E3090000E3090000E3090000E309000028
:10082000E3090000E3090000E3090000E309000018
:100830009B0700009B0700009B0700009B07000030
:100840009B0700009B0700009B0700004F0900006A
:100850009B0700009B0700009B0700004F0900005A
:100860004F0900004F0900009B0700009B07000094
:100870009B0700009B070000E30900009B070000A6
:100880009B0700009B0700009B0700009B070000E0
:100890009B0700009B0700009B0700009B070000D0
:1008A0009B0700009B070000350900009B07000024
:1008B0009B0700009B0700009B0700009B070000B0
:1008C0009B0700009B0700009B0700004F090000EA
:1008D0009B07000035090000350900004F090000A2
:1008E0004F0900004F090000E3090000350900002E
:1008F0007D0900009B070000E30900009B07000042
:100900008109000035090000810900009B070000F3
:100910009B070000810900008D07000035090000D9
:100920009B0700009B070000350900009B070000A3
:100930008D07000011F8012C6C2A23D111F8022C2C
:100940006C2A4FF000022DD00427B9461BE008F1B5
:10095000070828F007080734F8E8022324F0070402
:1009600055B10EEB0400B04204D96FF01B000BB080
:10097000BDE8F08FC4E9002308340022082706E709
:100980000022E1E70022013C3C447842044025B1CA
:10099000A9EB05002044B042E7D8732B43D158F8A7
:1009A000040BCEE60827D0E74FF0000CDCE6009BF6
:1009B0000F2B3FF6E3AE45B3DDF800E00AA8CBF31A
:1009C00087037044BCF1000F19D063F07F0300F877
:1009D000103C0AF1010A009B013300930434C5F175
:1009E000080E11F8013F002B7FF4CBAE601BB0F571
:1009F000806FBFF4C3AE9DBB083E3044B7E700F83C
:100A0000103C029B01330293E5E7BCF1000F01D0DB
:100A10000136E0E7CDE904120CF0C8FF0236DDE94B
:100A200004120644D7E7B9F1040F08D108F1040015
:100A300015B1D8F80030236004348046D1E7B9F10D
:100A4000080F7FF49BAE08F1070323F0070303F1BF
:100A500008081DB1D3E900BCC4E900BC0834C0E7F4
:100A6000029A2B60800828706A7085F802A0BAF19B
:100A7000000F05D006A9C5F10100009A9A4207D1DE
:100A8000C5F1010939E000BFE0FE0000542101007A
:100A900011F8012B170607D52718B74202F07F027D
:100AA0003FF663AF04F8012B0133E6E7019B06AA8A
:100AB00012F80380BAF1000F02D018F0800F19D19C
:100AC0000FFA88F2002355F8221045F82230084624
:100AD00002910CF06BFF04EB0902471C3A44B2424E
:100AE0003FF643AF04F8018B029920463A460CF0DA
:100AF0008AFF3C44019B01330193DDE900239A42C4
:100B0000D4D1601B33E76FF00D0030E707293FF6C3
:100B10000EAE2AE7014B1860704700BF1801002095
:100B200030B585B0CDE901010446002501A905488D
:100B3000039500F0E9F8DDE902309842B8BF25548A
:100B400005B030BDD9CD00002DE9F84FB0F81890B0
:100B500019F00808044693460DD001290CBF49F04E
:100B6000100949F02009A0F818908BF31188BFF301
:100B70006F8FBDE8F88F09F00709022907D12046D9
:100B80000CF057F90028F0D00128238B4ED167696B
:100B9000218B002F15DA256821F00701C4E90088B0
:100BA00041F0010121830026218B01F0070ACA458B
:100BB00002D0A368002B5AD10DB9002E71D00023AA
:100BC00056E001F007035A1F012A1ED821F0070141
:100BD000062B256889B2C4E900880AD13DB1638B30
:100BE0002A46126801339BB2002AFAD1638341F08E
:100BF0000201218320460CF01CF906460028D3D0C0
:100C0000238B43F020032383CDE7042B0CD121F069
:100C1000070189B2218320460CF00BF90546002814
:100C2000C1D041F0200121830025BCE7032809D170
:100C3000226923F00703166843F006032383002587
:100C40002F46B1E7042806D1226923F0070356682E
:100C500043F00403F2E7052806D1226923F00703D5
:100C6000966843F00503E9E700252E46E8E70123EF
:100C700041F0080121838BF31188BFF36F8FFBB91B
:100C800085BB16B11F492046B0474FF02003EFF354
:100C9000118B83F31288BFF36F8F238B23F008032C
:100CA0002383238BDA0625D523F010032383012128
:100CB000B4F8189009F0070900297FF45EAF54E7F3
:100CC000A1680029DCD0D1F80090D1F804B03B46EF
:100CD00052462046D847B9F1000FD1D04946D9F83D
:100CE0000090F2E729463B46524620462D680CF01C
:100CF000BCF8C5E713F020011EBF23F020032383B7
:100D00000221D5E797CE00002DE9F04F91B08B4638
:100D1000029092461C4600259AF8000008B9284621
:100D20005FE325280AF1010707D0029B594698473F
:100D30000028C0F25683013512E2182200210AA8C9
:100D40000CF06CFE9AF80130252B78D0002210466A
:100D5000964694461646394617F8013B2B2B00F071
:100D60009D8000F29480202B00F09B80232B00F0CC
:100D70009B802EB19DF8306046F004068DF83060FF
:100D8000BCF1000F05D09DF8306046F008068DF8E4
:100D90003060BEF1000F05D09DF8306046F01006BF
:100DA0008DF8306028B19DF8300040F020008DF8BB
:100DB00030002AB19DF8302042F040028DF83020FA
:100DC0009DF8302002F04400442803D16FF38612CE
:100DD0008DF830209DF830202A2B42F080028DF8CB
:100DE00030207BD19DF8312042F001024B1C8DF860
:100DF00031201A782E2A9DF831200CBF01210021C4
:100E000061F341028DF8312074D15A782A2A6AD0D0
:100E1000013300210A26184610F8012BA2F13007F1
:100E2000092F40F28E809DF830200E91C2F34000D1
:100E300040EAD17161F341028DF830205AE00AF1A5
:100E400002078DF833309DF83130D90740F14981E0
:100E500054F8049BB9F1000F07DA9DF8302042F0F6
:100E600004028DF83020C9F100095A0740F142818F
:100E700054F8048BB8F1000F80F241819DF83130B5
:100E80006FF341038DF831304FF0FF3837E12D2BF0
:100E90000CD0302B7FF46DAF01225CE74FF0010CDA
:100EA00059E74FF0010E56E7012054E7012652E7BB
:100EB0000CFB0202303A33461E4616F8010BA0F135
:100EC0003007092FF4D9994293D09DF830100D9234
:100ED000D20F62F341018DF830108AE70B460022F1
:100EE0004FF00A0CE8E79DF8312042F004028DF83B
:100EF000312002331F4617F8012B6C2A41D025D828
:100F0000682A2BD06A2A46D04C2A4CD01F4617F8A4
:100F1000012B9DF831308DF83320782A00F2D980EA
:100F2000572A4DD8412A03D0453A022A00F2D180EF
:100F30009DF83230042262F302038DF8323001232F
:100F40009EE006FB01213039034664E7742A26D06F
:100F50007A2ADBD19DF8313006220DE05A78682AD2
:100F60009DF8312006D1012161F3C6028DF83120B0
:100F70009F1CCCE71346022262F3C6038DF8313082
:100F8000C5E75A786C2A9DF8312001D10421EBE79E
:100F900013460322F0E79DF831300522ECE79DF877
:100FA00031300722E8E7BDF8303023F4F04323F076
:100FB000020343F4804343F00203ADF83030A6E768
:100FC000A2F15801202900F2848001A050F821F0FC
:100FD00095100000D3100000D3100000D3100000C3
:100FE000D3100000D3100000D3100000D310000075
:100FF000D3100000310F0000D31000009510000046
:1010000055100000310F0000310F0000310F0000BB
:10101000D310000055100000D3100000D3100000C2
:10102000D3100000D31000009D10000095100000A8
:10103000B9100000D3100000D3100000B910000058
:10104000D310000095100000D3100000D310000052
:10105000951000009DF83210012003F0780360F332
:101060000201402B8DF8321002BF9DF8301041F084
:1010700001018DF83010632A31D1003B18BF0123E4
:101080009DF83020C2F340010B4363F341028DF819
:101090003020D8E69DF832100220DEE79DF832209D
:1010A00003F07803A3F14000032161F302024342FD
:1010B0008DF832204341E3E79DF83220032113F0FD
:1010C000780F61F302028DF8322014BF0123002350
:1010D000D6E79DF8303043F001038DF8303000231F
:1010E000CEE79DF93020002AB4BFDDF834904FF0F0
:1010F000FF39BAE69B077FF5C7AEDDF838809DF86B
:1011000031100023CDE90D339DF8323003F0070391
:10111000012BC1F3C30138D1CB1E042B22D8DFE849
:1011200003F003090921210054F8043BDA17CDE943
:101130000A3206E0073424F00704F4E80223CDE97C
:101140000A239DF8303013F0030656D002983B4630
:10115000524659460CF07FF90028C0F242810544FE
:10116000BA46D9E554F8043B01294FEAE372CDE9C8
:101170000A3205D19DF828300A9300230B93E0E74B
:101180000229DED1BDF92830D0E7022B23D1CB1EB6
:10119000042B13D8DFE803F0030A0A1212002268B6
:1011A0000A920023201D0B930446CAE7E01D20F09D
:1011B0000700F0E80223CDE90A23F5E754F8043BE1
:1011C0000A9301294FF000030B93D3D00229B8D121
:1011D000BDF82830D0E7042B09D1E31D23F0070325
:1011E00003F10804D3E90023CDE90A23A9E7032B7F
:1011F00004BF54F8043B0A93A3E79DF83300782812
:10120000AED8622822D825283FF48FAD5828A7D120
:101210000DF126030093DDE90A0104AB0CAA0CF0E2
:10122000D4F88246B8F1000F0DF126000CDB9DF8D2
:101230003020A0EB0A036FF3861298458DF830201A
:1012400002D9A8EB03030D9380463DE063381528CF
:1012500086D801A252F820F0D91200003D130000F8
:1012600061110000611100006111000061110000B6
:101270003D130000611100006111000061110000C8
:10128000611100009713000065130000691300004E
:101290006111000061110000B11200006111000035
:1012A000651300006111000061110000651300006A
:1012B000B8F1000FDDF828A00ADB414650460CF0DB
:1012C0007CFB0AEB00080026BAF1000F0CD147E7BF
:1012D00050460CF06BFBF4E70A9B8DF810300026AB
:1012E0000DF1100A0DF11108A8EB0A0306B1013344
:1012F0009DF83220D00668D5023352060D9948BFBA
:101300000E9A0B4448BF9B18B9F1000F76DD9DF88B
:101310003020A9EB0309C2F38003039353076DD474
:10132000500661D546B1029B594630469847002881
:1013300057DB039B01351E46302356E01E070FD4B2
:1013400013F0100618BF2026DDE90A23002BBFF694
:101350005FAF524263EB4303CDE90A232D2657E7E3
:101360002B26F1E7002653E70A9840B30DF1260338
:1013700000930CAA04AB00210CF027F8BDF8323022
:1013800003F0EF0343F4F04343F010038246ADF85B
:101390003230002646E70A9B07293FF6E1AEDFE838
:1013A00001F00C04060C08080C0C1D70D8E61D801A
:1013B000D6E6EA17C3E90052D2E61D60D0E6DFF8B0
:1013C000C8A006460AF105088EE7110748BF013399
:1013D00093E7184603935946029B98470028039BBE
:1013E00004DA11B0BDE8F08F20234D444A46002AAC
:1013F000A5EB090109F1FF39EBDC0D4636B1029B83
:101400005946304698470028EBDB01359DF83230CD
:10141000D90601D41A0706D5029B594630209847B1
:101420000028DEDB01359DF83230DB0607D59DF85C
:101430003300029B594698470028D2DB01350D9EA8
:101440002E44731B002B16DC029843465246594625
:101450000CF001F80028C4DB0544A944A9EB0503FE
:10146000002B7FF77DAE029B59462020984700282D
:10147000B7DB0135F2E7029B594630209847002838
:10148000AFDB0135DDE700BF1F08010030B51049B3
:10149000104889B000220EF0AFFB0F4D0F4900221B
:1014A0000023CDE9062300240E23CDE90334CDE942
:1014B00001440B4B00944FF4407228460AF0AAFAFC
:1014C000084928460EF07EF8204609B030BD00BF1E
:1014D000E9140000480A0020800A00208022002031
:1014E000011700002508010001480AF025BC00BFD3
:1014F0007C05002070B5124BBFF35B8F53E8005F93
:101500006A1C43E800210029F8D1BFF35B8F2DB995
:101510000C4C0D4E361B3611B54200DB70BD237BE3
:1015200053B123689B690BB1204698476368042236
:101530001968204600F092F901351034ECE700BF3D
:10154000900F0020080301001803010010B5044C9F
:10155000237813B903480AF0EFFB0123237010BD71
:10156000061C00207C0500200C4BBFF35B8F53E86A
:10157000002F013243E800210029F8D1BFF35B8F2F
:1015800058B1BFF35B8F064B53E8002F013A43E895
:1015900000210029F8D1BFF35B8F70478C0F00202A
:1015A000880F00200020064BBFF35B8F024653E8F4
:1015B000000F43E800210029F9D1BFF35B8F70478A
:1015C0008C0F0020F8B5FFF7EDFF0A4C0A4D2D1BDC
:1015D00007462D110026AE4200DBF8BD63685B793B
:1015E0002BB123681B6913B1394620469847013651
:1015F0001034F0E708030100180301000149024814
:101600000BF0D2BF08040100940F0020084A08B56F
:1016100000231370074A1360074B084A1A604FF4FF
:10162000004000F0F7FABDE80840FFF7E7BF00BF51
:10163000071C00208C0F00201C01002047D8000050
:1016400001460022014800230BF0CDBF940F00207B
:1016500001480CF05BB800BF940F00200146014820
:101660000CF0A0B8940F002001480CF0CFB800BFD8
:10167000940F00201D4B1B782DE9F041054603B95E
:1016800088B30CF0F4F8064618B16DB13046FFF798
:10169000E5FF2DB9164B1B68002B01DDFFF792FF0C
:1016A000BDE8F041FFF7E0BF124BBFF35B8F53E89B
:1016B000002F013A43E800210029F8D1BFF35B8FE6
:1016C0000D4C0E4F3F1B3F11A846B845DEDA63684C
:1016D0005B7923B1236831461B682046984708F19F
:1016E00001081034F1E7BDE8F08100BF061C0020BE
:1016F0008C0F0020880F0020080301001803010050
:1017000010B5FFF7F7FE0AF0DDFF0C4B186030B1A3
:101710000B4B1B68092B02DD0A480AF00DFB094C34
:101720000020FFF7A7FF0028FAD14FF0FF324FF05B
:10173000FF3320460AF026FBF2E700BFD00F00205F
:10174000880F00207C05002013B51D4BBFF35B8F75
:1017500053E8002F511C43E800100028F8D1BFF3D4
:101760005B8F184B1B7883B14FF02003EFF311848C
:1017700083F31288BFF36F8F0020FFF77BFF84F3A2
:101780001188BFF36F8F02B010BD0F4B1B68002B89
:10179000F9D052B900220023CDE900230B484FF4C1
:1017A000004200230BF0A2F9EDE70A2AEBD107482B
:1017B0000EF02EFA064802B0BDE810400AF0BCBA9E
:1017C000880F0020071C0020D00F0020480A0020AE
:1017D0007C050020064B10B51B680446984721463F
:1017E000A06004480BF075FFBDE81040FFF7ACBFE8
:1017F0001C010020940F0020F8B50E4F3D7875B9FC
:101800000D4C0E4EFFF776FE361B3611B54207DB48
:101810000020FFF72FFF0028FAD101233B70F8BD0D
:1018200063685B791BB1236820465B699847013583
:101830001034EBE7071C0020080301001803010027
:10184000044A054B9B1AB1EBD30F34BF52F8310059
:10185000002070470002010008030100054A4368A8
:10186000801A001101300122187119605A71FFF7B6
:101870006DBE00BF080301000EB403B503AB014603
:1018800053F8042B04480193FFF73EFA02B05DF8C9
:1018900004EB03B0704700BFAFD800002DE9F0475C
:1018A0001D46089B1746DA0604460E4605D49906DF
:1018B0004CBF2A492A49FFF7DFFFDFF8A8904FF015
:1018C0000008A8452ADBDFF8A080DFF8A090DFF849
:1018D00094A00025BD422FD2725D49462046FFF7F5
:1018E000CBFF0135102D20D12149DFF87880DFF8BA
:1018F00084902046FFF7C0FF0025AF4228D9725DD3
:10190000A2F120035F2B28BF2E2249462046FFF775
:10191000B3FF0135102D14D1BDE8F08749462046AC
:10192000FFF7AAFF08F10108CBE76A07D2D15146B9
:101930002046FFF7A1FFCDE741462046FFF79CFF79
:10194000CFE76B07D9D141462046FFF795FFD4E793
:1019500041462046FFF790FFDBE700BF3208010059
:10196000310801003C0801003A0801003408010078
:101970003E080100400801002DE9F04F87B01C46E9
:1019800001F0010305929DF84090BDF948A0049331
:101990000746884601F0020B01F008060BF06BFFCA
:1019A0000246002844D03A493846FFF765FF05460D
:1019B000BBF1000F08D018F0440F3BD13549224647
:1019C0003846FFF759FF0544049B53B1324B334966
:1019D00053F82920324B3846002A08BF1A46FFF731
:1019E0004BFF3EB12F4B304953F829203846FFF7C3
:1019F00043FF0646BAF1000F16DB059B002B45D0CE
:101A0000012303FA09F9294B294C19F0100F18BFCB
:101A10001C4651469DF84400FFF712FF214602463E
:101A20003846FFF729FF0644701907B0BDE8F08F6C
:101A30000546BDE71F4B18680028C4D01E4B4FF465
:101A40007A781B68B4FBF3F44FF46161B4FBF0F3F4
:101A500000FB134408FB04F44FF03C0CB3FBF1F221
:101A600001FB1231B4FBF0FEB1FBFCF300FB1E44A2
:101A70000CFB131108FB04F40091B4FBF0F00F49C8
:101A8000CDE901E03846FFF7F7FE9CE7084CC0E7D8
:101A900051080100550801001C040100DF1101007C
:101AA00043080100300401007A0801004D080100DC
:101AB00048080100D40F0020D80F00205E08010064
:101AC00038B50C46E107054603D5084A0849FFF733
:101AD000D3FEE20608D4A30628464CBF05490649B2
:101AE000BDE83840FFF7C8BE38BD00BF430801005D
:101AF000DF11010032080100310801002DE9FF4724
:101B00000B8813F4E07F06460C469046C3F3821917
:101B10004CD00A784B68C2F3C202002B43D0244950
:101B20005B1A43F3CF03CDE90123CDF80090A368FE
:101B3000002241463046FFF71FFF8246254655F8F2
:101B40000C3BC3F349234BB11A481B4B2A46314681
:101B5000B9F1000F18BF18460BF0E5F86788C7F316
:101B6000CB0797B12268C2F349221544102F3C4697
:101B700028BF10242946CDF800805346224630461F
:101B8000FFF78CFE3F1B2544F0D1B9F1000F04D0C4
:101B90004A4641463046FFF793FF304604B0BDE861
:101BA000F0470BF077BE4FF0FF33BCE7CA46C5E7FE
:101BB00000020100E5D80000AFD8000073B542F282
:101BC0000F738B4228BF0B4605680F4A0446052158
:101BD00068460BF021F963680C495B6806460B22E6
:101BE00028460BF04AFE63683246694628465B6821
:101BF0000BF043FE636806495B681B2228460BF026
:101C00003CFE02B070BD00BF851F0100B808010096
:101C10009C080100084A10B50123084C13600021FC
:101C2000A04204D801B11360054B186010BD4008F4
:101C30005B000121F4E700BFD80F002040420F00F5
:101C4000D40F00202DE9F04F85B0DDE90E6BDDF8F3
:101C500040A00546884614469946BBF1000F37D090
:101C60000022CDF800A05B460C211046CDF80CA058
:101C7000FEF746FD074604F0070206F1130005F0E3
:101C80000704144D144BE400384444EA821405EA76
:101C9000472520F007002C4303EAC64380081C4375
:101CA000FFF7CEFC054650B1BBF1000F07D0CDF8D1
:101CB00000A05B46002239460C30FEF721FD4B4662
:101CC00022464146284605B0BDE8F04F0BF017BE4E
:101CD0005F46D0E700FE07000000F87F014B0122BD
:101CE0001A707047181C0020024B034801221A701A
:101CF0000BF0D0BD191C0020600401000148FFF763
:101D00005DBF00BF6004010001480F22FFF7F6BE6F
:101D100060040100054B1B781BB141F288300DF0C7
:101D20003CBFA42000210AF0B3BC00BF191C002056
:101D30002DE9F047DFF88C90DFF88CA080460F4645
:101D4000042499F80050CDB94FF0FF334FF0FF3223
:101D5000504609F003FF3A464146284609F0E2FBA7
:101D60000646504609F072FF184DFEB101232B7054
:101D700099F800306BB93846BDE8F0873A464146DD
:101D8000002009F0CFFB0646EEE75CB92C704FF05F
:101D9000FF34002009F042FC0028ECD02B78002B07
:101DA000F3D1E8E7013CFFF7B5FFF2E72B7813B179
:101DB000013C04D12C702B78002BC2D1DBE7FFF75C
:101DC000A9FFF8E7191C002068050020181C002056
:101DD0002DE9F84305464FF02003EFF3118683F316
:101DE0001288BFF36F8F0E4B1C689CB10D4FDFF84C
:101DF00038804FF00C09D4E90132002D08BF13469A
:101E00002BB198F8142009FB02F2B85C98472468BB
:101E1000002CF0D186F31188BFF36F8FBDE8F883F3
:101E2000F00F0020F80F0020C41B002000F01F035B
:101E300001229A400A4BBFF35B8F400903EB8000FD
:101E400050E8003F43EA020140E8001CBCF1000FEB
:101E5000F6D1BFF35B8F1A4214BF012000207047F8
:101E60000410002030B51D4B1C7DBFF35B8F04F0C8
:101E70001F0301229A401A4B610985B0D04303EB3E
:101E8000810353E8001F01EA000543E8005CBCF150
:101E9000000FF6D1BFF35B8F114217D0114D0C220A
:101EA00002FB045207CA01AB83E807000E4A7AB16D
:101EB00093E807000BF0D1FD0020FFF789FF0C230A
:101EC0005C432A1900232B51C2E9013305B030BD10
:101ED00082F31188BFF36F8FEEE700BFC41B0020B1
:101EE00008100020F80F00205BDA00002DE9FF4108
:101EF000354B364C1D7D80462846FFF797FF50B97D
:101F00004146284600F084F828B107C80C2303FB9B
:101F1000054383E807000C236B43E218E05C6E097D
:101F200005F01F0700283BD0B8F1FF3F10D0D2F8D2
:101F300008E02748274A4FF4004C00210023EEFB1D
:101F40000C01FEF7CDF80121A8EB00000DF005FE15
:101F50000AF020F90120FFF73BFFBFF35B8F1E4B18
:101F60000122BA4003EB860353E8001F114343E804
:101F700000100028F8D1BFF35B8F0C2303FB05444E
:101F800094E8070001AB83E80700144A1AB193E80C
:101F900007000BF04FFDFFF765FF0AF0C9FA0120BB
:101FA0000F4ABFF35B8F0123BB40DB4302EB860686
:101FB00056E8002F1A4046E800210029F8D1BFF367
:101FC0005B8F04B0BDE8F081C41B0020F80F002037
:101FD0003F420F0040420F000810002035DA000099
:101FE00004100020054BBFF35B8F53F82000BFF3B4
:101FF0005B8FB0FA80F04009704700BF0C100020E2
:1020000008B9024B0B600020704700BF2810002069
:102010002DE9F04F85B00E4603A9FFF7F1FFDFF879
:1020200074A0DFF87480441E24B24FF400474FF0D0
:102030000009631C04D10025284605B0BDE8F08FD7
:10204000039A04EB440302EB830512F82300FFF725
:10205000C9FFE0B168684FF0000BD4465946E0FB79
:1020600007C142464B466046FEF73AF80190A86821
:10207000D4465946E0FB07C142464B466046FEF750
:102080002FF8721CD8D0019B1844B042D4D9013C1F
:1020900024B2CEE73F420F0040420F000149102218
:1020A0000A60704710ED00E072B6404080F311887E
:1020B000BFF36F8FBFF34F8F30BF62B6BFF36F8F29
:1020C000704700BF72B6494081F3118820BF80F38A
:1020D000118862B6704700BF2DE9F04788B081468D
:1020E00000AF0C4600294BD0EA4688B06D46D1E9D6
:1020F0000012A36826482E464FF00508C5E90401E2
:10210000C5E90623C7F8088046F80C8F21483246F7
:1021100000234FF421510BF00DFCD4E90312636945
:102120001D48C7F80880D546C5E90401C5E906235E
:10213000AD46C5F80C801748324600234FF42151B4
:102140000BF0F8FB154AE3690325C7E90623D546DA
:102150007D607D610F4807F1140200234FF4C251E6
:102160000BF0E8FB0E4AA3697D60C7E906237D6199
:102170000848002307F114024FF4C2510BF0DAFBB8
:102180002146484609F0B6FA2037BD46BDE8F0873B
:10219000D7080100D8020100060901003509010035
:1021A0004409010043B2002B08DB012200F01F00AC
:1021B00002FA00F05B09024A42F82300704700BFB0
:1021C00000E100E043B2002B0DDB01225B0900F0CF
:1021D0001F0002FA00F02033034A42F82300BFF345
:1021E0004F8FBFF36F8F704700E100E0054B42094E
:1021F00000F01F0053F82220012303FA00F01040E2
:10220000704700BF00E100E043B2002BA8BF03F11C
:10221000604301F10101B8BF064B4FEA4111ACBF69
:1022200003F5614300F00F00C9B2B4BF195483F83D
:102230000013704714ED00E008B572B6044B9A69BC
:102240001AB100229A610DF0C4F962B608BD00BF50
:10225000C41B002030BFFFF7FDBF00BF0F4A08B509
:102260000F4B22F07F029A60BFF34F8FBFF36F8F47
:10227000D3F8882022F47002C3F88820EFF3148387
:1022800023F0040383F31488BFF36F8F09F0DCFAA3
:102290000AF092FA00F0A8FB09F0E0FA0000000052
:1022A00000ED00E0094A0A4993680968D9670949BD
:1022B00098674B6843F080534B60002383F3118889
:1022C000BFF36F8F9368D86F704700BFC41B0020A7
:1022D0002007010000ED00E012498A684FF030004D
:1022E0001044EFF3098C80E8F01F202080F312885F
:1022F000BFF36F8F0C4F4FF00066CA698A603E6073
:10230000906F0023936780F3118804B5104600F0A6
:10231000ADFBBDE8044002F1300090E8F01F8CF303
:1023200009887047C41B002004ED00E01EF0040F74
:102330000CBFEFF30880EFF30980816911F8021CEC
:102340000229FFD001B50BF015FB01BD42F8203C7E
:10235000009B42F81C3C0A49019B42F8183C029B36
:1023600042F8143C21F001014FF0807342F8043C24
:1023700042F8081C0023203A02658367704700BFBB
:102380002BD00000094A0346906870B113F1160F74
:10239000806E05D0A0F120029A4205D8834203D274
:1023A000814228BF0020704700207047C41B0020D6
:1023B00008B5094B98600D46144600F057FB2046BF
:1023C00085F30988002163B681F31188BFF36F8F0D
:1023D000002200230AF029FEC41B002001B572B6BA
:1023E0000B4A906900281EBF002191610DF0F1F8A1
:1023F00062B6EFF30580A0F110004FEAC000054976
:10240000014409C99847BDE8014003490847000055
:10241000C41B0020C80001001D240000044B996863
:10242000D869884203D003494FF080520A60704750
:10243000C41B002004ED00E070B588B03C4B06934F
:10244000022406460D463B4801944FF4825105AAEA
:1024500005940BF09EFA384B9B6AD90409D5374B8B
:102460003448069305AA4FF48251019405940BF069
:1024700090FA314B9B6A1A050AD5314B06932D48C9
:10248000022305AA4FF48251019305930BF081FAC0
:10249000294CA36A9B051FD52A4B2648069305AAFB
:1024A00002234FF48251019305930BF072FAA36B50
:1024B000A26A100410D5244A1E48CDE906234FF421
:1024C000C251032305AA019305930BF062FA1EB1D2
:1024D000A36A23F40043A362174B9B6A59050AD5EC
:1024E0001A4B06931348022305AA4FF48251019315
:1024F00005930BF04EFA104B9A6AD20513D5144B84
:1025000006930C48022305AA4FF4825101930593C8
:102510000BF03FFA084A936A002043F47F4393622A
:10252000287008B070BD9B6A9B04F3D5094BE7E7A0
:1025300072090100D802010000ED00E088090100E5
:1025400099090100AC090100C5090100DA0901007F
:10255000F50901000D0A010010B588B0364B374867
:102560000693022405AA4FF48251019405940BF0BE
:1025700010FA334B9B6A9B0109D5324B2F480693C7
:1025800005AA4FF48251019405940BF002FA2C4BEA
:102590009B6ADC010AD52C4B06932848022305AA26
:1025A0004FF48251019305930BF0F3F9244B9B6A8E
:1025B00018030AD5254B06932048022305AA4FF499
:1025C0008251019305930BF0E4F91D4B9B6A59036B
:1025D0000AD51F4B06931948022305AA4FF48251CE
:1025E000019305930BF0D5F9154B9B6A9A030AD515
:1025F000184B06931148022305AA4FF48251019308
:1026000005930BF0C6F90E4B9B6ADB030AD5124B00
:1026100006930A48022305AA4FF4825101930593B9
:102620000BF0B7F9064A936A6FEA03436FEA134364
:102630000020936208B010BD3C0A0100D8020100DE
:1026400000ED00E0540A0100670A0100810A010060
:102650009F0A0100C40A0100DE0A01002DE9F041D1
:1026600088B0484B069302240746884646480194A2
:1026700015464FF4825105AA05940BF08AF9434B95
:102680009B6AD80609D5424B3F48069305AA4FF4EA
:102690008251019405940BF07CF93C4B9B6A19071D
:1026A0000AD53C4B06933848022305AA4FF48251C1
:1026B000019305930BF06DF9344CA36A9A0731D45A
:1026C0006FF01506314B9B6ADC070AD5324B069337
:1026D0002D48022305AA4FF48251019305930BF074
:1026E00058F92A4B9B6A98060AD52C4B0693264824
:1026F000022305AA4FF48251019305930BF049F987
:10270000224B9A6AD10630D49A6A92072DD40020BF
:102710001E4A936A43F0FF03936200232B7008B0B4
:10272000BDE8F0811E4B06931748022305AA4FF41B
:102730008251019305930BF02CF9666BA36A1B067B
:10274000BED5184B1048CDE9063605AA03234FF431
:10275000C251019305930BF01CF9B8F1000FB1D0F1
:10276000A36A23F08003A362ACE75B681B05CED5A8
:1027700039463046FFF706FE0028C8D080F30988A6
:102780000220C5E7090B0100D802010000ED00E0BE
:102790001F0B010099090100800B01000D0A0100C7
:1027A000520B01006A0B01007FB50AAB059302933F
:1027B000054B01930023009301221846FFF742FACC
:1027C00007B05DF804FB00BF9F0B01002DE9F0434B
:1027D000704B5D688FB00F46C5F308044FF00008DA
:1027E00088F31188BFF36F8F02F07F43B3F17F4FFF
:1027F0000ED102F00C03082B0CD1674B0A936748EB
:10280000022309AA4FF48251059309930BF0C1F8F2
:10281000474604E0120702D407464FF001080023A0
:102820008DF81330E31E092B00F29A80DFE803F0E5
:10283000058A8E87989898989892564E584B574884
:102840000A93022509AA4FF48251059509950BF0C8
:10285000A0F8F46A4FF000092C408DF813900BD0CB
:10286000504B0A93059509954C4809AA4FF482519B
:102870000BF08FF800240CE0F36A002B24DA4A4BAB
:1028800046480A9309AA4FF48251059509950BF021
:1028900080F89DF81330A3B92022394606A80BF022
:1028A000B2F80D9BB8F1000F6ED0C3F3080222B945
:1028B0006FEA53236FEA43230D9306A92046FFF7DF
:1028C0000BFC0FB0BDE8F083F36A5B00E1D5374B3A
:1028D00032480A9309AA4FF48251059509950BF0E5
:1028E00058F8BB6933F8022C4DF602739A420AD0AD
:1028F00096F82830B3B10DF1130201213846FFF7E5
:10290000ADFE0446C5E73B68294A2448CDE90A23C1
:102910004FF4C251032309AA059309930BF039F828
:102920003C68B6E796F829302BB10DF11301012070
:10293000FFF782FDE5E7738D9BB2002BA9D0FFF76F
:102940000BFEDEE70DF113020021D7E70DF11301B5
:102950000020EDE7174B0A9302230593099383E7C1
:10296000154A164B0D4915F4F87F18BF1346103C55
:10297000CDE902340024124B019300942346012236
:102980002046FFF711FF84E723F4FF7323F00103D0
:1029900092E700BF00ED00E0E00B0100D80201006B
:1029A0000B0C0100220C0100430C0100510C010032
:1029B000700C01008C0C0100C70B0100B20B010070
:1029C0009F0B0100024A536943F0100353617047A3
:1029D00000ED00E0EFF30880EFF3098101B57246E6
:1029E000FFF7F4FE01BD00BF044800232021C218F8
:1029F0000133272B82F80013F9D1704700E100E082
:102A00000DF068FA202080F3118808484FF4026125
:102A1000401880F30988EFF314800221084380F303
:102A20001488BFF36F8FFFF719FC0000C03300203C
:102A3000064B9B68834207D1EFF3058323B1044A19
:102A4000536843F08053536009F052BEC41B00200A
:102A500000ED00E0024B034A0348012100F088B872
:102A6000000001200000002070040100826E054B70
:102A7000203A1A60044A2021C3E9011218460121B4
:102A800000F080B82810002000000B15F0B5294F89
:102A900089B000268E4217DA4468002C46D0E3B194
:102AA00004F1FF3C14EA0C0F11D0234BCDE906369C
:102AB000032301930593214805AA00234FF4C25133
:102AC0000AF038FF6FF01502104609B0F0BD1F2C58
:102AD000EBD905681CEA050FE7D1202C0568D0F872
:102AE00008C0D2B210D9B4F1004F0FD8013CB4FAEB
:102AF00084F4C4F11F046400072A4CEA040407D9D3
:102B00000F4BCDE90632D3E70824F5E73E24F3E77F
:102B100025F01F05154345F0100544F00104C7F8E2
:102B20009820C7F89C500132C7F8A04001360C30FD
:102B3000B0E700BF00ED00E0B40C0100C8020100E6
:102B4000D70C0100044B0522C3F89420BFF34F8F2C
:102B5000BFF36F8F704700BF00ED00E0BFF35F8FE2
:102B6000024B0022C3F89420704700BF00ED00E044
:102B700010B5034C01232278FFF788FF207010BDA9
:102B80001A1C002008B5094A00231278FFF77EFFBF
:102B900010F1160F03D0064B0022072800DD08BDF8
:102BA000C3F89800C3F8A0200130F6E71A1C0020F3
:102BB00000ED00E014490868082810B521D8FFF797
:102BC000CDFF124C49680022904201F10C0105D161
:102BD0000F4B1870FFF7B6FF002010BDC4F8982007
:102BE00051F80C3C23F01F03134343F01003C4F8C7
:102BF0009C3051F8043C43F00103C4F8A03001328A
:102C0000E2E74FF0FF30E8E77C04010000ED00E070
:102C10001A1C0020014B1860704700BF20010020E3
:102C20004FF02002EFF3118382F31288BFF36F8F0E
:102C3000044A0121C2F8401583F31188BFF36F8F56
:102C40000020704700E0014020B1034B800143F0B9
:102C500001031847704700BFE003010038B544681E
:102C6000206808F005FD30B90D4821680AF0C7F862
:102C70006FF0120038BD616804698568C9B201232C
:102C800003FA01F2236823EA020323604FF420626F
:102C90002B6898472120002109F0FAFC0020E9E781
:102CA000100D01000E4B402970B528BF40210D4C7E
:102CB00046181D46B04203F1020304D1002305F873
:102CC0001130074870BD02781209A25C03F8022C8B
:102CD00010F8012B02F00F02A25C03F8012CE9E7C7
:102CE000391C0020330D010030B503788BB0044649
:102CF00007AD032B21D8DFE803F0021A1C1E12498E
:102D000028460AF049FE63780493A3780393E37896
:102D1000029323790193637900930C4AA379059573
:102D20001E210B480AF078F809480BB030BD09495C
:102D3000E6E70949E4E70949E2E7094A0A212846A2
:102D40000AF06AF8DFE700BF95070100B707010046
:102D50001B1C00209C070100A3070100AD07010018
:102D6000CA0F010038B5054605480BF0A0FE044621
:102D700020B1002108300BF0B9FE2575204638BD82
:102D80001C0600200B460B490246D1F8F80010B58E
:102D900020B9BDE810400120FFF7E4BF0BF0B7FEFB
:102DA0000123002103758181044608300BF09EFE4B
:102DB000204610BD0000002070B505460E3D012DD7
:102DC0000C461046194603D8BDE87040FFF7DABF3D
:102DD00064B109480BF06BFE044628B100210830AD
:102DE0000BF084FE01232375204670BDBDE87040C2
:102DF0000120FFF7B7BF00BFC405002070B50B4D21
:102E000006460FCD8EB001AC0FC40FCD0FC40FCD51
:102E10000FC40C2E2B6823609BBF0EAB03EB860602
:102E2000034856F8340C0EB070BD00BFA403010077
:102E3000410E010000B5012189B008300BF08EFE73
:102E4000074A03780748CDE906234FF4C25103230C
:102E500005AA05930AF04EFE09B05DF804FB00BF19
:102E6000490E0100900201001FB581898068FFF7BB
:102E700019FF064B0193002302900549009302229B
:102E800018460AF03AFE05B05DF804FB6B0E01002F
:102E900090020100B0B588B0044606AF084602EBC8
:102EA000C3039A4211D1858980682946FFF7FAFE4B
:102EB000164B01930023CDE903501549029400936A
:102EC000022218460AF019FE19E0114612F8085BB2
:102ED000A542E6D183894A789A4213D90D490C4814
:102EE0006D4688B006AAC2E90413042394614FF426
:102EF000015142F80C3F7B600AF0FCFDAD460837FB
:102F0000BD46B0BD4B689847F9E700BFB10E010060
:102F1000900201008F0E010010B501210446083017
:102F20000BF01CFE2146034A0078BDE81040002348
:102F3000FFF7B0BFC40401002DE9F04782B080461E
:102F400000AF9079DFF850910E46144605F03AFD37
:102F5000814520D0A07905F035FD6E468AB06D46DA
:102F60004E4BA079A861C5E9043805F02BFDA07986
:102F700005F028FD2A460623C5E907094FF442510A
:102F800042F80C3F46487B600AF0B4FDB54608376E
:102F9000BD46BDE8F087204605F01CFD414D4FF0D1
:102FA0000C0A0AFB0050438843451ED0204605F01A
:102FB00011FDE9463C4B88B06E46C6E90438204610
:102FC00005F008FD204605F005FD0AFB00553246D8
:102FD0006B88B361042342F80C3F31487B604FF4A7
:102FE00002510AF087FDCD46D1E7DFF8C080D8F85E
:102FF000F80020B105F0AAFD0023C8F8F8302046FB
:1030000005F0E8FC4FF00C0808FB00504368EBB1FA
:10301000E6B9204605F0DEFC08FB005001224068BE
:10302000D0E90031007A01F01F0C02FA0CF24909D4
:1030300028B3BFF35B8F03EB810353E8001F1143F9
:1030400043E800100028F8D1BFF35B8F204605F05D
:10305000C1FC4FF00C0808FB00508368002B96D091
:10306000204605F0B7FC08FB00F02E54204605F082
:10307000B1FC08FB0055A86808F05EFE87E7D24364
:1030800003EB8103BFF35B8F53E8001F114043E85C
:1030900000100028D8D0F7E7F0050020D30E01007B
:1030A0009002010034100020080F010000000020F1
:1030B00038B50321044608300BF050FDA3680578AD
:1030C0001978B0F801002246FFF736FF25B1034812
:1030D000BDE8384008F030BE38BD00BFE000002039
:1030E00038B50421044608300BF038FD45780178E6
:1030F00040882246FFF720FF25B10348BDE838404D
:1031000008F01ABE38BD00BFE000002010B5C1E9CC
:1031100000239DF808300B720C4605F05BFC034B56
:103120000C2202FB00335C6010BD00BF3410002095
:103130002DE9F0474FF0FF324FF0FF3306461748B6
:10314000174D0F460BF0B3FC044600F1080A0021AE
:103150004FF0000850460BF0C9FC84F8148020465C
:1031600005F038FC4FF00C0909FB00504680204662
:1031700005F030FC09FB0050C0F80880204605F03F
:1031800029FC09FB00550321C5F8048050460BF0CB
:10319000CEFC877006802046BDE8F087F005002051
:1031A000341000202DE9F04389B0804600AF154669
:1031B0000C4621B9FFF7BCFF044600285ED007F19A
:1031C00008060122002130460CF0D3FA204605F013
:1031D00001FCDFF8B0900C2303FB009086602046D2
:1031E0000BF095FC014628480BF084FC4FF4A0221C
:1031F0003046002308F0C6FD064680B1234A244924
:10320000244840F2311309F0FAFD2348314609F011
:10321000F6FD404080F311884FF0030002DF2046A6
:1032200005F0D8FB0C23584319F80060EEB11B4B96
:103230001B486D4688B06A46C2E90438042396618B
:103240004FF4025142F80C3F7B600AF053FC2046D9
:10325000AD4605F07BFC092E0CBF6FF06E006FF0E1
:1032600004002437BD46BDE8F08315B12C6030461C
:10327000F7E7204605F06AFC2846F2E76FF06800A1
:10328000EFE700BF34100020FC0000203B0F0100DE
:103290006F0F0100780F0100950F0100B50F0100BD
:1032A00090020100F0B5934DD5F81431996811F0F2
:1032B000010191B021D10AAA40F60340FFF772FF45
:1032C0000446002874D10A9B9B681B7893B9BFF30E
:1032D0005B8F2B4653F8CC2FBFF35B8F02F00502B8
:1032E000BFF35B8F53E8001F43E800200028F9D1AB
:1032F000BFF35B8F0A9805F029FC0AAA002141F26E
:103300000300FFF74FFF0446002851D10A9B7A487B
:103310009968082201310AF076FB0A9805F016FC3C
:1033200021460AAA41F20100FFF73CFF04460028AB
:103330003ED10A9883685A7885F86820D9789A78B7
:1033400042EA0122A5F86A201A7985F86920197ADB
:10335000DA7942EA0122A5F86C205A799B7942EA8F
:103360000323A5F86E3005F0F1FB21460AAA41F2CD
:103370000200FFF717FF0446D0B90A9B5F4899681F
:10338000402201310AF03FFB0A9805F0DFFB95F877
:10339000743058060FD45A4B0E935A4802230DAA84
:1033A0004FF482516FF0120409930D930AF0A2FBBF
:1033B000204611B0F0BD21460AAA42F20300FFF7F1
:1033C000F1FE04460028F3D10A9B4F489968082271
:1033D00001310AF018FB0A9805F0B8FB95F8743033
:1033E000990657D595F894301A076ED4082142F201
:1033F0000100FFF79DFE0446002852D00821084432
:103400000BF095FB02270022077042708270C27099
:10341000027142718271C271214642F20100FFF7CE
:10342000C1FE04460028C3D1082140F60140FFF741
:103430007FFE0646002834D0082108440BF077FBB5
:10344000802343702023047084700471447184715C
:10345000C770C3712246314640F60140FFF7A2FE15
:1034600004460028A4D1014608AA4FF60140FFF700
:1034700099FE00284CD0254B0E9309970D972148B3
:103480000DAA4FF484510AF035FB11B0BDE8F040AD
:1034900000F0A8BD022140F66D40FFF749FE064648
:1034A00010B96FF0680483E7022108300BF03FFB8E
:1034B0000123447003702246314640F66D40FFF709
:1034C00071FE044600288DD072E70AAA002142F25C
:1034D0001C00FFF767FE044600287FF469AF0A98D6
:1034E0008368D3F80120D3F80530C5E9362305F009
:1034F0002DFB7BE7000000207000002078000020FA
:10350000D10F010090020100D0000020F50F010052
:10351000089B3D499C68B4F80130032B96BF3B4A99
:103520003B4A52F82320CDE902233A4B0193002372
:103530000093032218460AF0E0FAB4F80130B4F818
:103540000320022B3BD1032A39D8334B53F82230C6
:103550002D49CDE90232314B019300230322184655
:1035600000930AF0CAFAD4F8091063790691B4F806
:1035700007100591032BA17996BF294A244A52F8D6
:10358000232002920024CDE90331264B1E490193EA
:1035900003222346204600940AF0AFFA089805F06B
:1035A000D5FA214608AA4FF60240FFF7FBFD044674
:1035B00038B11D4B0E93022309930D935FE7144B13
:1035C000C6E7089B19489968022201310AF01BFAE4
:1035D000089805F0BBFA95F8B9305B077FF555AF51
:1035E00008AA21464FF60340FFF7DCFD08B1104B57
:1035F000E0E7089B0F489968012211440AF003FA9A
:10360000089805F0A3FA40E790020100FC040100CD
:10361000410E010019100100D40401003210010014
:103620001C0501004A10010077100100B9000020BC
:10363000A0100100B8000020024BD3F814311B6920
:10364000184700BF00000020F0B54D4D4D4E89B029
:1036500005F1E007F3686FF35233F36049484FF028
:10366000FF324FF0FF33012109F092FA60B1464A70
:103670004649474840F6931309F0C1FB404080F3A8
:1036800011884FF0030002DFF368C3F34533012BC9
:103690000DD9042B0ED03F4A3F48CDE906234FF405
:1036A000C451032305AA019305930AF023FA08F0F5
:1036B00067FFCFE7337B002BF9D138480022002386
:1036C0000BF0FAF9044600284CD04FF0FF334FF0CE
:1036D000FF32384608F056FBD5F8F8307BBB204661
:1036E0000BF015FAC5F8F8002046FFF7A5FF0028F3
:1036F000DDD02B4B05AACDE906304FF4C251032390
:103700002548019305930AF0F5F9264808F014FBC3
:10371000204605F05FF9244B0C2202FB00301F21EC
:1037200022464088FFF708FCD5F8F80005F00EFAAD
:1037300000232046C5F8F83005F008FAB7E71B4B20
:103740001548069305AA02234FF48251019305936D
:103750000AF0D0F9D5F8F80005F0F8F90023C5F81B
:10376000F830BCE7084A1249094840F62A1309F024
:1037700046FB404080F311884FF0030002DFA4E7CE
:1037800000000020240100203B0F01006F0F01000A
:10379000780F0100EB10010090020100FC000020F6
:1037A000C9100100E0000020341000200C110100BD
:1037B0004E0D01002DE9F041044600F108063046A7
:1037C0000BF0D4F9A789012F05460CD8214A2249CC
:1037D000224840F62F5309F012FB404080F3118835
:1037E0004FF0030002DF304602210BF0B7F90378F7
:1037F000052B064626D00E3B012B94BF4FF0010847
:103800004FF0020818F0010F0CD1124A1449134866
:1038100040F6335309F0F3FA404080F311884FF03B
:10382000030002DF0F4A307802232146FFF732FB04
:1038300018F0020F09D02069A78110FA85F5A5605C
:10384000BDE8F0814FF00308DCE72046BDE8F04119
:1038500005F07CB93B0F010027110100780F010032
:10386000401101000C05010070B5057D012D88B0E7
:10387000044639D18389012B0CD8244A2449254890
:1038800040F6171309F0BBFA404080F311884FF05F
:10389000030002DF022104F108000BF05FF9037856
:1038A000052B06461ED00E3B012B88BF0225AB0719
:1038B0000CD4164A1849174840F61B1309F09FFA12
:1038C000404080F311884FF0030002DF134A307844
:1038D00003232146FFF7DEFA204605F037F90020E2
:1038E00008B070BD0325E2E70D4B0E48CDE9063563
:1038F00005AA03234FF4C251019305930AF0FAF885
:10390000204605F023F96FF01500E9E73B0F0100B1
:1039100027110100780F010059110100E404010092
:10392000871101009002010010B5037D012B0446B0
:103930000CD0094A09490A4840F6765309F05FFA63
:10394000404080F311884FF0030002DF2046FFF76C
:1039500031FF002010BD00BF3B0F01009B11010093
:10396000780F0100084A0346D2F8140130B9D9682B
:1039700039B1196929B1C2F8143170476FF0770075
:1039800070476FF015007047000000202DE9F043EC
:10399000354CBFF35B8F87B004F1CC0353E8002FA5
:1039A00042F0020243E800210029F7D1BFF35B8F08
:1039B0002E4BE2792E4DDFF8BC80DFF8BC9020461C
:1039C000012A98BF1D46FFF78FF900262B4B019364
:1039D000CDE90250284900963346032230460AF0CA
:1039E0008CF827460125E3799D4207F107072CDB78
:1039F00094F868502846FFF701FAB4F86E30059342
:103A0000B4F86A301C490290CDE9035300251C4BE1
:103A1000019303222B46284600950AF06EF894F88D
:103A200069603046FFF7EAF9B4F86C300290CDE9EE
:103A30000363144B1049CDE9005303222B4628465B
:103A40000AF05BF807B0BDE8F0833846FFF74CF9A1
:103A50000023CDE90250CDE900680322494618460B
:103A60000AF04BF80135BEE70000002033080100E2
:103A7000BE110100D111010090020100C21101002C
:103A8000E21101002012010010B5FFF70BFC044603
:103A900008B9FFF77BFF044B1B681BB12046BDE84C
:103AA0001040184710BD00BF4C10002070B5314DBC
:103AB000D5F8143190B006467BB92F4B0E932F48A2
:103AC00002230DAA4FF482516FF0120409930D9353
:103AD0000AF010F8204610B070BD05F1CC02BFF31B
:103AE0005B8F52E8003F43F0010142E800100028DC
:103AF000F7D1BFF35B8F13F0010338D1204A166072
:103B0000002000216FF00802CDE90601CDE9023264
:103B1000CDE9003304931B491B4B1C484FF4207222
:103B200007F078FF1A4919480BF04CFDD5F814310D
:103B3000DB689847044660B1164B0DAACDE90E30FC
:103B40004FF4C25103230D4809930D9309F0D2FF9E
:103B5000C0E73EB9FFF7A6FB04460028BAD1FFF73D
:103B600015FFB7E705F1BC0008F01AFAB2E76FF0ED
:103B70007704AFE700000020471201009002010027
:103B80004C100020A025002049360000000B00202A
:103B9000601201006612010000487047130801001E
:103BA000F8B50B4F06460025FB79ECB2A34202D8CC
:103BB0006FF0010409E0C4EBC40107223944304628
:103BC00009F010FF01350028EED12046F8BD00BFF6
:103BD0000000002038B514490622054609F002FF0E
:103BE0000446E0B1062142F20500FFF7A1FA0446BF
:103BF000B8B10622294608300AF09FFF214600226C
:103C000042F20500FFF7CEFA044640B90622064804
:103C1000294609F0F8FE054B012283F86020204672
:103C200038BD6FF06804FAE7610000200000002052
:103C300030B5044685B00D46A1B10023072202A984
:103C400028460293CDF80B3009F0CCFE50B1124853
:103C5000C4EBC40407222946204409F0D4FE002006
:103C600005B030BD684609F037FF0028F8D1684636
:103C7000FFF796FF0028F5DA0748C4EBC4040444B4
:103C800007226946204609F0BEFE002DE7D0072234
:103C900021462846E1E700BF0000002038B50D4668
:103CA0000649CC7938B12B689C4228BF1C46C4EB2E
:103CB000C40209F0A8FE2C6038BD00BF000000203F
:103CC00070B50C468AB0054618B954B36FF01500AC
:103CD00025E00023072202A90293CDF80B3009F05A
:103CE00081FE0028F1D02B78012B04D1AB7903F0B1
:103CF000C003C02B0CD01E4B0893022301930793E3
:103D00001C48002307AA4FF4825109F013FEDDE797
:103D10002846FFF745FF0028D7DB6FF077000AB091
:103D200070BD154EF379012B1ED0BFF35B8FD6F813
:103D3000CC30BFF35B8FDB070BD4002DC6D007223E
:103D400004A928460494CDF8134009F04BFE00283E
:103D5000BCD0F4792946631C2046F371FFF768FF55
:103D6000002808BF2046DAE76FF00B00D7E700BF56
:103D700082120100980201000000002070B58AB094
:103D8000064601AA002141F20900FFF70BFA04469A
:103D900070B11F4B08930223029307931D48002321
:103DA00007AA4FF4845109F0C5FD00200AB070BD88
:103DB000019B9D6802900135ADF80C00062202A916
:103DC000284609F00FFE18B9019804F0BFFEECE791
:103DD000FF23062204A928468DF810308DF81130F3
:103DE0008DF812308DF813308DF814308DF81530B1
:103DF00009F0F8FD0028E7D006222946701C09F0DA
:103E000002FE0198347004F0A1FE0120CEE700BF4D
:103E1000B01201009802010007B56846FFF7AEFF37
:103E2000044BD87118B169460020FFF701FF03B0B9
:103E30005DF804FB000000202DE9F041244B93F8CD
:103E4000BA4014F0010488B007460E460CD1214B4D
:103E500006930223019305931F48234605AA4FF4B6
:103E6000845109F067FD14E06A4600214FF60940CD
:103E7000FFF798F9054680B1184B0693022301938A
:103E800005931548002305AA4FF48451002409F036
:103E900051FD204608B0BDE8F081009B9B685C782E
:103EA000B44228BF34464FF016089E1CAC4206DCD4
:103EB000009804F04BFE002CEBD1094BC8E708FB3F
:103EC00005701622314609F09EFD0135EEE700BF70
:103ED00000000020CE12010098020100FA12010039
:103EE0001A130100F0B5154EF47989B0F4B9012127
:103EF00002A8FFF7A1FFF071C0B1162702ABE5B22F
:103F000007FB053106220DF1010009F07CFD0123BC
:103F1000694628468DF80030FFF78AFE20B9F2790D
:103F20000134E3B29A42E9D809B0F0BD0021084655
:103F300009B0BDE8F040FFF7C3BE00BF000000209D
:103F40002DE9F84311F0010405780E4690461F460E
:103F500026D0234C2AB1880603D594F8D0305906D0
:103F60003AD5C5EBC5034FEAC509E35C012B08D080
:103F7000A9EB0505635DB8F1000F0CD13B70002083
:103F800007E0072010FB05302044FFF723FE002840
:103F9000EED0BDE8F883B20648BF43F00203EDE778
:103FA0004B0715D5DFF83880C5EBC503EE0018F8D0
:103FB0000330012B0AD1072010FB05304044FFF7E6
:103FC00009FE751B18F805303B70E2E72046F8E75C
:103FD00009F0D8FD0123F7E76FF08500D9E700BFAE
:103FE0000000002070B5144EF57988B01DB1002492
:103FF000204608B070BDFFF70FFF044660B10F4BBD
:1040000006930223019305930D482B4605AA4FF40E
:10401000825109F08FFCEBE7F579002DE7D1FFF72E
:1040200061FF04460028EAD1701CFFF7D3FD044667
:104030000028DDD0034BE3E700000020431301001C
:104040009802010062130100436837B50446580521
:1040500002D5002003B030BD22690AB1D907F8D5D6
:104060001A4D2078EB798342F3D9C0EBC0000023CE
:104070000722694628440093CDF8033009F0B2FCCA
:104080000028E6D06068C20706D495F86830082B8F
:1040900002D8A3689F2BDCD910F0300F02D023691F
:1040A000002BD6D0C30601D4236943B9D4E9022337
:1040B0009A42CED81F2ACCD9B3F5804FC9D800F484
:1040C0006030B0F5603018BF0120C3E70000002069
:1040D0002DE9F04F0C468BB0202182461646FFF7A3
:1040E00027F8054600285ED0202108300AF01FFD81
:1040F00020220021814609F091FC04EBC60309F15E
:10410000010B00930026D4F80080002362689342DC
:104110000DD3009B0834A342F5D100222946504616
:1041200089F800600BB0BDE8F04FFFF73BB898F896
:10413000012098F800C0B01C81181F291CD9BCF1BF
:10414000090FC0F11F0201D1002A13DC174B08939D
:104150000223039307931648002307AA4FF48251C2
:1041600009F0E8FB284604F0F1FC6FF015000BB0F5
:10417000BDE8F08F4FF0080CD7B2791C0BF8061091
:10418000711CC9B25BFA80F00BF801C0D8F80410BA
:104190000193023709F037FC019B3E44F6B201332C
:1041A00008F10808B2E76FF06800E0E78513010046
:1041B000000201002DE9F04F0F6993B03C1E064646
:1041C0007D48059318BF012409F0FFFC9346820740
:1041D0000D4640F1E8800846FFF736FF28B96FF03A
:1041E0001504204613B0BDE8F08F284609F0DCFC2A
:1041F00081460028F3D006F11008404609F0E5FC9E
:104200004306C0F3801A00F1D1800F22514608A85E
:1042100009F004FCAB68ADF820306868EB68ADF8D5
:10422000223009F0C3FC32782B788DF82D009A42A9
:104230008DF82EA004D060486FF4805109F0CBFCBB
:104240005E4A2B78337082F86730696822460DF138
:1042500025033046FFF774FE04460028C1D106F15D
:104260000900002F47D02969072209F0CCFB284616
:1042700009F04EFD6B68DC07824645D5002F40D023
:1042800013F0100F14BF0423012329698DF8243083
:1042900007220DF1260009F0B6FB4FF000090F21AF
:1042A00042F20600FEF744FF0446002800F0818039
:1042B0000F2208A908300AF040FC2146002242F2F1
:1042C0000600FEF76FFF044600288AD16FB3012174
:1042D000304609F02DFD0446002834D0384B1093A9
:1042E000022307930F93374800230FAA4FF48251FC
:1042F00009F020FB75E70C970722CDF833700CA965
:10430000B3E78DF82470CAE7980504D41C9B13B951
:10431000BAF1020F03D102238DF82430BFE7032343
:10432000DDF870908DF82430B9E71D9B0093CDE93E
:10433000019A1C9B059A5946304609F072FC0446C6
:104340000028C4D04DE767BB6A6882F00202C2F35E
:10435000400240460D2109F04DFC0AF1FF335A425C
:104360005A414046072109F045FCAAF102014A42A0
:104370004A414046082109F03DFC6A68404602F087
:104380000102092109F036FC4A4640460A2109F09B
:1043900031FC6A680C21C2F38002404609F02AFC15
:1043A0001FE70246D5E76FF00A041AE76FF07704BB
:1043B00017E76FF0680414E7CC000020000000202D
:1043C0009E1301000002010073B51546069A0C46C3
:1043D000CDE900322B460A4601461148FFF7EAFEB6
:1043E00021460646002340F201109D4202D130468C
:1043F00002B070BD0A88824204D14A6812B11278B4
:10440000D20702D401330831EFE7064906480BF022
:104410004DFA4FF470220023034807F05DFEE6E7F3
:1044200018000020654400003000002008B50B484B
:1044300009F0A3FC0A486FF4005109F0CCFB0848CE
:1044400009F0C3FB03465B06C0F3801005D5BDE849
:1044500008400248002109F06BBC08BD180000208C
:104460002800002000B589B0FFF7E0FF074BCDE939
:1044700006300323019305930548002305AA4FF452
:10448000C45109F057FA09B05DF804FBB9130100F3
:10449000000201002DE9F047114FDFF848A0042485
:1044A000013CE4B2FF2C18D004EB44064FEA840927
:1044B000360104254FF00C080AE018FB05610A1DBF
:1044C00005EB09003A4439440AEBC00009F0C8FC86
:1044D000013DEDB2FF2DF0D1E2E7BDE8F08700BF6E
:1044E000D01000205010002070B506460D461C4626
:1044F000A2B1012362782078801A10F003002CD03A
:104500001BB3012828D00132D2B222701C4B0122E9
:104510005A552946304604F0A3F91CE00AF01BFA6C
:104520000028E6D02946304604F07AF90028E0D089
:1045300030230C226B4302FB0633124A1A44937A4F
:10454000D27A9B1A18BF0123D4E70232D2B222706A
:10455000D4E902039847002070BD002BF8D0013247
:10456000D2B222700423302212FB05320C2313FB3B
:104570000623044A60681A44214609F074FCC5E722
:10458000BA1C0020D01000202DE9F04F554B1A5CCA
:1045900089B00446002A00F09E804FF0000803F81E
:1045A000008000EB40031B014F4E049304253C2385
:1045B00013FB0053F3180393C346013DEDB2FF2DE7
:1045C0000FD1BBF1000F00F08680B8F1000F40F072
:1045D000828042462146204609B0BDE8F04F04F0F3
:1045E000FFB800234FF00C09079309FB05FA3023AD
:1045F00003FB04A3F118F058496807AA09F03AFC34
:10460000049B19FB053906EB090307460293002FAB
:1046100043D0079B93F800905A78A9EB020909F060
:104620000309B9F1010F04D1013A5A70D3E902022A
:104630009047079B05931A78D1B201915978521A85
:1046400002F00302012A19D0302000FB04A03044FC
:1046500002994068002209F015FC059B019A5978DF
:104660005A701A785F60521A02F00302012A05D1CB
:104670005970039A1946384609F0F5FB302303FBBD
:1046800004A3F118F058496807AA09F0F3FBB9F13F
:10469000010F0746BBD1BDB9B0B930220C2162432E
:1046A00001FB05223244937AD07A984216D1302306
:1046B000634301FB053333441A7A597A91421CBF94
:1046C0005A724FF0010878E7064B01221A5521462D
:1046D000204604F0C5F809B0BDE8F08FD3724FF062
:1046E000010BE4E7BA1C0020D01000202DE9F04FA8
:1046F000C37F8BB00446002B40F0BD83827F4AB15C
:10470000456A0346012204210420AC460BB0BDE8F3
:10471000F04F6047436904930121837A8177C07A1F
:10472000984257D00B44DBB2022B08BF0023A37280
:1047300004EB83030191DB680093009A049B13440C
:1047400023F07F436361637F03932368029363686D
:104750000893637A013B5FFA83FB002305934FF0D4
:10476000FF09BBF1FF0F38D1637F039A9B1A18BF73
:1047700001230293019B002B00F0238203F0BCFC79
:10478000049B009FA0EB030B2368069300232BF0F0
:104790007F4B0793667FFF2E0DD035B205EB4505A5
:1047A0002B010893069B03EB0515AB68BB4240F257
:1047B000C880DB1BAB60DDE9012303992046B142D1
:1047C00018BF13464946029309F0CFFB2568002322
:1047D000677F6BE101920092B5E7089B03EBCB0882
:1047E000D8F80430069398F80310342098F8027033
:1047F0008F4200F0DA82069B98F8005017FB00F217
:104800009E187B1CDBB29D4208BF002388F8023053
:10481000069B9A5C042AE9D9717801EB41052B01CA
:104820000993029B03EB0515082A6B78A878A3EB84
:104830000003DBB218D8BBB1052A40F0A982726828
:10484000002A40F0B782B268002A40F0B382F268D2
:10485000002A40F0AF823269002A40F0AB827269D0
:1048600032F07F4240F0A6820121304609F073FB0E
:10487000B9E7696A914FDFF848A2CF19574581BF60
:1048800001F1E87101F5D43101F5A5716962D5E94D
:1048900008178CBF4FF0010A4FF0000A791A8244C2
:1048A0000EF1FF3E6962A3EB0A03A5F81EE0A7E242
:1048B000D5E908173944814FDFF804A2CF195745CD
:1048C0009DBFA1F1E871A1F5D431A1F5A57169628F
:1048D00096BF69620021012101440EF1010E0B44D3
:1048E000A5F81EE093E2062A05D0204609F0EAFA70
:1048F000AB78A8606B70227F73789A4240F0B982DF
:10490000FF2323773378062B01D0082B0DD1706855
:104910006369C21A11020BD422F07F43009A134438
:10492000A2699A4288BFA361A3E203F0E5FBEFE727
:10493000009A1B1A23F07F439A428CBFD31A00239C
:10494000EEE7079AB5F81EC01A440792A26993428F
:10495000A7EB0307ABEB030B25BFFF232377D31A8A
:104960000023A361A9786B78A869AA6A5B1ADBB2F5
:1049700060B1022B0AD1BCF1000F07D122B192F82D
:1049800008E0BEF1010F01D02677A0610020A860E9
:10499000DDF820E0069810F80E006077D5F804E006
:1049A000BEF1000F19D1002A63D0107A012860D11E
:1049B000137A012B13D1AF606970049B079A616968
:1049C0009A18284609F0A9FA069B089A03F802905B
:1049D0006B7801336B70B146DCE6002AE8D1BCF19C
:1049E000000F24D1A88B80460022D5E908130B4480
:1049F0003249DFF8CCA0591851459FBFA3F1E873A5
:104A0000A3F5D433A3F5A5736B6292BF019B6B62D0
:104A100000237344B8F101081A44E6D295F82C300B
:104A20002BB3002360441844AA60E883C5E769708B
:104A30000020D8E7D5E908130B442049DFF880A00F
:104A4000591851459FBFA3F1E873A3F5D433A3F5DB
:104A5000A5736B6292BF019B6B62002373441A447F
:104A600008F1010893451FFA88F3E3D8DAE798467E
:104A7000F8E74BB1012B02D0BCF1000F04D02B6A38
:104A800013B1696A01209847AB786B704E46A2E774
:104A900007EB4702110105EB021215F801E0966AD7
:104AA0001EB1317A012900F06D817746FF2FEFD1D9
:104AB000002B029A18BF1A46029286E05A2B17FF63
:104AC000592B177FA069009B834280F05F81C31A36
:104AD0000193D6E9003A9A455BD24FF0000CA3EB64
:104AE0000A0B71466346FF2906D0D2F818800CEBFA
:104AF0000800834506901CD29168AAEB0101194475
:104B0000716093607146FF23FF2947D001EB41009C
:104B10004FEA001905EB0010D2F80880D0F808C061
:104B2000E04538D9A8EB0C0393600B4615F8091043
:104B3000EAE701EB4101080105EB01110490D1F80E
:104B40002890B9F1000F07D099F80890B9F1010F3A
:104B500002D10146695CC6E7D1F80890B9F1040FAB
:104B60000ED9ACF104034B445B45069828BF5B4665
:104B7000834205D9B3EB080302D001988342BBD22C
:104B80008869049900EB09030193CC44ABEB08035B
:104B9000E0E70023B0E7ACEB08018160FF2B08D011
:104BA0001BB203EB43031B0184F81DE0E95C1170A9
:104BB000EF54D38B013BD3834FF0020333720123B5
:104BC00006E64946204609F0D0F9637F039A9342EE
:104BD000059B40F0D1803BB9657A63680093013D45
:104BE000EDB20027FF2D16D1029B4BB1637FFF2B47
:104BF00079D103F05BFA18B9A06103F07DFA606126
:104C00000023A377E37F002B00F03581656A2346FC
:104C10000122032178E5009B03EBC506D6F804804A
:104C20007378F2789A4202D1013DEDB2DAE734228C
:104C300013FB02F208EB020318F80220022A12D03A
:104C4000032A40D0012A05D19F62DA6A12B1196B9A
:104C5000986A9047737832780133DBB29A4208BF82
:104C600000237370DCE7D3E9019099F80020D3F8B2
:104C70000CE0D4F800C06169FF2A03D0D0F800A08E
:104C8000514509D0627F01600020FF2A0CD189F8CC
:104C90000020CEF80000D7E702EB42021201DEF856
:104CA00000001CF80220F0E702EB42014FEA011B72
:104CB0000CEB0111D1F808A0896950440029E6D114
:104CC0001CF80B20E1E75A78217A914208D9216833
:104CD00002EB420201EB0212197982F82D10B3E7C0
:104CE00001229A62B1E7039BFF2B06D103F004FA7D
:104CF000054603F0CDF900B96561637F2268DFF8EE
:104D00007C81DFF87C91DFF87CA103EB430302EBAD
:104D100003130A269F6803F0EFF96569431B23F02C
:104D20007F430333BB422CBFED18ED1925F07F45BF
:104D3000A36A83462846984703F0DEF9A0EB0B03ED
:104D400023F07F43A5EB0B05033325F07F45AB42F2
:104D500006F1FF367FF654AF002EDCD140F63E134D
:104D600042464946504608F04AF8404080F31188D0
:104D70004FF0030002DFCEE7002B7FF437AF0123B3
:104D8000029329E7237FFF2B7FF49CAE00239FE64D
:104D9000012B3FF4A8AD04212346656A0122084691
:104DA000A847012388F8027005930BF1FF335FFADF
:104DB00083FBD6E4012BEED1204609F083F863692A
:104DC000A8600746079303F097F9079B0099C31A59
:104DD00023F07F430B449F4298BF6969024698BF06
:104DE000C91B68689BBF5B186B61FB1A0023A8B1E5
:104DF000B18A99B101F1FF3C1FFA8CFCA6F814C0EE
:104E00009842B5F81EE002D2E6453FF632ADB5F85D
:104E10001EE0F4453FF64CADA5F81CC07168B068C3
:104E2000AF6A0B44AB606B6903446B611FB13B68B5
:104E30000BB1091A79600799284609F06EF8F268F3
:104E4000AB691344326993428CBF9B1A0023AB6158
:104E5000B37D03B1EB70F37D13B1013B85F82C30CA
:104E6000029B099A03F802906B7896F8019001333F
:104E70006B700021F9E40BB0BDE8F08FDF13010087
:104E800069150100780F0100F0B5059F9DF81850D5
:104E9000DDF81CC008B10120F0BD184C2172226061
:104EA0000139C9B2FF2916D1637267603422013B10
:104EB000DBB2FF2B16D1002DEDD1089B2362099B9D
:104EC00063620A9BA3624FF6FF73C4E90555A3838F
:104ED00065812846E0E701EB410602EB061686F8FD
:104EE0002D00DDE707EBC301C1F804C017F833005C
:104EF0002D1A00FB02CCEDB2D9E700BF90110020C3
:104F0000074B2C2202FB003110B44C6A34B10B4623
:104F1000A446012210BC03210220604710BC704748
:104F2000901100202DE9F8430646084611461A461E
:104F3000224B2C2406FB0439D9F8043003EBC00CB7
:104F400013F830309CF803707D1CEDB2AB4298BF73
:104F500000259CF80130AB422ED0342317FB03F719
:104F6000DCF804304FF00408DC1903F80780089BD4
:104F7000A360099BE3600A9B23610C9BA361BDF8BE
:104F80002C30A382119B63620D9BE3610E9B236215
:104F90000223A3620F9BE362109B61706260236334
:104FA0008CF80350D9E9083598474B460022414612
:104FB000A847A06ABDE8F8830120FBE79011002014
:104FC0002DE9F041234C0646084611462C2206FBEB
:104FD0000248D8F8044004EBC00C14F830209CF8C8
:104FE00003707D1CEDB2AA4298BF00259CF80120F9
:104FF000AA422CD0342217FB02F7DCF80420D41983
:105000004FF0050E02F807E06360069BA360079B64
:10501000E360089B2361BDF82430A3829DF828300B
:10502000A3759DF83430E3750223A3620B9BE36202
:105030000C9B617023638CF80350D8E908359847BE
:10504000434600220421A847A06ABDE8F081012060
:10505000FBE700BF901100202DE9F8431A4C0546EC
:10506000084611462C2205FB0249D9F8042002EB20
:10507000C00712F83020FE78741CE4B2A24298BF38
:1050800000247A78A2421DD0342216FB02F67A68F8
:105090004FF0070C02F806C002EB06080222C8E92E
:1050A0000A23089B88F80110C8F83030FC70D9E951
:1050B000083498474B4600220421A047D8F828001E
:1050C000BDE8F8830120FBE79011002070B504468D
:1050D00000200D4609F042FA064660B9062229462C
:1050E0002CB1064808F08FFC3446204670BD0448B9
:1050F00008F089FCF9E70C24F7E700BFC41C002086
:10510000BE1C00200128024605D8044B0448002A92
:1051100008BF184670470020704700BFBE1C002023
:10512000C41C002008B50248FEF71CFC002008BD86
:105130002C050100F7B5284E00274FF0FF324FF045
:10514000FF33304606F0C4FD0028F6D090F9053054
:1051500001905A1E032A2DD8022B23D100220023AE
:1051600001210020FDF728FE044618B101460198F0
:1051700000F01AFC019B01A81F6000F0EFFC002C5E
:10518000DBD0204609F0C3FC21460546002009F08B
:10519000C2FCAB8904462846DBB1FEF765FB07F08D
:1051A000EFF9ECE74FF0FF324FF0FF330120FDF74E
:1051B000D9FDD9E7094A0A490A484FF4CD7307F0E7
:1051C0001EFE404080F311884FF0030002DF0024F0
:1051D000D0E703F0BBFCE2E7AC0500202D14010092
:1051E0002C1D0100780F010073B5104D104E0DF10C
:1051F000020101A800F060FC0028F8D1019B6BB10E
:1052000000F06CFC019C204609F006F901996071E0
:1052100030460AF05DFA019B002BE8D14FF0FF32D7
:105220004FF0FF33284606F0ADFDE0E7940500207F
:10523000AC050020D0B5214890B000F0E1FE044656
:1052400078B11F4BCDE90E30032309930D931D4810
:1052500000230DAA4FF4C25108F06CFB204610B099
:10526000D0BD09F0DBF8002600276FF00903CDE977
:105270000243CDE90667CDE90044134B134904947A
:105280004FF4E072124806F0C5FB124910480AF0CC
:1052900099F96FF00703CDE90243CDE90667CDE93F
:1052A00000440D4B0D4904944FF480620C4806F005
:1052B000B1FB0C490A480AF085F9CFE794050020B4
:1052C0006D14010040020100E95100004028002057
:1052D000800B00208A14010035510000202A002094
:1052E000000C00209414010030B5838989B0044675
:1052F0006BB9194A06920222019205924FF482512B
:1053000005AA164808F016FB6FF0150016E0037D9D
:10531000B3B902A9029300F0D3F858B1FEF704FB29
:10532000029D3DB1284609F077F8687102990C4852
:105330000AF0CEF9204603F009FC002009B030BD88
:10534000084ACDE90623032301930593002305AA08
:105350004FF4C251D5E700BF9A140100400201008A
:10536000AC050020AB14010038B5074B0546012100
:10537000188808F0E3FB01210446083009F0D7FB48
:105380000570204638BD00BF041C002038B5064B10
:10539000054618880C4608F0D1FB21462860BDE878
:1053A0003840083009F0C3BB041C0020F0B50138B8
:1053B00087B0144609287ED8DFE800F0051B327D4F
:1053C0007D5B7D3E64710D211046FFF7DFFF0223F8
:1053D00000214370C370032301708170017141711A
:1053E0008371C171017241728172C17201730024B3
:1053F00013E041211046FFF7C9FF00240546402273
:1054000000F8014B214608F009FB6B7863F0580364
:105410006B70AB7843F00303AB70204607B0F0BD70
:1054200009211046FFF7B2FF002400F8014B0822C3
:10543000214608F0F3FAF0E7204B6A4603F1100723
:10544000164618685968154603C50833BB422A46F4
:10545000F7D118681B7928602B7116212046FFF7B9
:1054600095FF002400F8014B1522314608F0CBFAD5
:10547000D3E789680020FFF729FE0020FFF774FFBB
:105480002060B4E718211046FFF780FF002405468E
:10549000012100F8024B09F07CFA6870BDE7212178
:1054A0001046FFF773FF0146002401F8114B01304D
:1054B00009F0C5FAB1E76FF01504AEE7DD1401009D
:1054C00070B583898CB00025022B044604950ED854
:1054D000D84B0A93022305930993D7482B4609AA70
:1054E0004FF4825108F026FA28460CB070BD032113
:1054F000083009F033FBA28983789A4201D2CF4B5E
:10550000E7E70388CE4EC3F309003380C3F3852356
:10551000082B00F0AE8008D8032B0FD0042B18D036
:105520003088012108F01CFB76E13F2BF8D104AA5A
:105530002146FFF73BFF1630F2D07FE0032805D06D
:10554000632801D00128EBD1002063E100F0B6FD13
:10555000FAE701380828E3D801A353F820F000BF88
:1055600085550000AF550000415600002155000050
:105570002155000021550000215500002155000053
:105580005D560000092104A8FFF700FF0023037007
:105590008370C3706FF00E030C2243710523837177
:1055A000427002714FF0FF33C371037246E0412134
:1055B00004A8FFF7EBFE00210446402200F8011B7F
:1055C00008F02CFAA379217FA27E63F03F03A37138
:1055D000E37A43F00403E372E37B43F02803E373CD
:1055E000237C43F002032374E37D43F00403E3755B
:1055F000E37E63F03C03E37694F8233063F0070323
:1056000084F8233094F8243043F0070384F82430DE
:1056100094F8283061F03C0143F00403217784F8CA
:105620002830617F94F8273041F0080162F00802C9
:1056300063F07F036177A27684F82730049854E7FB
:10564000092104A8FFF7A2FE00210446082200F861
:10565000011B08F0E3F960236371EFE7072104A859
:10566000FFF794FE0146002001F8010B08F0C3FE8D
:10567000E4E701384D283FF653AF01A353F820F07B
:1056800049550000B9570000D157000021550000CE
:105690000D580000B3580000CF580000DF5800003C
:1056A000EB580000F758000021550000215500007C
:1056B00021550000215500001D58000045580000EC
:1056C0004B580000535800002155000021550000A0
:1056D00021550000215500005B5800008158000052
:1056E0002155000021550000215500009758000069
:1056F00021550000215500002155000021550000D2
:1057000021550000215500002155000021550000C1
:105710002155000021550000015900000F590000DB
:10572000175900001D59000033590000535900005B
:10573000715900007B5900002155000021550000DF
:105740002155000021550000215500002155000081
:105750002155000021550000215500002155000071
:105760002155000021550000215500002155000061
:105770002155000021550000215500002155000051
:105780002155000021550000215500002155000041
:105790002155000021550000215500002155000031
:1057A00021550000215500008F59000021550000AF
:1057B0002155000085590000042104A8FFF7E6FDEB
:1057C000002303701B22837003234270C37035E7EC
:1057D000092104A8FFF7DAFD00210446082200F899
:1057E000011B08F01BF908F022FEC0F307236070CC
:1057F000A370000CC1F307236171090CE070E17123
:10580000000A090A2071A371217217E7A16801201B
:10581000FFF75CFCFFF7A8FD04900FE7022104A846
:10582000FFF7B4FD00230370044608F06AFF6070C0
:1058300004E700BFF214010038020100081501005E
:10584000041C002008F05FFFE4E7A06801F042FAC2
:10585000E0E7A06801F030F8DCE7A06806AA0023C2
:1058600000F1100109F02DF8112104A8FFF78EFDB9
:10587000002300F8013B102206A908F0C4F8DDE679
:10588000092104A8FFF782FD002300F8013B08214D
:1058900001F0D2FED2E6092104A8FFF777FD00232C
:1058A0000322037042708370C3700371437183716C
:1058B0007AE6A468A57BA37962792179208802958C
:1058C000657B01950734009400F0CAFDA2E7022130
:1058D00004A8FFF75BFD002303704370AEE6A168E8
:1058E00011F8010B00F0DEFE94E7A16811F8010B3E
:1058F00000F0E0FE8EE7A3681878FAF761FD89E70B
:10590000A06800F11702C11D01F034FA82E7A06817
:1059100001F0D0FA7EE708F004FF7BE7022104A83B
:10592000FFF734FD044608F0FAFE00236070237090
:1059300084E6A168072206A808F065F8072104A8F4
:10594000FFF724FD0446411C06A801F029FB207046
:1059500074E6A168072206A808F055F8072104A8F4
:10596000FFF714FD0446411C06A801F03BFBEEE7DF
:10597000A368187800F0D0FF4CE7A368188800F0FF
:10598000E3FFE1E5A068C17901F046FB42E70321AE
:1059900004A8FFF7FBFC0146002301F8023B01309D
:1059A00008F036FD4AE600BF08B50379032B0CD09A
:1059B000064A0749074841F6AB4307F020FA404042
:1059C00080F311884FF0030002DF08BD26150100A7
:1059D0002C1D0100780F010010B5044608F0C1FE2F
:1059E00060B1114A1149124840F61C0307F007FA4A
:1059F000404080F311884FF0030002DF08F0F4FE0E
:105A000060B1094A09490A4840F6210307F0F7F94D
:105A1000404080F311884FF0030002DF2046BDE8CC
:105A2000104006F089B900BF8A150100C5150100B4
:105A3000780F01002DE9F843DFF86090184EC84652
:105A400018F8047B77B1F4787278B3780134E4B253
:105A5000A24208BF00249C4204D0404608F0B8F996
:105A6000054608B9BDE8F8830E4808F0B1F928B931
:105A700028460D49BDE8F84308F0C3B90560F2783F
:105A8000337802FB0363586099F80030F470013BEF
:105A9000013F89F80030FFB2D4E700BF0C120020AC
:105AA000F80100204C12002010120020086001486C
:105AB00006F042B9C013002013B500230360064B63
:105AC000044601AAD3E9000108F0D4F908B1019B0A
:105AD0002360002002B010BDA413002013B51849A4
