:10000000A00E0020391600004D5100000D16000012
:100010000D1600000D1600000D1600000000000077
:10002000000000000000000000000000211300009C
:100030000D16000000000000CD1200000D1600009B
:10004000D1130000D1130000D1130000D113000020
:10005000D1130000D1130000D1130000D113000010
:10006000D1130000D1130000D1130000D113000000
:10007000D1130000D1130000D1130000D1130000F0
:10008000D1130000D1130000D1130000D1130000E0
:10009000D1130000D1130000D1130000D1130000D0
:1000A000D1130000D1130000D1130000D1130000C0
:1000B000D1130000D1130000D1130000D1130000B0
:1000C000D1130000D1130000D1130000D1130000A0
:0C00D000D1130000D1130000D113000078
:1000DC0053B94AB9002908BF00281CBF4FF0FF31A3
:1000EC004FF0FF3000F00CB8ADF1080C6DE904CE08
:1000FC0000F008F8DDF804E0DDE9022304B07047F5
:10010C00704700BF2DE9F04F07468C460846099E04
:10011C0015463C461946002B40F0C6808242B2FA86
:10012C0082F746D94FB1C7F1200E24FA0EFE00FA21
:10013C0007F3BD404EEA030CBC404FEA15481FFACA
:10014C0085FEBCFBF8F9220C08FB19C309FB0EFA5F
:10015C0042EA03439A4528D9EB1809F1FF3004D23F
:10016C009A4502D9A9F102002B44A3EB0A03A4B2CD
:10017C00B3FBF8F208FB123302FB0EFE44EA034415
:10018C00A64514D92C1902F1FF3303D2A64501D987
:10019C00931E2C44A4EB0E0443EA00401EB1FC4019
:1001AC00002334607360BDE8F08F4846DDE71346EA
:1001BC00F0E702B9FFDE87BB831A01214FEA154E27
:1001CC00AAB2B3FBFEFC200C0EFB1C330CFB02F89A
:1001DC0040EA0343984563D9EB180CF1FF3004D285
:1001EC00984502D9ACF102002B44A3EB0803A4B24E
:1001FC00B3FBFEFC0EFB1C330CFB02F244EA034483
:10020C00A2424FD92C190CF1FF3304D2A24202D9CD
:10021C00ACF102032C44A41ABEE7C7F1200C20FA5F
:10022C000CF800FA07F324FA0CFCBD404CEA03026C
:10023C004FEA154EABB2B8FBFEFC110C0EFB1C804A
:10024C000CFB03F941EA0040814504FA07F423D979
:10025C0028180CF1FF3104D2814502D9ACF102010E
:10026C002844A0EB090092B2B0FBFEFC0EFB1C0074
:10027C000CFB03F842EA004398450FD9EB180CF13C
:10028C00FF3204D2984502D9ACF102022B44A3EB05
:10029C00080342EA014191E76146E2E76246F6E76C
:1002AC006046A2E76346B6E7834205D90EB1C6E9BC
:1002BC0000700021084676E7B3FA83F181B98342D6
:1002CC0001D3BA420AD8BC1A60EB030301209C4646
:1002DC00002E68D0C6E9004C002164E70846F7E719
:1002EC00C1F1200C8B4022FA0CF41C4302FA01F5EC
:1002FC0000FA01F327FA0CF220FA0CFB4FEA14492E
:10030C001343BBFBF9F81FFA84FE09FB18BB1A0C4C
:10031C0008FB0EFA42EA0B42924507FA01F73ED966
:10032C00A21808F1FF3004D2924502D9A8F10200BC
:10033C002244A2EB0A029BB2B2FBF9F809FB182289
:10034C0008FB0EFE43EA024296452AD9A21808F190
:10035C00FF3304D2964502D9A8F10203224443EAA2
:10036C000040A0FB0593A2EB0E029A42CE469846A3
:10037C0002D306D14F4504D2B9EB050E63EB04084A
:10038C00013886B1B7EB0E0362EB080707FA0CFCD9
:10039C00CB404CEA0303CF40C6E900379CE740460C
:1003AC00C7E74346DBE73146FDE600002DE9F047A1
:1003BC008EB0574803F040FD044628B955480EB09E
:1003CC00BDE8F04704F042BD01460268524804F013
:1003DC003DFD04A9204605F0C3FA68BB9DF8153015
:1003EC000093BDF81020BDF812309DF814104B4846
:1003FC004B4FDFF83091DFF830A1DFF8308104F09B
:10040C0025FDBDF81230B3F5905F34BF00230123F6
:10041C003B70204605F0E4FA051E06DBA368392183
:10042C00DB682046984750B1054615F10B0F65D097
:10043C003F48294604F00AFD0EB0BDE8F08720467F
:10044C0005F08BFA06AA06461B21204604F0DBFCBD
:10045C0008AA20461C2104F0D6FC0AAA20461E211C
:10046C0004F0D1FC0CAA1F21204604F0CCFC05F0B2
:10047C0084FE4FF47A7CA0FB0C020CFB0121C20B16
:10048C004FF03C0E42EA4142B2FBFCF00CFB102256
:10049C00B0FBFEF10EFB1100B1FBFEF30EFB1311D2
:1004AC0002920190009152461021404601F0B4F99D
:1004BC00089B069A1F48414604F0C8FC0D9B0A99FC
:1004CC001D480093DDE90B2304F0C0FC1B482946B2
:1004DC0004F0BCFC3B782BB1B3791A0702D4184852
:1004EC0004F0B4FCB379DB0703D5F179154804F0BB
:1004FC00ADFC1548002104F0A9FC02E0484604F0CC
:10050C00A5FC00214FF4004004F07EFA81E700BF07
:10051C006067000067670000846700009E6700004A
:10052C005806002054680000CA67000059060020D5
:10053C0070680000DC670000066800002C68000092
:10054C003B68000047680000886800000B680133B6
:10055C000B60014B1B68184700000020014B186012
:10056C00704700BF0000002007B50B460021024673
:10057C000191034801A900F0E5F803B05DF804FB14
:10058C00590500002DE9F84FB0F8189019F008083B
:10059C00044693460DD001290CBF49F0100949F0CF
:1005AC002009A0F818908BF31188BFF36F8FBDE86A
:1005BC00F88F09F00709022907D1204604F053FCF3
:1005CC000028F0D00128238B4ED16769218B002F96
:1005DC0015DA256821F00701C4E9008841F0010112
:1005EC0021830026218B01F0070ACA4502D0A3689B
:1005FC00002B5AD10DB9002E71D0002356E001F01A
:10060C0007035A1F012A1ED821F00701062B256863
:10061C0089B2C4E900880AD13DB1638B2A461268BD
:10062C0001339BB2002AFAD1638341F0020121838A
:10063C00204604F018FC06460028D3D0238B43F048
:10064C0020032383CDE7042B0CD121F0070189B2C1
:10065C002183204604F007FC05460028C1D041F058
:10066C00200121830025BCE7032809D1226923F04E
:10067C000703166843F00603238300252F46B1E7D2
:10068C00042806D1226923F00703566843F00403BB
:10069C00F2E7052806D1226923F00703966843F098
:1006AC000503E9E700252E46E8E7012341F00801A0
:1006BC0021838BF31188BFF36F8FFBB985BB16B108
:1006CC001F492046B0474FF02003EFF3118B83F303
:1006DC001288BFF36F8F238B23F008032383238BA4
:1006EC00DA0625D523F0100323830121B4F81890E2
:1006FC0009F0070900297FF45EAF54E7A1680029CF
:10070C00DCD0D1F80090D1F804B03B4652462046DC
:10071C00D847B9F1000FD1D04946D9F80090F2E78B
:10072C0029463B46524620462D6804F0B8FBC5E7E7
:10073C0013F020011EBF23F0200323830221D5E7F1
:10074C00D74E00002DE9F04F91B08B4602909246A7
:10075C001C4600259AF8000008B928465FE32528B6
:10076C000AF1010707D0029B594698470028C0F2AE
:10077C005683013512E2182200210AA804F018FD54
:10078C009AF80130252B78D00022104696469446D4
:10079C001646394617F8013B2B2B00F09D8000F2D2
:1007AC009480202B00F09B80232B00F09B802EB19B
:1007BC009DF8306046F004068DF83060BCF1000FF7
:1007CC0005D09DF8306046F008068DF83060BEF11B
:1007DC00000F05D09DF8306046F010068DF83060A3
:1007EC0028B19DF8300040F020008DF830002AB17F
:1007FC009DF8302042F040028DF830209DF83020DA
:10080C0002F04400442803D16FF386128DF8302097
:10081C009DF830202A2B42F080028DF830207BD1BD
:10082C009DF8312042F001024B1C8DF831201A78D2
:10083C002E2A9DF831200CBF0121002161F34102C9
:10084C008DF8312074D15A782A2A6AD001330021CC
:10085C000A26184610F8012BA2F13007092F40F296
:10086C008E809DF830200E91C2F3400040EAD17189
:10087C0061F341028DF830205AE00AF102078DF83D
:10088C0033309DF83130D90740F1498154F8049B3D
:10089C00B9F1000F07DA9DF8302042F004028DF810
:1008AC003020C9F100095A0740F1428154F8048BF9
:1008BC00B8F1000F80F241819DF831306FF34103A4
:1008CC008DF831304FF0FF3837E12D2B0CD0302B19
:1008DC007FF46DAF01225CE74FF0010C59E74FF04C
:1008EC00010E56E7012054E7012652E70CFB0202E9
:1008FC00303A33461E4616F8010BA0F13007092F8B
:10090C00F4D9994293D09DF830100D92D20F62F326
:10091C0041018DF830108AE70B4600224FF00A0C8B
:10092C00E8E79DF8312042F004028DF831200233C3
:10093C001F4617F8012B6C2A41D025D8682A2BD0DA
:10094C006A2A46D04C2A4CD01F4617F8012B9DF82A
:10095C0031308DF83320782A00F2D980572A4DD8BF
:10096C00412A03D0453A022A00F2D1809DF8323058
:10097C00042262F302038DF8323001239EE006FB61
:10098C0001213039034664E7742A26D07A2ADBD158
:10099C009DF8313006220DE05A78682A9DF83120F6
:1009AC0006D1012161F3C6028DF831209F1CCCE7E2
:1009BC001346022262F3C6038DF83130C5E75A782C
:1009CC006C2A9DF8312001D10421EBE71346032258
:1009DC00F0E79DF831300522ECE79DF83130072225
:1009EC00E8E7BDF8303023F4F04323F0020343F47E
:1009FC00804343F00203ADF83030A6E7A2F1580172
:100A0C00202900F2848001A050F821F0DD0A0000BA
:100A1C001B0B00001B0B00001B0B00001B0B000032
:100A2C001B0B00001B0B00001B0B00001B0B000022
:100A3C00790900001B0B0000DD0A00009D0A000074
:100A4C007909000079090000790900001B0B0000EE
:100A5C009D0A00001B0B00001B0B00001B0B000071
:100A6C001B0B0000E50A0000DD0A0000010B000072
:100A7C001B0B00001B0B0000010B00001B0B0000EC
:100A8C00DD0A00001B0B00001B0B0000DD0A000040
:100A9C009DF83210012003F0780360F30201402B23
:100AAC008DF8321002BF9DF8301041F001018DF825
:100ABC003010632A31D1003B18BF01239DF8302040
:100ACC00C2F340010B4363F341028DF83020D8E6AA
:100ADC009DF832100220DEE79DF8322003F07803F7
:100AEC00A3F14000032161F3020243428DF832204E
:100AFC004341E3E79DF83220032113F0780F61F3B3
:100B0C0002028DF8322014BF01230023D6E79DF892
:100B1C00303043F001038DF830300023CEE79DF9DF
:100B2C003020002AB4BFDDF834904FF0FF39BAE61C
:100B3C009B077FF5C7AEDDF838809DF83110002398
:100B4C00CDE90D339DF8323003F00703012BC1F3CF
:100B5C00C30138D1CB1E042B22D8DFE803F00309E4
:100B6C000921210054F8043BDA17CDE90A3206E0DA
:100B7C00073424F00704F4E80223CDE90A239DF896
:100B8C00303013F0030656D002983B465246594675
:100B9C0004F0B5FA0028C0F242810544BA46D9E502
:100BAC0054F8043B01294FEAE372CDE90A3205D12E
:100BBC009DF828300A9300230B93E0E70229DED13D
:100BCC00BDF92830D0E7022B23D1CB1E042B13D830
:100BDC00DFE803F0030A0A12120022680A920023CB
:100BEC00201D0B930446CAE7E01D20F00700F0E837
:100BFC000223CDE90A23F5E754F8043B0A930129B3
:100C0C004FF000030B93D3D00229B8D1BDF8283094
:100C1C00D0E7042B09D1E31D23F0070303F10804EB
:100C2C00D3E90023CDE90A23A9E7032B04BF54F829
:100C3C00043B0A93A3E79DF833007828AED86228CA
:100C4C0022D825283FF48FAD5828A7D10DF12603C3
:100C5C000093DDE90A0104AB0CAA04F00AFA8246FF
:100C6C00B8F1000F0DF126000CDB9DF83020A0EB45
:100C7C000A036FF3861298458DF8302002D9A8EB41
:100C8C0003030D9380463DE06338152886D801A2F6
:100C9C0052F820F0210D0000850D0000A90B00007A
:100CAC00A90B0000A90B0000A90B0000850D00008A
:100CBC00A90B0000A90B0000A90B0000A90B000058
:100CCC00DF0D0000AD0D0000B10D0000A90B000000
:100CDC00A90B0000F90C0000A90B0000AD0D0000E1
:100CEC00A90B0000A90B0000AD0D0000B8F1000F1E
:100CFC00DDF828A00ADB4146504604F039FA0AEB2D
:100D0C0000080026BAF1000F0CD147E7504604F05A
:100D1C0028FAF4E70A9B8DF8103000260DF1100A22
:100D2C000DF11108A8EB0A0306B101339DF832202E
:100D3C00D00668D5023352060D9948BF0E9A0B4463
:100D4C0048BF9B18B9F1000F76DD9DF83020A9EB58
:100D5C000309C2F38003039353076DD4500661D586
:100D6C0046B1029B594630469847002857DB039BF7
:100D7C0001351E46302356E01E070FD413F0100623
:100D8C0018BF2026DDE90A23002BBFF65FAF5242C5
:100D9C0063EB4303CDE90A232D2657E72B26F1E716
:100DAC00002653E70A9840B30DF1260300930CAAD2
:100DBC0004AB002104F05DF9BDF8323003F0EF0311
:100DCC0043F4F04343F010038246ADF83230002672
:100DDC0046E70A9B07293FF6E1AEDFE801F00C0479
:100DEC00060C08080C0C1D70D8E61D80D6E6EA1718
:100DFC00C3E90052D2E61D60D0E6DFF8C8A0064673
:100E0C000AF105088EE7110748BF013393E718462E
:100E1C0003935946029B98470028039B04DA11B0B0
:100E2C00BDE8F08F20234D444A46002AA5EB09016A
:100E3C0009F1FF39EBDC0D4636B1029B59463046C1
:100E4C0098470028EBDB01359DF83230D90601D4E8
:100E5C001A0706D5029B5946302098470028DEDB3E
:100E6C0001359DF83230DB0607D59DF83300029B27
:100E7C00594698470028D2DB01350D9E2E44731B32
:100E8C00002B16DC029843465246594604F037F9BB
:100E9C000028C4DB0544A944A9EB0503002B7FF70C
:100EAC007DAE029B5946202098470028B7DB0135C0
:100EBC00F2E7029B5946302098470028AFDB0135FA
:100ECC00DDE700BF9C6800002DE9F84305464FF0B4
:100EDC002003EFF3118683F31288BFF36F8F0E4B51
:100EEC001C689CB10D4FDFF838804FF00C09D4E929
:100EFC000132002D08BF13462BB198F8142009FBC2
:100F0C0002F2B85C98472468002CF0D186F3118863
:100F1C00BFF36F8FBDE8F883180400202004002075
:100F2C001806002000F01F0301229A400A4BBFF361
:100F3C005B8F400903EB800050E8003F43EA02015D
:100F4C0040E8001CBCF1000FF6D1BFF35B8F1A42D6
:100F5C0014BF0120002070472C04002030B51D4B1D
:100F6C001C7DBFF35B8F04F01F0301229A401A4BC8
:100F7C00610985B0D04303EB810353E8001F01EAFC
:100F8C00000543E8005CBCF1000FF6D1BFF35B8FAA
:100F9C00114217D0114D0C2202FB045207CA01ABAF
:100FAC0083E807000E4A7AB193E8070004F02CF9A5
:100FBC000020FFF789FF0C235C432A1900232B51D7
:100FCC00C2E9013305B030BD82F31188BFF36F8FD6
:100FDC00EEE700BF1806002030040020200400209B
:100FEC00155200002DE9FF41354B364C1D7D8046D6
:100FFC002846FFF797FF50B94146284600F084F881
:10100C0028B107C80C2303FB054383E807000C2316
:10101C006B43E218E05C6E0905F01F0700283BD01B
:10102C00B8F1FF3F10D0D2F808E02748274A4FF418
:10103C00004C00210023EEFB0C01FFF749F80121C5
:10104C00A8EB000005F07BF803F0A8FA0120FFF7ED
:10105C003BFFBFF35B8F1E4B0122BA4003EB8603B1
:10106C0053E8001F114343E800100028F8D1BFF3E8
:10107C005B8F0C2303FB054494E8070001AB83E86A
:10108C000700144A1AB193E8070004F0AAF8FFF716
:10109C0065FF03F009FC01200F4ABFF35B8F0123AE
:1010AC00BB40DB4302EB860656E8002F1A4046E8AD
:1010BC0000210029F8D1BFF35B8F04B0BDE8F081AB
:1010CC0018060020200400203F420F0040420F0071
:1010DC0030040020EF5100002C040020054BBFF31E
:1010EC005B8F53F82000BFF35B8FB0FA80F04009A0
:1010FC00704700BF3404002008B9024B0B6000207D
:10110C00704700BF500400202DE9F04F85B00E460B
:10111C0003A9FFF7F1FFDFF874A0DFF87480441E19
:10112C0024B24FF400474FF00009631C04D1002592
:10113C00284605B0BDE8F08F039A04EB440302EB9C
:10114C00830512F82300FFF7C9FFE0B168684FF080
:10115C00000BD4465946E0FB07C142464B4660465D
:10116C00FEF7B6FF0190A868D4465946E0FB07C1CC
:10117C0042464B466046FEF7ABFF721CD8D0019B33
:10118C001844B042D4D9013C24B2CEE73F420F0000
:10119C0040420F00014910220A60704710ED00E038
:1011AC0072B6404080F31188BFF36F8FBFF34F8F3F
:1011BC0030BF62B6BFF36F8F704700BF72B6494045
:1011CC0081F3118820BF80F3118862B6704700BF8D
:1011DC0043B2002B08DB012200F01F0002FA00F0E2
:1011EC005B09024A42F82300704700BF00E100E0AF
:1011FC00054B420900F01F0053F82220012303FA8B
:10120C0000F01040704700BF00E100E043B2002B3B
:10121C00A8BF03F1604301F10101B8BF064B4FEACF
:10122C004111ACBF03F5614300F00F00C9B2B4BF6C
:10123C00195483F80013704714ED00E030BFFFF72A
:10124C00FDBF00BF0F4A08B50F4B22F07F029A601A
:10125C00BFF34F8FBFF36F8FD3F8882022F4700247
:10126C00C3F88820EFF3148323F0040383F314886A
:10127C00BFF36F8F02F050FE03F04AFC00F0CAF986
:10128C0002F054FE0000000000ED00E0094A0A499B
:10129C00936809689967094958674B6843F080530C
:1012AC004B60002383F31188BFF36F8F9368986FA3
:1012BC00704700BF180600205C67000000ED00E0DE
:1012CC0012498A684FF030001044EFF3098C80E823
:1012DC00F01F202080F31288BFF36F8F0C4F4FF05C
:1012EC000066CA698A603E60506F0023536780F3C2
:1012FC00118804B5104600F0CFF9BDE8044002F1A6
:10130C00300090E8F01F8CF3098870471806002015
:10131C0004ED00E01EF0040F0CBFEFF30880EFF3B8
:10132C000980816911F8021C0229FFD001B503F074
:10133C00FFFE01BD42F8203C009B42F81C3C0A49D0
:10134C00019B42F8183C029B42F8143C21F001012D
:10135C004FF0807342F8043C42F8081C0023203AFA
:10136C0002654367704700BF6B500000094A034693
:10137C00906870B113F1160F406E05D0A0F12002E9
:10138C009A4205D8834203D2814228BF002070477D
:10139C00002070471806002008B5094B98600D46D0
:1013AC00144600F079F9204685F30988002163B6CC
:1013BC0081F31188BFF36F8F0022002303F04FFEDF
:1013CC001806002001B572B60B4A906900281EBFA2
:1013DC000021916104F08AFD62B6EFF30580A0F163
:1013EC0010004FEAC0000549014409C99847BDE8FF
:1013FC0001400349084700001806002088630000DC
:10140C0011140000044B9968D869884203D0034931
:10141C004FF080520A6070471806002004ED00E07F
:10142C0038B5194B14469A6A9A6A9A6A0546900717
:10143C0019D5586B9A6A120615D519B19A6A22F009
:10144C0080029A629A6A9A6A9A6AD1060ED49B6A48
:10145C009A070BD400200C4A936A43F0FF03936263
:10146C000023237038BD6FF01500EBE7064B5B686B
:10147C001B05EFD52946FFF779FF0028EAD080F34A
:10148C0009880220E7E700BF00ED00E00D4B9A6AE7
:10149C009A6A9A6A920508D59A6B9A6A120404D5CC
:1014AC0018B19A6A22F400429A62064B9A6A9A6AB6
:1014BC00D20558BF9A6A9A6A002042F47F429A6217
:1014CC000870704700ED00E070B5484B5B688AB05F
:1014DC000D46C3F30803002686F31188BFF36F8F04
:1014EC0002F07F41B1F17F4F11D102F00C010829BC
:1014FC000DD0110701D4054601260022033B8DF8BF
:10150C000720032B6BD8DFE803F00455595D3546F3
:10151C00F3E7364BDC6A14F0020460D1DA6A002A75
:10152C0015DBDA6A520012D5AA6932F8021C4DF6A4
:10153C00027291420AD093F828200AB30DF10702E7
:10154C0001212846FFF76CFF044600E02C689DF84B
:10155C0007309BB92022294602A803F01EFE099BE6
:10156C00002E3ED0C3F3080222B96FEA53236FEA70
:10157C004323099302A9204603F0D8FD0AB070BD9D
:10158C0093F829202AB10DF107010120FFF77EFF06
:10159C00DAE75A8D92B2002AD9D09A6A9A6A9A6A74
:1015AC009A6A9A6A9A6A9A6A6FEA02426FEA1242D5
:1015BC009A62CCE70DF107020021C2E70DF1070199
:1015CC000020E3E7094B9A6A9A6A9A6A9A6A9A6ABD
:1015DC009A6A9A6A6FEA02426FEA12429A6200248D
:1015EC00B5E723F4FF7323F00103C2E700ED00E03D
:1015FC00024A536943F010035361704700ED00E059
:10160C00EFF30880EFF3098101B57246FFF75CFF39
:10161C0001BD00BF044800232021C2180133272B31
:10162C0082F80013F9D1704700E100E004F0ACFD42
:10163C00202080F3118808484FF40261401880F391
:10164C000988EFF314800221084380F31488BFF358
:10165C006F8FFFF7F7FD000020100020064B9B68F2
:10166C00834207D1EFF3058323B1044A536843F057
:10167C008053536003F0E8B91806002000ED00E039
:10168C00024B034A0348012100F06EB80000012010
:10169C000000002048650000426E054B203A1A609D
:1016AC00044A2021C3E901121846012100F066B852
:1016BC005004002000000B15F0B51F4F00268E4281
:1016CC0001DB1046F0BD44689CB353B104F1FF3C00
:1016DC0014EA0C0F18D11F2C16D905681CEA050F3B
:1016EC0012D1202C0568D0F808C0D2B20FD9B4F1B1
:1016FC00004F0ED8013CB4FA84F4C4F11F0464000A
:10170C00072A4CEA040406D96FF01502D9E708241D
:10171C00F6E73E24F4E725F01F05154345F01005C8
:10172C0044F00104C7F89820C7F89C500132C7F860
:10173C00A04001360C30C2E700ED00E0044B05225E
:10174C00C3F89420BFF34F8FBFF36F8F704700BF68
:10175C0000ED00E0BFF35F8F024B0022C3F8942032
:10176C00704700BF00ED00E010B5034C0123227858
:10177C00FFF7A2FF207010BD6906002008B5094ACA
:10178C0000231278FFF798FF10F1160F02D0064ACB
:10179C00072800DD08BDC2F89800C2F8A03001305F
:1017AC00F6E700BF6906002000ED00E01449086868
:1017BC00082810B521D8FFF7CDFF124C496800223C
:1017CC00904201F10C0105D10F4B1870FFF7B6FFD9
:1017DC00002010BDC4F8982051F80C3C23F01F03D6
:1017EC00134343F01003C4F89C3051F8043C43F00D
:1017FC000103C4F8A0300132E2E74FF0FF30E8E714
:10180C005465000000ED00E069060020014B1860F3
:10181C00704700BF040000200CB41FB509B90DF1CE
:10182C000300CDE9020107AB069A0648019302A911
:10183C00FEF788FF029B00221A7005B05DF804EBDE
:10184C0002B07047D55100004FF02002EFF3118326
:10185C0082F31288BFF36F8F044A0121C2F840153E
:10186C0083F31188BFF36F8F0020704700E00140B5
:10187C0020B1034B800143F001031847704700BFB0
:10188C004065000038B54468206802F0D5FA30B9DC
:10189C000D48216803F0DAFA6FF0120038BD616868
:1018AC0004698568C9B2012303FA01F2236823EAAB
:1018BC00020323604FF420622B68984721200021FB
:1018CC0003F0A2F80020E9E7B1680000084B70B5FE
:1018DC00C31A0D4607499B1004465943064840223B
:1018EC0003F0B9FC2B4601462046BDE87040184772
:1018FC006C040020B76DDBB63862000073B50C4C7D
:10190C000C4A4023041B00930D460B460A49A410B5
:10191C0061430646094803F0CAFC011E05DA30464D
:10192C002B4602B0BDE87040184702B070BD00BF36
:10193C006C0400202B530000B76DDBB6386200003E
:10194C00002270B5012104461046FFF75FFC002011
:10195C00FFF73EFC0F4801F0E9FA0F4B984215D106
:10196C0004F0E5F926690D49304603F0CBFA00285E
:10197C000BDB246909490125356404F11C0003F0D3
:10198C00C1FA002801DBE564002070BD6FF0040093
:10199C00FBE700BFE11900000000AD0BAC650000D7
:1019AC0001460C2309484B4370B5C418D4E90E56B4
:1019BC0000224033A263184403F03AFC2DB13246A6
:1019CC002B460348BDE87040184770BD6C040020DE
:1019DC003862000010B1012804D07047034B1B6C17
:1019EC005B0701D1FFF7DCBF704700BF6C04002020
:1019FC0008B54FF02003EFF3118183F31288BFF386
:101A0C006F8F124A136843F0020013F00103106049
:101A1C000CD04FF08042D2F80C34D2F80C2413F0D6
:101A2C00010303D00A4803F003FC012381F311885E
:101A3C00BFF36F8F23B1BDE808400020FFF7B0BFA4
:101A4C00BDE80840012001F081BA00BFBC040020B1
:101A5C00AC0400201FB500220123CDE90223094A62
:101A6C00CDF800D06B46CDF804D003F051FC002823
:101A7C0005DB4FF480420023684602F0C1FB05B041
:101A8C005DF804FB4353000010B5074C23782BB9C9
:101A9C004FF4A57004F073FB01232370BDE81040D4
:101AAC00002001F053BA00BF6A060020094BBFF3B7
:101ABC005B8F53E8002F22F0020143E8001000284E
:101ACC00F7D1BFF35B8FD30702D4012001F086BAA4
:101ADC00704700BFBC0400202DE9F0413949BFF329
:101AEC005B8F0746012251E8003F41E800200028A7
:101AFC00F9D1BFF35B8F33B9334934484B60CB60BA
:101B0C008A6003F012FA7B1E012B2FD8012F07D10C
:101B1C004FF08043D3F81C3403F00303012B25D082
:101B2C0004F0D9F9044618B9294B1B78002B41D184
:101B3C004FF02003EFF3118683F31288BFF36F8FFE
:101B4C000124DFF890804FF08045D5F81834D5F893
:101B5C001824D2030CD503F00303012B01D0012F61
:101B6C0006D10CB386F31188BFF36F8FBDE8F081FB
:101B7C00ACB13046FFF722FBD5F81835002BE4D179
:101B8C00D5F80421002AE0D0C5F80431D5F8043189
:101B9C000123C5F81835C8F88031AB60D5E70021B2
:101BAC00212002F031FFE7E74FF080430222C3F817
:101BBC000423DBE74FF080430222C3F808230646D8
:101BCC00BFE700BFC00400205C0400208804002094
:101BDC009C0A002000E100E010B5044C2046FEF702
:101BEC00BDFC2046FFF712FE002010BDFD1B0000BF
:101BFC00F7B5144E8DF8070004460325EFF3118753
:101C0C004FF0200181F3118801220DF10701002012
:101C1C0002F0C2F887F3118820B1012333702046FB
:101C2C0003B0F0BD3378002BF9D0013D08D004F09F
:101C3C0052F90028E2D10021422002F0E5FEDDE756
:101C4C003570ECE76B06002030B54068047B01F082
:101C5C001F05B2F5005F45EA441585B04FF000044E
:101C6C0004D1284601F058FC00202EE0B2F5804F3C
:101C7C00CDE902442BD1B3F5003F0CBF042305235F
:101C8C008DF80830836823FA01F1C9072BD4B2F51B
:101C9C00A03F28D105F01F0303F5E0734FF0A042DD
:101CAC0052F82330DB071ED40DF1070421462846D9
:101CBC0001F09AFB144B984214D1204601F0E2FB40
:101CCC00124B98420ED06FF00B0005B030BDB3F53F
:101CDC00C02F05D0B3F5003F0CBF02230123CFE783
:101CEC000323CDE703940023194602AA284601F0EA
:101CFC0053FA064B984204D10121284601F0C8FB47
:101D0C00B2E76FF00400E0E70400AD0B0000AD0B90
:101D1C0010B501F0A7FB044668B901F07BFB084B3A
:101D2C0098420AD10748214601F058FB224605216A
:101D3C000620FFF76BFA002010BD6FF00400FBE7E4
:101D4C000000AD0B551D0000430970B510D1094BB7
:101D5C00596869B101250C68074E85408A682A408C
:101D6C0002D04B683046984714B121462468F5E7F9
:101D7C0070BD00BFC4040020506200002DE9F04388
:101D8C0047683B7B01F01F0585B00E4645EA4315BD
:101D9C001446CAB902A9284601F026FB0446284677
:101DAC0001F0E2FB484B984204D06FF0040005B000
:101DBC00BDE8F083844205D19DF8080001F05CFB7E
:101DCC00A042F2D10020F2E74FF000090DF103011F
:101DDC003046CDE9029901F007FB4B46804602AA3A
:101DEC004946284601F0D8F9374B984202D06FF09B
:101DFC001500DCE7804503D19DF8030001F03CFBA6
:101E0C00A3054ED5314B324A234093423AD00CD8DD
:101E1C00062B14D004D893B1022BE8D104230EE086
:101E2C00B3F5801FE3D1012309E02A4A93422BD05A
:101E3C00B3F5A00F2AD0B3F5800FD8D102238DF8BB
:101E4C00043084F48073C3F30023E0068DF805306E
:101E5C0054BFC4F34013032321058DF8063017D566
:101E6C007B68012101FA06F6C3F80865002201A976
:101E7C00284601F03BFA144B984214BF6FF0150042
:101E8C00002094E70723DAE70523D8E70323D6E7F6
:101E9C00620541BF7B68012101FA06F6C3F80C65A7
:101EAC00E4E7E3064FF0000354BFC4F340140324EB
:101EBC001A4601A928468DF8044001F06DF9024B31
:101ECC0098423FF47FAF92E70000AD0B0600F000A4
:101EDC00060010000200400008B54368D3E9020177
:101EEC0001F0DCFE034B984214BF6FF00F00002092
:101EFC0008BD00BF0000AD0B10B504460022012147
:101F0C000320FFF783F960682369064A00F1080192
:101F1C0001F0B8FC044B984214BF6FF00F00002086
:101F2C0010BD00BF391F00000000AD0B0378012B62
:101F3C0008D0022B08D04BB9054B0B6201F11000F5
:101F4C0002F03EB9034BF8E7034BF6E7034BF4E71B
:101F5C000000AD0B0100AE0B0200AE0B0100AD0B8F
:101F6C0010B50446002201210420FFF74FF96068E8
:101F7C002369064A00F1080101F084FC044B9842E5
:101F8C0014BF6FF00F00002010BD00BF391F000000
:101F9C000000AD0B2DE9F04F4668076989B01D466E
:101FAC000C46338BD7F828900093934600211422CB
:101FBC0003A803F0FDF88DF80D504FF0FF324FF0F1
:101FCC00FF33384602F01CF907F1100A00220023F7
:101FDC00504602F015F9304601F0A4FC4FF0000811
:101FEC004546D84501D3002449E0217A0A0700F17F
:101FFC008F8008F10108D84562680AD28B0708D493
:10200C00237D81EA030000F0010003F00403034385
:10201C0016D0BDB10023DDF800C0A81860457AD8F1
:10202C00C80706D42168019309EB050003F0B5F845
:10203C00019B62681544ADB2002B37D00C34D0E74D
:10204C000123E8E7C90724D5236806936368049342
:10205C000025237A03F0010213F0020F8DF80C20F7
:10206C0003A90CBF20220022304601F089FC2E4B24
:10207C00984221D00B33984253D06FF00404304671
:10208C0001F060FC384602F09BF8204609B0BDE830
:10209C00F08F216801F06043B3F1005FD4D0738BF3
:1020AC0093423BD3484603F078F8A588002DCBD05B
:1020BC00CDF818900495CCE74FF48042002350469D
:1020CC0002F09EF838B1304601F03CFCD6E9020132
:1020DC0001F0E4FDD1E73B6A134A9342CDD1237A58
:1020EC00DB0701D40025A9E7069B9945FAD12346C5
:1020FC0008E0A91AD86801938DB219FA81F103F09E
:10210C004CF8019B5A689542A3F10C03F1D2E9E714
:10211C006FF08504B3E76FF01B04B0E76FF01504A4
:10212C00ADE76FF00F04AAE70000AD0B1B39036994
:10213C00042920D8DFE801F003081F0A19001B8AC4
:10214C0013600020506070475B8AF9E79B8A0B484C
:10215C0040F24C61C3F309034B43B3FBF0F100FBBA
:10216C00113311605360002070479B8A00209B0A3A
:10217C00C2E9000370476FF08500704740420F00C2
:10218C0037B504691C220021204603F011F85A4887
:10219C0001F052FE206020B96FF01505284603B0FF
:1021AC0030BD564801F048FEE0600028F4D00269CA
:1021BC008168136843F4805313600B6840F6012266
:1021CC000C219847E068012103F07DFB012003F00E
:1021DC0033FB4A4801F030FEA0600028DCD00269D5
:1021EC008168136843F4006313600B6840F201626A
:1021FC000B219847012003F01FFB414801F01CFE06
:10220C0060600028C8D0142003F016FBA0680122DF
:10221C000B2103F001FB0F2003F0B1FF00220B2177
:10222C00A06803F0F9FA022003F006FB25682846A3
:10223C0003F020FB002806DA6FF00405E0680021AB
:10224C0003F041FBAAE7C10616D5020617D4F42306
:10225C0001220DF1060128468DF8063003F0FCFA38
:10226C000028E9DB012003F0E7FA284603F002FB23
:10227C000028E1DB030602D46FF01505DEE720230E
:10228C0020688DF806300DF1030201230DF10601D3
:10229C0003F0ADFA0028CFDB9DF80330812BEBD196
:1022AC0024238DF80230022320680DF106020DEB79
:1022BC00030103F09CFA0028BEDBBDF80630206851
:1022CC005BBAADF80630C3F3072363761025012300
:1022DC00022201A98DF804308DF8055003F0BCFAE8
:1022EC000028A9DB2068257603F0C4FA0028A3DBBC
:1022FC0010F00105A2D0BFE7E2680000CD68000035
:10230C00D568000038B5056908490446284640F8E8
:10231C00044B02F0F7FD064905F1200003F01EFE08
:10232C00606803F0D6FB00EAE07038BD0867000077
:10233C00495B00002DE9F0471C1E05460F469046F0
:10234C0010DB7AB14FEA5249D6030023144A3046C7
:10235C004946FDF7BDFE10B1124B1B7843B9404600
:10236C0003F00DFF2146281D3B46BDE8F0471847FA
:10237C000D480B4A2F6530184FF0030349F100014B
:10238C0085F854300023FDF7A3FE02460B4605F1F9
:10239C00200002F0A5F8041EE4DBBDE8F08700BFC6
:1023AC0040420F009C0A00203F420F0070B54B7951
:1023BC00012B20D18B79032B1DD1CC790CB1012CA5
:1023CC0019D10A7912B1022A15D10E220B6845686F
:1023DC00B3F5164F2D6862D02BD8B3F5165F61D0CC
:1023EC0014D8B3F5966F5FD008D8B3F5967F5ED04E
:1023FC00B3F5167F5ED06FF085004FE0B3F5166F26
:10240C005BD0B3F5965FF6D1364B3CE0B3F5E14FBC
:10241C0056D007D8B3F5615F54D0B3F5964FEAD1D7
:10242C00314B30E047F61226B342E4D14FF40003AF
:10243C0029E0B3F5613F47D013D8B3F5963F46D0AA
:10244C0009D84DF6C026B34243D0B3F5614FD2D173
:10245C004FF46B0317E0B3F5E13FCCD14FF0EB73C6
:10246C0011E0B3F5612F37D008D8204EB34236D0E7
:10247C00B3F5E12FBFD14FF0E86304E01C4EB3423B
:10248C00B9D14FF080530069C5F82435031D03C939
:10249C002243C5F86C2583E80300002070BD4FF47F
:1024AC001D03F0E7134BEEE74FF49E23EBE74FF4DD
:1024BC00A033E8E74FF41C33E5E74FF41D23E2E7C4
:1024CC000D4BE0E70D4BDEE74FF06C73DBE70C4B8D
:1024DC00D9E74FF46503D6E74FF07063D3E74FF0BD
:1024EC008063D0E700B0130000A04E0090D0030032
:1024FC0040420F000050270000C0750000F03A0069
:10250C0000903A01F8B5066905460F4603F0E3FC66
:10251C0010B92C4B1B7883B94FF02003EFF31184C7
:10252C0083F31288BFF36F8F686803F0A5FB28BB99
:10253C0084F31188BFF36F8FEEE76424686803F0AF
:10254C009BFB70B9012003F0F0FB013CF6D100219C
:10255C00212002F059FAF0E784F31188BFF36F8F52
:10256C00F5E74FF02003EFF3118483F31288BFF3E8
:10257C006F8F686803F080FB0028EDD006F8107FA1
:10258C0069680B680122C3F84465C3F8482500222A
:10259C00C3F82021D3F82001C3F85821D3F85821CF
:1025AC004A68D20641BF0822C3F800254FF48002C6
:1025BC00C3F8042301229A6084F31188BFF36F8F50
:1025CC00F8BD00BF9C0A00202DE9F8430121064606
:1025DC0000220220FEF71AFE0220FEF7F9FD7768B2
:1025EC0035693C680023C4F800352E607368D868E0
:1025FC00411C0CD000F01F024FF0A04C0121914067
:10260C0002F5E072CCF8081503214CF82210196978
:10261C004A1C10D01A7F002A01F01F0214BF4FF081
:10262C00030C4FF0000C02F5E0724FF0A04E4FEA95
:10263C008C0C4EF822C0D3F814C0BCF1FF3F0FD065
:10264C000CF01F024FF0A0484FF0010E0EFA02FEE4
:10265C0002F5E072C8F808E54FF0030E48F822E0E6
:10266C00D3F818E0BEF1FF3F10D05A7F002A0EF0CD
:10267C001F0214BF4FF003084FF0000802F5E07280
:10268C004FF0A0494FEA880849F822801B68C3F82C
:10269C000C05C3F814153046C3F808C5291DC3F83A
:1026AC0010E5FFF783FE0646002843D17B689907A7
:1026BC0019D505F1120001F021F8214B98423CD1BB
:1026CC00A87CC30003F1804303F5F83304F10C023A
:1026DC0004F59071C3F81015C3F81425194A012399
:1026EC008340C2F804350823C4F800353B7A5BB943
:1026FC00C4F81031D4F8103105F11103C4F8343595
:10270C000123C4F8383523607B689A075CBF4FF40B
:10271C008072C4F80423DB0644BF4FF48003C4F872
:10272C00043310350023C4F84455C4F8483501234C
:10273C00A360E3603046BDE8F8836FF00406F9E768
:10274C000000AD0B00F0014010B501238340114A8D
:10275C00BFF35B8FDC4352E8001F01EA040C42E834
:10276C0000CEBEF1000FF6D1BFF35B8F4FF4803279
:10277C0002FA00F002F1804202F58052C2F808031E
:10278C00BFF35F8FBFF36F8F0B4214BF012000208C
:10279C0010BD00BFF80400201949F8B5044622F01A
:1027AC007F450868C1E90023A5F50013101AB3F59D
:1027BC00400F22D2134B1B681A0A1B065E19124BD0
:1027CC0042F10007C3E90067012602F081FAA30079
:1027DC0003F1804303F58833D3F84025AA420BD18B
:1027EC001EB94FF40002C3F84025084B4FF480305B
:1027FC0000FA04F4C3F84443F8BD0026E5E700BF33
:10280C0068020020FC04002050020020001001404F
:10281C0019B3BFF35B8F0123104A834052E8001FAA
:10282C00194342E8001CBCF1000FF7D1BFF35B8FDA
:10283C000B4A4FF480338340C2F80433094BBFF387
:10284C005B8F1B68BFF35B8F23FA00F0C30742BF9B
:10285C00054B4FF40032C3F800217047F8040020F8
:10286C0000100140F404002000E100E00D4B18685A
:10287C00010A0006BFF35F8F0B4BD3F80435181811
:10288C0041F10001B3F5801F0AD2084BD3E90023B4
:10289C00904271EB030303D210F1807041F10001FF
:1028AC00704700BFFC0400200010014050020020C3
:1028BC002DE9F04F85B0164698460546FFF744FFC4
:1028CC000090FFF7D3FFB04271EB080378D2464B70
:1028DC00301A68EB0101984271F1000380F081809D
:1028EC00424B03EB0513D3E902ABD84508BF564561
:1028FC0051D04FEA850909F1804905F1500709F5D6
:10290C008839BF004FF4803101FA05F3BFB226F0CD
:10291C007F4207F180470193D9F84005344B07F506
:10292C0088371446D3F80415401A20F07F4021F064
:10293C007F4C0128C9F840C507D1CDE902211320ED
:10294C0003F01DFCDDE90221294B01F1020CA4EB83
:10295C000C0020F07F40B0F5000F88BF64460020CB
:10296C00386038680198C3F8440324F07F40C9F8F4
:10297C004005D3F80405814206D0201A023820F015
:10298C007F40B0F5000F19D8A41A24F07F4414EB43
:10299C00060A48F1000B15490E982B0101EB0512A4
:1029AC00C2E902ABC8500F9B536000242846009923
:1029BC00FFF72EFF204605B0BDE8F08F2046B1E7AB
:1029CC0001230C4ABFF35B8FAB4052E8001F194345
:1029DC0042E800100028F8D1BFF35B8FB246C34623
:1029EC00D9E76FF01504E1E701000001580200205F
:1029FC0000100140F404002073B5194B194D00244C
:102A0C004FF0FF304FF0FF31C5F80845C3E9020124
:102A1C004FF48033C5F80433134B02264FF40032C5
:102A2C000121C5F804631120C3F880212246FEF76A
:102A3C00EDFB1120FEF7CCFB0C4A0123AB602B60A5
:102A4C0013600B4B0B4A0093019400232046FFF7B5
:102A5C002FFF3046FFF740F8204602B070BD00BF94
:102A6C00580200200010014000E100E0F8040020B2
:102A7C00A5270000FFFF7F002DE9F743354CD4F864
:102A8C0004339A070BD5D4F8043143B1324A0023EE
:102A9C00C4F80431D4F804311368013313604FF0D7
:102AAC002003EFF3118283F31288BFF36F8FD4F8F6
:102ABC000433DB0312D5BFF35B8F284B53E8001FA5
:102ACC0021F0010043E80006002EF7D1BFF35B8F25
:102ADC00002936D1D4F84031002B32D1002382F3B7
:102AEC001188BFF36F8F4BB3FFF7C0FE4FF020037D
:102AFC00EFF3118C83F31288BFF36F8F184BD3E96C
:102B0C000267B04271EB07024FF0000220D34FF086
:102B1C00FF384FF0FF39D3E90015C3E902891A6079
:102B2C004FF48033C4F848338CF31188BFF36F8FA4
:102B3C0021B1009532463B460020884703B0BDE8E2
:102B4C00F0830023C4F84031D4F840310123C6E7A8
:102B5C001146E9E700100140FC040020F4040020B9
:102B6C0058020020431C13B521D0012821DDB0F5FB
:102B7C00000F20DA441EFFF779FE104BD3E9001347
:102B8C00401AB0F5000F28BF0024013002190C4880
:102B9C00824228BF024652184FF0000009490190AA
:102BAC00009143F10003FFF783FE02B010BD04480F
:102BBC00E0E70024DFE7024CDDE700BF68020020FD
:102BCC00FFFF7F00A527000008B5FFF74FFE024B63
:102BDC001B68C01A08BD00BF680200204FF070438C
:102BEC0093F8E02F062A09D1D3F8E83FC3F3031377
:102BFC00033B042B02D8024AD05C7047002070477C
:102C0C0045690000024AD2F80034002BFBD0704713
:102C1C0000E0014010B503F079F840B14FF080535B
:102C2C00904AD3F82433C3F30423C2F84035FFF79A
:102C3C00D5FF10B18C4B8D4A5A6703F067F848B139
:102C4C004FF080534FF08042D3F84432C3F34233F9
:102C5C00C2F83C35FFF7C2FF30B1854AD2F8FC30E0
:102C6C0023F08073C2F8FC3003F050F840B14FF001
:102C7C0080430022C3F80C21C3F81021C3F8382577
:102C8C00FFF7ACFF20B14FF080430322C3F8A0251F
:102C9C00FFF7A4FF60B1774B0522C3F81026012281
:102CAC00C3F888260022C3F818263F22C3F814263E
:102CBC004FF08053D3F83021511C09BF4FF07043B3
:102CCC00D3F8343193F8E02FD3F8E83F08BFC3F3BF
:102CDC000313062A4DD1033B042B03D8664AD35C5D
:102CEC00002B46D04FF08052644BD2F80414C3F83A
:102CFC002015D2F80814C3F82415D2F80C14C3F814
:102D0C002815D2F81014C3F82C15D2F81414C3F8E3
:102D1C003015D2F81814C3F83415D2F81C14C3F8B3
:102D2C004015D2F82014C3F84415D2F82414C3F873
:102D3C004815D2F82814C3F84C15D2F82C14C3F843
:102D4C005015D2F83014C3F85415D2F83414C3F813
:102D5C006015D2F83814C3F86415D2F83C14C3F8D3
:102D6C006815D2F84014C3F86C15D2F84424C3F893
:102D7C00702502F0CBFF48B14FF080534FF08042EA
:102D8C00D3F8583203F04F03C2F8E43E02F0BEFF12
:102D9C0048B14FF08043D3F80024D20744BF6FF002
:102DAC000102C3F800244FF08053D3F83021062AD7
:102DBC0026D1D3F83431033B042B02D8304AD35CF0
:102DCC0063B1304AD2F83C3743F48063C2F83C37E5
:102DDC004FF08053D3F83031062B11D14FF0805384
:102DEC00D3F83431033B042B02D8274AD35C3BB1D4
:102DFC004FF01023D3F808224FF08043C3F8582526
:102E0C004FF01023D3F80022002A03DBD3F804324E
:102E1C00002B22DA1D4901234FF01020C1F8043594
:102E2C001524FFF7EFFEC0F80042FFF7EBFEC0F8E9
:102E3C000442FFF7E7FE0023C1F80435FFF7E2FE7A
:102E4C00BFF34F8F0A49124BCA6802F4E062134376
:102E5C00CB60BFF34F8F00BFFDE70E4B0E4A1A60DD
:102E6C0010BD00BF0030014000C007400DF0ADBAEE
:102E7C0000ED00E0005000403669000000C000404A
:102E8C003B690000001000404069000000E0014078
:102E9C000400FA05A40000200090D00370B50125B1
:102EAC000268B2FA82F3C3F11F035E1CDCB214D0C9
:102EBC00BFF35B8F05FA03F322EA030350E8006FBC
:102ECC00964204D140E8003CBCF1000FF6D1BFF3B0
:102EDC005B8FE5D102480C7070BD0248FCE700BF67
:102EEC000000AD0B0200AD0B0368CB40DB0710B547
:102EFC0015D4012303FA01F10368BFF35B8F41EA98
:102F0C00030250E8004F9C4204D140E8002CBCF175
:102F1C00000FF6D1BFF35B8FEED1024810BD024813
:102F2C00FCE700BF0000AD0B0400AD0B044B1A799D
:102F3C0022B9012218609A800248704702487047F3
:102F4C00000500200000AD0B0C00AD0B30B510B12E
:102F5C00012834D030BD4FF08043D3F81824D3F877
:102F6C001814C90329D502F00302012A25D1C3F88C
:102F7C0018254FF080430022C3F80421D3F8042114
:102F8C000222C3F80423134AD2F8FC0040F08073E9
:102F9C00C2F8FC30104B1C6844F0010119605D68EC
:102FAC005968491BB1F50A5FFAD31C604FF0804396
:102FBC00C2F8FC0001229A60CCE70022D7E74FF060
:102FCC0080430022C3F80021D3F80021C3F8040386
:102FDC001860BFE700ED00E0001000E038B510B15C
:102FEC00012817D038BD4FF080440223C4F80833B1
:102FFC00C4F80401D4F804310123E36042F21075E3
:10300C00D4F81834DB03EDD5012002F08EFE013D1F
:10301C00F6D1E7E74FF080440023C4F80803C4F866
:10302C000031D4F80031606042F21075D4F80C34E1
:10303C00D4F80C24D20303F0010305D523B10120ED
:10304C0002F073FE013DF1D1014B00225A71C9E728
:10305C00000500204FF0804310B5D3F800216AB171
:10306C000022C3F80021D3F800210122C3F8082361
:10307C00114B587910B95A711B6898474FF080431F
:10308C00D3F8042172B10022C3F80421D3F804212F
:10309C00D3F81824D3F81814920704D10122C3F8DA
:1030AC0018259A6010BD0222C3F80823024BBDE814
:1030BC0010401B680120184700050020034B083006
:1030CC0033F81000C0F34010704700BFA800002078
:1030DC0070B500F108030C4C34F81330DA050546D2
:1030EC000E4607D5C3F3432304EBC30254F8333025
:1030FC0052689847A3682BB1E26831462846BDE870
:10310C007040184770BD00BFA8000020124A08305C
:10311C0010B432F81030D9051BD5C3F3432123F476
:10312C00F85322F8103002F11004002034F8023B5E
:10313C0013F4807F03D0C3F34323994209D00130A9
:10314C002028F3D1002342F83130044810BCFFF79B
:10315C00CBBE10BC704700BFA8000020FC000020B4
:10316C0038B50246FFF7AAFF094C02F1080540B139
:10317C0034F8153007495B0B03F5A273002041F8B6
:10318C0023001046FFF7C2FF002324F8153038BD8A
:10319C00A8000020006000402DE9F34104461E46C3
:1031AC0009B34D4F00F1080837F81850AB0706D596
:1031BC00FFF784FF18B1494802B0BDE8F08104F074
:1031CC001F00800000F1A0400978D0F8003725F0EE
:1031DC00020523F00F0345F0010543EA810327F8AC
:1031EC001850C0F8003792B13B4B1578526804F177
:1031FC00080033F810108F070CD5002ADBD133F8F8
:10320C00102022F01C0242EA850223F81020CEBBCB
:10321C003348D1E721F02001C904C90C23F8101060
:10322C00002AECD0032DC6D817782DB92D4A07F5F6
:10323C00A27142F82150E2E7BA0002F1804202F595
:10324C00C04241EA4731D2F810C52CF0030CC2F849
:10325C0010C5D2F810C52CF4473C2CF4407CC2F8B5
:10326C0010C5D2F810E54FEA042C0CF4F85C4EEAC9
:10327C00054E4CEA0E0C41F0200123F81010C2F858
:10328C0010C5BCE7D6E900762046FFF73FFF002FBC
:10329C00BED0114D2B689F4204D16B689E4201D168
:1032AC00002209E010480DF10701FFF7F7FD0C4B68
:1032BC00984281D19DF8072045F8327005EBC20386
:1032CC0008345E6035F8143043EA422343F48073CB
:1032DC0025F814309CE700BFA80000200400AD0BBB
:1032EC000000AD0B00600040FC000020F8B5044667
:1032FC0071B3374E00F1080736F81750AB0704D4FA
:10330C00FFF7DCFE08B13348F8BD15F01C0F4B7805
:10331C0001D0012BF7D004F01F00800000F1A04079
:10332C0091F800E0D0F800C789785B002CF4E16CD0
:10333C0043EA0E232CF0070C43EA0C0343EA810307
:10334C0045F0030543F0010326F81750C0F8003789
:10335C000AB92148D8E71E4E04F1080736F81700C1
:10336C008307D0D592F800C06146890020F0200078
:10337C0001F18041C00401F5C041C00C26F81700D2
:10338C000023C1F810355578002DE2D0D1F8103556
:10339C00927823F4981323F4F853C1F81035D1F82C
:1033AC0010E5230203F4F8532D0443EA0E0305F44D
:1033BC00403512052B4302F4801240EA4C30134383
:1033CC0040F0200026F81700C1F81035C1E700BF07
:1033DC00A80000200400AD0B0000AD0B014BC3E9AD
:1033EC0002017047A800002008B50246FFF766FEF0
:1033FC0038B1054B0548083233F812305B0B0B70B3
:10340C0008BD0348FCE700BFA80000200000AD0B7E
:10341C000400AD0B38B50F4C94F85850BDB9402290
:10342C00294604F1100001F0C3FE0620FDF7D0FE82
:10343C00094B0A48C3F87C51D3F87C214FF0004269
:10344C00C3F80423012384F85830636538BD04485D
:10345C00FCE700BFA8000020006000400000AD0B9E
:10346C000500AD0B034B93F85800003818BF012032
:10347C00704700BFA800002001460148FFF734BD8B
:10348C00F800002001460148FFF708BDF8000020B5
:10349C0010B50246FFF712FE02F108041C4B33F87C
:1034AC001430E0B113F0020419D15B0B9A0002F155
:1034BC00804000F5C24002F1804202F5C042046037
:1034CC000068D2F8100540F00100C2F8100529B1CF
:1034DC00012202FA03F30F4AC2F8043310BDC3F3FE
:1034EC008203042B10D0052B10D04FF0A043D3F83F
:1034FC00101502F01F03D94001F001010231BDE8A3
:10350C001040104602F01DBC0321F8E70221F6E73B
:10351C00A80000200060004008B50246FFF7CEFD71
:10352C00C0B102F108010E4B33F81130990711D4D8
:10353C005B0B01229A409B000A4903F1804303F57F
:10354C00C043C1F80823D3F8102522F00302C3F8B6
:10355C00102508BDBDE808400021104602F0F1BB63
:10356C00A8000020006000400D4B00F1080210B5CF
:10357C0033F81230DB0704460FD5FFF7CDFF20469A
:10358C0004F01F04FFF7ECFD04F5E0744FF0A043CA
:10359C00022243F82420034810BD0348FCE700BF77
:1035AC00A80000200000AD0B0400AD0B2DE9F74F77
:1035BC004E4B4F484F49002501222C461E6836B110
:1035CC00D0F8046316421EBF1C601E6815430433FA
:1035DC008B424FEA4202F1D1454BD3F87C31BBB15F
:1035EC004FF0A046D6F820350193C6F8203501AF30
:1035FC004FF00108019C6CB93D4BC3F87C41D3F8EA
:10360C007C31D6F820350193C6F82035002BEED14D
:10361C00012466E094FAA4F4B4FA84F4364A04F172
:10362C000803E00832F8131004F0070308FA03F259
:10363C003B5C23EA02033B54A30003F1A049C1F312
:10364C00820AD9F80027CB06D346C2F3014218D51B
:10365C00594620465FFA82FAFFF73AFDD9F800374F
:10366C00C3F301439A4507D10021204602F069FBC0
:10367C005146204602F065FB08FA04F4C6F82045D2
:10368C00B8E7022A0CBF03210221204602F059FBA5
:10369C00BAF1030F04D0022A07D1BAF1010FEBD112
:1036AC0059462046FFF714FDE6E7032AE4D1BAF1A8
:1036BC00020FF4E795FAA5F3B3FA83F304FA03F2D5
:1036CC009B0003F1804303F5C04325EA0205D3F8C0
:1036DC001005D3F81015C0F30420C1F30141FFF716
:1036EC00F7FC002DE6D103B0BDE8F08F006100407F
:1036FC000060004020610040A80000200146014805
:10370C00FFF7CCBB04010020F0B5D0F8243187B012
:10371C0004460D46F3B10023C0F82431D0F824310F
:10372C00D0F80431B3B98B68C0F8083302238B602E
:10373C008B68C0F80433D0F860311BB1D0F800327C
:10374C009F0502D4012323626361012385F82E3087
:10375C0007B0F0BDD4F80431002B44D00023C4F8DA
:10376C000431D4F804312B6A5E060AD495F82E3055
:10377C003BB92946204602F0F2FA80F0010085F8A8
:10378C002E002B6A13F0040C3ED105F10C070FCF61
:10379C0001AE0FC695F830E03B68C4F860C13360E9
:1037AC00D4F86031C4F85CC1D4F85C31BEF1000FC0
:1037BC0002D095F82E303BB30023C4F80032AB6036
:1037CC002E4BC4F8083344F30733002B4FEA143262
:1037DC001ADB02F01F015B0901228A406033284981
:1037EC0041F8232010E0C4F84831D4F848312B7B41
:1037FC0023BB05F10C070FCF01AE0FC63B6833603E
:10380C0095F83030002BD8D0D4F8C434C4F8C43474
:10381C00980725D501238DF8003095F830300BB979
:10382C0085F82F302B6A5B0703D595F82E30002BCB
:10383C008ED0D5E900316846984789E74FF400737C
:10384C00C4F8003240F20223AB6003F1CE73C4F82B
:10385C000833AB68C4F804330123A360236277E711
:10386C00590701D50223D6E7DA0701D50323D2E79E
:10387C0095F82E30002BCED00423CCE702029C010D
:10388C0000E100E0F8B50679234D4FF0340C0CFB49
:10389C0006FC05EB0C0494F82D70002F3AD100684F
:1038AC0063604B7B84F832308B7BA76084F830707C
:1038BC0084F82F7084F8333045F80C20CC7BB3B1EE
:1038CC002CB9D1E90043C0F80845C0F80C358B6819
:1038DC00C0F824351AB140F30730FDF779FC3423D6
:1038EC0003FB06550D48012385F82D30F8BD0B68F8
:1038FC0003F01F034FF0A04703F5E07340F20C6C8C
:10390C0047F823C04B6803F01F0303F5E07347F837
:10391C0023C0D5E70248E9E7080500200000AD0BFD
:10392C000500AD0B036802790621C3F80015044BA2
:10393C00342101FB0233022283F82D20704700BF93
:10394C000805002001790C4B0268342000FB013380
:10395C0000210A489960C2F80803D2F8000220F44A
:10396C00BC50C2F80002C2F80015012283F82D20C9
:10397C0083F82F10704700BF0805002002029C013D
:10398C002DE9F047DFF8D0C290F804E00468342346
:10399C0003FB0EC31746002283F82E204B680D46FE
:1039AC004BB1CB6803F06043B3F1005F03D0AB4E77
:1039BC003046BDE8F0873426A94BC4F8083306FB23
:1039CC000EC696F82F3003F0FF0A23B1B368C4F883
:1039DC000433A44EECE717F0140F0CBF01230023A3
:1039EC0086F82F30A946B9E80F0006F10C08A8E8B4
:1039FC000F00D9F80030C8F80030C7F3001386F870
:103A0C00303037626B78C4F88835C4F804A1D4F828
:103A1C000431C4F824A1D4F82431C4F860A1D4F83A
:103A2C006031C4F848A1D4F8483117F0010318BF2D
:103A3C000123C4F8503517F0020318BF0123C4F852
:103A4C0040352A78032A00F2B580DFE802F084A022
:103A5C0069022B6903F06041B1F1005FA7D14FF40B
:103A6C008071C4F80012E8686968C4F84405C4F8A9
:103A7C0048150021C4F85011D4F8500101202062DF
:103A8C00A060D4F850010028FBD0C4F85011D4F831
:103A9C005011A968C4F84435342303FB0EC3C4F891
:103AAC0048154FF48021996008236F4E390706D4CE
:103ABC00032A04D00122E2506B6803B962613423FB
:103ACC0003FB0EF30CEB03015CF80320002A74D10A
:103ADC000121D4F84831D4F80401002840F0888042
:103AEC00003B18BF0123D4F82401002800F0868085
:103AFC00C4F82421D4F82401D4F86051D4F800027D
:103B0C0015B110F4007F04D121626161002DE0D069
:103B1C000023C00572D5C4F84821D4F84831D8E741
:103B2C006B68E968C4F84415C4F848352B6903F090
:103B3C006041B1F1005F7FF43AAFA968C4F8343545
:103B4C004FF48453C4F83815C4F80032342303FB03
:103B5C000EC3022112E06B68E968C4F8441517F033
:103B6C00200FC4F848354FF034030BD04FF480715C
:103B7C00C4F8001203FB0EC34FF48021996001239B
:103B8C00236291E74FF40071C4F80012DFE76B6811
:103B9C00E968C4F83415C4F838354FF48053C4F8C8
:103BAC000032342303FB0EC30221996001232362EC
:103BBC0000237AE72D4E082378E77A0744BF0023C9
:103BCC008B607B0606D4342303FB0EC39A6842F049
:103BDC0002029A60342303FB0ECCDCF8083043F469
:103BEC000073CCF80830DCF80830C4F80433DFE696
:103BFC00C4F80421D4F80431012374E7002B3FF4FA
:103C0C0068AF3421D4F8C434C4F8C43401FB0EC2F8
:103C1C00002082F82F008BB1154A164E13F0010FBD
:103C2C0018BF164613F0020F02F1010218BF164618
:103C3C0013F0040F104B18BF1E46B9E67B063FF578
:103C4C00B7AE0EFB01C1204602F089F8094B0028E3
:103C5C0008BF1E46ACE600BF080500200A00AD0BED
:103C6C0002029C010B00AD0B0000AD0B0400AD0B70
:103C7C000000AE0B0100AD0B0200AE0B0149024877
:103C8C00FFF742BD080500200030004002494FF00C
:103C9C004020FFF739BD00BF3C0500202DE9F04165
:103CAC0000F01F0001F01F0601244FF0A04504FA9C
:103CBC0000F806F5E07200F5E07040F20D63B440D8
:103CCC00C5F80885C5F8084545F8203045F8223078
:103CDC00042002F02AF80927D5F810351C420DD122
:103CEC000420C5F80C8502F020F8013FC5F80885C2
:103CFC00042002F01AF817F0FF07EDD14FF0A045A1
:103D0C000420C5F80C4502F010F8C5F8084504204D
:103D1C0002F00BF8D5F81015034821FA06F606F058
:103D2C000106801BBDE8F0810100AD0B10B5144CF1
:103D3C00144A1549032323616361144BA261E361A7
:103D4C004FF4806323620023A3626362E362226602
:103D5C000F4A6266E01D1022A2662367E366636762
:103D6C0001F0F5F9BFF35F8F0A49204601F0EFF936
:103D7C00BFF35F8F2023A371BFF35F8F10BD00BF14
:103D8C00700500204A690000536900009C06002061
:103D9C008C0600205769000070B5164B182400FBE8
:103DAC0004451D4404FB00331646DC6A012C0ED07E
:103DBC00022C18D0E4B9284602F001F8864204D847
:103DCC003246284602F004F83446204670BD284698
:103DDC0001F0F5FF8642344628BF044622462846A9
:103DEC0001F0F6FFF1E72846BDE8704002F00EB88E
:103DFC000024EAE7700500200E4B70B553F8204004
:103E0C00013053F82060A64200D870BDD4E90035CB
:103E1C002846984765B1EB6830B10028B8BF4042DE
:103E2C00FF28A8BFFF2018705A7842F001025A7080
:103E3C000834E8E74867000070B5054610B900245F
:103E4C00204670BD0378002BF9D00E4C0E4EB442B8
:103E5C0008D10C4CB442F2D0204602F00BF850B909
:103E6C001834F7E7204602F005F810B12368AB428E
:103E7C00E6D01834EBE72168284601F082F90028D7
:103E8C00EED1DDE7386200008863000030B5002316
:103E9C0087B00122CDE904230F22CDE90232019330
:103EAC000C4C0D4B0D49182204EBC01402FB0033D3
:103EBC004FF4B075009305FB0011094B4FF4A07241
:103ECC00204600F0A7F8637B23F00403637307B06C
:103EDC0030BD00BF7002002018060020C00E00206C
:103EEC009541000008B50A4B012202201A70FFF719
:103EFC0083FF00F061FF0320FFF77EFF00F0E8F87E
:103F0C00FCF754FA034A137B23F00103137308BD27
:103F1C009C0A0020F00200200248034A0021121AD9
:103F2C0001F046B948010020A00A002080B5DFF856
:103F3C00C480A6B088F308882F4D304E6B69DFF82B
:103F4C00C09043F4007300246B61E02385F82230A9
:103F5C00EC772C766C76AC7685F820406B6A43F463
:103F6C00E0236B6285F82340FDF742FBFDF712F965
:103F7C004FF0FF33AB62EB62FDF718FCFDF780FBF3
:103F8C0040F20113ADF8243006ABB360CDE91F4409
:103F9C00229401F06EFF2046FFF72EFF0120194DF1
:103FAC00FFF72AFF00F09CFC174B059301231749E0
:103FBC000094CDE903434FF480624B46CDE90144B4
:103FCC002846F56100F026F86A7B074622F00402C9
:103FDC0028466A7301F0FCFF2046FFF757FF0C4B95
:103FEC00F3604A46394628463475C6F80480FDF716
:103FFC00D3F900BF4018002000ED00E018060020A7
:10400C00F13E0000F00200205E690000A00A0020D2
:10401C00700200202DE9FF410E9E067304264673A4
:10402C000D9E867300F158050F46D61DC0E9165536
:10403C000C9A002526F007062037C0E90655C0E982
:10404C0019768560C573C56606F1200802920B9A35
:10405C00019288440A9A009242460446FDF76AF996
:10406C00044B65659B6803B11B6F2367404604B026
:10407C00BDE8F08118060020F0B587B00027059741
:10408C00109F04970F9F03970E9F0297DDE912650F
:10409C000D9F01970C9F00970446FFF7BBFFB5F1EE
:1040AC00FF3F08BFB6F1FF3F05D055EA060305D127
:1040BC00204600F057FB204607B0F0BD03493246BE
:1040CC002B4604F1180000F089FDF4E7FD5F0000B9
:1040DC002DE9F043294C2A4D87B02646AE4204F117
:1040EC0030040FD300F05AFA244CDFF898904FF4B8
:1040FC00004640F2E737AC4220D307B0BDE8F043AE
:10410C0000F0D2BB54F8043C059354F8103C0493D3
:10411C0054F8143C039354F8183C029354F81C3C88
:10412C00019354F8203C009354E90C0154E90A2300
:10413C00FFF770FF54F8303C5E65CEE7636A5A1C9B
:10414C000DD023EAE37300213846C3FB060151EA84
:10415C00C333D4F8008004D1404600F003FB303464
:10416C00C9E74FF47A720023FBF7B2FF02460B4605
:10417C0008F11800494600F031FDF0E74801002035
:10418C0048010020FD5F000008B50B4C0B4D4FF0B3
:10419C002002EFF3118382F31288BFF36F8F01F0CB
:1041AC00BEFF2B78A06113B9FCF7FAFFEFE7FCF721
:1041BC0019FF0028EBD1F7E7180600209C0A002015
:1041CC0038B504464FF02003EFF3118583F31288C2
:1041DC00BFF36F8F01F058FF48B10022826701F0E6
:1041EC00F7FE29460548BDE8384000F0C5B9D4E9CA
:1041FC0002329A4218BF0133A360F2E79D0A0020F5
:10420C0013B54FF02004EFF3118184F31288BFF340
:10421C006F8F846844B1013C846081F31188BFF3D3
:10422C006F8F002002B010BD52EA030406D181F357
:10423C001188BFF36F8F6FF00F00F3E7CDE9002308
:10424C000246024800F0EAFAECE700BF9D0A0020A3
:10425C002DE9F04F474E85B004464FF0FF384FF034
:10426C00FF394FF02003EFF3118783F31288BFF36C
:10427C006F8FD4F880508DB9022104F1980001F0B1
:10428C003CFE002835D10023CDE90089029304F1CE
:10429C0088023946384800F029FCE2E7D4F884203B
:1042AC002B68C4F88030954201D1C4F88430D4F81E
:1042BC00983043F00203C4F89830EB6823F0040301
:1042CC0043F00103EB606B6887F31188BFF36F8FCA
:1042DC00284698474FF02003EFF3118B83F3128895
:1042EC00BFF36F8FEB68990723F001020BD4EA60E0
:1042FC000EE004F1900500220121284601F0DCFEBD
:10430C000028F8D1BFE7306823F00303EB6070B9E5
:10431C00D4F8983023F00203C4F898308BF311884A
:10432C00BFF36F8FD8059CD400F0E6FA99E700270D
:10433C00D0F800A03B464268954201460CD101687A
:10434C0097B972683160824200D1716040F8083BC5
:10435C00FFF736FF39460023BAF1000FD8D050468C
:10436C000F46DAF800A0E6E772683960904208BFA1
:10437C007760EBE7400600209D0A0020F8B5C36883
:10438C009A0704460E46C3F340051FD45F071FD49B
:10439C000A680AB982680A60D80744BFA368336008
:1043AC0037684CBF022501257FB31B4B9B68BB4272
:1043BC0011D101F090FD80F00100C0B2D7F8983017
:1043CC00D907C3F3800223D53AB140B96FF00F057A
:1043DC000023336013E00020F0E71B07F6D4002322
:1043EC002360D7F8843063B9C7E92044384601F01C
:1043FC008FFDE36843F00403E3603368A360284651
:10440C00F8BD1C60C7F88440F0E76FF01505DFE7D6
:10441C006FF01205DCE700BF18060020F0B589B07C
:10442C0004460020C4E920000E9D04F18800C4E974
:10443C00220004F19000C4E924001DB3287900285F
:10444C0040F2011008BF0120C4F8980000204FF082
:10445C00FF364FF0FF37CDE90330CDE90100CDE950
:10446C000667094B00942046FFF706FE25B1296824
:10447C0011B1204601F035FD204609B0BDE8F040F1
:10448C0001F032BD0120DFE75D42000013B5019061
:10449C0008464FF02001EFF3118481F31288BFF32B
:1044AC006F8FC16811F00E0F16D153EA020C08D1B0
:1044BC0001A9FFF763FF84F31188BFF36F8F02B07C
:1044CC0010BD41F00801C1600199816210300349AF
:1044DC0000F084FB0120EEE70020ECE72B5F0000EE
:1044EC0001460148FFF7D2BF7803002010B5084CF5
:1044FC0023685BB1FEF768FB03462068054A03445A
:10450C00BDE810401361002101F019BE10BD00BFC1
:10451C005006002018060020F8B504460D464FF052
:10452C002003EFF3118683F31288BFF36F8F0F4BC9
:10453C0000214FF4004740F2E73019614FF47A72D2
:10454C000023E4FB0701FBF7C3FD002C084B09DC3F
:10455C001860084B1D60FFF7C9FF86F31188BFF385
:10456C006F8FF8BD0228B8BF0220F1E718060020B3
:10457C00500600204C06002049B9EFF3058030B9F5
:10458C00054BDA699B689A4201D0FCF77FBE81F338
:10459C001188BFF36F8F7047180600204FF020036F
:1045AC00EFF3118183F31288BFF36F8F044B9A687A
:1045BC00D37B013BD37381F31188BFF36F8F7047AB
:1045CC001806002038B502460C480D4D01F0FAFCD7
:1045DC00044600B9EC68AB684AB95A7BD20606D1DE
:1045EC00A26922B9DA897F2A01D9EB6138BD9C42D4
:1045FC0001D0FFF77BFFEC61F8E700BF3806002025
:10460C001806002070B590F90D20437B002A014656
:10461C0004DA03F07F03437301F0ACFC4B7B154AC7
:10462C0063F07F034B73D2E9083402F12005AB42EF
:10463C001BD0D3B191F90E6093F90E0086420FD0C6
:10464C00801B00280CDD5868C1E9003001605960FE
:10465C009068431A5842BDE870405841FFF7B2BF0A
:10466C00A34202D01B68002BE6D1C1E900542160A3
:10467C005162EDE71806002038B501464FF02003D3
:10468C00EFF3118483F31288BFF36F8F154B164A27
:10469C0098681568A84206D1FFF728FF84F31188A3
:1046AC00BFF36F8F38BD00251560104A1268BAB180
:1046BC00C2897F2A14D8427BD20611D10C4A90F9B8
:1046CC000E50126895420BDB0A4A904208D01A69C8
:1046DC008A4202DCFFF796FFDEE7521A1A61DDE729
:1046EC000022FBE718060020480600205006002098
:1046FC004C0600207002002070B490F90D20437B12
:10470C00002A2ADBDA0628D1826932BB144A63F00C
:10471C007F034373D2E9083402F12005AB4217D072
:10472C00B3B190F90E6093F90E108E420BD0891B29
:10473C00002908DD5A68C0E900321060586070BC6E
:10474C000020FFF73FBFA34202D01B68002BEAD129
:10475C00C0E9005420605062F1E770BC704700BFA4
:10476C001806002010B54FF02002EFF3118482F3ED
:10477C001288BFF36F8F427B510704D484F31188E6
:10478C00BFF36F8F10BD22F004024273FFF7B4FF2A
:10479C0021460248BDE81040FFF7EEBE9D0A0020FE
:1047AC0008B590F90D20437B002A014604DA03F08A
:1047BC007F03437301F0DEFB044B9868431A5842A5
:1047CC005841BDE80840FFF7FDBE00BF18060020A9
:1047DC002DE9F041064615461C464FF02003EFF339
:1047EC00118783F31288BFF36F8F01F023FC87F3DB
:1047FC001188BFF36F8FB4F1FF3F08BFB5F1FF3FD6
:10480C0008D02A46234606F118000349BDE8F041BA
:10481C0000F0E4B9BDE8F081FD5F000010B5074B76
:10482C009868074B0C4618601146DDE90223FFF728
:10483C00CFFF2046BDE81040FCF728BD180600202D
:10484C004806002070B50446183001F052FC4FF0B9
:10485C002003EFF3118683F31288BFF36F8F94F963
:10486C000D20637B002A05DA03F07F036373204677
:10487C0001F080FB0B4D637BA86843F0100363735E
:10488C00031B58425841FFF79DFE86F31188BFF376
:10489C006F8FAB68A34203D1BDE8704001F088BBB9
:1048AC0070BD00BF1806002010B54FF02003EFF3C9
:1048BC00118483F31288BFF36F8F084B9A68D37BF4
:1048CC000133D3730020FFF77DFE84F31188BFF30F
:1048DC006F8FBDE8104001F06BBB00BF18060020C5
:1048EC00044B002103F12002C3E908220846FFF71C
:1048FC0013BE00BF18060020F8B54FF02003EFF3ED
:10490C00118583F31288BFF36F8F1A498868437B34
:10491C0003F07F03437301F02DFB8B685A7B084631
:10492C0062F07F025A7350F8202F82421CD0DAB109
:10493C004F6A93F90E6092F90E40A6420FD0A41B59
:10494C00002C0CDD5168C3E900210B605360012081
:10495C00FFF738FE2846BDE8F840FCF797BCBA4292
:10496C0002D01268002AE6D14A6AC3E90002136039
:10497C004B62ECE71806002050EA01032DE9F041E8
:10498C0005460E4603D1FFF7B7FF002033E06FF06A
:10499C000104241A4FF0FF3363EB0103012C73F174
:1049AC00000302DA01F0E5FB44194FF02003EFF3AA
:1049BC00118883F31288BFF36F8F104F104BB868B8
:1049CC001860FFF7EDFEB8680E492A4633461830DA
:1049DC0000F004F9BA68537B43F01003537340465C
:1049EC00FCF754FC01F0C5FB201A63EB0303012810
:1049FC0073F10003C9DBBDE8F08100BF180600208D
:104A0C0048060020FD5F0000B1F1FF3F08BFB0F188
:104A1C00FF3F08B506D1084B9868FFF713FF4FF01E
:104A2C00FF3008BDFFF7A8FF4FF47A7380FB030338
:104A3C00C00B40EA4340F4E718060020014B98688D
:104A4C00704700BF180600202DE9F04104464FF0D6
:104A5C002003EFF3118683F31288BFF36F8F437B30
:104A6C001A0705D586F31188BFF36F8FBDE8F08167
:104A7C0023F0200242F00801D20920D14173A3682F
:104A8C0013B1204601F07EFA04F1180001F031FB5D
:104A9C0004F158074FF00008A56DBD4200D0B5B920
:104AAC000120FFF78FFD104B9B68A342DAD1EFF387
:104ABC000583002BD6D13046FCF7E8FBD2E703F098
:104ACC005F0343F00803437301F054FAD7E7284619
:104ADC0001F058FA05F1180001F00BFBC5F87880CD
:104AEC002846FFF709FED7E718060020D3B5DDE905
:104AFC000667089CCDE90067FFF790FE1CB1034BDD
:104B0C009B685B69236002B0D0BD00BF1806002013
:104B1C0008B50648064A0749121A00F03EFBBDE8E4
:104B2C000840054A0549064800F037BB0000002044
:104B3C0048010020B069000000000000B0690000CE
:104B4C0000000020034B1B680BB9FEF73DB800209A
:104B5C00704700BF54060020114B10B51C689C42D6
:104B6C0008BF0024FFF7EEFF03466CB1D4E9040242
:104B7C00C01A62EBE373012873F100020DDBB0F194
:104B8C00004F73F1000301DB6FF00040054B1B6914
:104B9C0013B19842A8BF184610BD0020F6E700BF1D
:104BAC00080100201806002030B5036868B10A4AD5
:104BBC005268904209D043B1D3E90421D0E90445AD
:104BCC00121941EB0501C3E90421426813605A60D4
:104BDC000023C0E9003330BD08010020B3F1FF3FD2
:104BEC0008BFB2F1FF3FF8B504461F46154667D023
:104BFC0081604FF02003EFF3118683F31288BFF32B
:104C0C006F8F6FF00102531B4FF0FF3C6CEB0703EF
:104C1C00002B1BDB2B4BD3E90013521A6CEB030359
:104C2C00551B63EB0703012D73F10002BCBF01257B
:104C3C000023C0E904532448D0E9003C834218D136
:104C4C00C4E9000CCCF80040446026E0FFF77AFF82
:104C5C00013547F100072D1847EBE077C4E90457FD
:104C6C00E9E7521A65EB07059C45C4E90425E7D032
:104C7C001B68002BE4D0D3E90417D4E904258A423D
:104C8C0075EB070EEDDA8A1A67EB0505C3E9042507
:104C9C005A68C4E9003214605C60036883420BD02C
:104CAC009C4209D1FFF758FF18B1084B1B6983428E
:104CBC0002D00021FDF756FF86F31188BFF36F8FEA
:104CCC00F8BD00BF7003002008010020180600206A
:104CDC002DE9F8430546FFF7CFFC4FF02003EFF327
:104CEC00118483F31288BFF36F8F244EDFF890800A
:104CFC003560244DD8F8000032684045D5E9001ED7
:104D0C004FEAE2770BD050B1D0E9043C9A4277EBF2
:104D1C000C0916DA9B1A6CEB070CC0E9043C521810
:104D2C004EEB0707C5E9002700253560FFF714FF98
:104D3C002946FDF717FF84F31188BFF36F8FBDE889
:104D4C00F88359184EEBE377D31A33600022002313
:104D5C00C0E90423C5E90017FFF726FF84F3118887
:104D6C00BFF36F8F836898474FF02003EFF31184E4
:104D7C0083F31288BFF36F8FBCE700BF540600208B
:104D8C00080100207003002010B54FF02003EFF352
:104D9C00118483F31288BFF36F8FFDF715FF054A5B
:104DAC00D2E90031C01841F1000184F31188BFF33E
:104DBC006F8F10BD70030020024A0349034800F0B6
:104DCC0045B800BFCC680000636900007F69000033
:104DDC001FB5094B029302AB002400930749084806
:104DEC008DF80C404FF0FF334FF48062FFF716FB49
:104DFC00204604B010BD00BFA6690000401800207A
:104E0C0078030020704783681B691847034658B124
:104E1C00426802F00302012A03D0032A04D102687B
:104E2C0012B10020986070476FF01500704742680F
:104E3C00816002F00302032A4FF0000203460CBF0C
:104E4C00006810465A607047002070470FB407B5D1
:104E5C0004A951F8040B0191FBF786FB03B05DF834
:104E6C0004EB04B07047038B13F0070305D1036800
:104E7C00002B0CBF002003207047022B05D1438B65
:104E8C00002B14BF002004207047012B05D10368B0
:104E9C00002B0CBF002005207047002070472DE927
:104EAC00F0410D4607461946281D90461E46FFF751
:104EBC00BEFF044638B13346424629463846A4461E
:104ECC00BDE8F0416047BDE8F08110B44FF020041C
:104EDC00EFF3118284F31288BFF36F8F416110BC22
:104EEC000121FBF74FBB10B50C4640B139B1081D81
:104EFC00FFF78CFF28B9A36833F0030301D06FF0E0
:104F0C00150010BD38B50C46054658B151B10B68AB
:104F1C0043B14B6833B11C22002100F049F92C61DC
:104F2C00002038BD6FF01500FBE770B504460E4647
:104F3C00FFF7D9FF051E31DB4FF02003EFF3118192
:104F4C0083F31288BFF36F8F638B208B4FF6FF7543
:104F5C00AB4200F007022ED0022A0ED1013363833C
:104F6C001546012381F31188BFF36F8FB3B1002372
:104F7C0031462046FFF793FF10E0830701D0062A45
:104F8C000ED100233360636893B9C4E900661546FB
:104F9C0062B90A4620460221FBF7F4FA284670BD96
:104FAC00052A0CBF6FF085056FF004050023D9E7C7
:104FBC001E606660EBE76FF00A05F7E710B54FF07F
:104FCC002003EFF3118283F31288BFF36F8F048BEE
:104FDC0004F00704022C0AD0012C0CBF6FF0040063
:104FEC006FF0850082F31188BFF36F8F08E0438B5D
:104FFC00013B9BB2438323B92146FBF7C3FA2046FE
:10500C0010BD2046EEE74FF02002EFF3118382F340
:10501C001288BFF36F8F00680B60704738B5046857
:10502C00002CBCBF00240460002B0D4611469DF8DB
:10503C0010200CDA03600122046885F31188BFF399
:10504C006F8F11B10020FFF72AFF204638BD04688E
:10505C001AB1013404600222EEE7013CFAE704467F
:10506C0008B5084611461A46A047FFF7E7FCFCF7BF
:10507C00F5FA2DE9F84F9A46D3786F2B80460F46F8
:10508C001546A3F1410B29D024D8582B14BF0A265E
:10509C001026DDF828903246002340463946FBF7AF
:1050AC0017F8092AD4B21ED83034B045E4B277F1DF
:1050BC00000309F8014D01D3D14511D82B789B067B
:1050CC0005D5082E15D1AB7843F00803AB704846D4
:1050DC00BDE8F88F03F0F703702BD7E70826D8E765
:1050EC0080460F46D7E7BBF1190F94BF37345734BE
:1050FC00DBE7102EEBD1AB7843F01003E6E72DE99C
:10510C00F0410746884615461E461446B442A4EBA9
:10511C00050002D33EB923782BB114F8010B41469C
:10512C00B8470028F2DABDE8F081704700F0B8BE4D
:10513C000146006800F0B4BE00210120FFF7F6BF65
:10514C0008B5FCF77BF8BDE80840FCF75BB9013902
:10515C00034611F8012F0AB91A70704703F8012B96
:10516C00F7E7034600201A5C02B970470130FAE7F2
:10517C00034600201A5C0AB1884200D17047013006
:10518C00F8E7431E013913F8012F11F8010F824281
:10519C0001D1002AF7D1101A704710B5431E0A44EA
:1051AC00914200D110BD11F8014B03F8014FF7E704
:1051BC00C9B202440346934200D1704703F8011B65
:1051CC00F9E74FF0FF3070474B68012B07DD0B6898
:1051DC0018700B6801330B604B68013B4B6000206F
:1051EC00704784B004AB03E907009DF80430062B2C
:1051FC0008D14FF080430122C3F80025BFF34F8F35
:10520C0020BFFDE704B0704784B004AB03E907008E
:10521C00002383F31188BFF36F8F04B070470369C9
:10522C00C9B20C2201FB0233186C00F00700704766
:10523C004FF02003EFF3118283F31288BFF36F8FCB
:10524C00036803F0C00343F00203036082F3118888
:10525C00BFF36F8F7047034670B50069C9B24FF04A
:10526C002004EFF3118684F31288BFF36F8F0C25A3
:10527C0005FB0104246C14F0C00401D0A24210D12F
:10528C0005FB010001220264002086F31188BFF3A4
:10529C006F8F28B95B6803EBC1014B6898470020FE
:1052AC0070BD4FF0FF30F0E78022FFF7D4BFF8B5A8
:1052BC00069F04690546C9B24FF02000EFF3118C2C
:1052CC0080F31288BFF36F8F0C2606FB0146306CFF
:1052DC0000F0070EBEF1010F11D1376400268CF3DC
:1052EC001188BFF36F8F46B90C2000FB0144C4E951
:1052FC000E236B6853F8313098473046F8BD00F0F8
:10530C00C000874214BF4FF0FF366FF07706E6E718
:10531C0013B580240094FFF7CAFF02B010BD0069DA
:10532C0010B4CBB21C2403FB0400002110BC1047AA
:10533C000020FDF753BE1046FEF742BF43685B6882
:10534C00D3F810350B600020704743685B68D3F8C6
:10535C00040542400A404240C3F80425002070472F
:10536C0043685B680020C3F80815704743685B68A6
:10537C000020C3F80C15704743685A68D2F80435FE
:10538C004B40C2F80435002070470369586830B5AB
:10539C0058B10024814212D108689D6854B98D42DD
:1053AC00586000D19860002008606AB9002030BDB8
:1053BC002846EFE78D42206008BF9C60F3E7056844
:1053CC000446002DF4D13AB198685A680A605960C5
:1053DC000028EBD19960EAE76FF01500E7E7B2F52A
:1053EC00005F14BF6FF0850000207047FEF708BF08
:1053FC001FB5CDE9011202228DF80C20826801A99B
:10540C0094680122A04704B010BD07B58DF80420A4
:10541C001A0A8DF805208DF8063003220B4601A9D7
:10542C00FFF7E6FF03B05DF804FB2DE9F8430546F2
:10543C0089461446984600F04EFD08BB6F682D69EE
:10544C0005F120064FF0FF324FF0FF333046FFF7E7
:10545C00CDFF288B3989444004EA090484EA080406
:10546C004440A4B2686823461022FFF7CEFF0746DB
:10547C0000B92C833046FEF7A3FE3846BDE8F8830E
:10548C006FF00A07F9E700220B461146FFF7CDBF74
:10549C0000231A46FFF7C9BF0A460023FFF7C5BF12
:1054AC000023FFF7C2BF30B587B00C4600218DF842
:1054BC000410118849BAADF80510518849BAADF8F5
:1054CC000710918849BAADF80910D18849BAADF8DE
:1054DC000B10118949BAADF80D10518949BAADF8C4
:1054EC000F10918949BAADF81110D189128A05466D
:1054FC0049BAADF8131051BAADF815106068298986
:10550C0063B113461022FFF780FF28B92B8960681E
:10551C00112201A9FFF76CFF07B030BD0B46132217
:10552C0001A9F7E72DE9F341466805697068FEF7B4
:10553C0083FC6860002861D033894FF07D08122706
:10554C00022201A98DF804808DF80570FFF750FF39
:10555C00044600284AD13422686833898DF8052026
:10556C0001A902228DF80480FFF742FF04460028AF
:10557C003CD100216320FFF747FA3A46214605F15A
:10558C000800FFF715FE4EF2E0031E222B83AC83BE
:10559C00AC77686833898DF8042040228DF805209B
:1055AC0001A90222FFF724FF27460446F0B92B8BF2
:1055BC00318968681022FFF728FF0446B0B9EB8ADE
:1055CC00318968680E22FFF720FF044670B91F224C
:1055DC00686833898DF8042098228DF8052001A97C
:1055EC0002228DF80670FFF703FF044605F1200038
:1055FC00FEF7E6FD204602B0BDE8F0816FF0150421
:10560C00F4E72DE9F74FD0F804A004690D461746CE
:10561C0000F061FC8346002840F08C8017F4A00F4A
:10562C0040F08B8004F120094FF0FF334FF0FF3234
:10563C004846FFF7DBFE0126638BAE40B6B223FA79
:10564C0005F56FEA0608E9071FFA88F84FD4638A54
:10565C0003EA08026282BA075CD4E389F8064CBFFD
:10566C00334308EA0303E381238AB9064CBF33436F
:10567C0008EA030323822389FA054CBF08EA0303D3
:10568C003343BD052381E38A4ED508EA030378052D
:10569C00E38244D5238B08EA030323834FF0010BE9
:1056AC00B4F81D303A034CBF1E4308EA0306A4F8B5
:1056BC001D605B4604F1080221465046FFF7F3FEDD
:1056CC00054600BB22238DF80430237F8DF805306E
:1056DC00B4F81D3060685BBA0422ADF806300DEBEF
:1056EC000201BAF80830FFF783FE05460BE003EA27
:1056FC000803BAF80810606863832022FFF785FE60
:10570C0005460028A3D04846FEF75AFD284603B0AC
:10571C00BDE8F08F7D070AD5334363829DE73905D9
:10572C00BED5238B3343B8E73343E382B8E76FF03E
:10573C008505E8E76FF00A05E8E76FF08505E5E712
:10574C002DE9F04188B0D0F8048007690D4600F0CF
:10575C00C2FB044678BB07F1200630464FF0FF32FF
:10576C004FF0FF33FFF742FE0DF1050202920122CA
:10577C007868039210230DF106028DF8053007218D
:10578C00B8F80830059202228DF8104006928DF878
:10579C001C1081688C6802A9A047044620B9BDF88A
:1057AC0006305BBA9BB22B603046FEF709FD2046F3
:1057BC0008B0BDE8F0816FF00A04F8E7CA07436847
:1057CC00006905D4C1F34202012A04D0022A0AD08E
:1057DC006FF0150070471B684FF0CC72C3F824258E
:1057EC004162002070471B684FF0C862F6E710B5A5
:1057FC0086B0CDE9032300910121019107230021FB
:10580C008DF808108DF81430836802229C68694664
:10581C005A23A04706B010BD012303FA01F1036916
:10582C001B68194218BF82F0010212B18368DB6851
:10583C00184783681B69FBE7014640F2E73008B55F
:10584C004FF47A72002300EBC1304914FAF740FC94
:10585C00BDE80840FFF7D8B81FB5CDE90112022208
:10586C008DF80C20836801229C6801A95A23A0475B
:10587C0004B010BD37B500238DF807300DF10502CB
:10588C0001230DF107010546FFF7B1FF002810DBDE
:10589C009DF80540E30713D5E0238DF807300DF193
:1058AC00060201230DF107012846FFF7A0FF00288F
:1058BC0002DA6FF0040403E09DF8063044EA032496
:1058CC00204603B030BD10B50A460C460C21FFF73C
:1058DC00A3FF24B13220BDE8104000F050BC1420CE
:1058EC00F9E77FB5056902230024E8688DF80730D5
:1058FC000121CDE90244FFF7E6FF08230DEB03027B
:10590C000DF107012868FFF772FF21460646E8688B
:10591C00FFF7D9FFA6421BDBBDF80830BDF80C2001
:10592C00EA825BBA99B22B82BDF80A305BBA6B8201
:10593C00BDF80E305BBAAB826B7E112B00D851B91F
:10594C0012F0080F14BF00206FF00A0004B070BDF5
:10595C006FF00400FAE72046F8E700691030704752
:10596C0073B506690D46002937D0F0680121FFF7A1
:10597C00AAFF21238DF80730306801232A1D0DF171
:10598C000701FFF734FF0446E0B923238DF80730F5
:10599C00306802232A460DF10701FFF728FF2B88F8
:1059AC005BBA2B80044668B924238DF80730022398
:1059BC00EA1830680DF10701FFF719FF6B885BBA25
:1059CC0004466B80F0680021FFF77DFF337E03F007
:1059DC0070036B71204602B070BD6FF01504F9E7CF
:1059EC0037B505691123E8688DF805300121FFF7FB
:1059FC006AFF02230DF106020DF105012868FFF77D
:105A0C00F6FE00210446E868FFF75DFF002CD8BFC6
:105A1C00BDF80640204603B030BD03460A46006878
:105A2C001979012303FA01F103691B68194218BFA4
:105A3C0082F0010212B18368DB68184783681B6926
:105A4C00FBE730B50469456885B003A92046FFF72C
:105A5C00DAFA297D11F00101034614D101280CD189
:105A6C0005F10C00FFF7D9FF0346002203990092C1
:105A7C002046FFF7D3FA05B030BD002814BF03460B
:105A8C006FF01503F1E70023EFE77FB50569466872
:105A9C000C46284603A9FFF7B6FA034640B9327DF7
:105AAC00D20705D4012106F10C00FFF7B6FF03461F
:105ABC0001220092039922462846FFF7AFFA04B060
:105ACC0070BD00690430FFF779BA00690430FFF744
